:10200000008000202D9A0000159A0000159A00000B
:1020100000000000000000000000000000000000C0
:10202000000000000000000000000000159A000001
:102030000000000000000000159A0000819A0000D6
:10204000159A0000159A0000159A0000159A0000D4
:10205000159A0000159A0000159A0000199A0000C0
:10206000159A000061990000159A0000159A000069
:1020700039990000159A000071990000159A000026
:10208000159A0000159A0000159A0000159A000094
:1020900000000000159A0000159A0000159A000033
:1020A000159A0000159A0000159A0000159A000074
:1020B0000000000010B5064C2378002B07D1054B1B
:1020C000002B02D0044800E000BF0123237010BDA4
:1020D000100300200000000068440100044B10B50C
:1020E000002B03D00349044800E000BF10BDC046E8
:1020F00000000000140300206844010010B50088AF
:1021000003F0A4FD10BD000010B5012003F09EFDFA
:10211000044B01001880044806F072FC0022034BB7
:102120001A7010BD2E030020691C0020300300200F
:1021300010B50D4C2378002B0FD103F0FFFF9F2328
:102140009B01984203D19620800004F039F80020CA
:1021500004F0D4FB237801332370044B22781988D0
:10216000034806F06DFC10BD300300202E03002054
:10217000691C002070B5154E154832000D00002472
:1021800003F01AFFA04216D1310028000CF07CFCAD
:10219000A04210D10F4D280008F05AFB0E4E02004D
:1021A0000A280AD13178280008F069F8202128008F
:1021B00007F0FAFF0124200070BD01222100280051
:1021C00008F0F6FA3070FFF7B3FFF3E7F40101000F
:1021D0007E1B0020744400203003002073B51D4C8A
:1021E00023784F2B1DD81C4D280006F0A4FE002894
:1021F00019D1280006F09CFE0223184005006B1E32
:102200009D41164EEDB2002811D13378002B07D036
:10221000134B21781868002802D00368DB689847C0
:102220003570002076BD06F0C5FD407FE4E70D4B1C
:1022300000221878FF2106F0E9F801AB18700204BB
:102240000002120E000E98705A700199207804F066
:10225000F1FAE5E700000020AC3C0020320300204A
:10226000C41B002033030020FF230A4930B50B7044
:1022700000230948DCB2502B08D05A0012185578B8
:102280001278392A04D1002D02D10C70002030BD03
:102290000133EFE7000000201F04002010B5FFF716
:1022A000E3FF10BD10B5FFF7DFFF10BD002802D01F
:1022B000024B416003600A707047C0461815010068
:1022C000002807D0044B4160036080235B028360D9
:1022D000FF2303737047C046D8170100002807D0BA
:1022E000044B4160036080235B028360FF23037320
:1022F0007047C046C017010010B5044805F0EEFF56
:10230000034B1A68034B1A6010BDC046421C0020E4
:10231000A40300203C03002070B504000D0016004B
:10232000002801D004F000FA2E70200070BD10B516
:102330000368C9B21B68984710BD704710B50524E3
:102340000800220002490BF0F4FD200010BDC04639
:10235000DD02010010B5002802D0022803D010BD14
:1023600004F080FBFBE704F05BFBF8E710B5FFF738
:10237000F1FF10BD10B50E4803F096FC0D4803F0B8
:102380002FFB0D48FFF78AFF0C4804F055FB0C4863
:1023900005F0F0FB0B48FFF7B1FE0B4803F030FFF0
:1023A0000A4805F09BFE0A4805F00EF8002010BD13
:1023B000751B0020701B002031030020C21B002071
:1023C0000A1C002034030020A71B0020101C002042
:1023D000D61B002010B5054803F00CFD044803F09F
:1023E000B7FE044803F068FE10BDC046751B002010
:1023F000A71B00209F1B002010B50448FFF752FFC9
:10240000034801F029FE002010BDC0463103002022
:102410001107002010B5024805F0C4FB002010BDD4
:102420000A1C002010B50D4804F0DEFD0C48FFF733
:10243000D5FE0C4804F0A2FA0B4805F0F3FD0B485A
:1024400002F0D2FE0A4803F0F7FD0A4804F0BAFE93
:10245000094805F019FA002010BDC046D31B002022
:1024600031030020C21B0020101C00201A0800208D
:102470007E1B0020D61B0020E21B002010B5044864
:1024800004F090FE034805F011FA002010BDC0468C
:10249000D61B0020E21B00200420704710B50C0062
:1024A0000349C0000918082220000BF042FD10BDAE
:1024B000BC02010070470000962170B589012848D0
:1024C00008F032FA274A284B28491A600A004B784C
:1024D000DB09FCD1264B274919605378DB09FCD175
:1024E000254B264919805378DB09FCD10922244B5E
:1024F0001A70244B1900DA79D209FCD102321A7011
:10250000CB79DB09FCD101261F4B186800F0B2FB28
:102510000A2003F083FA0A211C4801F08DFDFF21F7
:102520001B4804F087FCFF211A4804F085FC1A4D73
:102530001A4C2B68334203D1200004F01BF92E60A3
:102540008021174BC90000201C6002F009FA80208E
:10255000000101F051FEFFF7D7FDFFF7E9FD70BD67
:102560007444002002040000080C0040000C0040ED
:10257000040C004002031300020C00400342000060
:1025800001100040001000402C1001001107002035
:10259000CE1B0020D01B0020380300209C0300200D
:1025A000B81B002007B51E4BDB79DB0902D1A52241
:1025B0001C4B1A601C4B186800F0DEFB1B4B1C4ABE
:1025C00019681268521A1B498A4201D900221A60FE
:1025D0001B68002B23D0184806F0ADFC002800D063
:1025E00078200022FF2105F011FF01AB18700204D2
:1025F0000002120E000E98705A700199402004F0EB
:1026000019F90199302004F015F90199422004F0DC
:1026100011F90199062004F00DF904F037F907BD0E
:1026200000100040081000402C1001003C03002066
:10263000A403002010270000AC3C002070B504006B
:102640000D00160013780A780100244800F0F4FA0F
:10265000012801D1012070BD33782A78210020485B
:1026600004F010FA0128F5D033782A7821001D48AB
:1026700004F06AF80128EDD033782A7821001A484E
:1026800003F088FD0128E5D033782A782100174827
:1026900005F05CFC0128DDD033782A78210014484D
:1026A00002F050FE0128D5D033782A782100114855
:1026B00001F0D6FE0128CDD033782A7821000E48CB
:1026C00004F0D8FD0128C5D033782A7821000B48C2
:1026D00005F050F9013843425841BCE7A1030020FE
:1026E000C21B0020B41B0020A71B0020101C0020D0
:1026F0001A08002016070020D61B0020E21B00202D
:1027000007B501AB197011006A4607321170190044
:10271000FFF794FF0EBD00000822014B1A8070479E
:1027200034030020F0B5394B85B0019300230390AA
:102730000093374D0399280006F0ABFF01212800D4
:1027400007F004F8FF21019B28001C882140FFF7B7
:10275000EEFD21122800FFF7EAFD280007F053F8EC
:102760000700012007F0A0F9002F4CD1284C039955
:10277000200006F08EFF2000022106F0E7FF254C26
:10278000FEB21037BE421ADA234B009A9B199B5CAB
:102790001F481900029306F0D9FF029B1F4A5C40B4
:1027A00008230120611020408CB2002801D0514044
:1027B0008CB2013B002BF4D10136F6B2E2E7FF21E7
:1027C00028002140FFF7B3FD21122800FFF7AFFDDD
:1027D00000212800FFF7ABFD280007F014F80328BC
:1027E00011D1023807F060F9402FBFD1019B0233AD
:1027F0000193009B40330093B823009A1B019A4237
:1028000097D1012000E0002005B0F0BDD00F0100FD
:10281000A03D0020FFFF00004F04010001A0FFFFCA
:10282000F7B52B4C07000E000100200015000193A6
:1028300006F02FFF0621200006F088FFFF21200070
:102840002940FFF774FD29122000FFF770FDFF23D8
:10285000019920001940FFF76AFD019B2000191221
:10286000FFF765FD0021200006F095FF051E11D140
:10287000642007F019F903223900200006F061FFF7
:10288000200006F0C5FF3070200006F095FE0028FD
:1028900002D1FF252800FEBD200006F0B9FF070089
:1028A000200006F089FE0028F3D0200006F0B0FFDB
:1028B0000190200006F080FE002803D0200006F0E2
:1028C000A7FFF6E7019BFFB21B021F437780E1E7FA
:1028D000A03D002073B5114C06000100032220002A
:1028E00006F02FFF200006F067FE002803D020002E
:1028F00006F08EFFF6E70A4D01AC2900094B3000C7
:102900000422FFF78DFF2900042220000BF011FBA9
:10291000638820881B04184376BDC046A03D002074
:10292000020000207C0B0000F0B55A4A85B006007A
:1029300059480C0003F040FB00230500984222D1C7
:102940000922564920000CF0B8F82B0000281AD1B3
:102950000934534920000CF097F8002816D051494B
:1029600020000CF091F8002849D04F4920000CF0CD
:102970008BF8002845D020004C490CF085F85124F4
:102980002B0000283ED0180005B0F0BD50242F00C9
:10299000474800F027FF2000002F6DD1FFF79AFF76
:1029A0000390C0B2FF285ED002ABDA88414B9A4256
:1029B00059D0414F2100380006F06BFE0421380049
:1029C00006F0C4FE380006F01EFF0190FA208000D9
:1029D00007F06AF8019B002B45D031002000FFF77B
:1029E000A1FE00283FD0354B042203A92000FFF7A9
:1029F00017FF002808D0642007F056F8F3E75124A9
:102A0000C5E750240127C3E7012104228C46294B46
:102A100008262B49895C4B406046591018408BB200
:102A2000002802D0274B59408BB2013E002EF3D133
:102A3000B821013209018A42EAD102AAD2889A4217
:102A400011D12100380006F024FE0321380006F0E1
:102A50007DFE31003800FFF76AFC380006F0D3FE37
:102A600043425841C5B2280003F0C2FA202116485B
:102A700007F09AFB012386E7FFF72CFF0390C0B213
:102A8000FF28F0D002ABD888104BC018431E9841E5
:102A9000E8E7C046090201007E1B00207102010028
:102AA0007B0201008B0201009C0201005F02010019
:102AB000671C0020FFFF0000A03D00207C0B0000F1
:102AC0004F04010001A0FFFF744400200100FFFF3C
:102AD00010B501680400344800F08EF8012801D1D7
:102AE000012010BD2168314802F0F4FF0128F7D021
:102AF00021682F4803F08AF90128F1D021682D4878
:102B000003F0FEF90128EBD021682B4803F0F4FF15
:102B10000128E5D02168294803F0A4FC0128DFD072
:102B20002168274801F0A8FA0128D9D02168254852
:102B300003F08EFB0128D3D02168234800F066FF04
:102B40000128CDD02168214805F03AFB0128C7D0E3
:102B500021681F4802F0D2FD0128C1D021681D481C
:102B600001F098FC0128BBD021681B48FFF7DCFE70
:102B70000128B5D02168194803F032FA0128AFD0F6
:102B80002168174804F0E2FC0128A9D02168154803
:102B900004F07AF90128A3D021681348FFF7EAFA74
:102BA0000138434258419CE7A0030020701B0020DD
:102BB000771B0020761B0020C11B0020B11B0020CA
:102BC00011070020A71B002010070020101C002068
:102BD0001A08002016070020360300207E1B002064
:102BE000D61B0020D21B00202C03002007B501902B
:102BF00001A8FFF76DFF0EBD70B50B4E0B483200FC
:102C00000D00002403F0D8F9A0420AD131002800B9
:102C10000BF03AFFA04204D10549064807F0B5FA87
:102C20000134200070BDC046230401007E1B00203B
:102C30002B0401007444002010B5024803F0AAFAE6
:102C400010BDC046A71B002070B5084D0400280029
:102C500006F071F92100002803D1280006F09EF942
:102C600070BD034806F0C4FAFAE7C046AC3C002049
:102C7000F83C0020962110B58901064807F054FE63
:102C8000FFF75BFBFFF776FB00F02AFE024800F03F
:102C900043F910BD74440020A803002070B5837967
:102CA000457904001D402B0702D5E120FFF7CCFF3A
:102CB000EB0702D5E020FFF7C7FFAB0702D5E22004
:102CC000FFF7C2FF6B0702D5E620FFF7BDFFEB065B
:102CD00002D5E320FFF7B8FF164D280006F02BF9C8
:102CE000E179061E10D100290AD0280006F073F9F8
:102CF000280006F027F9E179280006F04FF9E6717F
:102D0000280006F01FF970BD0B4D00290BD02800DC
:102D100006F089FA280006F01BFAE179280006F08F
:102D200067FA0023E371280006F012FA034806F060
:102D3000CDF9E8E7AC3C0020F83C0020D83C00206E
:102D4000002310B5094CC3718371200006F0F3F81D
:102D5000002803D1200006F067F910BD044806F0F2
:102D60007EFA044806F0A2F9F7E7C046AC3C002022
:102D7000F83C0020D83C002010B506F08FFE094B2F
:102D80001860FFF727FB00F02BFCFFF74BFB064C0E
:102D90002000FFF783FF2000FFF7D2FFFFF76EFB55
:102DA00010BDC046A4030020581C002050235843E7
:102DB000C9B2411806484900091808784A78AF3363
:102DC000184013401B0282B0184302B07047C0463F
:102DD000E302010070B5084AC3B25D00011CD05C7B
:102DE000064B074C1B68984700B22855000464192D
:102DF000000E607070BDC046CF03002008000020A8
:102E00001F0400200300034A1068D8400123184023
:102E10007047C046AC030020F0B5164F85B0502275
:102E2000002138000BF0A1F80025EBB20193502DE2
:102E30001ED00024104B1C5763B2002B16DD0F4B25
:102E4000013C1E5D3000FFF7DDFF0028F4D06A462C
:102E50000B4B11791B683000984703AB1880C0B248
:102E6000FF2802D15B78FF2BE6D07E550135DCE7E9
:102E700005B0F0BDCF03002007000020B003002004
:102E80000800002010B5094B094A1B7898429B4165
:102E900018400123190081401160064A1370064B47
:102EA0001870FFF7B9FFFFF7A7FA10BD0600002062
:102EB000AC03002007000020B0030020134970B5C8
:102EC0000B6801221C00C44014421DD08240104DEA
:102ED00093432C780B6023000E4E3219002B07D041
:102EE00000215156013A884202D0013BDBB2F5E79E
:102EF000591CE21A7118F018013C0BF023F82C70E1
:102F0000FFF78AFFFFF778FA70BDC046AC030020D8
:102F100007000020B00300200123084A10B5116803
:102F200000240B431360FFF777FF201C0134E4B249
:102F3000FFF750FF502CF8D110BDC046AC03002065
:102F400010B50D4B04001B78834213D9FFF75AFFCD
:102F500000280FD10123A340084A11680B431360D6
:102F6000074A1378591C1170064AD454FFF754FFCE
:102F7000FFF742FA10BDC04606000020AC03002057
:102F800007000020B003002010B5054B1A78054B50
:102F90009B18013B18780130C0B2FFF7D1FF10BD7C
:102FA00007000020B003002010B5044B1A78044B32
:102FB0009B18013B1878FFF781FF10BD0700002028
:102FC000B003002013B5C4B201AB1880532C09D94B
:102FD00003231940022904D120005438C0B2FFF75E
:102FE00051FF13BD292C2BD92A3CE4B2212C0DD042
:102FF000222C12D103231940022902D1FFF7C4FF6A
:10300000EFE70129EDD1FFF7CFFFEAE703231940EE
:103010000229F8D00129E4D1F0E78B0708D5200078
:10302000FFF7F0FE0028DCD12000FFF789FFD8E78A
:10303000032319400129D4D12000FFF73FFFD0E737
:10304000032319400229CCD12000FFF7DBFE002822
:10305000EAD0002CE8D0EFE730B585B001AD03042D
:1030600028801B0E03AC442B07D083B223806378E7
:1030700020781B02184305B030BD11000198FFF7FE
:10308000A1FF0023F2E7000070B5074E0D00040019
:103090000100300005F0B4FC611C2870300005F020
:1030A000AFFC6870280070BD691C002010B50400DA
:1030B0000100012006F0B4FF014B1C7010BDC0469A
:1030C000BF040020C3430A49DBB2D93110B50B70ED
:1030D0000849094CD9310B70084B02001870084B95
:1030E0002000198805F0ACFC200005F0ADFC10BDF7
:1030F000C8040020C0050020691C00200E0000202C
:10310000C204002010B504000B4B0C4A0C490D48BA
:103110001B681268096800688EB0029001910092E5
:103120002121094A05A80BF07DFC05A9200008F023
:10313000ECFE20000EB010BD0CA0800040A080006E
:1031400044A0800048A080003010010073B5204DDD
:10315000204C2978200000F085FD29781E4D28009C
:1031600000F080FD1D4B22001B78D932DB43DBB21F
:1031700013702A00D9321370200000F0D3FD06002E
:103180002800F6B200F0CEFD154B012E03D0C0B2E0
:103190000022012800D101221A70220000233932B6
:1031A000137022003A3213700E4A3B3412782370A7
:1031B0009A420CD001AA13809370019803F07EFB11
:1031C000094B1868002802D003685B68984773BDF4
:1031D0000C000020C8040020C00500200E000020C4
:1031E000C404002023000020C41B002010B5FFF7FA
:1031F00069FF00230122044804491A545A54013338
:10320000092BFAD110BDC046B8060020C106002027
:10321000014B18787047C0460E00002070B580241E
:103220000D4E0E4D33786400E95C0320611A0902EB
:10323000013906F0BFFD73780520E95C611A0902C7
:10324000013906F0B7FDB3780420E95C611A090280
:10325000013906F0AFFD70BDCB06002097110100CB
:1032600070B50024104DE6B2635D002B05D031002F
:103270000E4800F093FD002363550D4D635D002B58
:1032800005D031000B4800F089FD0023635501345F
:10329000092CE7D1084C2378002B03D0FFF7BEFFA1
:1032A0000023237070BDC046B8060020C80400206B
:1032B000C1060020C0050020CA060020F7B501ABFA
:1032C0000191832818D81C7859789A78832814D1CA
:1032D0002C4801230578A54207D145788D4204D1B9
:1032E00083789B1A5D1EAB41DBB2274D04702E78AC
:1032F000417033432B708270F7BD244B1D788523BA
:103300005D43234B5B191B5C472B1BD803255D4397
:103310002048214E2D182878DB0884466F78A8783D
:103320002C706970AA70F55C00950125644505D183
:10333000B94203D1121A501E8241D5B2009A1543E8
:10334000F554D9E78F2BD7D80320483B5843134D6A
:10335000DB10401905784778AC46114D867804702B
:1033600041708270E85C00900120644505D1B9424B
:1033700003D1921B561EB241D0B2009A1043E854BA
:10338000BAE7C046CB060020CA060020C4040020CD
:103390003D100100C8040020B8060020C005002030
:1033A000C106002013B501AC83280AD9002323806D
:1033B000A37062782078A37812021B04104318438C
:1033C00016BD0C4B1A7885235A430B4B9B18195C7E
:1033D000472907D803225143084B591820000AF007
:1033E000A8FDE6E78F29E1D8032248395143044B71
:1033F000F3E7C046C40400203D100100C8040020CB
:10340000C0050020012110B5080006F0BDFD002018
:10341000FFF74CFE102006F095FCFFF7FFFE0A2098
:1034200006F042FB0120FFF741FEFA20400006F0C3
:103430003BFB10BDF7B5394F0822390038480AF078
:1034400078FD384C0822210037480AF072FD374ECB
:10345000300000F06CFC002812D03100684600F00B
:1034600095FC0822694638000AF063FD304B1B7852
:10347000012B05D1FA7802331A4201D05340FB7078
:103480002C4D280000F053FC002816D02900684677
:1034900000F07CFC0822694620000AF04AFD244B1B
:1034A0001B78012B09D16278A1781000484018429E
:1034B00003D05A404B406270A3703300D8331B785E
:1034C000002B03D01C4B1B78002B08D02B00D833CB
:1034D0001B78002B05D0194B1B78002B01D1FFF76F
:1034E00035FED8363278002A07D1134B1B78002BD3
:1034F00003D00020002138607960D8352B78002B6C
:1035000007D10E490978002903D00020002120604E
:10351000616009490A70094A1370F7BDD806002096
:1035200000070020F006002008070020C804002043
:10353000C4040020C0050020E8060020F806002092
:10354000F0B5002685B000257300DBB20193204B57
:1035500077193A001868596808F09EFE0223440063
:103560001C401C4B3A001868596808F095FE01226F
:103570000240224307D0002302A90B80019B02983E
:10358000591905F04FF9144B3A001868596808F0BA
:1035900083FE022344001C40104B3A00186859680F
:1035A00008F07AFE01220240224308D0002103AB3A
:1035B0001980019903980F31491B05F033F9013542
:1035C000082DC4D10836282EBDD105B0F0BDC046A7
:1035D000D806002000070020F00600200807002081
:1035E00010B5FFF727FFFFF7ABFF10BDC0B210B556
:1035F0004F280CD80F22012302400009072A07D9BF
:103600001021054C8A1A9340225C9A43225410BD23
:10361000024C0821F6E7C046E0060020D006002054
:10362000C3B200204F2B0BD819000F221B091140E9
:10363000072906D90548C05C521A104101231840D9
:103640007047034AD05C0722F6E7C046E006002038
:10365000D0060020C0B202000F2300091A40072A3A
:1036600006D905499B1A085C184101231840704788
:10367000024B185C1041F8E7F0060020D806002045
:1036800010B5074B1868596808F050FE054B040048
:103690001868596808F04AFE2018C0B210BDC0462C
:1036A000D8060020F006002070B50024064B01214A
:1036B000E55C0134280006F067FC0021280006F0D4
:1036C000AFFC262CF2D170BD97120100014B187887
:1036D0007047C046BF040020481E814110B5C8B2E3
:1036E000FFF7E4FC10BD000010B5024800F00BFB32
:1036F000C0B210BDC804002010B5024800F003FBA2
:10370000C0B210BDC0050020014BE43318787047EB
:10371000C8040020014BE43318787047C00500202E
:1037200010B5024800F0F4FAC0B210BDC804002081
:1037300010B5024800F0ECFAC0B210BDC005002080
:1037400010B5024800F0E9FAC0B210BDC80400206C
:1037500010B5024800F0E1FAC0B210BDC00500206B
:1037600010B50C00034800F087FA2100024800F071
:1037700083FA10BDC0050020C8040020024B187851
:103780000138434258417047C404002010B5024834
:1037900000F07DFAC0B210BDC0050020014B1888B2
:1037A0007047C0460C00002010B50400FFF7AAFCCB
:1037B000200010BD0022002310B50749074C0A6005
:1037C0004B60074920000A604B60FFF7B9FA200000
:1037D000FFF764FA10BDC046D8060020581C002030
:1037E000F006002010B5134C200005F04DFF00201E
:1037F000FFF75CFC0121152006F0C6FB0121142017
:1038000006F0C2FB0021152006F00AFC002114205E
:1038100006F006FCFFF7CEFF0120FFF747FC200073
:1038200005F004FF0449200005F020FF642006F0A5
:103830003BF910BDA03D0020A086010070B5150029
:1038400006000C00127805F0FBF830006A78611C65
:1038500005F0F6F8280070BDF7B5022002F0F6F981
:10386000194E3080012002F0F1F96B46174D9C1D76
:10387000288021003088FFF707FC2288144B154F61
:10388000154C9A4207D131883A002000FFF7D6FF45
:10389000200005F0D9F830883900FFF7F5FB2988BA
:1038A000200005F0ADF80D4EFF2807D1200032783A
:1038B000298805F0C5F8200005F0C6F82988200001
:1038C00005F09EF83070F7BDC0040020C20400204F
:1038D000FFFF00000C000020691C00200E000020EB
:1038E00010B5FFF7B9FFFFF7DFFEFFF78BFD054CC3
:1038F000200005F09BFE0449200005F0B7FEFFF70D
:1039000025FC10BDA03D0020400D030070B5040053
:10391000C5B22900094800F0A5F92900084800F0BF
:10392000A1F9084A084B1480084C19882000FFF7B9
:1039300085FF200005F088F870BDC046C80400204F
:10394000C00500200C000020C0040020691C0020DD
:1039500010B50800FFF7DAFF10BD0000154B00227C
:103960001900D83110B50A701900D9310A70190040
:10397000DC310A6019005820E03108601900E43198
:103980000A70B221F033C90119800B4B01241800D1
:10399000D83002701800D93002701800DC30046092
:1039A00018005834E03004601800F033E43002703E
:1039B000198010BDC8040020C005002010B50122E8
:1039C00004000021024806F0F3FE207010BDC0463E
:1039D0007444002010B5054C0100200006F0E0FB07
:1039E0002021200006F0E0FB10BDC04674440020FA
:1039F00010B5054C01000A22200006F040FC2021F1
:103A0000200006F0D1FB10BD744400207FB57E4A33
:103A10007E480D00002402F0CFFAA04211D1092205
:103A20007B4928000BF049F8A0420AD109357949B1
:103A300028000BF029F8A04206D17748FFF7CAFF0B
:103A40000124200004B070BD744928000BF01CF85C
:103A5000002801D17248F1E7724928000BF014F8F0
:103A6000002810D101A87049FFF79EFE6F4C01A9F4
:103A7000200006F08EFB2021200006F095FB01A817
:103A800008F0FBF9DCE76A4928000AF0FDFF00288E
:103A900014D1664806F0DCFE664C0A2805D12000E9
:103AA000FFF714FEFFF7A4FFCAE701AD2800FFF7F8
:103AB00085FF29782000FFF70FFEC1E75E49280047
:103AC0000AF0E2FF00280FD15C48FFF783FF594C52
:103AD0002000FFF709FEFFF78BFF5948FFF77AFF39
:103AE0002000FFF709FEDDE7564928000AF0CCFF69
:103AF00000280FD15148FFF76DFF4E4C2000FFF713
:103B000003FEFFF775FF4E48FFF764FF2000FFF745
:103B100001FEC7E74C4928000AF0B6FF00280FD184
:103B20004648FFF757FF434C2000FFF7F9FDFFF72A
:103B30005FFF4348FFF74EFF2000FFF7F9FDB1E7B5
:103B4000424928000AF0A0FF00281DD1374806F09E
:103B50007FFE384C0A280ED13848FFF73BFF200083
:103B6000FFF7EEFDFFF744FF3548FFF733FF200076
:103B7000FFF7EEFD96E701AD2800FFF71FFF29785C
:103B80002000FFF7EDFD5BE7314928000AF07CFFDC
:103B9000002808D12448FFF7F1FD2E4B012800D062
:103BA0002D4B18004AE72D4928000AF06DFF002828
:103BB00003D11D48FFF7EAFD74E7294928000AF000
:103BC00063FF0024A04200D03BE7184C200006F021
:103BD0003FFE154D06000A280CD12800FFF7DEFD38
:103BE00032000100200006F03AFB2021200006F000
:103BF000DBFA25E701AC2000FFF7E0FE2178280082
:103C0000FFF7A6FE1CE7C046C61201007E1B00207F
:103C100071020100230401008C13010098130100BC
:103C2000A113010084130100681C002074440020CB
:103C3000AB130100671C0020B6130100BF13010085
:103C4000C5130100CD130100D8130100E1130100D9
:103C5000EE130100BD120100C2120100F5130100B4
:103C6000FB13010007B5022201AB5970E0301900C7
:103C70001A7000F01DF90EBD07B50D2201AB1A70C8
:103C80005970E0300B3A190000F012F90EBD37B54B
:103C90000B236A46E030137069460122040000F0ED
:103CA00007F9002802D0012040423EBDA0239B001E
:103CB000013BFDD101AD02222900200000F03AF9BC
:103CC0000228F0D168782B780002C018EDE737B5EC
:103CD0006B46E030197001226946040000F0E8F8F4
:103CE000002802D0012040423EBDA0239B00013BA2
:103CF000FDD101AD01222900200000F01BF90028B0
:103D0000F0D02878F0E710B50121FFF7E0FF10BDF3
:103D100010B50821FFF7DBFF10BD10B50D21FFF72F
:103D2000D6FF10BD10B50C21FFF7D1FF10BD13B5A4
:103D300004000622002168460AF017F92000062236
:103D4000E030694600F0F6F8831F5A4253412200E2
:103D5000D83213700023062816D16A461278012A39
:103D600012D1694623004978E83319706946897889
:103D7000EC3459706946C978997069460979D970E7
:103D80006B465B7923701300180016BD10B5040054
:103D9000E83108220AF0CDF8200010BD0B00F0B584
:103DA0008DB0803B05AE33700300D9331B7805001E
:103DB000019318234B43029303000124F13303932F
:103DC000029B0199E318013BEB5C0022994201D26E
:103DD0005B1ADAB20D4B03219F5C2000375508F0C7
:103DE00055FA012906D1039B63311878784308F00E
:103DF00067F930550134192CE2D128002200310036
:103E0000E03000F055F80DB0F0BDC04603140100DD
:103E1000F7B5264E0190300005F036FC0121142044
:103E200006F0B2F80121142006F0FAF8012115205D
:103E300006F0AAF80A24152750250121380006F0BB
:103E4000EFF82B00013BFDD10021380006F0E8F827
:103E50002B00013BFDD1013C002CEED121001420B0
:103E600006F0DEF8013DFDD120250121152006F0E8
:103E7000D7F82B00013BFDD10121142006F0D0F82A
:103E8000013DFDD11420210006F07EF8210015200F
:103E900006F07AF8300005F0C9FBFA21019B890091
:103EA000DB883000594305F0E1FBF7BDA03D002061
:103EB000F7B51E4C0E0001682000C9B2170005F0CE
:103EC000E8FB00211A4B0A00FF2518122A409742EE
:103ED00010D9725C01315A4052B2D3B21B015A4020
:103EE000D2B213119C466546D30012026B401043B8
:103EF0004340E8E701AD28703A00310020006B70C4
:103F000005F03AFB002801D10120FEBD0222290064
:103F1000200005F031FB0028F6D00121200005F03B
:103F20003AFC431E9841C0B2EFE7C046A03D0020D6
:103F3000FFFF0000F7B50368244E01910092D9B24B
:103F4000050002320123300005F0BBFB002704000E
:103F5000B84204D12800FFF75BFF2000FEBDFF231D
:103F6000009A3B403000934205D205F051FC019B82
:103F7000D8550137F3E705F04BFC0400300005F09D
:103F800047FCFF26002124022018114A87B20B00AB
:103F900000983340984210D9019B5B5C013153403B
:103FA0005BB2D8B200014340DBB21C11D800121240
:103FB0001B0260401A434240E9E76B461C78BA4254
:103FC000CBD02B79002401332B71C6E7A03D002014
:103FD000FFFF00007047704710B5084B1A78084B78
:103FE0009B18013B1978074B1970074B1B788B42C4
:103FF00003D3064B188802F0F1F910BD070000202A
:10400000B00300201207002013070020140700202F
:1040100010B50A1C054B06491B780978994204D350
:1040200004490888190002F0F3F910BD12070020B6
:10403000130700201407002010B5054C2388002B1F
:1040400005D1044B0800197002F062F9208010BD00
:10405000140700201307002010B5054B02781B78C9
:104060009A4203D1034B1868FFF7B6FF002010BD3A
:1040700022000020C41B002007B5054A054B12781A
:104080001B8805480092054A02F060FA0EBDC04642
:104090001307002014070020B11B002003150100A6
:1040A000FF22014B1A7070471107002010B5010064
:1040B000014804F0A5FC10BD691C0020FA21F8B5E8
:1040C0008900050007F072FFFA2184B289002800F8
:1040D00007F0F2FFFA27A5268DB2BF002800002CBA
:1040E00000D0380005F0E0FC044B013CDB79DB0933
:1040F00001D1034B1E60631CF0D1F8BD00100040DD
:1041000008100040F8B507F0AEFEFA21890005005E
:1041100007F0D6FFFA2104008900280008F0B6F85D
:10412000FA270E00A525BF00002C0DDB3000002C67
:1041300000D0380005F0B8FC044B013CDB79DB090A
:10414000F2D1034B1D60EFE7F8BDC0460010004000
:1041500008100040F7B50024244F254B3E881C80F2
:104160000194244A3B8812889B189E423DDA751CB4
:104170003000ADB2FFF79AFF0D280BD807F002FF11
:10418000280C0C0C0C0C0707070909090E1E023637
:10419000B5B200242E00E4E70336F9E72800FFF764
:1041A00085FF6C1CA4B206002000FFF77FFF0643CA
:1041B0000235F4B2ADB2002CF0D1EBE72800FFF7E6
:1041C00075FF0135ADB204002800002CF7D1E1E7FE
:1041D000019B07490133DBB25A0001933B88EB1A7C
:1041E0008B52002C01D10134D4E7F7BD1807002011
:1041F0001C0700201A07002010B5040001F026FD5E
:10420000034B1880034B1C80FFF7A4FF10BDC04672
:10421000180700201A0700207FB501AC20800E008F
:1042200015008B0710D582B202AB1A80104B822288
:104230001978029804F0F6FA002D05D10D48FEF722
:104240002DFD0D4805F03CF8F30710D5228803AB8F
:104250001A80074B81221978039804F0E3FA002DA5
:1042600005D10448FEF71AFD034805F029F87FBD83
:1042700028150100581C0020443D002073B50E0095
:104280001D001400FFF712FF01AB5E7018702A00CA
:1042900021000198FFF7C0FF73BD0000F0B50027B3
:1042A000694B4900CC5A694B85B018882418A4B2D0
:1042B000651C2000ADB2FFF7F9FE0D2800D9BEE065
:1042C00007F060FEB21B3A4A57626D777CBF071455
:1042D000829C0027002005F0E7FB5D4BDB79DB09C2
:1042E00002D1A5225B4B1A602C00E1E75A48FEF789
:1042F000D5FC5A4804F0E4FFECE72800FFF7D6FEAF
:104300000600A01C80B2FFF7D1FE0090E01C80B236
:10431000FFF7CCFE0190201D80B2FFF7C7FE019B86
:1043200036021902009B01431E43651D89B2B0B2DB
:10433000ADB2FFF7E7FECDE72800FFF7B7FEE51CBB
:1043400002340600A0B2FFF7B1FE3602304380B25D
:10435000ADB2FFF7B3FEBDE72800FFF7A7FE3B00B5
:104360000222E51C02340100ADB2A0B2FFF786FFC5
:10437000B0E72800FFF79AFEE51C02340100ADB259
:10438000A0B23B000122F1E72800FFF78FFEE51CF9
:1043900002340100ADB2A0B200230322E6E73B00E5
:1043A00002220234A4B200212800FFF767FF250093
:1043B00090E70234A4B23B000122F4E70023023468
:1043C000A4B203221900EFE72800FFF76FFE6E1C6E
:1043D000B6B204003000FFF769FE060003AB5C7064
:1043E0001870002203210398FFF716FF0235002002
:1043F000ADB2FFF763FE3443E6D16BE72800FFF769
:1044000055FE002403AB18705C70220003210135B7
:1044100006000398FFF700FFADB22000FFF74EFE45
:104420002800A642EBD155E703F08AFA002806D00F
:1044300003F0DEF9002802D1013003F083FB05B060
:10444000F0BD012746E7C0461C07002018070020E2
:104450000010004008100040581C0020443D00207F
:1044600010B54A78097812028918094A89B28A185F
:1044700092B200247F2A08D8032201341340022B71
:1044800003D15C39C9B2FFF709FF200010BDC04657
:10449000A42D0000F7B53C4A01903C480D0001F006
:1044A0008BFD0023040098425AD107223849280086
:1044B0000AF003FB2300002852D1073535492800B4
:1044C0000AF0E2FA041E36D1334E300006F0C0F98D
:1044D0000A2814D1314B1B88A3422CD9304B1888A1
:1044E0000019FFF7E3FD0A220100300005F0C7FEC6
:1044F00001342021300005F057FEA4B2EAE7300075
:1045000006F0A6F9274F0A2810D00122002130001A
:1045100006F04EF9631C9BB20093214BC2B219887E
:104520003800091904F078FA009CE8E7380004F034
:104530008BFAFFF70FFE1C4928000AF0A5FA011EAE
:1045400007D10122144806F033F9C1B20198FFF7F0
:10455000A5FE164928000AF097FA002802D0012388
:104560001800FEBD0C4C200006F072F902000A286B
:10457000F5D10A4B2000198805F071FE202120009A
:1045800005F012FEEBE7C046291501007E1B002056
:10459000511501000C150100744400201A07002079
:1045A00018070020691C0020591501004A15010058
:1045B00010B5054C01000A22200005F050FE202114
:1045C000200005F0F1FD10BD7444002010B5024834
:1045D00004F03AFA10BDC046691C002070B5074EC1
:1045E0000D0004000100300004F00AFA611C28707C
:1045F000300004F005FA6870280070BD691C0020C6
:1046000070B50E000400064D0A780100280004F081
:1046100017FA28007278611C04F012FA70BDC046C7
:10462000691C002010B50C000100034804F0E8F9F3
:104630002070200010BDC046691C002010B50A780B
:104640000100024804F0FCF910BDC046691C0020BE
:1046500070B5074E0D0004000100300004F0D0F9E1
:10466000611C2870300004F0CBF96870280070BD20
:10467000691C002010B5012204000021024806F048
:1046800097F8208010BDC0467444002010B50A7809
:1046900004780023944205D1437848781B1A584285
:1046A0004341DBB20120584010BD0000F0B59E4CE4
:1046B00085B020889D4A030008339BB200930023F5
:1046C00013709B4A138002AB9D1C2900FFF786FFE5
:1046D0002B88984A984D934200D988E02B802088F7
:1046E00003AD0230290080B2FFF778FF2B88934A90
:1046F000934D934200D185E02B80208802AB9D1D15
:104700000430290080B2FFF769FFF4222B88FF32C2
:104710008C4D934200D984E02B80208802A906307A
:1047200080B2FFF77FFF02AB1B78874DFA2B00D9D1
:1047300086E02B70208802AB5D1C0730290080B218
:10474000FFF770FF2B78814DFA2B00D987E02B7093
:104750000024182625007E4B01941C705C70724F5B
:104760007C4A3B88128808339B18009A9A4200DBE7
:10477000D7E01100784804F043F9012800D0A2E006
:10478000002C00D07AE032006A43744B9B189C7076
:10479000009B02339BB20093052C00D0BDE03F8804
:1047A0003000DA1B624B68439C4664466B001C5B1E
:1047B0006A49121B0E3A544262411024435C1201B2
:1047C000A3431343009A0135D71B6246EDB243540D
:1047D000083F6B009F52019B002B00D0A1E0534A81
:1047E000019C13780133137001230193B7E729006B
:1047F0002088FFF705FFFFF7E9FE20882900FFF773
:10480000EDFE6CE720882900023080B2FFF7F8FE49
:10481000FFF7DCFE20882900023080B2FFF7DEFEC1
:104820006BE720882900043080B2FFF7E9FEFFF72C
:10483000CDFE20882900043080B2FFF7CFFE6CE760
:1048400020882900063080B2FFF7F8FEFFF7BEFE91
:1048500020882900063080B2FFF7E4FE6AE720884E
:104860002900073080B2FFF7E9FEFFF7AFFE20888E
:104870002900073080B2FFF7D5FE69E7012C06D189
:1048800032006A43354B9B180022DA7080E7022C15
:1048900006D132006A43314B9B1800221A7177E728
:1048A000032C06D132006A432C4B9B1800225A710C
:1048B0006EE7042C00D06BE732006A43274B9B184D
:1048C00000229A7164E7002C06D132006A43234B20
:1048D0009B1801229A705BE7012C05D132006A43D4
:1048E0001E4B9B18DC7053E7022C05D132006A4343
:1048F0001A4B9B180122D1E7032C05D132006A43E1
:10490000164B9B180122D2E7042C00D040E732005E
:104910006A43124B9B180122D3E70134E4B200230F
:1049200063E705B0F0BDC04620080020290800203C
:104930002C080020CF07000018000020FFFF000017
:10494000160000201000002013000020140000209A
:104950002508002022080020691C00202C090020C6
:1049600070B505000800083080B20C0001F06EF947
:10497000044B1880044B1C80044B1D70FFF796FEFF
:1049800070BDC04620080020220800202C15002001
:1049900082B0F0B58DB0061C03AD288004041393DB
:1049A000F3B20093230E0193244B68461D78002335
:1049B000009F12922437224AC172FFB29D4205DD48
:1049C0005901515CB94233D00133F7E704AC0021FF
:1049D0002022200009F0C9FA05AB12AA43CA43C33A
:1049E00043CA43C3322D23D0164B27701A680023C5
:1049F0006371E372E3812382A3746B461B78A28107
:104A000023776B461B796A0163776B46DB7A013546
:104A1000A3770B4BD218130007CC07C307CC07C3EF
:104A200022681A60A2889A80A2799A71034B1D703D
:104A30000DB0F0BC08BC02B01847C0461B080020EF
:104A400030150020A4030020F7B5002501AA154E5B
:104A5000031C108024333478DBB2AC4219DD1249D8
:104A60006A01571800923A789A4219D1013CE4B28F
:104A7000202200213800347009F077FAAC4208D0C7
:104A80000099094B621B203152015918380009F076
:104A900059FA3378002B02D1044A13705370F7BDD2
:104AA0000135DAE71B08002030150020250800201A
:104AB00073B501AA1080031C00202433DAB2094B1D
:104AC000094D1C7884420ADD43015B191E78964229
:104AD00006D1043315C915C31A0019C919C273BD0B
:104AE0000130EFE71B0800203015002013B5031C30
:104AF00001AA24331080D8B218231A00424309496E
:104B00008A1854780622042C01D8074A125D4343C0
:104B1000C918064B4A701B6801980B81FFF7C8FF44
:104B200013BDC0462C09002061150100A40300201C
:104B3000392804D005D8002801D02B2805D1012020
:104B400004E02030C0B20728F9D9002070470000E7
:104B500070B500212022040009F007FAFF23A37793
:104B60000E4B1978002915D00D4B01391A788A425D
:104B700012DA01321A701B780A4A5B019B18220074
:104B800023CB23C223CB23C219681160998891805B
:104B90009B799371200070BD0022EBE71B08002079
:104BA0001C08002030150020642010B5084B521A54
:104BB0000C005043197807F0F9F9064B196883B2D5
:104BC0000020091B89B28B424041C0B210BDC046D3
:104BD00014000020A4030020F0B51D00C04B87B0D6
:104BE000029203AF1A7839700299831ABD4E019070
:104BF000481E5900895B01335B0040004018995BF7
:104C000080B20023814200D229E1B74909788A188D
:104C10000199914200DD22E1B44B04AC1B882100D4
:104C20000833C01880B2FFF713FD681E0123032864
:104C300000D914E107F0B0F9E50004000400EF0129
:104C40006278237812029B189BB21C12012B2ED182
:104C5000029B042B2BD1A24B019A1B7805A9D31AD6
:104C6000A24A5B001288F05A0832801880B2FFF71F
:104C7000EFFC82223978059803F0D4FD9C4D280082
:104C8000FEF70CF881223978059803F0CBFD280057
:104C9000FEF704F882223978059803F0C3FD280056
:104CA000FDF7FCFF81223978059803F0BBFD04ABCA
:104CB00059781878090209188E4B89B2994207D998
:104CC0008D4B99420AD85438C0B2FEF7DBF896E013
:104CD0008A4B994247D98A4B994237D9894B994295
:104CE00038D8894B994244D8E30707D5E02205AB71
:104CF0001A8039785E3A059803F094FDA30707D52A
:104D0000E22205AB1A803978603A059803F08AFDF3
:104D1000630707D5E62205AB1A803978643A05980F
:104D200003F080FD230707D5E12205AB1A8039780F
:104D30005F3A059803F076FDE30607D5E32205AB5D
:104D40001A803978613A059803F06CFD822239782F
:104D5000049898E06D4B99420BD85C39C9B26C4805
:104D6000FFF79CFA4BE0FF29BBD86A4B1B78002B5E
:104D7000BAD1029B062B3AD1594B05A91D78019B4C
:104D80005D1B5A4B6D001B88705B0833C01880B2E6
:104D9000FFF75EFC82223978059803F043FD544CFE
:104DA0002000FDF77BFF81223978059803F03AFD5A
:104DB0002000FDF773FF82223978059803F032FD59
:104DC0002000FDF76BFF81223978059803F02AFD5A
:104DD0002000FDF763FF82223978059803F022FD59
:104DE0002000FDF75BFF8122397805984BE004989D
:104DF0008222397803F016FD3D48FDF74FFF01236D
:104E00002DE018220199444D4A4363782078AA186E
:104E10001B0251891B189BB2002900D0BBE0D9B2FC
:104E2000029134498B421DD9334A934200D84AE754
:104E3000344A93422AD8344A934200D876E0374A1B
:104E40009B18022B29D882223978049803F0EAFCB7
:104E50001821019B594301236A5C9A436A54180044
:104E600007B0F0BD2E498B4215D92E498B42DFD8B1
:104E700001252D4B2A38C0B255731870FEF760F823
:104E800083223978206803F0CDFCB8E71F4A9342AB
:104E9000D5D8029961E7FF2BCDD81826019B04983D
:104EA0005E430123AE1933733100FFF701FE6378CF
:104EB00022781B02E03A9B189BB2072B04D9029878
:104EC000FFF736FE002864D01821019B049859434F
:104ED00001236D18EB713100FFF7EAFD59E0C04680
:104EE0002C1500202C080020290800202008002074
:104EF000581C0020534400005D440000FF420000A5
:104F0000024300005BD20000FF1E0000DBD2000065
:104F1000160700202A0800202C09002000BDFFFFF2
:104F200029440000334400002B0800201C12E30732
:104F300007D5E02205AB1A8039785D3A059803F071
:104F400071FCA30707D5E22205AB1A8039785F3AD6
:104F5000059803F067FC630707D5E62205AB1A80C6
:104F60003978633A059803F05DFC230707D5E12201
:104F700005AB1A8039785E3A059803F053FCE306D6
:104F800007D5E32205AB1A803978603A059803F01B
:104F900049FC8322DBE64E4A1268521A4D4992B20E
:104FA00009889142F5D24C4A934223D94B4A934205
:104FB00000D824E74A4A934202D04A4A934219D180
:104FC0001823019A5343EB181A7B002A09D1DB7985
:104FD000002B06D14448FDF761FE3900049800F02B
:104FE0004DF91821019B04985943012369180B734B
:104FF000FFF75EFD6278237812029B189BB2FF2BAD
:10500000C7D93A4A934200D8F9E6394A9B18022B8D
:1050100000D8F4E6BDE7637820781B021B189BB22A
:10502000012B00D1EBE6334A934208D9324A93422E
:1050300000D8E4E62C48FDF731FE812287E6264AB7
:1050400093420AD9254A9342F4D82A38C0B2FDF7D0
:1050500035FF0022294B1A70D1E6FF2BEAD9234AEB
:105060009342E7D820688122397803F0DBFB64782B
:10507000E30707D5E02205AB1A8039785F3A059837
:1050800003F0D0FBA30707D5E22205AB1A803978DD
:10509000613A059803F0C6FB630707D5E62205AB26
:1050A0001A803978653A059803F0BCFB230707D5C9
:1050B000E12205AB1A803978603A059803F0B2FB1B
:1050C000E30600D49BE6E32205AB1A80623A8BE646
:1050D000A4030020180000202944000033440000ED
:1050E000E95C0000EA5C0000581C0020FF1E000084
:1050F00000BDFFFF5BD20000DBD2000024080020CF
:10510000F7B5071C01AB24371880FBB200931823B6
:10511000009A164C53431A5D120706D4E3185A78C6
:10512000097802230098FFF757FD1827F42100267D
:10513000009B7B43E25CE5180A40E2546B7B2E81C6
:105140006E706E81AE732E73B34203D03000FDF7E4
:1051500099FE6E73009B01985F43E119FFF7A8FC6D
:105160000198FFF771FC0120FEBDC0462C0900200C
:10517000F7B5071C01AB24371880FBB20093182346
:10518000009A184C53431A5DD0072AD4E31812072B
:1051900024D45A78097803230098FFF71DFD1827B7
:1051A000F4210026009B7B43E25CE5180A40E254B0
:1051B0006B7B2E816E706E81AE732E73B34203D003
:1051C0003000FDF75FFE6E73009B01985F43E119AD
:1051D000FFF76EFC0198FFF737FC02E09B7B002B8A
:1051E000DDD1F7BD2C090020F8B51D4D1D4A2B78E7
:1051F000002B05D11C4913700B704B700020F8BDBB
:105200001478002C1CD118262B78A342F6DD174BFE
:105210006101C8180778164A7743D2191789002FF9
:105220000CD0144A1268D21B134F92B23F88974297
:1052300004D21E335918C069FFF79AFF0134E3E71F
:1052400000242B78A342D9DD084B620119009B187A
:105250001E315118D869FFF78BFF0134F1E7C046C2
:105260001B080020280800202508002030150020F9
:105270002C090020A403002016000020F7B5031C11
:1052800001AA1080180018262430C0B246430E4FE1
:105290000323BC1962780978FFF79EFCF4220025ED
:1052A000F35D25811340F35565706581A573257302
:1052B00021000198FFF7FCFB637BAB4203D0280081
:1052C000FDF7E0FD6573F7BD2C090020F7B5031C61
:1052D00001AA1080180018222430C0B24243154D94
:1052E0000978535DAE181B07DB0F04D072780123D9
:1052F000FFF772FCF7BD0A270F4C73812380535DC3
:105300003B43535573780522062B01D80B4AD25CD8
:1053100018234343ED186A700123FFF75DFC084B27
:1053200029001B6801989BB26B812380FFF7C0FBAB
:10533000E0E7C0462C0900201E0800206615010089
:10534000A4030020F0B593B007AC1E005BB206903A
:105350000F002270002B02DA002013B0F0BD4B7852
:1053600008781B02C018CC4B80B2984222D9CB4B94
:1053700098424CD80325CA4B2430C0B2187035402F
:10538000C8491823012D69D158430B5CAB430B541A
:105390001B0701D508188573C14BC24A1E78182314
:1053A0007343D3185B78002B00D0A3E0012D77D195
:1053B0000120D2E70300E03B072B28D80324344028
:1053C000012C46D1C0B2FFF7B3FB00281CD0B64D6C
:1053D0002B78002B18D02B78621E934214DDB34B30
:1053E0006701F81801001539097800290AD10F382A
:1053F0000178002906D15201991E9B18C919D86954
:10540000FFF77EFE0134E6E70022A94B1A70A64C96
:105410002378002BA0D003231E40022E9CD101250F
:1054200023786A1E934297DDA04B6E01F0180100AD
:105430001539097800290AD10F380178002906D1D9
:105440005201991E9B188919D869FFF759FE013539
:10545000E6E7022CDBD1964B0122D7E7022D9BD148
:1054600001224343CE5C1643CE54CB181E79002E46
:1054700010D15E79002E0DD19E79002E0AD11A74BA
:1054800018235843091878783B7800021843FFF72F
:105490000FFB81E718224243824B9B180022EEE764
:1054A00039008448FFF7F2F8022D23D1002807D0F5
:1054B0002A0039007F4808F03CFD22787E4B1A70A4
:1054C000182373439C466A4678783B780002184359
:1054D000744B059063440493083343CB43C21B6869
:1054E000136062466F4B21789A58049B05985B685D
:1054F000FFF74EFA6F4C39002000FFF7C7F800287D
:1055000011D13B78227805939A4200D050E7607819
:105510007B78984200D04BE7022D48D1000210431F
:10552000FFF7E4FA44E700230AAE3380310020009D
:10553000FFF7ACF80028E4D0022D00D138E723783B
:10554000182519002431C9B269436078554A000210
:1055500018438918FFF7ACFA3000FFF7F9FA002377
:1055600009A90B8011A8FFF791F8002800D11FE7C7
:10557000022211A9200008F0DCFCB27F4E4B1A7009
:10558000474A4E4B12781B685543464A55192A899B
:105590009B1A4B4A9BB212889A4200D308E778784C
:1055A0003B780002184307A9FFF790FE00E7012DA2
:1055B0005ED13D4B1B780493012B37D900243B4D22
:1055C000049BA34232DD661CB3422FD073015B19EA
:1055D0001A00143A128899890698FFF7E5FA00280C
:1055E00022D01826012164012A5D00240827354BAA
:1055F000724319702B4B9B189973DC712A4B1B78E3
:10560000A34200DCD4E66301EA189C4613782549DE
:105610007343585C0134B843585429001E31614427
:10562000D069FFF7A5FDE9E73400C9E718211C4B55
:105630001F4A1D78127869431A4B7878C918214E91
:10564000002A02D10A7C002A0DD018226A430124C4
:105650009B18002234709C73DA71059B000218437A
:10566000FFF726FAA4E60124CA7132708C73F4E7BE
:105670000B49124B0C7818214C430A491B68091935
:1056800009895B1A0E499BB20988994200D38FE6BB
:105690000002104387E7C046DBD200005BD3000066
:1056A000270800202C0900201B08002030150020AE
:1056B0002A0800202508002012000020A403002052
:1056C0001000002028080020C8220023FF2010B569
:1056D000034CD2001919203388779342FAD110BDB8
:1056E0003015002010B5044805F0B2F80A384342DE
:1056F0005841C0B210BDC04674440020F0B5844A81
:1057000085B084480C00002500F056FC0600A84235
:1057100000D0A3E00A228049200009F0CEF935002C
:10572000002800D09AE00A347C49200009F0ACF946
:10573000051E3ED1FFF7D6FF002816D0784B1B88F8
:10574000AB4236D9774B03AE1888310008302818A1
:1057500080B2FEF77DFF737830781B02C01880B2EC
:105760000235FEF725FFADB2E8E70500FFF7BAFF07
:10577000011E1AD101226C4805F01AF80600694B87
:105780006A4F1988C2B2083169188BB21900380003
:10579000019303F055F9019B3612F2B2591C3800FF
:1057A000023503F04DF9ADB2E0E7FEF70FFFFEF76B
:1057B0007DFF5F49200009F067F9002807D1FFF756
:1057C00091FF00284DD05B4B1888FEF7F1FE5A4937
:1057D000200009F059F9002807D1FFF783FF0028BE
:1057E0004ED0564B1888FEF7E3FE5549200009F0CD
:1057F0004BF9002807D1FFF775FF002851D0514B16
:105800001888FEF7D5FE5049200009F03DF9002820
:105810000ED1FFF767FF444E011E53D04B4B0A22B7
:105820001978300004F02BFD2021300004F0BCFC7E
:105830004749200009F028F9012500280ED1FFF77B
:1058400051FF394E011E50D0424B0A2219783000C8
:1058500004F015FD2021300004F0A6FC280005B05E
:10586000F0BD03AD28802800FEF704FF2D4B290072
:105870001888FEF7C5FEFEF7A9FEFEF717FFA6E79C
:1058800003AD28802800FEF7F5FE264B2900188876
:10589000023080B2FEF7B4FEFEF798FEFEF706FF78
:1058A000A3E703AD28802800FEF7E4FE1D4B290086
:1058B0001888043080B2FEF7A3FEFEF787FEFEF7DD
:1058C000F5FEA0E703AD01222870300004F070FF60
:1058D000144B287018882900063080B2FEF7AEFEFF
:1058E000FEF774FEFEF7E2FEA2E703AC2A0020708A
:1058F000300004F05DFF0B4B20701888210007304A
:1059000080B2FEF79BFEFEF761FEFEF7CFFEA5E735
:105910006D1501007E1B0020D61501000C1501003D
:10592000220800202008002074440020691C002068
:10593000E115010018000020E91501001600002003
:10594000F115010010000020FB15010013000020DC
:10595000CE15010014000020F0B5134B85B01B7864
:1059600003AD834207D800232B806B7828781B0275
:10597000184305B0F0BD502444430C4FC9B264181D
:10598000640039880A4EA4B209190131300003F0CD
:1059900037F8398801900919300003F031F86B4667
:1059A0001B7968702B70E0E7711B0020721B0020D0
:1059B000691C002013B5094B01AC1B78834207D941
:1059C000FDF7F4F92080637820781B02184316BD98
:1059D000C01AC0B2FFF7C0FFF4E7C046741B002036
:1059E00010B5044800F060F9034B00201A78034B0F
:1059F0001A7010BD751B002006000020741B0020CB
:105A0000044B10B51870A023584300F01FF9024B47
:105A1000188010BD711B0020721B0020094B0A4921
:105A20001B7810B5DB090870084A04D0084B1360D6
:105A3000FFF7E6FF10BD074B1B78C3180B70064B32
:105A4000F5E7C0467A1B0020060000200800002071
:105A500059590000741B0020B5590000F7B50A4ED3
:105A600001AF3980094C0A043188450049192000EA
:105A7000120E02F0D1FF31883A7849190131200025
:105A800002F0CAFFF7BDC046721B0020691C00204F
:105A9000F0B50F00002585B00190EBB20093019B9B
:105AA000AB4213D00024211C0098B847084E81B2A5
:105AB0000A223000013404F0D2FBE4B2202130008D
:105AC00004F072FB502CEED10135E6E705B0F0BDD5
:105AD0007444002073B5404A40480D00002400F093
:105AE0006BFAA04220D107223D49280008F0E5FFCB
:105AF000A04219D107353B49280008F0C5FF060030
:105B0000A0422ED1384C200004F0A2FE02000A2848
:105B10000CD1364B20001978C90904F0B0FB2021C4
:105B2000200004F041FB0124200076BD0122310059
:105B3000200004F03DFE01ABC4B21870200000F05C
:105B400015F92B4B2B491B782B4A0B70002C02D0DC
:105B50002A4B1360E7E72A4800781B180B70294B83
:105B6000F7E72949280008F08FFF002805D1244BCA
:105B700026491878FFF78CFFD5E72549280008F05B
:105B800083FF0028D0D1184D5026280004F060FE75
:105B90000A2803D1164B19491878EBE7280004F0BE
:105BA00057FE0A2814D0124B1B7873439C420FDA1D
:105BB00001220021280004F0FBFD01AB0212187045
:105BC0005A70200001990134FFF748FFA4B2E5E7BD
:105BD000104802F039FFA6E7021601007E1B0020E4
:105BE0003116010026160100744400207A1B0020A3
:105BF000711B0020060000200800002059590000F9
:105C0000741B0020B559000039160100AD2D0000AD
:105C100041160100691C002010B5054C01000A2244
:105C2000200004F02CFB2021200004F0BDFA10BD60
:105C3000744400200020034B1B78834201D0024BA8
:105C400058887047781B00207A1B002013B56B46DC
:105C50000024991D074B08801B78A34208D1064AEF
:105C600083B214880548E3181380022202F05EFB19
:105C7000200016BD781B00201A000020441C0020C4
:105C8000F7B507000D0016000C000B1D0193731BE8
:105C90001A5D2100380002F0D3FE019B01349C42C2
:105CA000F5D13000FEBD000070B50025114C290073
:105CB000200002F0A5FE104A6E1C50553500042E3F
:105CC000F4D15378FF2B12D11178803B0B40D8B21E
:105CD0007F2803D1C90901D0834313700123002118
:105CE00020005370FFF7CCFF200002F0ADFE002033
:105CF00070BDC046691C00207A1B002010B5064C00
:105D0000064A00212000FFF7BBFF200002F09CFEA6
:105D10000122034B1A7010BD691C00207A1B002061
:105D2000791B002070B50F4B05001B780E4C834289
:105D300008D9FDF7A7F87F22290023781140934363
:105D40000B4323707D2D06D97F22237893431A00BD
:105D50007E2313432370FFF7D1FF20784006400EC7
:105D600070BDC046060000207A1B00207F23094A30
:105D7000C101107810B5184008431070C0B203403C
:105D80007F2B03D19843013B18431070FFF7B6FFF8
:105D900010BDC0467A1B0020012270B5104D114B7A
:105DA000102128001A7002F0ADFA0F4C6378012B15
:105DB00003D000220D4B1A7070BD62880C492B88ED
:105DC0008A420AD16380FFF799FF20784006400E8F
:105DD0007D28F1D8FDF756F8EEE79A42ECD1F4E7CA
:105DE000441C0020781B00207A1B0020791B002017
:105DF000FFFF0000044B10B51B78002B01D1FFF70B
:105E0000CBFF002010BDC046781B002070B5304A83
:105E100030480C00002500F0CFF8A8423FD10922FD
:105E20002D49200008F049FEA84238D109342B49F9
:105E3000200008F029FEA8420AD1294C200004F0D5
:105E400007FD0A283BD1274B18784006400E2AE070
:105E50002549200008F018FE002827D023492000FB
:105E600008F012FE00281CD02149200008F00CFE8A
:105E7000002814D11F4B1E88FFF7DCFE0500184CCC
:105E80000A223100200004F0EAF91B49200004F046
:105E90007CF90A222900200004F0E1F901252800FC
:105EA00070BD104B5878FFF7B7FEF7E7134B187823
:105EB00000F09EF820210A4804F076F9EEE701226E
:105EC0002900200004F074FCC0B2FFF72BFFE5E7C7
:105ED000741601007E1B0020B8160100C2160100D6
:105EE000744400207A1B0020CF1601002304010017
:105EF000B4160100441C0020D6160100791B0020B6
:105F000070B5264A26480E00002500F055F8A84234
:105F100036D12449300008F0B7FD0400A8421AD158
:105F2000214D280004F094FC0A282BD08026B601CD
:105F3000280004F08DFC0A2821D00122002128002D
:105F400004F036FC2100C2B20134184802F064FDAE
:105F5000B442EDD113E01649300008F095FD002859
:105F60000ED18021134B104C1B888901C91A0A22BB
:105F7000200004F074F92021200004F015F9012517
:105F8000280070BD8025AD012100084802F038FDD1
:105F90000134FFF741FEAC42F6D1F0E748160100AC
:105FA0007E1B00206416010074440020691C002040
:105FB000581601001A00002010B508000649140008
:105FC00008F062FD0023984204D12100034804F048
:105FD000F9F80123180010BDD81601007444002000
:105FE00010B5024AFFF7E8FF002010BDD8160100E7
:105FF00010B50449002800D10349044804F0C5F84D
:1060000010BDC046E1160100E616010074440020F0
:1060100010B5084C200004F001FC002808D0200036
:1060200004F016FC0A2803D0200004F01FFCF6E759
:1060300010BDC04674440020F7B51C4C012620005A
:1060400004F0ECFB00282CD0200004F00FFC184DCD
:10605000731EEB1818702000F7B2019304F0F8FBE0
:106060000A2807D0019B1B78202B03D00136212E54
:10607000EAD120277A1EA95C0023202913D1AB5432
:106080002800FCF7B3FD0B49200004F09BF8FFF754
:10609000BFFF200004F0DCFB0A2802D1200004F03E
:1060A000E5FB0020FEBDEB55EAE7C0467444002046
:1060B0007F1B0020DD160100F7B51A4E1A4D32681D
:1060C0002B88D31A9BB2322B16D9184A184F138A31
:1060D000184C39889B045B0D20780192994210D1AD
:1060E000002807D1144A1378132B07D9FCF73EF97F
:1060F0000123237033682B800020FEBD0133137011
:10610000F8E7002804D00220FCF730F900232370C0
:106110000022019B1B8A9B045B0D3B80064B1A707F
:10612000E8E7C046A4030020A41B00200050004163
:10613000A01B0020A61B0020A21B0020FA2110B5E6
:10614000024B8900186805F031FF10BD1C000020CB
:106150000B4B10B51A68002A0FD00A4B1B78002B86
:106160000BD0094B09491B6809685B1A9A4204D293
:1061700000F078FC0122064B1A70002010BDC046CA
:106180001C00002023000020A4030020AC1B0020E2
:10619000B01B002010B5074C2378002B03D000F073
:1061A0003FFC00232370044B00201A68034B1A6045
:1061B00010BDC046B01B0020A4030020AC1B002073
:1061C000FA2370B504009B0043430A4A0A4E136049
:1061D0000A4BC2B21D883000290002F031FC2204B3
:1061E000691C3000120E02F02BFC300002F02CFC77
:1061F00070BDC0461C000020691C0020A81B0020A8
:1062000073B50220FFF722FD0D4B0E4E18800100E2
:106210000500300002F0F4FB6B469C1D2070691CE9
:10622000300002F0EDFB60702288074B9A4202D1E9
:10623000064B1B6823802088FFF7C2FF002076BD35
:10624000A81B0020691C0020FFFF00001C0000208C
:1062500070B5184E184832000D000024FFF7ACFE50
:10626000A0421CD13100280008F00EFCA04216D13B
:10627000124D280004F0ECFA06000A2811D1FA2188
:106280000F4B8900186805F091FE320001002800CC
:1062900003F0E9FF2021280003F086FF01242000FD
:1062A00070BD01222100280004F082FA80B2FFF7BD
:1062B00087FFF3E7EC1601007E1B002074440020EA
:1062C0001C00002010B5054C01000A22200003F03C
:1062D000D6FF2021200003F067FF10BD744400208A
:1062E000094B07B51B78002B0DD0002201AB1A809B
:1062F0009A70019800F0E2FA044B1868002802D066
:1063000003685B68984707BD23000020C41B00207A
:1063100070B5074C05002388002B03D13020FFF710
:1063200095FC208042206843FFF790FC70BDC0467A
:10633000B21B002010B50C0049080918054802F0EE
:106340005FFB02000011C0B2E30701D50F2010402F
:1063500010BDC046691C0020F7B50324124B44430E
:106360001888124F2418A4B22100380002F048FB0C
:10637000611C0600380002F043FB0500A11C380038
:1063800002F03EFBF6436B46ED431E705D701A88CB
:10639000FF231100120A1940120283431B040A430F
:1063A0001A431000FEBDC046B21B0020691C00202D
:1063B00007B5FFF7BFFFFFF7CFFFFF210300020A7A
:1063C0000A4012020B401343000C034A0840000429
:1063D000134018430EBDC046FFFF00FF37B54225EE
:1063E00000244D434519ADB2A1B22800FFF7E0FFEC
:1063F00001AB187002040002120E000E98705A7061
:10640000E0B20199013400F009FA842CECD137BDD7
:10641000422313B55943D3B24018141C80B2FF2154
:106420004F2B01D8084AD15C89B2FFF7C1FF01ABFD
:10643000187002040002120E000E98705A70019932
:10644000201C00F0F7F913BD4711010010B50448F6
:1064500004F0FEF90A3843425841C0B210BDC046AC
:1064600074440020F0B5344E85B0320033480C003F
:10647000FFF7A2FD05000020854220D12000310059
:1064800008F002FB04002800002C18D1FFF7DEFF03
:10649000002816D02000FFF75FFF06040502360E25
:1064A000C0B2FFF70FFF2D0E30000134FFF70AFFD7
:1064B000E4B22800FFF706FF102CEBD1012005B055
:1064C000F0BD0400FFF7C2FF1D4D061E2ED11D4F6B
:1064D00001000122380004F06BF931000090012224
:1064E000380004F065F9310001900122380004F011
:1064F0005FF9154B07001E88009BA619DA43B6B258
:10650000D2B23100280002F09BFA019B711CDA43E1
:106510002800D2B202F094FAFA430334D2B2B11C8A
:106520002800A4B202F08CFA302CCBD1280002F063
:106530008BFAFFF7D5FEC1E7001701007E1B002094
:10654000691C002074440020B21B0020F0B585B007
:1065500002932F480AAB0C0017001E78FFF72CFDA2
:1065600005000020854251D12000390008F08CFA46
:1065700004002800002C49D1422373430193FFF704
:1065800065FF00281BD0F026019AA3B293423CD2AB
:10659000029B2048191902F033FA05000011C0B21D
:1065A000FFF790FE29001C4FB1430A22380003F088
:1065B00056FE2021380003F0F7FD0134E4E7040023
:1065C000FFF744FF134F061E1AD1019AA3B29A4255
:1065D00016D9114D01000122280004F0E9F801222A
:1065E00003903100280004F0E3F8039B1A01029B9A
:1065F00012181919D2B2380002F00EFA0134DFE78E
:10660000380002F021FAFFF76BFE012005B0F0BD63
:106610007E1B0020691C00207444002070477047D6
:1066200013B508780C00C043C3B21A002320991197
:10663000C9435A434042584352430012120E8A1A29
:106640002330D2B2C0B2FF2101F09AFE6B466A46F7
:10665000187003041B0E537000022378000E907014
:10666000032B0ED8002323706B461A8899781000EC
:10667000FF23120A184012020B401B041043184358
:1066800016BD043BEFE70000F0B5234F85B03B6833
:106690000500002B3DD0214E03893268D31A204AD1
:1066A0009BB212889A4234D20024E3B20093502C59
:1066B0002DD02B1902AA01939B7AD11C0B70002BB1
:1066C00010D0386803681B68984703AB1870020441
:1066D0000002000E120E98705A706B4603991878DB
:1066E00000F0A8F802AB03331B782A199372002B31
:1066F0000BD10C4A5178137809020B4391780904A5
:1067000019436B46187800F095F80134CDE73368EB
:106710002B8105B0F0BDC046B81B0020A4030020AB
:1067200020000020B51B002010B5416000210400AE
:10673000044B01810833036050220A3007F015FC36
:10674000200010BD08170100D2B24F2A0BD807490C
:1067500000780978884206D19B0704D5044B1B6852
:106760009A18FF23937200207047C0462200002031
:10677000C41B0020014B0833036070472017010041
:10678000FF22014B1A707047B41B002070B50A4DF0
:10679000040001222800002104F00AF801222070E0
:1067A0000021280004F004F8012260700021280074
:1067B00003F0FEFFA07070BD7444002010B50122EC
:1067C00004000021024803F0F3FF207010BDC04612
:1067D0007444002070B5084D0400280002F0ABFBA3
:1067E0002100002803D1280002F025FC70BD0348D9
:1067F00002F0F3FCFAE7C046AC3C0020F83C002075
:1068000010B5054C01000A22200003F038FD2021BC
:10681000200003F0C9FC10BD744400201FB50A1C01
:1068200003AB090C1A8099700399FCF747FD05B07A
:1068300000BD00001FB50B000C1C1B0A090CC2B2E6
:10684000E4B2DBB2C9B2FF204F2A01D80448805C11
:1068500003AA1470537091700399FCF72FFD1FBDAC
:106860004711010007B5FCF79DFD020401AB120EB4
:1068700018705A701B88FF211A00000C1B0A0A406E
:106880001B0208400004134318430EBD034B10B510
:106890001B78002B01D0FCF7E3FC10BD2300002087
:1068A0000121044A044813680B4001D103701160B0
:1068B0007047C046BC1B0020C01B002013B500243D
:1068C0000190FFF7EDFF200001340199E4B2FFF7DA
:1068D000A5FF842CF7D113BD07B5002201AB1A80A8
:1068E0009A700198FFF7EAFF034B1868002802D05E
:1068F00003685B68984707BDC41B002010B5094BAF
:106900001B7883420DD9084B187001F0F1FE074B3C
:106910001860074B1B78002B01D0FFF7DDFFFBF75A
:1069200079FD10BDC81B002022000020C41B0020E0
:106930002300002010B5064B18780130C0B2187043
:10694000044B1B78834200D80020FFF7D7FF10BD0F
:1069500022000020C81B002010B5064B1A78002A20
:1069600001D1054A1278013A1A701878FFF7C6FF6C
:1069700010BDC04622000020C81B0020224B70B56D
:106980001B78002B32D0214C2378002B02D1637866
:10699000002B14D0E120FFF71DFF002802D1E530C5
:1069A000FFF718FF2378002B22D16378432B24D1E3
:1069B000002822D1FFF7BEFF002323706370144B21
:1069C000144C154D22881B689B1A2A789BB29A4258
:1069D0000CD2FFF75BFF22882B789B1823800F4B8C
:1069E0001868002802D003689B689847002070BD93
:1069F000012B02D16378432B02D0FFF7ADFFDBE719
:106A00000028D7D1F9E7C04623000020C91B002089
:106A1000A4030020CC1B002024000020C41B002065
:106A2000012210B5034B1A70FFF756FFFCF718FC54
:106A300010BDC0462300002013B5002401AB1C800C
:106A40009C700198FFF73AFFFBF734FD044B1B786D
:106A5000FF2B02D12000FFF751FF002016BDC046DA
:106A60002200002013B5002401AB1C809C7001980B
:106A7000FFF724FFFCF7F4FB014B1C7013BDC0466D
:106A8000230000204A7810B50024432A17D1403A49
:106A900013400134022B12D10B78002B0AD0A342F1
:106AA00008D0022B0BD1084B1B78002B09D0FFF725
:106AB000D9FF04E00222054807F03BFA0124200038
:106AC00010BDFFF7ADFFFAE723000020C91B00202F
:106AD00010B5FBF7E1FC014B187010BDC81B00207E
:106AE00010B5044803F0B4FE0A3843425841C0B21E
:106AF00010BDC04674440020F7B5894A89480D008E
:106B00000024FFF759FA0600A04245D10422864925
:106B1000280007F0D2FF340000283DD10435834916
:106B2000280007F0B1FF002812D16B46DD1C2800B9
:106B3000FFF744FEFFF7D4FF01AC002800D075E05A
:106B40002000FFF723FE28780199FFF767FE6BE02E
:106B50007749280007F098FF00285FD07549280082
:106B600007F092FF002850D07349280007F08CFFEF
:106B7000061E33D07149280007F086FF002821D077
:106B80006F49280007F080FF002807D06D492800D2
:106B900007F07AFF002861D02000FEBD01AC208004
:106BA000A0702000FFF7F2FDFFF79AFF00283BD10D
:106BB0006B46DD1C2800FFF701FE28782168FFF7EF
:106BC0002DFEF1E7FFF78CFF002844D101AC200037
:106BD000FFF7F4FD2078FCF709FB25E0FFF780FFC5
:106BE000041E00D080E0FFF75BFEFFF779FF00286E
:106BF0001AD101A8FFF7CAFD200001340199E4B2BF
:106C0000FFF70CFE842CF0D10EE04F4803F020FE7D
:106C1000C0B20A2856D14D4B187819E001A8FFF7E9
:106C2000B5FD0198FFF74AFE0124B5E72878FFF784
:106C300019FE050403021B0E2D0E2070A370657053
:106C40001C00C0B2FFF7DCFD2800FFF7D9FD2000D3
:106C5000FFF7D6FDE8E7FCF7DBFAF9E7FFF740FFBF
:106C60000028E1D16B46DD1C2800FFF7A7FD28783E
:106C7000FFF7F8FD01AC207003040002000E1B0EAC
:106C8000A07028786370FFF7BBFD2F4D30492800B6
:106C900003F086FA2021280003F086FA6778A678A8
:106CA0002078FFF7ADFD3800FFF7AAFD3000FFF7B1
:106CB000A7FD2849280003F073FA2021280003F0DB
:106CC00073FACBE76E2802D1FFF734FEACE77028E9
:106CD00002D1FFF741FEA7E701AC2000FFF76EFDF0
:106CE0002078FFF70BFE9FE7FFF7DAFD3400200066
:106CF000FFF7B8FD01AB060405021870360E2D0E25
:106D0000C0B25E709D700134FFF77AFD3000FFF76E
:106D100077FDE4B22800FFF773FD842CE7D183E709
:106D20002C1701007E1B002080170100FF150100B9
:106D3000851701008C1701007A17010091170100D7
:106D40009C170100A81701007444002022000020B5
:106D5000B4170100F140010013B5134BC27A41682A
:106D60001B6804009B1A0878DBB2984218D21218EC
:106D7000E2724A782089217B01F002FB01AB187096
:106D800002040002120E000E5A709870A37A228933
:106D90009B189BB2FE2B04D823810198FFF78EFD30
:106DA00013BDFF3BF8E7C046A403002037B5436896
:106DB000C27A19781C4B04001B689B1ADBB29942FB
:106DC0002FD252180121C272184A13680B4002D107
:106DD00017481160037000252089842D1BD0AB0853
:106DE0001B01C01880B2FE2801D9FF38FAE763689A
:106DF000217B5A7801F0C4FA01AB1870020400023A
:106E0000120E000E98705A70280001990135FFF794
:106E100005FDEDB2E0E7A37AC01880B2FE2801D8E4
:106E2000208137BDFF38FBE7A4030020BC1B0020F6
:106E3000C01B0020417070474170704728213222EA
:106E4000034B19705A70034B19705A707047C04643
:106E5000CE1B0020D01B002010B501220400002111
:106E6000024803F0A5FC207010BDC0467444002009
:106E700010B5044803F0ECFC0A3843425841C0B254
:106E800010BDC0467444002037B54E4A4E480C0031
:106E90000025FFF791F8A84212D106224B492000A5
:106EA00007F00BFEA8420BD106344949200007F039
:106EB000EBFDA8420FD1FFF7DBFFA84202D001256E
:106EC00028003EBD6B46DC1D2000FFF7C5FF207883
:106ED000FCF736F8F3E73F49200007F0D5FD00281E
:106EE0000CD1FFF7C5FF0028E9D16B46DC1D20005F
:106EF000FFF7B2FF2078FBF7E1FFE0E7364920001B
:106F000007F0C2FD002812D1FFF7B2FF0028D6D14A
:106F10006B46DC1D2000FFF79FFF2078FBF772FF18
:106F2000FFF766F820212D4803F03EF9C7E72C490A
:106F3000200007F0A9FD00280CD1FFF799FF0028D9
:106F4000BDD16B46DC1D2000FFF786FF2078FBF7E4
:106F500099FFB4E72349200007F096FD051EAED146
:106F6000FFF786FF041E12D02C002000FBF74AFF1B
:106F70001A4D01000A222800013403F070F9E4B22E
:106F80002021280003F010F9202CEED197E7FBF721
:106F900079FF2000FBF792FFFFF76AFF002800D07F
:106FA0008DE76B46DD1D2800FFF756FF2B78002B81
:106FB00002D02000FBF7C4FF0134E4B2202CEBD157
:106FC0007DE7C046E81701007E1B00203018010055
:106FD00039180100371801004218010074440020DC
:106FE0004B1801002A180100F7B500241C4B1B7830
:106FF0000193019BA34231D90C23002563430093E5
:10700000009B184AEB189B181879EFB2002823D080
:107010000138FCF71FFB061E03D00135052DEFD10B
:107020002F00FCF72DFB874213D1002E11D00E4EFE
:107030000E4D32682B88D31A0D4A9BB212889A42A1
:1070400007D20C236343074A2000D358984733687C
:107050002B800134E4B2CCE70126E2E70020FEBD3C
:10706000AD020100B0020100A4030020D41B0020E7
:107070002600002010B5012204000021024803F080
:1070800097FB207010BDC0467444002010B5054C1D
:1070900001000A22200003F0E2F82021200003F082
:1070A00083F810BD7444002010B5054C01000A227D
:1070B000200003F0E4F82021200003F075F810BD53
:1070C0007444002010B50A000100024801F0A4FC3D
:1070D00010BDC046691C002010B5024801F0B4FC88
:1070E00010BDC046691C002010B50C00010003480B
:1070F00001F086FC2070200010BDC046691C0020F5
:1071000070B5074E0D0004000100300001F078FC5E
:10711000611C2870300001F073FC6870280070BD9D
:10712000691C00201A4B13B51A491A681A4C0B88AF
:1071300092B2D31A24889BB29C4220D20A800121A9
:10714000014006D00021154B1B785BB200910A006C
:1071500012E00224044004D0104B1B785B425BB267
:10716000F4E7042101400BD00C4B22001B782100D6
:107170005B425BB200932300094802F07FF813BD25
:107180000307FCD5054B1B785BB200930B00DEE7D1
:10719000A4030020E01B00202E000020300000206F
:1071A000443D002010B5054C200002F089F8200075
:1071B00002F06DF80020024B187010BD443D002015
:1071C000DA1B002070B5224B1B78002B03D1214A1B
:1071D0001370002070BD204A204812680188204C9E
:1071E00092B2511A248889B28C42F2D21D4C02808C
:1071F00021881D48511A008889B288420AD21B484A
:10720000144D0678FF202978801B814201DA891904
:10721000297022800021DA0703D5154A11784942E6
:1072200049B29A0703D5124A1278511849B2002080
:107230005A0703D50E4A1078404240B21B0703D5C7
:107240000B4B1B78181840B201F0C6F9C1E7C046D5
:10725000DA1B0020501C0020A4030020DC1B0020AF
:107260002C000020DE1B0020280000202A00002027
:1072700031000020F7B54A780020502A3ED10A7824
:107280004026100020250324304015401C400028D3
:107290000ED0002D0ED1B24315009B0725D4012C32
:1072A0002BD11100414801F0FCFF01F017F924E057
:1072B000002D24D0022C20D10125431E984113001B
:1072C0002B40AB401440184323005C1EA3419B009D
:1072D00003435007C00FC00003431007C00F000155
:1072E000184301F00BF9280008E0022C01D101F04D
:1072F000FBF829002D4801F0D0FF0120FEBD022C33
:107300000BD12B4A2B48126892B202802A48028085
:107310002A480088121A2A48028002252B400AD0E7
:107320000878C30602D5FFF7FDFEE6E7254B1A787D
:1073300010431870E1E7012CDFD1032621480D78B6
:107340000278AA4302700A78164006D10C2515402F
:1073500009D12E00AC462C000BE0102515401ED0A4
:107360001D002600F6E7102515401BD02500B44669
:10737000340001210D4804274156013C0222032319
:1073800021406446C7578256C356013D013C013E29
:107390002F4022403340009701F070FFADE72E00F0
:1073A000A446D8E72E00AC46E3E7C046443D0020A3
:1073B000A4030020DC1B0020DE1B00202E00002088
:1073C000E01B0020DA1B0020F0B54E4885B001F02C
:1073D0009BFF00224C4B02AD988AD98A1A761B6912
:1073E0002A701B686880A980AA7129000832474862
:1073F00098470A20FEF72AFC454C69462080FFF793
:1074000073FE6B461A78434BFF2A51D01A702088BE
:1074100001AE0130310080B2FFF772FE32883E4E7D
:107420003E4BB24249D01A806B4620885F1C033025
:1074300080B23900FFF758FE3A78394BFF2A42D024
:107440001A706B4620889F1D043080B23900FFF708
:1074500057FE3A88334BB2423BD01A806B462088A5
:107460009F1C063080B23900FFF73EFE3A782E4B63
:10747000FF2A34D01A7020882900073080B2FFF725
:107480003FFE2A88294BB2422FD01A806B462088B3
:10749000DD1C093080B22900FFF726FE6B461A7802
:1074A000234BFF2A27D02A781A70002005B0F0BDA0
:1074B00019782088FFF706FEA9E72088197801309F
:1074C000FFF700FEB0E7208819780330FFF7FAFDD8
:1074D000B7E7208819780430FFF7F4FDBEE720886D
:1074E00019780630FFF7EEFDC5E7208819780730D8
:1074F000FFF7E8FDCAE7208819780930FFF7E2FDB9
:10750000D3E7C046443D00207C3D00208C3D002058
:10751000D81B002031000020FFFF00002C000020BD
:107520002A00002028000020300000202E0000202B
:107530003800002010B5044803F08AF90A384342A5
:107540005841C0B210BDC0467444002073B58D4A86
:107550008D480C000025FEF72FFD0600A84270D1D3
:1075600006228A49200007F0A8FA3500002868D1D1
:1075700006348749200007F087FA002807D1FFF773
:10758000D9FF844D00285ED02878FFF78DFD824911
:10759000200007F079FA002807D1FFF7CBFF002879
:1075A0005FD07E4B1888FFF771FD7D49200007F002
:1075B0006BFA002808D1FFF7BDFF7A4D002800D1F3
:1075C00070E02878FFF770FD7749200007F05CFA3B
:1075D000002808D1FFF7AEFF002800D171E0734BFF
:1075E0001888FFF753FD7249200007F04DFA002874
:1075F00008D1FFF79FFF6F4D002800D182E0287867
:10760000FFF752FD6C49200007F03EFA002808D130
:10761000FFF790FF002800D183E0684B1888FFF740
:1076200035FD6749200007F02FFA0125002808D111
:10763000FFF780FF634C002800D193E02078FFF72C
:1076400033FD280076BD6B46DE1D3000FFF712FDCE
:107650005D4B317818882970FFF734FDFFF73CFD4A
:1076600095E76B469E1DDD1D307028703000FFF7DA
:1076700001FDFFF75FFF002801D12800F7E731780F
:10768000514E2B783088454A1B020B430130138042
:10769000FFF718FD308829780230FFF713FDFFF758
:1076A0001BFD82E76B46DE1D3000FFF7E3FC464B17
:1076B0003178188829700330FFF704FDFFF70CFDBF
:1076C00082E76B469E1DDD1D307028703000FFF78D
:1076D000D1FCFFF72FFF002801D12800F7E7317810
:1076E000394E2B783088314A1B020B43043013800B
:1076F000FFF7E8FC308829780530FFF7E3FCFFF757
:10770000EBFC70E76B46DE1D3000FFF7B3FC2E4B41
:107710003178188829700630FFF7D4FCFFF7DCFCBD
:1077200070E76B469E1DDD1D307028703000FFF73E
:10773000A1FCFFF7FFFE002801D12800F7E7317810
:10774000214E2B7830881D4A1B020B4307301380D3
:10775000FFF7B8FC308829780830FFF7B3FCFFF753
:10776000BBFC5EE76B46DE1D3000FFF783FC164B6B
:107770003178188821700930FFF7A4FCFFF7ACFCC2
:107780005FE7C046521801007E1B0020C4180100AC
:10779000CB18010031000020D11801002C0000207E
:1077A000DC1801002A000020E71801002800002052
:1077B000F218010030000020FD1801002E0000200A
:1077C000B918010038000020D81B0020054A064BDC
:1077D00010881B68054A1B1A10889BB2984280418A
:1077E00040427047E41B0020A40300203600002024
:1077F0000023054A5900885C8007C00F02D101337D
:10780000102BF7D17047C046E81B0020FF22031C55
:1078100012021040DBB21B18054A9BB29B18054AA6
:107820005B00985C82B04007C00F02B07047C04652
:10783000FF3FFFFFE81B002007B501AB07280BD86F
:107840000022203818705A708022054B0A43019894
:10785000197800F0E7FF07BD223018704422F2E7E4
:107860002815010010B50221FFF7E6FF10BD00004A
:107870000121044A10B54400A35C8B43A354FFF7D5
:10788000DBFF10BDE81B002010B50024064B620092
:10789000D35CE0B2DB0701D5FFF7E4FF0134082C2D
:1078A000F4D1002010BDC046E81B0020F8B500232D
:1078B000204D5A00525DD20730D40133102BF8D13D
:1078C000002422001C4BE0B21B78002B11D0660074
:1078D000AB5D190719D519490F78002F09D0082277
:1078E0009343AB55FFF7C4FF0222AB5D93433A00CD
:1078F000AB550134102CE5D1002A04D000230E4AE8
:1079000013700E4A13700020F8BDDE07F60FF0D09A
:107910009B07EED4FFF7ACFF3200EAE7FFF756FF14
:107920000028CDD00122044B1A700022034B1A709C
:10793000C6E7C046E81B0020E61B0020E71B00202E
:10794000F8B500250A4E6F00BC5DE407E40F03D0D4
:10795000FFF73CFF002809D0F35D9C07E40F05D139
:107960001C07E40F02D10135102DECD12000F8BD29
:10797000E81B0020F0B587B00E00002069461C000F
:107980005BB2CA74834220DB73780293337803932B
:10799000029B1F02039BFF18BFB27D1EEBB2019337
:1079A000FFF7CEFF5E4BFF18BFB2002829D10F2F83
:1079B0000BD803222240012A09D1019B59495D00BD
:1079C0006B5C023083436B54012007B0F0BD022A88
:1079D000FAD16C46544BE47C1968544B1980019BD6
:1079E000504958000B185C700124435C1343234337
:1079F000435431004E4806F09CFA0198FFF732FFDD
:107A0000E2E70F2F70D803206946019B454F5D00C8
:107A10000440E85D0307DA0F0A75002B11DA022C27
:107A2000D2D122003100424806F083FA0822EB5DF1
:107A300001989343EB55FFF71BFF00223D4B1A7053
:107A4000C2E7012C13D10223384A9843364B1288DF
:107A50001B68E8559B1A384A9BB212889A42B3D2E7
:107A60000198FFF705FF6A46324B127DE7E7022CCB
:107A7000AAD12F4A039913780443EC552B4C8B421F
:107A800023D1527802998A421FD17078000218439C
:107A9000FFF7BCFE002818D0284B00229A5E531C2A
:107AA00020D1274B1A88204B21881B685B1A9BB278
:107AB0009A4200D288E708237A5D310013437B5550
:107AC00002221B4806F035FA7EE7174B6A461B6810
:107AD000D27C238001247B195A707B5D02222343D0
