:020000022000DC
:1070000000000220F9BE040021BF040023BF0400D9
:1070100025BF040027BF040029BF040000000000B2
:107020000000000000000000000000002BBF040072
:107030002DBF0400000000002FBF040031BF04007A
:10704000759F0300E9CE020019B30300C5A8030031
:10705000D9A0030033BF040033BF040033BF0400D2
:1070600033BF040033BF040033BF040033BF040048
:1070700033BF040033BF040033BF040033BF040038
:1070800033BF0400F18E030033BF040033BF04009C
:1070900033BF040033BF04007D93030033BF0400FB
:1070A00033BF0400F9CE0200F1CE0200E1A70300D5
:1070B00033BF040033BF04000000000000000000E4
:1070C00033BF0400CDB9030033BF0400EDA00300BB
:1070D00033BF040033BF040033BF040055C80300AE
:1070E00033BF0400000000000000000000000000AA
:1070F0000000000033BF04000000000033BF0400A4
:10710000000000000000000000000000000000007F
:10711000000000000000000000000000000000006F
:10712000000000000000000000000000000000005F
:10713000000000000000000000000000000000004F
:10714000000000000000000000000000000000003F
:10715000000000000000000000000000000000002F
:10716000000000000000000000000000000000001F
:10717000000000000000000000000000000000000F
:1071800000000000000000000000000000000000FF
:1071900000000000000000000000000000000000EF
:1071A00000000000000000000000000000000000DF
:1071B00000000000000000000000000000000000CF
:1071C00000000000000000000000000000000000BF
:1071D00000000000000000000000000000000000AF
:1071E000000000000000000000000000000000009F
:1071F000000000000000000000000000000000008F
:1072000010B5054C237833B9044B13B10448AFF3E0
:1072100000800123237010BD305F002000000000BB
:107220004075050008B5034B1BB103490348AFF394
:10723000008008BD00000000345F0020407505009C
:10724000A3F5803A704700BF174B002B08BF134BC4
:107250009D46FFF7F5FF00218B460F461348144A61
:10726000121A00F063F80E4B002B00D098470D4B1C
:10727000002B00D098470020002104000D000D488D
:10728000002802D00C4828F05EFF00F02BF8200008
:10729000290014F0F9FB00F011F800BF000008000D
:1072A000000000000000000000000220305F00200D
:1072B000BC6D0120470105000000000008B5074B28
:1072C000044613B1002129F095F9054B1868836A2B
:1072D00003B19847204600F031F800BFF5050500DE
:1072E000140E050070B50D4D0D4C641BA410002646
:1072F000A64209D10B4D0C4C29F080FD641BA41053
:107300000026A64205D170BD55F8043B98470136CA
:10731000EEE755F8043B98470136F2E7845D00201C
:10732000845D0020845D0020F85D00200244034657
:10733000934200D1704703F8011BF9E7FEE700BF55
:10734000024AD2F80034002BFBD0704700E0014025
:107350004FF08053D3F830310D2B66D14FF080437E
:107360000022C3F80C21C3F81021C3F838254FF0D0
:107370008053D3F830310D2B57D14FF08053D3F8D1
:107380000414514AC2F82015D3F80814C2F8241581
:10739000D3F80C14C2F82815D3F81014C2F82C1521
:1073A000D3F81414C2F83015D3F81814C2F83415F1
:1073B000D3F81C14C2F84015D3F82014C2F84415B1
:1073C000D3F82414C2F84815D3F82814C2F84C1581
:1073D000D3F82C14C2F85015D3F83014C2F8541551
:1073E000D3F83414C2F86015D3F83814C2F8641511
:1073F000D3F83C14C2F86815D3F84014C2F86C15E1
:10740000D3F84414C2F87015D3F830310D2B0CD1D9
:107410004FF08043D3F8003413F0010F05D04FF044
:1074200080436FF00102C3F80024284AD2F8883064
:1074300043F47003C2F88830BFF34F8FBFF36F8FF0
:107440004FF08053D3F830310D2B0AD04FF010237A
:10745000D3F80C3213F0010F12D11D4B1D4A1A60E4
:1074600070474FF08053D3F83431012BEED94FF0F1
:107470001023D3F808224FF08043C3F85825E5E7DE
:1074800010B5154C0123C4F80435FFF759FF4FF030
:107490001022D2F80C3223F00103C2F80C32FFF7AD
:1074A0004FFF0023C4F80435FFF74AFFBFF34F8FA7
:1074B0000649CA6802F4E062084B1343CB60BFF38D
:1074C0004F8F00BFFDE700BF00C0004000ED00E0AF
:1074D000E05900200090D00300E001400400FA05CC
:1074E00008B505F0EFFA08BD00B9704738B5054694
:1074F000FFF7F6FF044616F06BF8FFF7F1FF001BED
:10750000A842F8D338BD000008B5FA2005F0A2FA69
:1075100012F05AF8A0B112F0AFFAD0B1002012F078
:1075200073F9002012F07EF812F0CAF90028FBD09F
:1075300012F050F90028F7D011F016F990B908BDF3
:1075400012F048F80028E6D0094A382111F072FDFF
:10755000E1E712F097FA0028E0D0054A412111F046
:1075600069FDDBE7024A4C2111F064FDE7E700BF4B
:10757000180E050008B5002001F092FE00B108BD0C
:107580004FF0E023D3F8F03D13F0010FF7D000BE29
:10759000F5E70246037813F001000ED11378C3F328
:1075A000800113F0040F11D1137813F0010006D1FC
:1075B000137813F0040F04D070470020704708467A
:1075C0007047137843F0040313700120704703469B
:1075D0000278C2F3800012F0040F00D170471A78CD
:1075E00012F0010F01D0002070471A786FF3820269
:1075F0001A70F3E78388C3F30A02C37803F0030326
:10760000022B19D0032B34D0012B01D0002070475E
:10761000022940F2FF3308BF4FF48063934201D345
:10762000012070474FF0E023D3F8F03D13F0010F35
:1076300032D000BE00207047022903D0402A0ED865
:1076400001207047B2F5007F28D04FF0E023D3F837
:10765000F03D13F0010F23D000BE002070474FF023
:10766000E023D3F8F03D13F0010F1BD000BE002043
:10767000704702290CBF4FF480634023934201D32B
:10768000012070474FF0E023D3F8F03D13F0010FD5
:107690000AD000BE002070470020704701207047CC
:1076A0000020704700207047002070470A44914234
:1076B00007D370475DF804FB91F800C061448A422B
:1076C0001AD991F801C0BCF1050FF5D100B591F8B8
:1076D00002C00CF07F0E4FEADC1C00EB4E0E0EF8E1
:1076E0000C3091F800C061448A42E3D991F801C09E
:1076F000BCF1050FF5D1EAE77047000008B581F845
:107700002C208B688A6B9B1A8B62022381F83030A5
:1077100091F83C306BB18B6853B18B6A43B10B7BF2
:10772000DB0914BF91F82E1091F82F1002F046F8E3
:1077300008BD054B052283F83C20202283F83D201C
:10774000002283F83E20E6E74C61002030B587B088
:1077500005460C46CA8A52BA92B21AB18B68B3FB7C
:10776000F2F292B2D4F8111009BAA06BB0FBF2FC9D
:10777000A3681B1AB3F5007F28BF4FF40073009372
:107780001E4B02FB1C026144607B14F0ADFF00281D
:1077900012DB08BB94F82E300021039104918DF880
:1077A0000C5007228DF80D208DF81030059103A89C
:1077B00001F0DEFD07B030BD114B022283F83C2002
:1077C0003A2283F83D20002283F83E200122214600
:1077D0002846FFF793FFEDE783B2084A94F82E108E
:1077E000284601F097FF0028E4D14FF0E023D3F8BA
:1077F000F03D13F0010FDDD000BEDBE74C5F002051
:107800004C61002038B505460C46184B1BB1487B2F
:1078100014F0A8FF80B1A368A26B9B1AB3F5007F98
:1078200028BF4FF400739BB2114A94F82F102846DA
:1078300001F070FF80B138BD0E4B072283F83C2069
:10784000272283F83D20002283F83E200122214692
:107850002846FFF753FFEEE74FF0E023D3F8F03D63
:1078600013F0010FE7D000BEE5E700BF65C70300D6
:107870004C5F00204C610020C38A5BBA9BB28268D7
:1078800022B9002B0CBF002002207047C17B2829A1
:1078900007D02A290AD073B19A4234BF02200020AF
:1078A0007047017BC909F6D102207047017BC909E5
:1078B000F1D002207047012070470000044880F892
:1078C0003C1080F83D2080F83E300120704700BF1A
:1078D0004C61002008B5402200210248FFF726FD38
:1078E00008BD00BF4C61002008B5402200210248BD
:1078F000FFF71CFD08BD00BF4C6100204B79082B31
:1079000045D110B582B004468B79062B41D1CB7995
:10791000502B41D1162A09D84FF0E023D3F8F03D7F
:1079200013F0010F3AD000BE002033E08A781E4BDE
:1079300083F82D20087803F12E0201922F33009353
:1079400002231A460144204601F082FE40B94FF05E
:10795000E023D3F8F03D13F0010F21D000BE19E071
:10796000114A002382F830301F2392F82F1020464E
:1079700001F0D0FE08B117200CE04FF0E023D3F85F
:10798000F03D13F0010F0DD000BE172002E00020E3
:107990007047002002B010BD0020FBE70020F9E78F
:1079A0000020F7E71720F5E74C610020012940F09F
:1079B000A58030B583B005461446137803F07F02E6
:1079C000022A13D003F06003202B40F09D806378DF
:1079D000FE2B78D0FF2B40F09A806388002B40F07C
:1079E0009880E388002B5CD000208EE06278012A2A
:1079F000E8D16388002B40F08380A488E4B2464B32
:107A000093F83030042B0CD0434A92F82E20A24237
:107A10000CD0414A92F82F20A24273D113B3012017
:107A200073E0214601F0CAFE01206EE0022B01D076
:107A300001206AE0384A9368916B5B1A93620323D2
:107A400082F830300D232032214601F063FE0028F9
:107A50005BD14FF0E023D3F8F03D13F0010F54D089
:107A600000BE52E0214601F09BFE00284DD1214688
:107A7000284601F0F3FE002847D1274A82F830005B
:107A80001F2392F82F10284601F044FE00283CD115
:107A90004FF0E023D3F8F03D13F0010F35D000BED6
:107AA00033E01D4B002283F830205A639A6383F839
:107AB0003C2083F83D2083F83E202146284602F0F2
:107AC00017FB012021E0638853B9E388012B07D11C
:107AD0008DF80730114B2BB114F05AFD014608B94F
:107AE000002012E001398DF8071001230DF1070283
:107AF0002146284602F016FB012006E001207047CF
:107B0000002002E0012000E0002003B030BD002092
:107B1000FBE70020F9E700BF4C61002091C503009E
:107B2000F0B58FB005461C46AA4A92F83020012ACB
:107B300000F0F481032A00F0C9824AB1A54B93F802
:107B40003030022B18BF012000F000820FB0F0BDD2
:107B5000A04B93F82F308B4240F0FF821F2C04D1B2
:107B60009C4B1A689C4B9A420FD09A4C042384F881
:107B7000303094F82E10284601F020FE94F82F1093
:107B8000284601F01BFE0020E0E7924B934A1A6260
:107B90005A685A6200229A6283F82C20012083F8E6
:107BA00030009C685C639A63DE7B06F0FD03282B43
:107BB00010D0002C00F0D982864B1B7BDB0940F0F3
:107BC000D482B4F5007F21D9012282492846FFF7EB
:107BD00095FDB3E77F48FFF74FFE024638B984B101
:107BE000282E09D07B492846FFF70CFEA6E77949E5
:107BF0002846FFF783FDA1E776492846FFF7A6FD53
:107C00009CE7744B022283F830209FE1A3B2744AB0
:107C1000284601F07FFD002890D14FF0E023D3F8F3
:107C2000F03D13F0010F91D000BE8FE7384614F0FD
:107C300007FD002840F09382664B93F83C30002B00
:107C400044D1644B022283F83C203A2283F83D2041
:107C5000002283F83E2039E0624B002B00F0818245
:107C60005C4BD97CC1F3400301F00102090938469D
:107C700014F024FD002840F07682564B93F83C30F7
:107C800023BB544B022283F83C203A2283F83D2048
:107C9000002283F83E2019E00DF10E0204A93846B7
:107CA00014F0F4FC049B13B1BDF80E200ABB494B41
:107CB00093F83C3083B14FF0FF33002B80F2FD800E
:107CC000444B93F83C30002B00F0EC8001224149FA
:107CD0002846FFF713FD31E73E4B022283F83C2094
:107CE0003A2283F83D20002283F83E204FF0FF33F4
:107CF000E3E7013B1BBA059312BA0692082205A9D5
:107D0000374828F04FFA0823D7E700230593069356
:107D1000079308238DF8173002238DF81C300DF1DE
:107D20000E0204A9384614F0B1FC049A12B1BDF851
:107D30000E309BB9274B93F83C3013B14FF0FF3313
:107D4000BBE7244B022283F83C203A2283F83D20F3
:107D5000002283F83E204FF0FF33AEE712BA0692BE
:107D60005BBAADF81E300C2205A91D4828F01AFA9E
:107D70000C23A2E724242246002105A8FFF7D6FA07
:107D800080238DF8153002238DF816308DF81730CA
:107D90001F238DF818300822202107A8FFF7C6FA04
:107DA000102220210DEB0400FFF7C0FA042220214D
:107DB0000DA8FFF7BBFA0DAB0DEB040207A938467F
:107DC00014F0F0FB224605A9054828F0EBF92346FC
:107DD00073E000BF4C61002055534243555342535A
:107DE0004C5F0020BDC6030003238DF81430002231
:107DF0008DF815209DF8163003F0800362F3C71349
:107E00008DF816308DF81720AC4B93B1384614F02E
:107E1000A9FC034683F001039DF8162063F3C71203
:107E20008DF81620042205A9A54828F0BBF90423E3
:107E300043E00123EEE7002305930693079308939D
:107E4000ADF82430F0238DF814300A238DF81B3060
:107E50009C4B4FF0000293F83C1061F303028DF845
:107E6000162093F83D208DF8202093F83E308DF8B1
:107E70002130122205A9924828F094F9924B002B48
:107E800000F0C8814FF400728D493846AFF300808E
:107E90008C4B002283F83C2083F83D2083F83E2061
:107EA000031E0ADA8748838E854A00F10F01407B62
:107EB00014F0FAFB031EFFF609AF6BB9814B9B6808
:107EC00023B9804B022283F830203FE001227D4914
:107ED0002846FFF713FC31E67A4A92682AB9012254
:107EE00078492846FFF70AFC28E6934228BF134644
:107EF00074494B639BB2724A91F82E10284601F0E8
:107F000009FC00287FF41AAE4FF0E023D3F8F03DCF
:107F100013F0010F3FF41AAE00BE17E6694BDB7B8E
:107F2000282B41D02A2B4FD0664A936B234493636E
:107F3000137BDB0900F0A780624B9A6B5B6B9A4264
:107F4000C0F0B2805F4B022283F830205D4B93F883
:107F50002E10284601F082FC00287FF4F7AD594A24
:107F60009368926B934204D95649097BC90940F042
:107F7000EC8054499B1A8B62032381F830300D2327
:107F800001F1200291F82E10284601F0C3FB0028D1
:107F90007FF4DCAD4FF0E023D3F8F03D13F0010F98
:107FA0003FF4D4AD00BED1E5464A936B23449363BE
:107FB000526B934204D3434B022283F83020C5E72F
:107FC0004049FFF7C3FBB9E53E4BDA8A52BA92B299
:107FD0001AB19B68B3FBF2F292B23A48D0F8111092
:107FE00009BA876BB7FBF2F60094354B02FB1672A9
:107FF0003144407B14F090FB011E16DB8C4231D9DA
:10800000641A002923DC2F4B93F82F3000210591AF
:1080100006918DF8145007228DF815208DF8183030
:10802000079405A801F0A4F988E526498B6B234441
:108030008B63022381F83C303A2381F83D300023E2
:1080400081F83E3001222846FFF758FB76E51D4AAD
:10805000936B13FA81F3936319482246014428F085
:10806000AFF8D0E7174A936B23449363526B934264
:1080700004D3144B022283F8302067E711492846C5
:10808000FFF7C0FB5AE51046938E0D4A00F10F0131
:10809000407B14F009FB0028BFF64EAF01220949CE
:1080A0002846FFF72BFB47E74FF0E023D3F8F03DDE
:1080B00013F0010F3FF442AD00BE3FE565C703007A
:1080C0004C5F00204C61002000000000564B93F8EC
:1080D0002E308B4201D0012038E50D2C01D001203B
:1080E00034E5514BDB7B282B0AD02A2B25D04F4B74
:1080F00063B14D4B03F10F01587BAFF3008005E0F6
:108100004B4B1BB1484B587BAFF30080464A0023D2
:1081100082F830301F2392F82F10284601F0FAFA27
:1081200000287FF40BAD4FF0E023D3F8F03D13F0BF
:10813000010F3FF40BAD00BE08E53E4B002BE5D030
:10814000394B587B14F000FBE0E7374B93F82E10C7
:10815000284601F033FB0120F8E40120F6E4002377
:10816000ABE60023A9E60023A7E62F4B5F7B252E75
:108170003FF6A6AD01A353F826F000BF2D7C020008
:10818000C17C0200C17C0200377E0200C17C02007B
:10819000C17C0200C17C0200C17C0200C17C0200E3
:1081A000C17C0200C17C0200C17C0200C17C0200D3
:1081B000C17C0200C17C0200C17C0200C17C0200C3
:1081C000C17C0200757D0200C17C0200C17C0200FE
:1081D000C17C0200C17C0200C17C0200C17C0200A3
:1081E000C17C0200E97D0200597C0200C17C0200D2
:1081F000C17C0200C17C0200C17C0200C17C020083
:10820000C17C0200C17C02000B7D0200C17C020027
:10821000997C0200044B002283F83C2083F83D2027
:1082200083F83E20122348E64C6100200000000045
:108230000000000049C7030038B5044600F11005EE
:10824000284602F08DFA3F2800D838BDA1780020DA
:1082500001F040FA0028F8D0284602F081FA3F28C1
:1082600007D9402304F59472A178002001F052FA56
:10827000EBE7A178002001F03DFAE6E770B504468F
:1082800000F11C05284602F040FA08B9002070BD34
:108290006178002001F01EFA08B90020F7E704F524
:1082A000B47640223146284602F07EFA054690B167
:1082B000034632466178002001F02CFA48B94FF0AD
:1082C000E023D3F8F00D10F00100E0D000BE002054
:1082D000DDE72846DBE76178002001F00BFA00209B
:1082E000D5E7000030B583B00D4C4FF4D4720021B7
:1082F0002046FFF71BF8002500950123802204F19A
:10830000280104F1100002F0E9F900950123802210
:1083100004F1A80104F11C0002F0E0F903B030BD43
:108320008C61002010B5074C102200212046FEF77A
:10833000FDFF04F1100002F08EFA04F11C0002F0BF
:108340008AFA10BD8C6100202DE9F0474B79012B92
:108350007CD1064615468B79012B7BD1CB79002B3E
:108360007AD10C78A3B20C446278242A0CD1AB42A7
:1083700074D8227813449BB214446278242A03D11F
:108380009D42F6D2002762E0042A69D16279012A6F
:1083900068D1A279032A67D1E279002A66D1354AE9
:1083A00092F80190927859EA020908D04FF0E02340
:1083B000D3F8F03D13F0010F11D1002747E0A17869
:1083C0002C4A117094F8008043449FB2A044237952
:1083D000002B37D0BD4235D3DFF898A016E000BEA1
:1083E000002734E04FF0E023D3F8F03D13F0010F05
:1083F0003ED000BE00272AE098F80020BB189FB2AC
:10840000904423794B451DD9BD421BD398F80130C8
:10841000052BF1D14146304601F0ECF80028E1D0BF
:1084200098F80230DA0914BF8AF801308AF802306D
:1084300098F80020BB189FB2904409F101095FFA37
:1084400089F9D9E70B48FFF7F7FE00E00027384627
:10845000BDE8F0870027FAE70027F8E70027F6E7EE
:108460000027F4E70027F2E70027F0E70027EEE710
:108470000027ECE78C6100200020704738B51C46CF
:10848000284A92788A4235D00546264B5B788B4243
:1084900041D04FF0E023D3F8F03D13F0010F23D08B
:1084A00000BE00243CE01F48FFF7E8FE08B10124AD
:1084B00036E01D4802F029F9C0B9CCB114F03F0FE5
:1084C00001D001242CE0174B5978284601F002F91D
:1084D000044608B9012423E000231A4611494978CB
:1084E000284601F017F91BE0002419E0012417E0E9
:1084F000012415E00B489AB200F59471103002F097
:10850000A5F90A4B13B10020AFF300800548FFF72F
:1085100093FE012404E0034B5B788B42C3D001241B
:10852000204638BD8C610020A861002000000000BA
:1085300010B504468178002001F032F900B110BD79
:10854000201D02F00DF93F28F9D9402304F19C02C7
:10855000A178002001F0DEF8F1E770B5044641781B
:10856000002001F01DF910B10025284670BD04F16E
:10857000DC064022314604F1100002F015F90546F0
:108580000028F2D0034632466178002001F0C2F89C
:108590000028EAD14FF0E023D3F8F03D13F0010FAB
:1085A00002D000BE0025E0E70025DEE730B583B04D
:1085B0000D4C4FF48E7200212046FEF7B7FE0025C9
:1085C00000950123402204F11C01201D02F086F8D1
:1085D00000950123402204F15C0104F1100002F037
:1085E0007DF803B030BD00BF3463002010B5074CE8
:1085F000042200212046FEF799FE201D02F02BF9EF
:1086000004F1100002F027F910BD00BF3463002010
:108610004B79FF2B56D170B582B006460D460C78CB
:108620000C442B4B59789B780B4318BF002001D08A
:1086300002B070BDA978264B1970287910B3637801
:10864000052B09D0A3189C4206D221780C446178EE
:10865000052901D0A342F8D81D4B5A1C01920233C0
:108660000093022302462146304600F0F1FF60B13C
:108670002B79C3EBC3031C44154B997871B9144B88
:108680005B78DBB9601B80B2D2E74FF0E023D3F810
:10869000F03D13F0010F17D000BEC9E740230D4A8B
:1086A000304601F037F80028E9D14FF0E023D3F845
:1086B000F03D13F0010F09D000BEB9E70448FFF701
:1086C0004CFFDFE7002070470020B1E70020AFE754
:1086D00034630020D063002008B5134A92788A42A0
:1086E00005D0114A52788A4212D0002008BD0E48A7
:1086F0009AB200F19C01043002F0A8F80B4B13B1C0
:108700000020AFF300800848FFF712FF0120EDE7DB
:10871000074A1AB199B20020AFF300800248FFF770
:108720001CFF0120E2E700BF3463002000000000CE
:1087300000000000F8B504460E4617461D461A4BC9
:108740008C2202FB00335978002000F0C3FFD0B127
:10875000D6B115488C2303FB04021672104609306B
:108760003F2D1DD82A46394627F01CFD0135ADB2F4
:108770000D488C2303FB040210462B460832417837
:10878000002000F0C7FFF8BD07488C2303FB04005E
:108790000830402D06D82A46394627F003FDE7E782
:1087A0000020F0E70020EEE75064002008B58C229E
:1087B00000210248FEF7BAFD08BD00BF506400204A
:1087C00008B50020FFF7F2FF08BD000070B582B0C9
:1087D0004B79032B6BD106460D460C79C4EBC404D0
:1087E0001234A4B294420BD8364B5B7893B14FF05D
:1087F000E023D3F8F03D13F0010F1AD1002457E025
:108800004FF0E023D3F8F03D13F0010F53D000BE3A
:1088100000244DE00B7819444A78212A0CD04FF0FF
:10882000E023D3F8F03D13F0010F46D000BE002442
:108830003EE000BE00243BE0224AC2F88810E85C1B
:10884000531C01930232009203232A7901443046DB
:1088500000F0FEFEE8B1AB79012B24D0194B0122C8
:108860001A71AA781A70D3F88820B2F80720DA8033
:108870009978E9B14023144A304600F04BFFB8B96B
:108880004FF0E023D3F8F03D13F0010F10D000BEFD
:108890000EE04FF0E023D3F8F03D13F0010F0ED0BF
:1088A00000BE002404E0EA79064BDA70D6E7002423
:1088B000204602B070BD0024FAE70024F8E7002447
:1088C000F6E700BF506400209864002070B582B0C5
:1088D0001446137803F01F02012A40F0F080054689
:1088E000A2887D480078D2B2904218BF002040F0A4
:1088F000E78013F0600328D1012901D00120DFE0D7
:108900006378062B01D00020DAE063881B0A212B54
:1089100003D0222B0DD00020D2E06F4BD3F888205B
:10892000002A00F0CF8013782146284601F0FAFB98
:10893000C6E0002014F0C6F80246674BDB882146EB
:10894000284601F0EFFB0120BAE0202B40F0BC806C
:108950006378013B0A2B00F2B980DFE803F006815F
:108960008DB7B7B7B7B73B6D9900012901D001208A
:10897000A6E063881A0AE6883046402E28BF4020C9
:1089800013F0FF0108D0012E1AD9534B1972013888
:1089900080B20126093301E00026504B00900020F0
:1089A00014F098F833189BB26BB94FF0E023D3F86A
:1089B000F03D13F0010F00F08B8000BE00207FE03F
:1089C0000026464BEAE7454A2146284601F0AAFB25
:1089D000012075E0012903D003290DD001206FE0AB
:1089E000E388402B01D900206AE03D4A2146284611
:1089F00001F098FB012063E063881A0AE4882046AE
:108A0000402C28BF402013F0FF010CD0012C11D9BD
:108A1000314B93F848308B4201D0314B04E00138A0
:108A200080B2304B00E02E4B0090002014F066F82E
:108A3000012045E02A4BF7E7012901D001203FE062
:108A40006188090A244B5971274B1BB10020AFF3F1
:108A50000080A8B32146284601F04AFB01202FE000
:108A6000012901D001202BE00123204A214628467C
:108A700001F058FB012023E0012901D001201FE073
:108A800001231B4A2146284601F04CFB012017E038
:108A9000012903D0032907D0012011E021462846EF
:108AA00001F026FB01200BE06188C9B20A4B197165
:108AB000104B7BB10020AFF30080012000E00020CC
:108AC00002B070BD0020FBE70020F9E70020F7E7C7
:108AD0000020F5E70120F3E75064002058640020EF
:108AE0009864002099640020000000005564002074
:108AF000546400200000000070B582B0204A9278D3
:108B00008A421BD01E4A52788A420AD04FF0E02394
:108B1000D3F8F03D13F0010F0CD000BE002002B0DE
:108B200070BD184A42B19AB217490020AFF30080D5
:108B30000120F4E70020F2E70120F0E70446104AA4
:108B400052788A42EDD00E4D05F148069BB2009353
:108B5000334600221146104613F0D0FF4023324620
:108B6000A978204600F0D6FD0028D8D14FF0E023A8
:108B7000D3F8F03D13F0010FD1D000BECFE700BF16
:108B800050640020000000005864002038B50446FE
:108B900000F11005284601F0E3FD3F2801D8002030
:108BA00038BDE178002000F095FD0028F8D0284677
:108BB00001F0D6FD3F2807D9402304F50A72E17879
:108BC000002000F0A7FDEBE7E178002000F092FD27
:108BD0000020E5E710B5044600F010FB08B90020BE
:108BE00010BD00F013FB40B905484FF42A7303FB96
:108BF0000400007900F00100F2E70020F0E700BF78
:108C0000DC640020064B4FF42A7202FB0030D0F8DF
:108C100006300B604289037B8A808B71704700BFEE
:108C2000DC64002008B5044B4FF42A7202FB0030CC
:108C3000103001F06AFD08BDDC64002070B54FF40F
:108C40002A7400FB04F4064E04F1100092B2304482
:108C500001F0AAFD05463019FFF798FF284670BDC0
:108C6000DC64002008B5044B4FF42A7202FB00308C
:108C7000103001F0B0FD08BDDC640020F8B50646F8
:108C800000F0BCFA08B90020F8BD00F0BFFA0028D7
:108C900043D14FF42A7406FB04F4214D25442846A1
:108CA00001F033FD08B90020EEE71E4B4FF42A72A5
:108CB00002FB06339978002000F00CFD08B9002073
:108CC000E2E7194F274440223946284601F06CFD5F
:108CD0000446B8B113484FF42A7303FB0600234639
:108CE0003A468178002000F015FD48B94FF0E023A6
:108CF000D3F8F00D10F00100C6D000BE0020C3E78D
:108D00002046C1E707484FF42A7303FB0600817829
:108D1000002000F0EFFC0020B6E70020B4E700BF21
:108D2000F8640020DC6400204467002070B505462C
:108D30000A4C4FF42A7303FB00441C3492B22046C1
:108D400001F084FD0646204601F0DFFC3F2801D8F3
:108D5000304670BD2846FFF791FFF9E7DC6400203C
:108D600008B5044B4FF42A7202FB00301C3001F0AE
:108D7000F7FC08BDDC64002010B582B0144C4FF441
:108D80002A7200212046FEF7D1FAFF2363710023E7
:108D90004FF44242E28001222281A372E372082250
:108DA0002273009301234FF4807204F1280104F12F
:108DB000100001F093FC012300934FF4807204F53E
:108DC000947104F11C0001F089FC02B010BD00BFD9
:108DD000DC64002010B5094C052200212046FEF776
:108DE000A5FA04F1100001F036FD1C34204601F014
:108DF00032FD0121204601F033FD10BDDC6400206E
:108E0000F0B583B04B79022B67D106468B79022BE4
:108E100067D1384B9B7843B14FF0E023D3F8F03D56
:108E200013F0010F1BD1002558E08878314B1870E2
:108E30000C780C446378242B18BF092512D1082A1A
:108E400055D9092523781D44ADB21C446378242BE1
:108E500008D1AA42F6D22748FFF798FE3EE000BEAE
:108E600000253BE0052B17D06378042BF3D1637901
:108E70000A2BF0D127781F4B9A1C019203330093E1
:108E800002231A46E119304600F0E2FBD8B10E3554
:108E900017FA85F5ADB2DEE72146304600F0AAFBB1
:108EA00038B1A278134B5A7023781D44ADB21C44DC
:108EB000DAE74FF0E023D3F8F03D13F0010F12D0C2
:108EC00000BE00250AE04FF0E023D3F8F03D13F098
:108ED000010F0AD000BE002500E00025284603B09F
:108EE000F0BD0025FAE70025F8E70025F6E709259B
:108EF000B1E700BFDC64002038B5137803F06003ED
:108F0000202B67D19446384B1A78BCF804309A422B
:108F100018BF00205FD19CF80130203B032B5BD8A9
:108F2000DFE803F002182344012903D0032908D005
:108F3000012050E007232D4A614601F0F3F801209B
:108F400049E02B4B002B49D028490020AFF300808B
:108F5000012040E0012901D001203CE00723234A01
:108F6000614601F0DFF8012035E0012903D0032933
:108F700006D001202FE0614601F0BAF801202AE076
:108F8000BCF802401848047114F001050CBF01211F
:108F900000211C3001F064FC164B0BB3C4F34002FB
:108FA0002946002013F0EFF8012014E0012903D036
:108FB000032906D001200EE0614601F099F8012056
:108FC00009E00D4B73B1BCF802100020AFF3008034
:108FD000012000E0002038BD0020FCE70120FAE776
:108FE0000120F8E70120F6E7DC640020E2640020BD
:108FF0000000000087C10300000000002DE9F84FC9
:1090000006460C461D46404AD2788A4260D03E4B06
:109010009B788B4225D04FF0E023D3F8F03D13F03E
:10902000010F4FD000BE002420E0B94510D098F9C0
:10903000052017F8013F9A42F7D1504601F076FB20
:109040000028F2D198F905105846AFF30080ECE7FC
:109050002E4B1BB12E4801F069FB50B12A48FFF797
:1090600095FD294B9B78A34206D001242046BDE8FC
:10907000F88FAFF30080F1E7264B13B10020AFF378
:1090800000800020FFF7FAFD08B10124EEE7224836
:1090900001F03BFBC0B9CDB115F03F0F01D0012469
:1090A000E4E7194B9978304600F014FB044608B900
:1090B0000124DBE700231A4613498978304600F083
:1090C00029FBD3E70024D1E70124CFE70124CDE732
:1090D0000D489AB200F50A71103001F0B7FB0F4B42
:1090E000002BB5D0084B93F90530B3F1FF3FAFD05B
:1090F000002DADD00A4F07EB0509A7F2272808F18C
:10910000100A4FF0000B92E7DC6400200000000022
:10911000EC64002000000000F86400200000000063
:10912000036700202DE9F0410546214B1B78002400
:10913000204E214FDFF8888010E004EB4403D8F87C
:10914000002012EBC30317D05B6828469847013410
:10915000E4B2174B1B781A1DA24217DB56B1A3428B
:10916000EBD8E31ADBB2042B06D803EB430307EB7F
:10917000C303E9E72346F6E74FF0E023D3F8F03DD9
:1091800013F0010F00D000BEBDE8F0810B4C372278
:1091900000212046FEF7CAF81022FF21E01CFEF74E
:1091A000C5F81222FF2104F11300FEF7BFF8EBE728
:1091B0008867002000000000440E05008C67002036
:1091C0008467002070B505460C461646C86800F056
:1091D000FDFFE368324601212846984770BD000034
:1091E00008B520B1044B187801F060FC08BD024BB3
:1091F000187801F061FCF9E7F4590020024B587827
:10920000003818BF012070478C670020024B187887
:10921000C0F38000704700BF8C67002010B50A4B78
:109220001B78C3F3800413F0040F06D0064B1B78A1
:1092300003F01803182B02D00024204610BD034B66
:10924000187801F057FCF8E78C670020F4590020EB
:1092500008B5054B2BB1054B187801F053FC0120E4
:1092600008BD0020FCE700BF05AB0200F459002058
:1092700008B5054B2BB1054B187801F057FC0120C0
:1092800008BD0020FCE700BF2DAB0200F459002010
:10929000024B1878FF3818BF01207047F45900209E
:1092A0002B4B1B78FF2B01D0012070472DE9F0419B
:1092B0000546372200212748FEF738F8264C201DA6
:1092C00001F0C9FA254B1C60254B23B12548AFF3AB
:1092D0000080254B1860234B1B780024204E234F21
:1092E000DFF884800FE004EB4403D8F8002012EB91
:1092F000C30316D01B6898470134E4B2194B1B789E
:109300001A1DA24217DB56B1A342ECD8E31ADBB216
:10931000042B06D803EB430307EBC303EAE723461A
:10932000F6E74FF0E023D3F8F03D13F0010F0CD037
:1093300000BE00200AE0064B1D70284601F0B4FB79
:10934000284601F0B3FB012000E00020BDE8F081D9
:10935000F45900208C670020E4590020C4670020E5
:10936000000000008867002084670020440E05008C
:109370002DE9F04385B005460E464378023B032BAA
:1093800000F2E080DFE803F00B0239608B4B1B78C2
:1093900000248B4FDFF83482DFF834928FE0894B62
:1093A0001A786FF300021A701A786FF341021A707C
:1093B000002159701A7861F382021A70824B1F687B
:1093C000002E40F0E2803C4654F8043B08469847A3
:1093D0002946204601F014FA04463B6801209847CC
:1093E00014B105B0BDE8F0834FF0E023D3F8F03DB1
:1093F00013F0010FF5D000BEF3E7724B1B7813F0AA
:10940000010FEED06F4A137843F0040313706E4BD4
:109410001F68002940F0C5803C4654F8043B0020FA
:1094200098472946204601F0EBF904463B680120A5
:109430009847002CD5D14FF0E023D3F8F03D13F03E
:10944000010FCED000BECCE75E4B1B7813F0010FAE
:10945000C7D05C4A13786FF3820313705A4B1F68AE
:10946000002940F0A4803C4654F8043B0020984773
:109470002946204601F0C4F904463B68012098477C
:10948000002CAED14FF0E023D3F8F03D13F0010FE4
:10949000A7D000BEA5E704EB4403D9F8002012EBE7
:1094A000C30305D017E023460FE069682878984782
:1094B0000134E4B2414B1B781A1DA2420FDB002F8E
:1094C000F1D0A342E7D8E31ADBB2042BF0D803EBC8
:1094D000430308EBC3035B69002BE6D1E8E7394B94
:1094E0001B7813F0040F3FF47CAF364A13786FF308
:1094F0008203137000230193029303932B788DF85A
:10950000043005238DF805302F4B1D68002E42D105
:109510002C4654F8043B0020984701A9204601F04E
:109520006FF904462B6801209847002C7FF459AF4F
:109530004FF0E023D3F8F03D13F0010F3FF451AFAB
:1095400000BE4EE7204B1F68C9B93C4654F8043BA7
:10955000002098472946204601F052F904463B680E
:1095600001209847002C7FF43CAF4FF0E023D3F864
:10957000F03D13F0010F3FF434AF00BE31E7014678
:10958000381D01F03DF90446ECE70146381D01F0B5
:1095900037F9044624E701A9281D01F031F90446F2
:1095A000C3E70146381D01F02BF9044641E70146A7
:1095B000381D01F025F9044662E700BF88670020E6
:1095C000000000008C670020C4670020440E0500E6
:1095D0008467002000B585B00023019308238DF82F
:1095E000053002900391114601A8FFF7C1FE05B0B6
:1095F0005DF804FB38B58B7803F07F03082B09D99D
:109600004FF0E023D3F8F03D13F0010F19D000BE66
:10961000002017E00C460C4B1D780C4B9978204627
:10962000FDF7E8FF40B94FF0E023D3F8F03D13F029
:10963000010F07D000BE05E02146284601F07EFA62
:1096400000E0002038BD00BFF45900208C670020E6
:109650002DE9F047DDF82090DDF824A0002A34D071
:1096600007460C461E46904600256378052B17D109
:10967000E27802F00302B24212D121463846FFF7E7
:10968000B9FF0246C0B1A378D90914BF8AF80030E7
:1096900089F8003023781C4401354545E5D108E0C0
:1096A0004FF0E023D3F8F03D13F0010F0FD000BED0
:1096B00000221046BDE8F0874FF0E023D3F8F03DDC
:1096C00013F0010FF5D000BEF3E70122F1E700220D
:1096D000EFE7000008B501F07F00CB09253303EB6D
:1096E0004003002102481844FDF753FF08BD00BFA6
:1096F0008C67002008B501F07F00CB09253303EB10
:109700004003002102481844FDF761FF08BD00BF77
:109710008C67002038B501F07F041F4800EB44003F
:1097200000EBD1102030407910F0010F09D04FF03C
:10973000E023D3F8F03D13F0010F2BD000BE002042
:1097400029E0CD09144800EB4400284490F825C0D6
:109750004CF0010C80F825C01048007801F0D0FAD8
:10976000C8B90D4B03EB4404254495F825306FF33D
:10977000000385F8253095F825306FF3820385F8CE
:1097800025304FF0E023D3F8F03D13F0010F02D065
:1097900000BE00E0002038BD8C670020F459002096
:1097A00001F07F02044B03EB420303EBD11191F86C
:1097B000250000F0010070478C67002038B501F0EB
:1097C0007F05104B03EB450303EBD11320335B798B
:1097D00013F0020F00D038BDCC090B4B187801F004
:1097E00019FB084B03EB4503234493F8252042F073
:1097F000020283F8252093F8252042F0010283F825
:109800002520E8E78C670020F459002038B501F0E6
:109810007F05104B03EB450303EBD11320335B793A
:1098200013F0020F00D138BDCC090B4B187801F0B2
:1098300019FB084B03EB4503234493F825206FF3F2
:10984000410283F8252093F825206FF3000283F866
:109850002520E8E78C670020F459002001F07F0202
:10986000044B03EB420303EBD11191F82500C0F345
:10987000400070478C670020A04B1B78FF2B00F046
:10988000FE832DE9F04F8BB0DFF890B29C4F09E0DA
:109890009DF81C00FFF746FC00F08EFC9DF8202090
:1098A000984B9A70984B1D682C4654F8043B002046
:1098B000984707A9204600F065FF04462B68012061
:1098C0009847002C00F0A4839DF81D30013B072B26
:1098D00000F2C68301A252F823F000BF9198020063
:1098E000FD98020061A0020017A0020039A002004A
:1098F00015990200819F020053A002009DF81C00F0
:10990000FFF710FC00F058FC804B002BCAD0AFF3DF
:109910000080C7E77B4B1A7842F001021A7093F877
:1099200025206FF3000283F8252093F825206FF39C
:10993000820283F8252093F826206FF3000283F833
:10994000262093F826206FF3820283F826209DF8C4
:109950001C90002000F03AFC9DF8204004F06004C8
:10996000602C15D0402C26D09DF8203003F01F032A
:10997000012B00F04682022B00F08B8253B34FF094
:10998000E023D3F8F03D13F0010F09D000BE07E04B
:109990004FF0E023D3F8F03D13F0010F00D000BEEC
:1099A00000219DF81C0001F035FA80219DF81C0073
:1099B00001F030FA76E7564B002BF1D0184600F054
:1099C00005FC08AA0121484612F0E2FE00287FF4B7
:1099D00069AFE5E7202C11D08CBB9DF82130092B15
:1099E00000F20582DFE813F0F101E2010302BF019A
:1099F000030234004B01030242004E009DF8243064
:109A00000F2BCDD83F4A1344DB78424A2AB1424A51
:109A1000127893420CD39B1ADBB2042BC0D803EB11
:109A200043030BEBC30108AA4846FFF7CBFBCDE786
:109A300003EB4303396811EBC301B1D0F3E74FF0F7
:109A4000E023D3F8F03D13F0010FA9D000BEA7E743
:109A500008A800F0C1FB9DF82210484601F038F834
:109A6000284A137843F0020313701BE7254B5B78F9
:109A70008DF81A3001230DF11A0208A9484600F0AA
:109A800051FB0FE79DF8222000921E4B5B78DBB262
:109A90009A4204D01B4B5B784BB9009B8BB9194B96
:109AA000009A5A7008A9484600F022FBFAE6484698
:109AB00001F0E2F8134DAE784846FFF733FBAE7085
:109AC000EBE7581EC0B212F053FD034618B14278BE
:109AD0000492022A24D04FF0E023D3F8F03D13F093
:109AE000010F00D000BE4FF0E023D3F8F03D13F09B
:109AF000010F3FF455AF00BE52E700BFF4590020FC
:109B0000846700208C670020C467002000000000EC
:109B100091C703000000000088670020440E050084
:109B2000C17998484D11027865F30412891161F3E7
:109B30004512027003F1090A5A88134401930594EF
:109B4000019B534540F294809AF801300B2B03BFE0
:109B50009AF803809AF800309A444FF001089AF876
:109B60000130042B0AD1019BA3EB0A039BB20293A1
:109B7000854B1B78059E002203924CE04FF0E023BA
:109B8000D3F8F03D13F0010FADD000BEABE73D6858
:109B9000182303FB0655002D4AD14FF0E023D3F8DC
:109BA000F03D13F0010F9ED000BE9CE7334639E034
:109BB000AB68764A0499934208BF8846744A934238
:109BC00008BF884642E04FF0E023D3F8F03D13F0A1
:109BD000010F88D000BE86E73346224651466D48C5
:109BE000FDF764FDA244684B1B780433039A93424B
:109BF000A6DA4FF0E023D3F8F03D13F0010F3FF465
:109C000072AF00BE6FE70136F6B25F4B1B7803966A
:109C10001A1DB242EDDB604A002AC7D09E42B6D37D
:109C2000F31ADBB2042BB8D803EB43030BEBC305E9
:109C3000AB68029A51464846984704460828E2D93C
:109C4000029B8342DFD3B8F1010FB1D000224D490E
:109C5000D3B29845C0D99AF802000344D8B2013271
:109C600051FA83F3DB78FF2BADD10B18DE70EFE7F1
:109C70004A4B002B3FF413AFAFF300800FE7BDF862
:109C80002200030AC0B25A1E0E2A5CD8DFE802F096
:109C90000827435B5B4F275B5B5B5B5B5B5B110098
:109CA00012F062FC0246122308A9484600F03AFA74
:109CB0008CE63B4B002B48D012F066FD024628B1E3
:109CC000438808A9484600F02DFA7FE64FF0E023CC
:109CD000D3F8F03D13F0010F39D000BE76E6022B29
:109CE0000FD0304BABB3AFF3008002466AB94FF0F0
:109CF000E023D3F8F03D13F0010F2CD000BE00207C
:109D000064E612F035FC0246F0E7538808A948469D
:109D100000F008FA5AE6BDF8241012F02FFC0246B3
:109D2000D8B1037808A9484600F0FCF94EE61E4B6E
:109D3000ABB1AFF30080024698B1037808A948465A
:109D400000F0F0F942E6002040E600203EE6002068
:109D50003CE600203AE6002038E6002036E6002007
:109D600034E6002032E6BDF82230012B7FF418AE35
:109D7000044A137843F00803137008A9484600F01A
:109D8000B7F98FE58C67002088670020018E0200FC
:109D9000498302009F6700200000000000000000CF
:109DA00089C703000000000000000000BDF8223059
:109DB000012B7FF4F5ADB24B1A786FF3C3021A7022
:109DC00008A9484600F094F96CE5AD4B1B78C3F345
:109DD00040129B0803F002031343ADF81A3002232C
:109DE0000DF11A0208A9484600F09CF95AE54FF017
:109DF000E023D3F8F03D13F0010F3FF4D1AD00BEE6
:109E0000CEE59DF824200F2A3FF6CAAD9C4B1344A3
:109E1000DB789C4A2AB19C4A1278934226D39B1A3B
:109E2000DBB2042B3FF6BCAD03EB43030BEBC301EA
:109E300008AA4846FFF7C6F900287FF433AD9DF81D
:109E4000203013F0600F7FF4ABAD9DF821300A3B5A
:109E5000012B3FF6A5AD00F0B9F99DF821300A2B92
:109E60000CD008A9484600F043F91BE503EB430377
:109E7000396811EBC3013FF493ADD9E700238DF8A6
:109E80001A3001230DF11A0208A9484600F04AF9D8
:109E900008E59DF8241001F07F02082A26D8784BA7
:109EA00003EB420303EBD113DB7C764A2AB1764AFB
:109EB0001278934224D39B1ADBB2042B00F2DA808F
:109EC00003EB43030BEBC30524BB9DF8213003F0E8
:109ED000FD02012A31D01BB34FF0E023D3F8F03D4F
:109EE00013F0010F3FF45CAD00BE59E54FF0E023E5
:109EF000D3F8F03D13F0010F3FF452AD00BE4FE533
:109F000003EB43033D6805EBC305002CDDD0002DBA
:109F10003FF446AD08AA29464846FFF753F955E5F0
:109F20004846FFF79BFCADF81A0002230DF11A0218
:109F300008A9484600F0F6F8B4E4BDF8222022B99A
:109F4000012B19D04846FFF739FC002D3FF4AAAC8D
:109F500008AA29464846FFF735F9002000F036F9EF
:109F6000474B93F8263013F0010F7FF49BAC08A900
:109F7000484600F0BDF895E44846FFF747FCE4E7A3
:109F80009DF8201001F07F04C8093D4B03EB44030A
:109F900003EBD11393F825206FF3000283F82520FB
:109FA00093F825206FF3820283F82520D4B1344B37
:109FB00003EB44030344DB7C324A2AB1324A127871
:109FC000934217D39B1ADBB2042B19D803EB43033C
:109FD0000BEBC3031C69099B9DF821209DF81C0015
:109FE000A0475FE4099B9DF821209DF81C0000F02C
:109FF00001F957E403EB43033A6812EBC303E9D1D9
:10A000004FF0E023D3F8F03D13F0010F00D000BE75
:10A010000BB0BDE8F08F1A4B1B7813F0010F3FF423
:10A0200041AC1A4B002B3FF43DAC154B1878C0F3F4
:10A03000C000AFF3008035E4114B1B7813F0010F23
:10A040003FF430AC124B002B3FF42CACAFF300804C
:10A0500028E4089B002B3FF425AC0998984721E49D
:10A060004FF0E023D3F8F03D13F0010F3FF41AACAA
:10A0700000BE17E4002C7FF493AC002525E7704761
:10A080008C670020000000008867002000000000AE
:10A090000000000070B50546134B9989DA898C1AC7
:10A0A000A4B2402C28BF402493F90030002B08DBD9
:10A0B000914212D000210D4A23462846FFF72AFB81
:10A0C00070BD91420CD0094E2246074B996830462C
:10A0D00026F068F880213246EEE700210A46EBE7D9
:10A0E00080210022E8E700BF886800209C680020EB
:10A0F00008B586460B460A4A944608684968ACE8A3
:10A10000030000219160D181918193F900308B424D
:10A110000B460A46A8BF80217046FFF7FBFA08BD30
:10A120008868002038B505468C46224CA64608684B
:10A130004968AEE80300A2600021E181BCF8061086
:10A140008B4228BF0B46A381BCF80610C9B103B1EE
:10A1500022B12846FFF79EFF50B138BD4FF0E023F3
:10A16000D3F8F03D13F0010F22D000BE0020F4E739
:10A170004FF0E023D3F8F03D13F0010FEDD000BE17
:10A18000EBE79CF90030002B4FF000031A46B4BFF8
:10A19000194680212846FFF7BDFA0028DDD14FF08F
:10A1A000E023D3F8F03D13F0010FD6D000BED4E782
:10A1B0000020D2E78868002008B514220021024858
:10A1C000FDF7B4F808BD00BF88680020014B186196
:10A1D000704700BF886800200146054B1A4600689A
:10A1E000496803C200229A60DA819A81704700BFF1
:10A1F0008868002038B505461C463C4B1B78C909C9
:10A20000B1EBD31F19D04CB14FF0E023D3F8F03DA0
:10A2100013F0010F63D000BE00200DE0344B13B1EA
:10A220003249AFF30080314B1B69002B59D02F4AC4
:10A23000032128469847012038BD2C4B93F9003064
:10A24000002B07DB294B986800284CD0224629496F
:10A2500025F0A8FF254AD38923449BB2D381916876
:10A2600021449160D2889A4201D03F2C29D81F4BBB
:10A270001B6923B11D4A022128469847B8B11B4BE0
:10A2800093F90030002B4FF000031A46B4BF194673
:10A2900080212846FFF73EFA0028CDD14FF0E02379
:10A2A000D3F8F03D13F0010FC6D000BEC4E7002183
:10A2B000284600F0AFFD8021284600F0ABFD0120CC
:10A2C000BAE72846FFF7E6FE0028B5D14FF0E023B5
:10A2D000D3F8F03D13F0010FAED000BEACE7002084
:10A2E000AAE70120A8E70020A6E700BF88680020B1
:10A2F000000000009C68002003460A4490B281429E
:10A3000002D8B0EB430F02DBA0EB430080B27047F2
:10A3100010B586460846BEF804C09A42A2EB030474
:10A3200038BF04EB4C04A4B2ECB1A44508D2944568
:10A3300094BFA2EB0C030CEB02039BB2AEF80A3005
:10A340009C4504D8A3EB0C039BB29C45FAD9BEF8FC
:10A350000620C2F30E02DEF8001002FB031125F006
:10A3600021FF012010BD0020FCE730B583B0054679
:10A370000B46900848B1411E89B2013103EB8101BF
:10A3800053F8044B2C608B42FAD112F0030201D136
:10A3900003B030BD0023019301A825F003FF019B0A
:10A3A0002B60F5E72DE9F04782B006468846BDF8F8
:10A3B00028C09DF82C1084886345A3EB0C0538BF9A
:10A3C00005EB4405ADB25DB3AC4208D29C4294BFEC
:10A3D0001B1B1B191FFA83FCA0F80AC025469542D7
:10A3E00028BF1546644505D8ACEB040C1FFA8CFC5D
:10A3F0006445F9D9A4EB0C07B8B2F288C2F30E0396
:10A400001A4617FB03F7BFB22C1B644414FB03F47A
:10A410001FFA84F9346803FB0C4429B1012918D0D0
:10A42000284602B0BDE8F087854206D805FB02F257
:10A430002146404625F0B6FEF2E73A462146404620
:10A4400025F0B0FE4A46316808EB070025F0AAFE69
:10A45000E6E7854207D815FB03F292B22146404653
:10A46000FFF783FFDCE727F0030C1FFA8CFA524654
:10A4700021464046FFF779FF17F0030735D004EB7C
:10A480000A0CC7F104039BB24B4528BF4B46D8B218
:10A49000A9EB03041FFA84F90023019301AB0CEB31
:10A4A00007011CF8012B03F8012B8C45F9D1336807
:10A4B000421ED1B2B8B107F108020DEB02077A1FB4
:10A4C0000131194413F8010B02F8010F8B42F9D145
:10A4D000019BC8F80030B9F1000FA1D04A464046B0
:10A4E000FFF743FF9CE71946F2E73168F3E710B541
:10A4F00082B0034694084CB1601E80B2013003EB79
:10A5000080000C6843F8044B8342FAD112F0030236
:10A5100001D102B010BD0B68019301A925F042FEE4
:10A52000F7E72DE9F04F83B09146002A00F0D18083
:10A53000044688461F460689B6B2418989B2C37966
:10A54000DB093DD183888E422EBF751AC1EB4305CE
:10A55000AD19ADB2AB4286BF5D1BADB200259542D1
:10A5600028BF1546002D00F0B580B4F804E0B645CC
:10A5700048D8B446ACEB0E0C1FFA8CFCE645F9D972
:10A58000AEEB0C091FFA89F0E288C2F30E031A46FB
:10A5900019FB03F91FFA89F9A5EB0E0AE2441AFB2D
:10A5A00003FA1FFA8AFA216803FB0C1B67B3012F19
:10A5B0003FD02A463146A088FFF79EFE208189E0E1
:10A5C0008588954209D8DFB9A2EB0509C388C3F392
:10A5D0000E0303FB09880E46C4E78E422EBF731A92
:10A5E000C1EB45039B199BB21344B3EB450F05DB4D
:10A5F000AA1A92B22846FFF77FFE06464D46B4E7F8
:10A600000E46AFE7B446BBE7A84206D305FB02F20D
:10A610004146584625F0C6FDCBE74A4641465846D6
:10A6200025F0C0FD524608EB0901206825F0BAFD6F
:10A63000BFE7A84207D313FB05F292B24146584642
:10A64000FFF755FFB5E729F00307BFB23A46414689
:10A650005846FFF74CFF19F0030930D00BEB070CFD
:10A66000C9F104039BB2534528BF5346DFB2AAEB9E
:10A67000030A1FFA8AFAD8F8003001930CF1FF336D
:10A6800009F1FF305CFA80F001AA12F8011B03F80F
:10A69000011F8342F9D101AB4B4420687A1E5FFA57
:10A6A00082FC6FB1421E0CF1010C03EB0C0713F896
:10A6B000011B02F8011FBB42F9D1604400E0206891
:10A6C000BAF1000F3FF475AF52464146FFF70FFF56
:10A6D0006FE71546284603B0BDE8F08FB2F5004F8E
:10A6E00011D801608280C28863F30E02C280C2F377
:10A6F00007229DF8003063F3C712C2710023438123
:10A70000038101207047002070470246808813892A
:10A710009BB2528992B293422EBF9B1AC2EB400267
:10A720009B189BB2984228BF18467047028992B284
:10A7300043899BB29A4214BF002001207047818850
:10A7400003899BB2428992B293422EBF9B1AC2EBFD
:10A7500041029B1898B281428CBF002001207047B3
:10A76000828803899BB2408980B283422EBF1B1A24
:10A77000C0EB42001B189BB29A4286BFD31A98B214
:10A780000020704738B50446028943899BB292B2D3
:10A79000FFF7BEFD0546618982B289B2A088FFF746
:10A7A000ABFD6081284638BD70B582B00446038990
:10A7B0004589ADB20026019600959BB2FFF7F2FDE8
:10A7C00005466189024689B2A088FFF795FD608140
:10A7D000284602B070BD08B5028943899BB292B287
:10A7E000FFF796FD08BD30B583B003894489A4B254
:10A7F0000025019500949BB2FFF7D4FD03B030BD56
:10A8000070B504460E460589ADB2FFF798FF10B14A
:10A81000E079C00917D0A288AA4215D82B469B1A06
:10A820009BB29A42FBD9E288C2F30E0220683146FD
:10A8300002FB030025F0B6FC01222946A088FFF7A1
:10A840005BFD2081012070BD2B46ECE708B500239D
:10A85000FFF767FE08BD0023438103810120704795
:10A86000C37961F3C713C3710120704710B5044663
:10A870000A46418989B28088FFF73EFD608110BD9C
:10A8800042DF704743DF704744DF704712DF704795
:10A8900001230360BFF36F8FBFF34F8F074B9842C5
:10A8A00003D0043B984200D07047BFF35B8F044B4A
:10A8B000002283F82021BFF35B8FF5E75070024040
:10A8C000DC68002008B50C4A4FF00101BFF35B8F34
:10A8D000D2E84F3FC2E84C1FBCF1000FF8D1BFF3E4
:10A8E0005B8FDBB22BB1012201460448FEF772FEFA
:10A8F00008BDFFF7CDFFFBE7FC690020C5A80200FB
:10A9000010B50F4A02EB4012D18A938A5B1A9BB2B0
:10A91000118B8B4228BF0B4614690A4A00EB800159
:10A9200002EB8101C1F8004600EB800102EB8102DD
:10A93000C2F80436044B03EB8000FFF7C3FF10BDE1
:10A94000DC680020007002400470024038B5364ACE
:10A950004FF00101BFF35B8FD2E84F3FC2E8441FC5
:10A96000002CF9D1BFF35B8FDBB2BBB9082833D120
:10A970002E4BD3F8C03413F4803F1BD12C4A92F8ED
:10A980000B2102B32A4AD2F80011284AC2F8A017B4
:10A99000C2F8A4372748FFF77BFF44E0264B5A68EC
:10A9A000C2F30802003A18BF012201462348FEF70D
:10A9B00011FE38E0BFF35B8F1D4B002283F820218E
:10A9C000BFF35B8F2FE0BFF35B8F194B002283F83F
:10A9D0002021BFF35B8F26E0144A00F5947352F8F0
:10A9E0002310134C4FEA401E04EB401CBCF80650E9
:10A9F000BCF804305B1B9BB289B28B4228BF0B466C
:10AA000054F80E4000EB800102EB8101C1F80047D1
:10AA100000EB800102EB8102C2F80437084B03EB24
:10AA20008000FFF735FF38BDFC6900200070024050
:10AA3000DC6800204870024000ED00E045AA0200FA
:10AA40002870024008B5C0B2FFF780FF08BD0000C3
:10AA500000B583B04FF440535A68124B9A420DD060
:10AA60004FF08043D3F80C0400F00110B0F1011F47
:10AA700014BF0020012003B05DF804FB00238DF813
:10AA8000043001A8FFF702FF9DF80430002BE7D047
:10AA90000023019301A8FFF7F7FE0198003818BFC3
:10AAA0000120E8E7DBE5B15170470000014B80224F
:10AAB0005A60704700E100E0044B8022C3F8842014
:10AAC000BFF34F8FBFF36F8F704700BF00E100E00F
:10AAD000074BD3F80014D3F800240A43C3F800242A
:10AAE0000022C3F858214FF48002C3F804237047B2
:10AAF00000700240024B0022C3F82C25704700BFB3
:10AB00000070024000B585B00021074BC3F8041562
:10AB100001910291039102238DF8053001A8FEF7FF
:10AB200027FC05B05DF804FB00700240024B0122D7
:10AB3000C3F80425704700BF0070024010B48B7842
:10AB400003F07F02DC09500000EBD31C474800EB08
:10AB50000C10B1F804C0CCF30A0CA0F808C0C978F6
:10AB600001F00301012930D00CBB02F10C040121DA
:10AB700001FA04F43E48C0F80443D0F8144591406B
:10AB80002143C0F8141502F59472002140F82210F8
:10AB9000374AC2F8183543F48073C2F80C35BFF356
:10ABA0006F8FBFF34F8F01205DF8044B7047941CEB
:10ABB000012101FA04F42E48C0F80443D0F81045EE
:10ABC00091402143C0F81015E2E7082A09D04FF060
:10ABD000E023D3F8F03D13F0010F44D000BE002075
:10ABE000E2E7FCB9214AB2F818211AB1204A8021C3
:10ABF000C2F81C151E4A0021C2F85011D2F80023D9
:10AC000012F4001F04BF1A4AC2F85411184A4FF434
:10AC10004011C2F80413D2F8141541F48071C2F83F
:10AC20001415B5E7124A0021C2F82C110F4AB2F8E8
:10AC300008211AB10E4A8021C2F81C150C4AD2F81C
:10AC4000002312F4001F03D1094A0021C2F8541155
:10AC5000074A0849C2F80413D2F8101541F480716C
:10AC6000C2F8101594E700209EE700BFDC680020C2
:10AC700000700240000820002DE9F8438146FFF7EC
:10AC80001BFF1A4E0D240127DFF868800025A4F170
:10AC90000A0307FA03F307FA04F21343C8F8083368
:10ACA000A200134B13445D609D622022294630466A
:10ACB000FCF73CFB01342036142CE8D10D4C0E4B34
:10ACC000C4F808330021C4F81C156162A164202275
:10ACD0000A48FCF72BFB0123C4F81435C4F81035DF
:10ACE0004846FFF7E3FEBDE8F88300BFFC6800209C
:10ACF000D06F02400070024000083000DC69002084
:10AD000070B584B00C4601F07F06CD09710001EBEF
:10AD1000D41C3B4901EB0C11C97A00292FD13848CA
:10AD200005EB46014FEA011C00EB011140F80C2035
:10AD30008B800022CA80002E50D1002B42D1314B93
:10AD4000D3F88034C3F3C013AB423BD02E48FFF797
:10AD5000B9FD2E4B596800230193029307228DF809
:10AD600005208DF808400393C1F30801C91A18BFE4
:10AD7000012101A8FEF7FCFA012004B070BD4FF0DC
:10AD8000E023D3F8F03D13F0010F19D000BE0020EE
:10AD9000F3E71B4B03EB4613DB7A03F0FF04002BB6
:10ADA000EBD0174B03EB461300229A723046FFF7A5
:10ADB000CDFD2046E1E73046FFF7A2FD0120DCE7AC
:10ADC0000020DAE7002DF6D10D4B03EB46130124EA
:10ADD000DC720F48FFF776FD2046CEE7002DEAD162
:10ADE000074B03EB46130122DA72BFF36F8FBFF3F9
:10ADF0004F8F9B7A03F0FF00002BCAD11046BCE7AF
:10AE0000DC680020007002405070024000ED00E05D
:10AE10004C70024008B511F07F0007D10F4B0122A2
:10AE20005A65BFF36F8FBFF34F8F08BD0828F8D066
:10AE300041F48072094BC3F81825CB09F1D1084BB6
:10AE400003EB40139B7A002BEBD0054B03EB401335
:10AE500000229A72FFF77AFDE3E700BF007002401C
:10AE6000DC68002011F0770F16D00C4BC3F80C15DE
:10AE700041F48072C3F80C25C3F81815CB0907D12B
:10AE800001F07F0101F59471044B002243F8212069
:10AE9000BFF36F8FBFF34F8F704700BF007002404A
:10AEA00010B5184B0122C3F81425C3F81025002251
:10AEB0001146930003F1804303F51C3359609962F6
:10AEC0000132082AF5D10F4B002159629964C3F869
:10AED0005811D3F80004D3F800240243C3F8002427
:10AEE000D3F80023C3F80823074AC3F80423074C08
:10AEF0004FF492722046FCF719FA402323832381F2
:10AF000010BD00BF007002400514C001DC680020C5
:10AF10002DE9F04F89B0944BD3F80053934A0023A6
:10AF20001C4601271E4603E001330432192B10D0C2
:10AF300025FA03F111F0010FF6D011680029F3D0C2
:10AF400007FA03F004431660BFF36F8FBFF34F8F10
:10AF5000EAE714F0010F40F0A08014F4006F09D06C
:10AF6000814BD3F8A8369BB2814AA2F8163101234F
:10AF700082F81C3114F4001F1ED07B4BD3F814351B
:10AF800013F4807F40F09680774BD3F8103513F49C
:10AF9000807F00F0AF80764B93F81C31002B40F09F
:10AFA0009480002305930693079303238DF81530AF
:10AFB000012105A8FEF7DCF914F4800F24D06A4BB8
:10AFC000D3F8005405F4E062C3F8002415F4807F40
:10AFD00040F0968015F4806F12D0634B0122C3F8C5
:10AFE00008259A65D3F8003313F4001F03D15E4B94
:10AFF0000022C3F854215C4B4FF40012C3F8042321
:10B0000015F4007F40F08A8014F4000F37D0564BBF
:10B01000D3F88024D2B28DF80C20D3F88414C9B2AE
:10B020008DF80D10D3F888048DF80E00D3F88C0439
:10B030008DF80F00D3F890048DF81000D3F8940425
:10B040008DF81100D3F898048DF81200D3F89C34D1
:10B050008DF8133012F07F0F01D105290FD0002396
:10B0600005930693079306238DF81530082203A94C
:10B0700006A825F097F8012105A8FEF779F93D4BC0
:10B080002340002B56D13A4FB84601260025DFF861
:10B09000D8A0B946DFF8E0B090E0FFF701FF002349
:10B0A00005930693079301218DF8151005A8FEF767
:10B0B0005FF952E70820FFF749FC2B4BD3F8103516
:10B0C00013F4807F3FF46DAF65E7294B002283F8CE
:10B0D0001C21B3F816319BB20592069207228DF817
:10B0E000152088228DF818200793012105A8FEF766
:10B0F0003FF956E71C4B4FF40012C3F8082350E702
:10B100000121C3F82C15002305930693079304230C
:10B110008DF8153005A8FEF72BF95BE700230593A2
:10B120000693079305238DF81530012105A8FEF736
:10B130001FF969E7BFF35B8F0D4B93F82031BFF325
:10B140005B8F43B94FF0E023D3F8F03D13F0010FCC
:10B1500099D000BE97E7BFF35B8F054B002283F8C1
:10B160002021BFF35B8F8EE7007002400071024028
:10B17000DC680020FCFB1F004C70024009EB43120E
:10B18000D27A002A4DD009EB4313DA88828000225C
:10B19000DA72DB889BB20592069207228DF81520A1
:10B1A0008DF818100793012105A8FEF7E1F8082E85
:10B1B00042D801350136F6B208F12008E9B205F1AE
:10B1C0000C0324FA03F313F0010FF0D02B4605EB28
:10B1D00085020AEB8202D2F808271FFA82FC404659
:10B1E000D8F800206244C8F8002009EB451EBEF8DC
:10B1F00006201CFA82F292B2AEF806200829BDD0D1
:10B20000B8F808206245B9D1BEF8062092B2B8F865
:10B2100004C09445B2D90029C9D15846FFF752FB62
:10B22000C7E74FF0E023D3F8F03D13F0010F00D053
:10B2300000BE09B0BDE8F08F494B2340002BF8D089
:10B24000484BD3F86C84C3F86C84BFF36F8FBFF3A3
:10B250004F8F14F4806F0AD0D3F88024C2F3C01B40
:10B26000D3F8803413F0800F03D1012302E04FF0B4
:10B27000000B002301933E460025DFF8E8A0B94605
:10B280001EE003EB83020AEB8202D2F80816C9B271
:10B2900032690A44326109EB4310C28A11FA82F220
:10B2A00092B2C282C28A92B2B18A914215D9204624
:10B2B000FFF726FB0134E4B2072C22D801352036F3
:10B2C000ECB22B4628FA05F212F0010FD9D1002C6E
:10B2D000F0D1BBF1000FF1D0D3E709EB4313DB8AC8
:10B2E0009BB200220592069207228DF8152064F089
:10B2F0007F028DF818200793012105A8FEF738F882
:10B30000D8E70025184E4FF0010916E02B4606EB52
:10B310004512D27A32B106EB4512D28892B2B98880
:10B32000914218D806EB431383F80A900134E4B233
:10B33000072C3FF67EAF01352037ECB205F1100344
:10B3400028FA03F313F0010FE0D1002CEED1019B9A
:10B35000002BF0D0DAE72046FFF7F8FAE6E700BF67
:10B360000004000100700240DC68002000B585B0D8
:10B37000012800F0AC80022859D010B105B05DF86A
:10B3800004FB774BD3F80035002BF7D1744B4FF407
:10B390008002C3F808234FF40062C3F80024BFF30F
:10B3A0006F8FBFF34F8F4FF08053D3F830310D2B99
:10B3B0000DD16C4BD3F8003C3BBB6A4B49F2753264
:10B3C000C3F8002C0321C3F8141DC3F8002C644BF0
:10B3D0000122C3F80025BFF36F8FBFF34F8FFFF734
:10B3E00037FB0028CAD14FF440535A685E4B9A424B
:10B3F00010D04FF080430022C3F80021D3F8002181
:10B400000192019A01221A60B8E7564B0322C3F851
:10B41000142DDCE700238DF8043001A8FFF736FA7D
:10B420009DF80430002BE4D0FFF72AFAA6E74C4B36
:10B43000D3F80435002B3FD1494AD2F8003413F435
:10B44000006FFAD0464B4FF40062C3F80024BFF3FC
:10B450006F8FBFF34F8F4FF08053D3F830310D2BE8
:10B460000DD1404BD3F8003C63BB3E4B49F27532E3
:10B47000C3F8002C0021C3F8141DC3F8002C384A6F
:10B480008023C2F81C350121C2F80413374AC2F8E0
:10B490008431FDF7FDFE10B1344B80225A60FFF776
:10B4A000D7FA0028FBD02E4B0122C3F80425BFF3A6
:10B4B0006F8FBFF34F8F61E7FFF7CAFA00287FF461
:10B4C0005DAFB9E7274B0022C3F8142DD7E7244B13
:10B4D000D3F80035002B3FF451AF214B0022C3F8C5
:10B4E0000425BFF36F8FBFF34F8F20498020C1F831
:10B4F0008400BFF34F8FBFF36F8FD3F80013C3F8EF
:10B500000813C3F80025BFF36F8FBFF34F8F4FF4BD
:10B5100040535A68144B9A4215D04FF08043012291
:10B520005A60134B5968002301930293039302233B
:10B530008DF80530C1F30801003918BF012101A8B9
:10B54000FDF716FF1AE700238DF8043001A8FFF776
:10B550009DF99DF80430002BDFD0FFF793F9E0E769
:10B560000070024000E00640DBE5B15100E100E080
:10B5700000ED00E06CDF70476DDF704774DF7047EF
:10B5800076DF704778DF70477ADF70477CDF70477F
:10B5900080DF70478FDF7047A0DF704708B5034A30
:10B5A00040F2A3110DF046FD08BD00BFBC0E050022
:10B5B00008B5034A4FF400710DF03CFD08BD00BF13
:10B5C000BC0E050008B5034A40F261110DF032FDD2
:10B5D00008BD00BFBC0E050010B586B003460822AA
:10B5E00001924FF6FF7201A902A808F083FA78B918
:10B5F0001A4B5B88022B11D8019902A808F01EFA99
:10B600000446164B5B88022B15D804BB06B010BD50
:10B61000134A40F2EF210DF00DFDE9E71148124BFE
:10B62000C01AC00800040823019A104940F0030022
:10B630000CF0B6FAE0E70B480B4BC01AC008000448
:10B6400022460B4940F003000CF01EFADDE7044AE5
:10B6500040F20F3120460DF0EDFCD7E7485E0020A8
:10B66000BC0E050034760500EC750500F40E0500EF
:10B67000300F050010B5044609F080F8204609F0A7
:10B68000ADF8204608F0AAFD2378023B0B2B15D815
:10B69000DFE803F0063A2014141414821454146BD7
:10B6A0004A4B01221A704A4B00221A70494B5B88A0
:10B6B000032B04D80CF00EF80028FBD110BD46482F
:10B6C000464BC01AC0080004454940F004000CF085
:10B6D00057F9EFE73D4B00221A703D4B01221A70DB
:10B6E0003C4B5B88032B04D80BF0F4FF0028FBD104
:10B6F000E4E73948394BC01AC0080004394940F022
:10B7000004000CF03DF9EFE7324B5B88032B0AD8BD
:10B710000BF0E0FF0028FBD1334B01221A70A28806
:10B72000324B1A80CAE72C482C4BC01AC0080004C0
:10B730002F4940F004000CF023F9E9E7254B5B8822
:10B74000032B07D80BF0C6FF0028FBD1294B0122A1
:10B750001A70B3E72048214BC01AC00800042649DC
:10B7600040F004000CF00CF9ECE71A4B5B88032B5B
:10B7700007D80BF0AFFF0028FBD1204B01221A7035
:10B780009CE71548154BC01AC00800041C4940F03E
:10B7900004000CF0F5F8ECE7237C13F0010F8DD0DA
:10B7A000237A072B8AD10B4B5B88032B03D801200C
:10B7B000FFF712FF82E70848084BC01AC0080004D0
:10B7C000104940F004000CF0DBF8F0E70C6B0020AF
:10B7D0000B6B0020485E002034760500EC750500F8
:10B7E0005C0F0500880F0500056B00206C6F0020C2
:10B7F000B00F05000A6B0020D80F0500046B002075
:10B80000041005003010050000B587B0034608227B
:10B8100001924FF6FF7201A902A808F06BF938B93E
:10B82000019902A808F02EF940B907B05DF804FBB1
:10B83000054A40F26F110DF0FDFBF1E7024A4FF4AB
:10B84000B9710DF0F7FBF0E7BC0E050000B5B3B021
:10B85000082800F20F81DFE810F0840009001E00C4
:10B86000330048005A006F00A000E800834B01221B
:10B870001A70834B00221A70824B5B88022B7ED990
:10B880008148824BC01AC0080004814940F003007F
:10B890000CF076F873E0794B01221A70784B002295
:10B8A0001A70784B5B88022B69D97748774BC01A9E
:10B8B000C0080004774940F003000CF061F85EE036
:10B8C0006F4B00221A706D4B01221A706D4B5B8812
:10B8D000022B54D96C486D4BC01AC00800046E4945
:10B8E00040F003000CF04CF849E0644B01221A7060
:10B8F000644B5B88022B42D96348644BC01AC00872
:10B900000004664940F003000CF03AF837E05B4B66
:10B9100001221A705A4B00221A705A4B5B88022B74
:10B920002DD95948594BC01AC00800045C4940F051
:10B9300003000CF025F822E0504B01221A70504B06
:10B9400000221A704F4B5B88022B18D94E484F4B80
:10B95000C01AC0080004534940F003000CF010F86E
:10B960000DE0464B00221A70454B01221A70454BE0
:10B970005B88022B06D80BF0ADFE0028FBD133B05C
:10B980005DF804FB4048414BC01AC008000446491A
:10B9900040F003000BF0F4FFEDE7384B00221A7083
:10B9A00008230293039303AB12AA02A904A808F088
:10B9B00051F8052817D028BB324B5B88032B27D8BA
:10B9C0000220FFF721FF039B009312AB029A04A908
:10B9D000364803F009F90028D1D0354A40F2351134
:10B9E0000DF028FBCBE7274B5B88032BE8D92648D3
:10B9F000264BC01AC00800042E4940F004000BF08A
:10BA0000BFFFD9E72A4A40F229110DF013FBD3E713
:10BA10001D481E4BC01AC0080004039B029A264909
:10BA200040F004000CF0BCF8CAE7144B00221A7076
:10BA3000224B18884FF6FF739842A0D012A908F045
:10BA400025F905289BD078B90620FFF7DDFE0DF11A
:10BA50005901164803F0B8F8002890D0144A4FF462
:10BA6000A6710DF0E7FA8AE7114A40F245110DF090
:10BA7000E1FAE9E7014B00221A7080E7076B00202A
:10BA8000086B0020485E002034760500EC75050048
:10BA900074100500A4100500C8100500E81005008A
:10BAA000081105003811050068110500106B002011
:10BAB000BC0E050088110500C01105006C6F002048
:10BAC00010B584B09DF80430012262F30303032211
:10BAD00062F307138DF80430194C204624F00CFD56
:10BAE00082B2214601A8FFF751FDD0B940F2C13022
:10BAF000FFF748FDD0B9082200210DEB0200FBF74B
:10BB000015FC0623ADF80830ADF80A30ADF80C305E
:10BB10002B23ADF80E3002A8FFF736FD58B904B05C
:10BB200010BD084A83210DF085FADFE7054A86211A
:10BB30000DF080FADFE7034A90210DF07BFAEEE783
:10BB4000B46A0020BC0E050000B5ADB0AC220021E7
:10BB500001A8FBF7EBFB02238DF8043001238DF8DD
:10BB6000063006228DF80720ADF81430174A0692E9
:10BB7000174A12788DF87D208DF87E3000228DF8DE
:10BB80007F20219222928DF880302822239240F645
:10BB9000B83224928DF881304FF448622592269372
:10BBA0000C4B2A930C4B2B9301A90C4802F00CFE72
:10BBB00030B90121094802F004FE2DB05DF804FB04
:10BBC000074ABF210DF036FAF3E700BFF85900200D
:10BBD000B06A00204DB80200C5B50200106B00200D
:10BBE000BC0E0500014B1878704700BF0C6B00209D
:10BBF000014B00221A7070470C6B0020014B187823
:10BC0000704700BF0B6B0020014B00221A70704779
:10BC10000B6B002008B502460121064B1888FFF780
:10BC2000B7FC00B908BD044A40F296210DF002FAB3
:10BC3000F8E700BFFC590020BC0E050008B5032141
:10BC4000154802F03FFE122805D098B9134B5B88C7
:10BC5000022B15D808BD114B5B88022BFAD910486E
:10BC6000104BC01AC00800040F4940F003000BF04D
:10BC700087FEEFE70D4A40F2A7210DF0DBF9E5E77B
:10BC80000748084BC01AC0080004094940F00300E7
:10BC90000BF076FEDEE700BF106B0020485E002050
:10BCA00034760500EC75050014120500BC0E050085
:10BCB0003C12050008B5094B93F85400FFF75EFCF1
:10BCC00030F0080303D043F20403984200D108BDCA
:10BCD000034A40F2B6210DF0ADF9F8E7106B0020F1
:10BCE000BC0E050008B50120FFF776FCFFF7A6FFA4
:10BCF00008BD0000014B1878704700BF076B00209B
:10BD0000014B1878704700BF086B002010B582B057
:10BD100004466846FFF730FC00982060BDF8042018
:10BD20009DF80630A280A371204602B010BD08B570
:10BD3000FFF720FCB0FA80F0400908BD10B582B0D2
:10BD40006846FFF7E3FF194B5B88032B07D8184BB6
:10BD50001C789DF80130A3420ED102B010BD1548E9
:10BD6000154BC01AC00800049DF80120134940F08B
:10BD700004000BF089FEEAE78DF801406846FFF702
:10BD8000D6FF0A4B5B88032BE7D90A4B0A4AA3EB81
:10BD9000020C4FEADC0C4FEA0C4C034622460849E1
:10BDA0004CF004000BF0FCFED7E700BF485E00201B
:10BDB000F559002034760500EC75050048120500A1
:10BDC0006012050010B592B00CF0E6FA002840F0C1
:10BDD000C2800DF029FA002840F0C28000230293AF
:10BDE00002A901200DF018FB002840F0BE8002A837
:10BDF0000DF07CFB002840F0BD807B4A0A21082022
:10BE00000CF042FB002840F0BA80FFF759FE0021F9
:10BE1000764805F0B3F9002840F0B680FFF794FEAD
:10BE2000FFF78CFF724B029302A9724805F0C1FB29
:10BE3000002840F0AE8002248DF8004043F2EF531A
:10BE4000ADF802301223ADF804300123ADF806300E
:10BE50004022002102A8FBF769FA674902A804F012
:10BE600049FECDF840D08DF8444002A803F040F8D8
:10BE7000002840F094801022002102A8FBF756FA17
:10BE80000023029301228DF80C20049364238DF883
:10BE9000143002238DF815308DF816308DF81730D8
:10BEA00002A9564802F008FF00287ED100F096FB58
:10BEB0001C22002102A8FBF739FA002302934FF459
:10BEC000203203924FF47022049203228DF8142042
:10BED000ADF816308DF818300793494B089302A837
:10BEE00004F02EFC002866D107F0ACFC002868D1D5
:10BEF0000522002102A8FBF719FA9DF8083043F04B
:10BF0000010303F0F103022262F306136FF3C71378
:10BF10008DF8083007238DF8093010238DF80A308A
:10BF20009DF80B3043F003038DF80B309DF80C3077
:10BF300043F003038DF80C3002A807F065FD0028DC
:10BF400045D1304807F046FD002846D12E4B01224E
:10BF50001A7012B010BD2D4A4F210DF06BF838E762
:10BF60002A4A5C210DF066F838E7284A62210DF074
:10BF700061F83CE7254A66210DF05CF83DE7234A6D
:10BF800071210DF057F840E7204A99210DF052F841
:10BF900044E71E4A4FF4CC710DF04CF84BE71B4AB6
:10BFA0004FF4DE710DF046F865E7184A40F2D31100
:10BFB0000DF040F87AE7154A40F2F7110DF03AF823
:10BFC00092E7124A4FF403710DF034F890E70F4AEC
:10BFD00040F21F210DF02EF8B3E70C4A40F2222167
:10BFE0000DF028F8B2E700BF006A0020586F00206B
:10BFF0009DB50200706F002080120500446F002084
:10C00000B1B5020075B60200066B0020BC0E05003B
:10C0100008B50CF0C5FA0BF05DFB00B108BD0CF0E3
:10C02000D1F9FBE74FF6FF73984237D010B50446BD
:10C030001B4B5B88022B14D81A4B00221A70204627
:10C0400007F030FEC8B9174B1B782BB9154CFFF71A
:10C05000DFFF2378002BFAD0114B5B88022B12D81C
:10C0600010BD1148114BC01AC008000422461049E7
:10C0700040F003000BF008FDDEE70E4A40F25F31AE
:10C080000CF0D8FFDFE70848084BC01AC0080004CE
:10C09000094940F003000BF073FCE1E7704700BF73
:10C0A000485E00200A6B002034760500EC75050020
:10C0B000BC120500BC0E0500B41205000A4B1B782B
:10C0C0002BB10A4B18884FF6FF73984200D1704786
:10C0D00010B51321FFF754FA034CFFF799FF2378AB
:10C0E000002BFAD110BD00BF056B0020FC590020C9
:10C0F00010B50C4620B1014622460C4824F052F8F7
:10C100000B4B01221A700B4B5B88032B00D810BD20
:10C1100009480A4BC01AC00800042346034A0849CC
:10C1200040F004000BF03CFDF1E700BFE06A0020A6
:10C13000096B0020485E002034760500EC75050090
:10C14000FC12050000487047E06A0020014B188887
:10C15000704700BF6C6F002000B587B006AB03E9E5
:10C16000030006220DF111010F4824F01BF80F4BBC
:10C170005B88032B02D807B05DF804FB0A4A0C4821
:10C180000C4BC01AC008000453790393137902932F
:10C19000D37801939378009353781278064940F04E
:10C1A00004000BF06FFFE6E7D86A0020485E00202D
:10C1B00034760500EC7505001813050030B58BB01A
:10C1C000044603883B2B34D80F2B40F28580103B6C
:10C1D0002B2B00F28180DFE813F08C00BE007F0083
:10C1E0007F007F007F007F0077007F004C007F0092
:10C1F0007F007F007F007F007F007F00D5007F00F1
:10C200007F007F007F007F007F007F007F007F0036
:10C210007F007F007F007F007F007F007F007F0026
:10C220007F007F003F007F007F007F007F007F0056
:10C23000F500562B50D1774B5B88032B00F2DE8044
:10C240001321A088FFF79CF9002845D0724A40F2DC
:10C250002C410CF0EFFE3FE04389002B3CD081895C
:10C260001030FFF745FF6D4B1B68002B34D098470B
:10C2700032E0037A012B08D0664B5B88032B18D879
:10C280000BF028FA0028FBD126E0624B5B88032BD9
:10C2900004D80BF01FFA0028FBD11DE06048614B69
:10C2A000C01AC0080004604940F004000BF068FBAD
:10C2B000EFE75B485B4BC01AC00800045B4940F0E5
:10C2C00004000BF05DFBDBE7524B5B88022B05D8CB
:10C2D0000BF000FA0028FBD10BB030BD5048514B99
:10C2E000C01AC0080004524940F003000BF048FB9C
:10C2F000EEE7484B5B88022B22D84E4B00221A7087
:10C300004D4DA3882B800DF1040C08340FCCACE804
:10C310000F000FCCACE80F002368CCF8003001AB65
:10C3200093E80300FFF718FF2988444805F055F902
:10C330000028D1D0384A40F2F2310CF07BFECBE736
:10C340003748384BC01AC00800043D4940F003008C
:10C350000BF016FBD1E72F4B5B88022B07D8394B2C
:10C3600000221A70344B4FF6FF721A80B4E72C4843
:10C370002C4BC01AC0080004334940F003000BF0F6
:10C38000FFFAECE7234B5B88032B10D800238DF8D2
:10C3900004308DF8053001A9A088FFF7FBF80028CC
:10C3A0009AD01D4A40F20D410CF044FE94E71C481F
:10C3B0001C4BC01AC0080004244940F004000BF0D4
:10C3C000DFFAE3E7134B5B88032B0CD81321A0881B
:10C3D000FFF7D6F800283FF47FAF0F4A40F2214123
:10C3E0000CF028FE78E70E480E4BC01AC008000477
:10C3F000174940F004000BF0C3FAE7E70848094B7F
:10C40000C01AC0080004134940F004000BF0B8FA49
:10C4100016E700BF485E0020BC0E0500006B002040
:10C4200034760500EC7505004C130500701305000B
:10C43000B4130500076B0020FC590020706F00202A
:10C44000DC130500056B0020F41305001014050033
:10C45000301405005414050000487047D86A0020C5
:10C4600000B583B0074B1860074B1A6801925B68F0
:10C47000009301AA6946054B1888FFF78DF803B0B1
:10C480005DF804FB006B002080140500FC590020BF
:10C49000014B1878704700BF056B0020014B1878DE
:10C4A000704700BF066B002008B50E4B1B7803B920
:10C4B00008BD0D4B1A8801460C4802F06FFC13288A
:10C4C00005D80B4BC34013F0010FF1D103E043F249
:10C4D00001439842ECD0074A40F259410CF0AAFDC2
:10C4E000E6E700BF056B0020FC590020446F0020E8
:10C4F00001810A00BC0E050000B583B00346064A60
:10C50000127801320092054A2421054823F0AEFF3B
:10C5100003B05DF804FB00BFF55900207814050056
:10C52000B46A0020014B1870704700BFF559002015
:10C53000014B1870704700BFB06A002008B5024A6E
:10C5400056210CF077FD08BD881405000B78052BEB
:10C5500004D0062B06D0042B08D070471B4B0122B9
:10C560001A707047194B00221A7070478B79022B92
:10C57000F3D100B5B5B0CB7923B1012B14D035B0D0
:10C580005DF804FB02AB0193114B1B880093002361
:10C59000012219460F4803F06FFC0028EFD19DF8E7
:10C5A00008200D4B1A70EAE702AB0193084B1B8879
:10C5B00000930023C8220121064803F05DFC0028F7
:10C5C000DDD102A81FF012FCD9E700BF8071002066
:10C5D000FC590020085A0020AC6F00202DE9F043E0
:10C5E00093B04A4D282200212846FAF79FFE484E74
:10C5F000102200213046FAF799FE1D232B800127D7
:10C60000AF70EF7002246C712C71AC713780B77011
:10C61000F470747134714FF00508A5F80880AC729D
:10C62000EF726C732C73AC732F830423AB76EF76AD
:10C630006C772C77AC7708232B824FF0030985F8B1
:10C640001290EF746C752C75AC75C8232B8485F82B
:10C65000228085F8237085F8254085F8244085F8E8
:10C660002640338186F80A80F4727473347348224A
:10C6700000216846FAF75AFE264B0093264B019399
:10C680008DF808708DF809708DF80A8003958DF883
:10C690001040059600238DF8183007931F4A128822
:10C6A000ADF824201E4A1268089240F20112ADF83B
:10C6B00030208DF832308DF833908DF836300E936F
:10C6C0008DF82C408DF834408DF844408DF8424070
:10C6D0008DF845408DF846408DF841408DF840403A
:10C6E0008DF83F408DF83C408DF83D408DF83E4040
:10C6F00069460C4803F0CCF810B913B0BDE8F083DC
:10C70000094ADF210CF096FCF7E700BF846F002098
:10C71000847100204DC502003DC50200806F0020DD
:10C720007C6F0020085A00208814050005282AD8AC
:10C7300010B582B094461B4B1C5CFF2C25D01A4BC5
:10C74000187840B114BB194B1B880A46614618483B
:10C7500003F04CFB07E0154B1B8800930B4621466A
:10C76000134803F0DEFA132812D0112814D8114B05
:10C77000C34013F0010F0DD10F4A4FF487710CF035
:10C7800059FC012002E000207047002002B010BDDB
:10C790000020FBE70120F9E743F201439842EBD187
:10C7A0000120F3E7005A002080710020FC5900208E
:10C7B000085A00200181020088140500024B18600D
:10C7C000024B1980704700BF7C6F0020806F0020F3
:10C7D00008B5012907D002290BD0094A722109485E
:10C7E00000F01FF9FEE7084B1B680BB11078984763
:10C7F00008BD064B1B68002BFAD010789847F7E766
:10C80000BC140500D4140500947100209871002018
:10C8100000B583B000230093064B0193684600F0F7
:10C8200071FA012802D0012000F0A4FA03B05DF8EB
:10C8300004FB00BFD1C70200014B1860704700BF66
:10C8400098710020014B1860704700BF9471002060
:10C8500008B500F0B8FA08BD08B50023084901EB97
:10C8600043025278824204D001330E2BF7D10120CB
:10C8700004E0034A12F8130000F0B1FA08BD00BF4B
:10C880001015050008B500F09AFA08BD08B500F0CB
:10C8900055FA08BD012805D0022808BF012202D0A0
:10C8A00001207047002208B5034B03EBC203586810
:10C8B00000F06AFA08BD00BF0015050070B582B02F
:10C8C0000E461546012807D0022808BF012204D0D1
:10C8D0000124204602B070BD00220C4B03EBC203C2
:10C8E00001A9586800F05EFA04460128F1D00198C9
:10C8F00000F0F4F92A46314601F0C8FD044601284B
:10C90000E7D0019800F0F0F9E3E700BF001505005B
:10C9100030B583B00D46012807D0022808BF012298
:10C9200004D00124204603B030BD0022074B03EBA6
:10C93000C20301A9586800F035FA04460128F1D075
:10C94000019800F0C5F92860ECE700BF001505006C
:10C9500030B583B00D46012807D0022808BF012258
:10C9600004D00124204603B030BD0022084B03EB65
:10C97000C20301A9586800F015FA04460128F1D055
:10C98000019800F0ABF901F08EFC2880EAE700BFC7
:10C990000015050030B583B00D46012807D00228E8
:10C9A00008BF012204D00124204603B030BD00227C
:10C9B000084B03EBC20301A9586800F0F3F90446E1
:10C9C0000128F1D0019800F083F901F06AFC288079
:10C9D000EAE700BF0015050008B500F005FA08BD3C
:10C9E000704710B50446082001F032FE2060002098
:10C9F00010BD38B505460C4610F02EFE241841F146
:10CA000000012C60696038BD10B5044610F024FEAA
:10CA100022686368904271EB03032CBF0120002061
:10CA200010BD7047B0F5A07F00D0704710B4074A22
:10CA3000074C13685168206864681B1841EB0401B7
:10CA4000136051605DF8044B704700BFA87100206F
:10CA5000A071002010B584B00023154A1060536007
:10CA6000144A106053608DF808308DF809300322A5
:10CA70008DF80A2005228DF80B2003930E4A02A997
:10CA80000E480DF087FD70B9094B1A680B4C012355
:10CA900000931201002120460DF08AFE20460DF081
:10CAA00049FE04B010BD064A2E210CF0C3FAEBE794
:10CAB000B0710020A071002025CA0200985B002000
:10CAC0002C15050008B54FF47A7200230249D1E90C
:10CAD000000123F0AFF908BDA871002008B500F0EF
