:020000022000DC
:10700000000002209D3C0400C53C0400C73C040075
:10701000C93C0400CB3C0400CD3C0400000000004F
:10702000000000000000000000000000CF3C040051
:10703000D13C040000000000D33C0400D53C040017
:107040003D6603008DBF0200C5730300196C030089
:1070500069670300D73C0400D73C0400D73C040018
:10706000D73C0400D73C0400D73C0400D73C0400C4
:10707000D73C0400D73C0400D73C0400D73C0400B4
:10708000C1720300455B0300D73C0400D73C0400F9
:10709000D73C0400D73C04002D5E0300D73C04001D
:1070A000D73C040095BF020091BF0200556B03005E
:1070B000D73C0400D73C04000000000000000000A2
:1070C000D73C04006D770300D73C040079670300C8
:1070D000D73C0400D73C0400D73C0400498303009C
:1070E000D73C040000000000000000000000000089
:1070F00000000000D73C040000000000D73C040062
:10710000000000000000000000000000000000007F
:10711000000000000000000000000000000000006F
:10712000000000000000000000000000000000005F
:10713000000000000000000000000000000000004F
:10714000000000000000000000000000000000003F
:10715000000000000000000000000000000000002F
:10716000000000000000000000000000000000001F
:10717000000000000000000000000000000000000F
:1071800000000000000000000000000000000000FF
:1071900000000000000000000000000000000000EF
:1071A00000000000000000000000000000000000DF
:1071B00000000000000000000000000000000000CF
:1071C00000000000000000000000000000000000BF
:1071D00000000000000000000000000000000000AF
:1071E000000000000000000000000000000000009F
:1071F000000000000000000000000000000000008F
:107200000348044B834202D0034B03B11847704735
:10721000F45D0020F45D00200000000005480649F0
:107220000B1AD90F01EBA301491002D0034B03B194
:1072300018477047F45D0020F45D00200000000056
:1072400010B5064C237843B9FFF7DAFF044B13B1AE
:107250000448AFF300800123237010BD305F00208D
:107260000000000068DB040008B5044B1BB10449B2
:107270000448AFF30080BDE80840CFE700000000FD
:10728000345F002068DB0400A3F5803A704700BF3C
:10729000154B002B08BF114B9D46FFF7F5FF002152
:1072A0008B460F461148124A121A00F079F80C4B1F
:1072B000002B00D098470B4B002B00D098470020A4
:1072C000002104000D000B4800F016F800F044F80F
:1072D0002000290010F0B4FB00F014F800000800B2
:1072E000000000000000000000000220305F0020CD
:1072F000806A01202D730200002301461A461846B9
:1073000000F0A0B808B5074B044613B1002100F007
:10731000EFF8054B1868836A03B19847204600F0E0
:107320004BF900BFF17402000895040038B5084B12
:10733000084D5B1B9C1007D0043B1D44013C55F8D5
:1073400004399847002CF9D1BDE8384022F0D6B86E
:10735000F45D0020F05D002070B50D4E0D4D761BE4
:10736000B61006D0002455F8043B01349847A642D5
:10737000F9D1094E094D761B22F0BAF8B61006D0A5
:10738000002455F8043B01349847A642F9D170BD5A
:107390007C5D00207C5D0020F05D00207C5D002095
:1073A000830730B548D0541E002A3FD0CAB20346E6
:1073B00001E0013C3AD303F8012B9D07F9D1032CDE
:1073C0002DD9CDB245EA05250F2C45EA054536D91C
:1073D000A4F1100222F00F0C03F1200EE6444FEA54
:1073E000121C03F1100242E9045542E90255103221
:1073F0007245F8D10CF1010214F00C0F03EB0212EC
:1074000004F00F0C13D0ACF1040323F00303043396
:10741000134442F8045B9342FBD10CF003042CB1FB
:10742000CAB21C4403F8012B9C42FBD130BD644618
:107430001346002CF4D1F9E703461446BFE71A4679
:10744000A446E0E7F0B5264C256885B0064605B3AE
:107450006C681F2C41DCA6B1D5F8880048B3D0F881
:10746000007140F824204FF0010C0CFA04FC00EBF2
:1074700084024CEA0707022EC0F80071C2F880307F
:1074800010D0A31C01346C6045F82310002005B017
:10749000F0BD1448144D25600028D9D00068C5F807
:1074A0008800D5E7D0F8043143EA0C03C0F8043172
:1074B000E7E70E480191CDE9022370B14FF48470E3
:1074C00020F014FD48B10027C0E94077DDE9022330
:1074D0006C680199C5F88800C3E74FF0FF30D6E724
:1074E000D85F0020000000004C5F0020ED7E04000B
:1074F0002DE9F84FDFF8BCA0DAF800702DED028B13
:10750000E7B108EE100A89467D68D7F888806C1EBE
:1075100014D407EB8506043608EB8505B9F1000F96
:1075200010D0B8F1000F02D0EB6F4B450AD0013CF0
:10753000631CA5F10405A6F10406EFD1BDEC028B96
:10754000BDE8F88F7B683268013BA34216BF002379
:107550007C603360002AEAD0D7F804B0B8F1000F9D
:107560001AD0D8F80001012303FA04F1014213D024
:10757000D8F80401014218D155F8041C18EE100A7D
:1075800090477A685A450BD1DAF80030BB42CED02A
:107590001F46002FB8D1D1E790477A685A45F3D0FB
:1075A000DAF80070002FAFD1C8E755F8040C904707
:1075B000E7E700BFD85F0020FEE700BF4FF0805331
:1075C000D3F83001A0F10D03584258417047000034
:1075D000024AD2F80034002BFBD0704700E0014093
:1075E00008B5FFF7EBFF40B14FF080430022C3F82E
:1075F0000C21C3F81021C3F83825FFF7DFFF00285E
:1076000046D04FF080524E4BD2F80414C3F82015E8
:10761000D2F80814C3F82415D2F80C14C3F82815AE
:10762000D2F81014C3F82C15D2F81414C3F830157E
:10763000D2F81814C3F83415D2F81C14C3F8401546
:10764000D2F82014C3F84415D2F82414C3F848150E
:10765000D2F82814C3F84C15D2F82C14C3F85015DE
:10766000D2F83014C3F85415D2F83414C3F86015A6
:10767000D2F83814C3F86415D2F83C14C3F868156E
:10768000D2F84014C3F86C15D2F84424C3F870251E
:10769000FFF794FF48B14FF08043D3F80024D2079E
:1076A00044BF6FF00102C3F80024264AD2F88830A4
:1076B00043F47003C2F88830BFF34F8FBFF36F8F6E
:1076C0004FF08053D3F830210D2A0ED1D3F8343146
:1076D000022B02D81C4AD35C3BB14FF01023D3F8E5
:1076E00008224FF08043C3F858254FF01021D1F8FD
:1076F0000C32DB071FD515480123C0F80435FFF70E
:1077000067FFD1F80C3223F00103C1F80C32FFF708
:107710005FFF0023C0F80435FFF75AFFBFF34F8F18
:1077200008490B4BCA6802F4E0621343CB60BFF315
:107730004F8F00BFFDE7074B074A1A6008BD00BF27
:1077400000C0004000ED00E00C95040000E00140A6
:107750000400FA05E05900200090D00308B504F0B9
:10776000A3FA08BD38B5044648B1FFF7F7FF054650
:1077700011F00EFCFFF7F2FF431BA342F8D338BD14
:1077800008B5FA2004F066FA0EF058FC20B90EF0A5
:107790005BFC08B10EF006FA0EF0CEFD20B90EF03B
:1077A000D1FD08B10EF0FEF900200EF003FD00201F
:1077B0000EF06EFC0EF038FD0028FBD00EF0EEFC53
:1077C0000028F7D00DF0F0FE18B1BDE808400EF02B
:1077D000E9B908BD08B5002001F0A2FB30B94FF0AF
:1077E000E023D3F8F03DDB0700D500BE08BD0378E9
:1077F000024613F0010011D11378C3F380015B0737
:107800000FD4137813F001000AD113785B0708D462
:10781000137843F004031370012070470020704771
:10782000084670470378C3F380015B0708D50378E7
:1078300013F0010203BF037862F382030370002197
:10784000084670478388C07800F003000228C3F31D
:107850000A0315D003281DD001280FD1022940F2B8
:10786000FF3208BF4FF480629A420FD24FF0E023FC
:10787000D3F8F00D10F0010008D000BE00207047D2
:10788000022904D1B3F5007FF0D101207047402BCD
:10789000FBD9EBE702290CBF4FF4806240229A42E9
:1078A000F3D2E3E730B50A44914200D330BD4C78BF
:1078B000052C06D18C7804F07F0500EB4505E40922
:1078C0002B550C782144EFE730B4104B02249A6B0F
:1078D00083F82C10996883F8304093F83C408A1A5A
:1078E0009A6224B942F205059D8783F83E4051B162
:1078F0004AB11A7BD20930BC14BF93F82E1093F80A
:107900002F1001F091BC30BC704700BFDC6100203B
:1079100038B5154B154C054673B1607B10F0B4FCBF
:1079200050B942F2077384F83E00A387284601212C
:10793000BDE83840FFF7C8BFA26BA36894F82F10CA
:107940009B1AB3F5007F28BF4FF40073084A9BB21F
:10795000284601F027FC30B94FF0E023D3F8F03D82
:10796000DB0700D500BE38BD89820300DC61002042
:10797000DC5F002070B5284CE28AA36852BA92B24C
:1079800086B0054612B1B3FBF2F292B2A06BD4F806
:107990001110B0FBF2F61B1AB3F5007F28BF4FF4AD
:1079A000007309BA009302FB16021C4B607B314442
:1079B00010F032FC031E0CDA43F60223A3870121E8
:1079C0000023284684F83E3006B0BDE87040FFF73B
:1079D0007BBF94F82E100FD1CDE9033307228DF829
:1079E000101003A819468DF80C508DF80D20059342
:1079F00001F0DEFA06B070BD084A9BB2284601F0DD
:107A0000D1FB0028F6D14FF0E023D3F8F03DDB079F
:107A1000F0D500BEEEE700BFDC610020DC5F002097
:107A2000C28A836852BA92B223B9002A0CBF0020DE
:107A300002207047C17B282904D1017BC90906D1E6
:107A4000022070472A2902D1017BC909F8D122B14D
:107A5000934234BF0220002070470120704700008D
:107A6000044880F83C1080F83D2080F83E3001202A
:107A7000704700BFDC610020024840220021FFF770
:107A80008FBC00BFDC610020024840220021FFF7CC
:107A900087BC00BFDC61002073B54B79082B05461D
:107AA00002D0002002B070BD8B79062BF9D1CB79C2
:107AB000502BF6D1162A07D84FF0E023D3F8F03D2B
:107AC000D907EED500BEECE7164C8B7884F82D3044
:107AD00004F12E030E78019304F12F030093022387
:107AE0001A46314401F00CFB38B94FF0E023D3F8CB
:107AF000F03DDA07D5D500BED4E7002384F8303056
:107B000094F82F101F232246284601F04BFB30B972
:107B10004FF0E023D3F8F03DDB0700D500BE17207F
:107B2000C0E700BFDC61002001297FB5064615468D
:107B300014D1137803F07F02022A48D16C78012C0B
:107B400045D16A88002A42D1AB883D4D95F8302056
:107B5000042ADBB204D1194601F066FB01201AE0C9
:107B600095F82E10994218D1022AF7D1AA6BAB686A
:107B70009B1AAB62032385F8303005F120020D23F8
:107B800001F010FB0028E9D14FF0E023D3F8F03DDD
:107B9000DB0752D500BE04B070BD95F82F10994296
:107BA000DCD1002ADAD1019101F030FB01990028E3
:107BB000D4D1304601F074FB0028CFD1002385F8E2
:107BC00030301F4A95F82F101F233046D8E703F0B6
:107BD0006003202B31D16B78FE2B13D0FF2B2CD1DF
:107BE0006B8853BBE9888AB23ABB154B30469987FC
:107BF0002946C3E90D2283F8302083F83E2001F0A6
:107C000077FEABE76B88C3B9EB88012B15D18DF8F4
:107C10000F300C4B1BB110F065FA8DF80F009DF87A
:107C20000F3053B1013B8DF80F300DF10F020123DE
:107C30002946304601F06EFE90E70020ABE700BF1A
:107C4000DC610020E58003002DE9F041AB4C94F8A5
:107C50003070012F8EB005461E4600F0B781032F0D
:107C600000F02982002F42D194F82F308B4201D0AE
:107C7000012013E01F2E03D12268A14B9A4210D09D
:107C800094F82E100423284684F8303001F0CCFA02
:107C900094F82F10284601F0C7FA00200EB0BDE876
:107CA000F081984B23626368E67BD4F8088084F8FF
:107CB0002C70C4E90937012384F8303006F0FD0345
:107CC000282BC4E90D872CD12046FFF7A9FE0146D9
:107CD00018B12846FFF7F8FD09E0B8F1000F00F0F1
:107CE0006F81282E40F0C4812846FFF743FE94F8A8
:107CF0003030022BBCD194F82E10284601F0D0FA77
:107D00000028B5D1A368A26B94F82E10934240F2DC
:107D1000FB81207BC00900F0F781284601F084FA3E
:107D2000A6E7B8F1000F17D0237BDB0914D1B8F513
:107D3000007F01D90121CCE7734A1FFA88F3284656
:107D400001F030FA0028D2D14FF0E023D3F8F03D13
:107D5000DA07A2D500BEA1E7252E677B08D8192E29
:107D600014D8032E00F0F680122E00F09A805EB335
:107D700094F83C30002BDDD1A38E634A6349607BCD
:107D800010F02CFA002880F21481D3E71A3E0B2E53
:107D9000EED801A353F826F0157F0200EB7D020018
:107DA000717D0200717D0200717D0200717D020013
:107DB000717D0200717D0200717D02005D7E020016
:107DC000717D0200077E0200384610F0DBF90028C2
:107DD00040F0F28094F83C30002BC9D143F60223E6
:107DE000A387002384F83E30C2E7494B002B00F004
:107DF000E380E17C3846C1F3400301F00102090948
:107E000010F0F6F9E3E70DF10E0204A9384610F080
:107E1000D7F9049B13B1BDF80E203AB994F83C3061
:107E2000002BA5D143F60222A287DBE712BA013B61
:107E30001BBA069234480593082205A920F098F849
:107E40000820A368002B3FF475AF834228BF034688
:107E500063632D4A94F82E109BB270E70023CDE99E
:107E60000533079308238DF817300DF10E02022316
:107E700004A938468DF81C3010F0A2F9049A002AA3
:107E8000CCD0BDF80E30002BC8D012BA06925BBA27
:107E90001D48ADF81E300C2205A920F069F80C2011
:107EA000CFE72422002105A8FFF77AFA80238DF876
:107EB000153002238DF816308DF8173008221F2355
:107EC000202107A88DF81830FFF76AFA1022202128
:107ED00009A8FFF765FA042220210DA8FFF760FA30
:107EE0000DAB09AA07A9384610F004F90648242268
:107EF00005A920F03DF82420A3E700BFDC610020A5
:107F00005553424355534253DC5F0020EB61002040
:107F1000F181030003238DF8143000238DF8153010
:107F20008DF816308DF817307E4B8BB1384610F037
:107F3000ABF99DF8163080F0010060F3C7130422FE
:107F400079488DF8163005A920F012F8042078E75A
:107F50000120EEE71222002105A8FFF721FAF02305
:107F600094F83C208DF814300A238DF81B304FF024
:107F7000000362F303038DF8163094F83D308DF85A
:107F80002030694894F83E308DF82130122205A93E
:107F90001FF0EEFF654BBBB163494FF400723846EA
:107FA000AFF3008000239842A38784F83E30FFF6A9
:107FB000DFAE00287FF445AFA368002B7FF4BAAE94
:107FC000022384F8303092E61220EBE7E37BA06BCB
:107FD000282B05D1636B30449842A063F0D283E62E
:107FE0002A2B49D1E28A52BA92B21AB1A368B3FBE2
:107FF000F2F292B2D4F811104B4FB0FBF2FC09BA76
:1080000002FB1C020096607B3B46614410F01AF9AB
:10801000002809DAA36B3344A36343F60223A38742
:10802000002384F83E3085E686421BD9361A40B1DB
:10803000A16B11FA80F1A16332463918384620F05D
:1080400031F894F82F3007960021072205A8CDE9D2
:1080500005118DF814508DF815208DF8183000F0AA
:10806000A7FF44E6A36B1E44636BA6639E42A7D2A0
:108070002846FFF74DFC3AE6237B3044DB09A0633A
:108080000CD1A38E284A607B04F10F0110F0A6F8F2
:10809000002803DA39462846FFF716FCD4E90D32EA
:1080A0009A428DD24FF0E023D3F8F03DDB077FF505
:1080B0001EAE00BE1BE694F82E308B427FF417AE46
:1080C0000D2E7FF414AEE37B282B09D02A2B14D07D
:1080D000174B53B1607B04F10F01AFF3008004E054
:1080E000144B13B1607BAFF30080002384F8303071
:1080F000114A94F82F101F2321E6104B002BF4D0C7
:10810000607B10F0B5F8F0E79B1AA362032384F8B4
:1081100030300B4A0D23284601F044F800287FF444
:10812000A7AD11E689820300DC5F0020000000009B
:108130000000000000000000DC61002071820300EC
:10814000FC61002070B500F110050446284601F0DE
:1081500079FE3F2817D9A178002001F007F890B1E7
:10816000284601F06FFE3F28A17807D904F59472E4
:108170004023BDE87040002001F014B8BDE8704015
:10818000002001F001B870BD70B500F11C04054677
:10819000204601F02EFE08B9002070BD697800204D
:1081A00000F0E4FF0028F7D005F5B476314620460C
:1081B000402201F06BFE6978044668B103463246FE
:1081C000002000F0EFFF48B94FF0E023D3F8F03D76
:1081D000DB07E1D500BEE0E700F0D6FF2046DCE794
:1081E00037B50E4C00254FF4D47200212046FFF71E
:1081F000D7F804F1280100950123802204F1100032
:1082000001F0E4FD00950123802204F1A80104F1AE
:108210001C0001F0DBFD03B030BD00BF1C6200207C
:1082200010B5084C102200212046FFF7B9F804F1E0
:10823000100001F07DFE04F11C00BDE8104001F0CB
:1082400077BE00BF1C6200202DE9F0474B79012B5F
:108250008046924603D000252846BDE8F0878B79FA
:10826000012BF8D1CB79002BF5D10C7823460C44A7
:108270006278242A06D15345EDD8227813449BB264
:108280001444F5E7042AE6D16279012AE3D1A27900
:10829000032AE0D1E579002DDDD1DFF8849099F84B
:1082A000017099F80220174332D1A27889F8002092
:1082B00026789D19ADB2264410E0B378DA0914BFD0
:1082C00089F8013089F80230337801371D44ADB2A6
:1082D0001E44FFB233781D44ADB21E442379BB4225
:1082E00003D80F48FFF72EFFB6E75545F9D8737846
:1082F000052BEFD13146404600F0DEFE0028DCD1F0
:108300004FF0E023D3F8F03DDA07A4D500BEA2E792
:108310004FF0E023D3F8F03DDB079CD500BE9BE790
:108320001C6200200020704773B5204D1C46AB78BE
:108330008B4206461DD06B788B422BD12846FFF727
:1083400023FF28BB05F11C0001F053FD00BBFCB16D
:1083500014F03F031CD169780193304600F006FF0A
:10836000019B0446A0B169781A46304600F01AFF16
:1083700019E0A2B205F5947105F1100001F0D2FDEB
:108380000B4B13B10020AFF300800848FFF7DAFE73
:10839000012408E04FF0E023D3F8F04D14F001047D
:1083A00001D000BE0024204602B070BD1C62002037
:1083B0000000000070B504468178002000F026FF20
:1083C000054668B9201D01F03DFD3F2808D9A17878
:1083D00004F19C0228464023BDE8704000F0E2BE54
:1083E00070BDF8B505464178002000F00FFF064645
:1083F00010B100242046F8BD05F1DC0740223946C3
:1084000005F1100001F042FD04460028F1D00346BA
:1084100069783A46304600F0C5FE0028EAD14FF0B0
:10842000E023D3F8F03DDB07E3D500BE0446E1E7E7
:1084300037B50D4C00254FF48E7200212046FEF713
:10844000AFFF04F11C01009501234022201D01F023
:10845000BDFC00950123402204F15C0104F11000F1
:1084600001F0B4FC03B030BDC463002010B5074C6C
:10847000042200212046FEF793FF201D01F058FD45
:1084800004F11000BDE8104001F052BDC4630020AB
:108490002DE9F34113464A79FF2A07460D4603D0DA
:1084A000002002B0BDE8F0811F4E7178B2780A4317
:1084B000F6D1AA78287832702A792C1882B323440E
:1084C00001E021780C446178052901D09C42F8D361
:1084D000DFF85880CDF8048008F1010300932146AD
:1084E0000223384600F00CFE38B94FF0E023D3F8F1
:1084F000F03DDB07D4D500BED3E72B79B178C3EBD1
:10850000C3031C4439B1402308F19B02384600F0F4
:1085100049FE0028E9D0737813B10348FFF761FFE3
:10852000601B80B2BDE700BFC4630020C5630020AC
:1085300008B5114882788A4204D042788A4211D024
:10854000002008BD9AB200F19C01043001F0EAFC61
:108550000A4B13B10020AFF300800748FFF72AFF52
:108560000120EEE7064A1AB199B20020AFF300806D
:108570000148FFF736FFF3E7C46300200000000066
:10858000000000002DE9F0471A4E8C2505FB006A1B
:108590000746894600209AF8011090461C4600F0D4
:1085A000E5FD18B355460835B9F1000F16D03F2C3C
:1085B0008AF8089005F1010018D8224641461FF0BC
:1085C000D7FC0134A4B28C2000FB0760234641781D
:1085D0002A460020BDE8F04700F0E4BD402C05D855
:1085E0002246414628461FF0C3FCECE70020BDE8C8
:1085F000F08700BFE064002002488C220021FEF7D3
:10860000CFBE00BFE06400200020FFF7F5BF0000F0
:10861000F7B54B79032B07460E4603D000242046BE
:1086200003B0F0BD0C79C4EBC4041234A4B294427C
:1086300007D94FF0E023D3F8F03DDA07EED500BEBE
:10864000ECE71D4D95F801C0BCF1000FF1D10A789F
:10865000114491F801E0BEF1210FEAD1C5F888106C
:1086600016F802C06A1C0192AA1C00926144327979
:1086700000F046FD0028DCD0B379A978012B04BFB7
:10868000F379EB7001232B71B3782B70D5F8883018
:10869000B3F80730EB800029C1D0084A40233846A0
:1086A00000F080FD0028BAD14FF0E023D3F8F03D70
:1086B000DB07B4D500BEB2E7E064002028650020E7
:1086C000F7B51378154603F01F02012A06460C463B
:1086D00001D000246BE0664FAA883978D2B291426B
:1086E000F7D113F060031FD0202BF2D16B78013B40
:1086F0000A2BEED801A252F823F000BF6D870200CA
:108700003788020043880200D3860200D386020025
:10871000D3860200D3860200D3860200C9870200F6
:10872000138802004F880200012C01D001243EE092
:108730006A78062ACDD16A88120A212A0AD1D7F886
:108740008820002AC5D01378294603B0BDE8F04040
:1087500001F0E0B8222ABCD118460FF021FFFB88B7
:1087600002462946304601F0D5F820E0012CDDD143
:10877000EB886988402B4FEA1122184628BF402019
:1087800011F0FF0116D0012B14D90138394B397281
:1087900080B2009000200FF00BFF0444A4B264B933
:1087A0004FF0E023D3F8F03DDB0792D500BE204622
:1087B00003B0F0BD304B0024EBE72F4A2346294697
:1087C000304601F0A7F8B1E7012C05D1EB88402B2A
:1087D0003FF67FAF294AC4E7032CA7D1EB8869880D
:1087E000402B4FEA1122184628BF402011F0FF010C
:1087F0000DD0012B0BD997F848308B4207D10138A7
:108800001F4B80B2009000200FF0E8FE8EE71B4B5C
:10881000F8E7012C8AD169881A4B090A79712BB1C2
:108820000020AFF3008000283FF453AF29463046C4
:1088300001F05EF87AE7012C7FF478AF124A234604
:108840008FE7012C7FF472AF104A234689E7012C91
:10885000ECD0032C7FF46AAF69880D4BC9B2397133
:10886000002B3FF463AF0020AFF300805EE700BF52
:10887000E0640020E9640020E8640020286500200E
:108880002965002000000000E5640020E464002069
:108890000000000037B51C4CA2788A42054660787B
:1088A0000CD0884226D1194A12B9012003B030BD3C
:1088B00017499AB20020AFF30080F6E79042F2D059
:1088C00000229BB211461046009304F148030FF0BA
:1088D00085FEA178402304F14802284600F062FC9E
:1088E0000028E2D14FF0E023D3F8F03DDA0708D5B5
:1088F00000BEDBE74FF0E023D3F8F03DDB0700D507
:1089000000BE0020D2E700BFE064002000000000AD
:10891000E864002070B500F110050446284601F017
:1089200091FA3F2817D9E178002000F01FFC90B1A0
:10893000284601F087FA3F28E17807D904F50A7242
:108940004023BDE87040002000F02CBCBDE8704022
:10895000002000F019BC70BD10B5044600F094FA78
:1089600008B9002010BD00F097FA0028F9D1044B97
:108970004FF42A7000FB0430007900F00100F1E7A9
:108980006C650020064B4FF42A7202FB0030D0F8D1
:1089900006300B6043898B80037B8B71704700BF6F
:1089A0006C65002008B5044B4FF42A7202FB0030BE
:1089B000103001F01EFA08BD6C65002070B54FF450
:1089C0002A74074E444304F1100092B2304401F07F
:1089D0005DFA05463019FFF79DFF284670BD00BFC0
:1089E0006C650020034B4FF42A7202FB00301030FC
:1089F00001F062BA6C6500202DE9F041044600F0F8
:108A000043FA10B90020BDE8F08100F045FA0646AF
:108A10000028F7D14FF42A71164D4C4304F11C087D
:108A2000A844404601F0E5F90028EBD02F19304664
:108A3000B97800F09BFB0028E4D004F51A742544B3
:108A400029464022404601F021FAB978044668B12F
:108A500003462A46304600F0A5FB48B94FF0E02314
:108A6000D3F8F03DDB07CDD500BECCE700F08CFBA2
:108A70002046C8E76C65002070B50B4C4FF42A7394
:108A800003FB00441C3492B20546204601F04AFA2A
:108A90000646204601F0ADF93F2802D92846FFF7E7
:108AA000ABFF304670BD00BF6C65002008B5044BBD
:108AB0004FF42A7202FB00301C3001F0C3F908BDEC
:108AC0006C65002037B5144C4FF42A720021204603
:108AD000FEF766FCFF234FF4424201256371E280FA
:108AE0000023082263812273009304F128012B469E
:108AF0004FF4807204F11000258101F067F90095B0
:108B00002B464FF4807204F5947104F11C0001F0BF
:108B10005DF903B030BD00BF6C65002010B50A4C94
:108B2000002105222046FEF73BFC04F110001C3416
:108B300001F0FEF9204601F0FBF920460121BDE8D5
:108B4000104001F0FAB900BF6C650020F7B54B7911
:108B5000022B064603D00025284603B0F0BD8B79D2
:108B6000022BF8D1204FBB787BBB8B783B700C7805
:108B700009250C4403E023781D44ADB21C446378FE
:108B8000242B1BD19542F6D96378042B12D163793B
:108B90000A2B0FD1154B2778019301330093022341
:108BA0001A46E119304600F0ABFA70B10E3517FAEB
:108BB00085F5ADB20C48FFF7ADFECDE7052BE3D14F
:108BC0002146304600F078FA38B94FF0E023D3F868
:108BD000F03DDB07BFD500BEBDE7A3787B702378EF
:108BE0001D44ADB21C44CFE76C6500206E650020CB
:108BF00070B50B461146127802F06002202A47D168
:108C0000244E8A883478944242D14A78203A032A02
:108C10003ED8DFE802F002141731012B05D11E4ABD
:108C2000072300F077FE012070BD032BFBD11B4B07
:108C3000002BF8D018490020AFF30080F3E7012B98
:108C4000F1D1ECE7012B02D100F052FEEBE7032B50
:108C5000E9D14C881248347104F0010585F0010116
:108C600001F06BF90F4B002BDDD0C4F34002294615
:108C700000200FF059F8D6E7012BE5D0032BD2D115
:108C8000094B002BCFD049880020AFF30080CAE702
:108C90000020C9E76C65002072650020000000001C
:108CA00088650020297D0300000000002DE9F347BE
:108CB000394D1C46EB788B4207460E4607D0AB7801
:108CC0008B425BD1AB78B34235D001245FE0A2B2D6
:108CD00005F50A7105F1100001F024F92F4B2BB9AD
:108CE0002F4B03BB2C48FFF715FEEBE795F905303A
:108CF0000133F5D005F50A794FF0000805F1100AA7
:108D0000A045EDD019F8013B95F905209A4207D10D
:108D1000504601F07EF818B995F90510AFF30080C0
:108D200008F10108ECE71F4801F073F80028D9D1D9
:108D3000AFF30080D6E71C4B13B10020AFF30080E7
:108D40000020FFF759FE0028BFD1184801F051F864
:108D50000028BAD1002CB8D014F03F03B5D1A978BF
:108D60000193384600F002FA019B04460028ACD07B
:108D7000A9781A46384600F015FA08E04FF0E023CB
:108D8000D3F8F04D14F0010401D000BE00242046B9
:108D900002B0BDE8F08700BF6C6500200000000055
:108DA000000000007C6500200000000088650020B5
:108DB0000B4B63B10B4B1B78834206D90A4B1B68E4
:108DC00000EB400003EBC0007047C01AC0B204289B
:108DD00003D8064B00EB4000F4E70020704700BFCB
:108DE000000000001868002014680020109504009E
:108DF00037B50C460546C868019200F0C7FDE36828
:108E0000019A0121284603B0BDE830401847000010
:108E100070B5144E054600242046FFF7C9FF38B947
:108E20004FF0E023D3F8F03DDB0700D500BE70BD66
:108E300043682846984733780134E4B20433A342A8
:108E4000EADA372200210848FEF7AAFA1022FF21A9
:108E50000648FEF7A5FABDE8704005481222FF213A
:108E6000FEF79EBA18680020196800201C680020D0
:108E70002C680020034A034610780BB101F06EB94C
:108E800001F072B9F4590020024B5878003818BF2D
:108E90000120704719680020024B1878C0F3800049
:108EA000704700BF1968002010B5094B1A78C2F34B
:108EB0008004520708D51B7803F01803182B05D13E
:108EC000044B187801F06EF9204610BD0024FBE732
:108ED00019680020F4590020044808B520B1044B5B
:108EE000187801F067F9012008BD00BFB5A10200A4
:108EF000F4590020044808B520B1044B187801F05B
:108F00006DF9012008BD00BFDDA10200F459002069
:108F1000024B1878FF3818BF01207047F459002021
:108F2000F8B51C4E3378FF2B05462FD11A4C1B4841
:108F300037220021FEF734FA201D00F0F9FF184B0C
:108F40001C60184B23B11848AFF30080174B186012
:108F5000154F00242046FFF72BFF40B94FF0E023C8
:108F6000D3F8F03D13F0010312D000BEF8BD036842
:108F700098473B780134E4B20433A342EADA284646
:108F8000357001F0E9F8284601F0E8F80120EDE736
:108F90001846EBE7F4590020E45900201968002036
:108FA00050680020000000001868002014680020AD
:108FB000F0B54378023B85B005460C46032B12D82A
:108FC000DFE803F002631921314B1A786FF30002D6
:108FD0001A701A7800216FF341021A7059701A78CA
:108FE00061F382021A702B4B1E6814B93368204655
:108FF0009847294637E0264B1A78D60743D51A7882
:1090000042F00402EEE7224A1378D8073BD51378E2
:109010006FF382031370E6E7FFF7CAFE20B14369DE
:1090200013B169682878984701363B78F0B2043369
:109030008342F1DA164A1378590724D513786FF36F
:10904000820313700023CDE9013303932B788DF84D
:10905000043005238DF805300E4B1E6814B93368B3
:109060002046984701A9301D00F038FF054614B985
:1090700033680120984735B94FF0E023D3F8F03D2D
:10908000DB0700D500BE05B0F0BD034F0026CCE7DE
:109090001968002050680020186800201FB54FF4A0
:1090A0000063CDE90130039101A81146FFF780FF6D
:1090B00005B05DF804FB000038B58B7803F07F0342
:1090C000082B0C4608D94FF0E023D3F8F03DDB071E
:1090D00000D500BE002038BD074B1D78074B204649
:1090E0009978FEF7AFFB0028EDD021462846BDE871
:1090F000384001F07BB800BFF45900201968002007
:109100002DE9F047DDE9085681460C4690469A461F
:109110000027B84501DC01200EE06378052B04D15F
:10912000E37803F0030353450AD04FF0E023D3F86C
:10913000F03DDA0702D40020BDE8F08700BEFAE770
:1091400021464846FFF7B8FF38B94FF0E023D3F87F
:10915000F03DDB07EFD500BEEEE7A378DA0914BFD8
:1091600033702B70237801371C44D2E7CB0901F010
:109170007F00253303EB4003024800211844FEF72B
:1091800036BB00BF19680020CB0901F07F002533F2
:1091900003EB4003024800211844FEF743BB00BF25
:1091A00019680020174838B501F07F0500EB45002D
:1091B00000EBD11420346079C00709D54FF0E023CB
:1091C000D3F8F03DDA0701D4002038BD00BEFBE73C
:1091D000607940F0010060710B48007801F0DAF826
:1091E0000028F2D1637960F300036371637960F35F
:1091F000820363714FF0E023D3F8F03DDB07E3D542
:1092000000BEE2E719680020F4590020054B01F088
:109210007F0203EB420303EBD11191F8250000F02C
:10922000010070471968002010B50C4B01F07F0257
:1092300003EB420303EBD114203463799B070BD477
:10924000074B187801F016F9637943F00203637154
:10925000637943F00103637110BD00BF19680020FA
:10926000F459002010B50C4B01F07F0203EB4203D0
:1092700003EBD114203463799B070BD5074B187887
:1092800001F01CF963796FF34103637163796FF344
:109290000003637110BD00BF19680020F45900205D
:1092A000054B01F07F0203EB420303EBD11191F870
:1092B0002500C0F340007047196800202DE9F04FE9
:1092C0008E4B1B78FF2B87B000F08D828C4B1D6876
:1092D0002C46002054F8043B9847204603A900F090
:1092E000C3FD2B68044601209847002C00F07B82C8
:1092F0009DF80D30013B072B00F2B582DFE813F03B
:1093000008001300B3027E02A0021F004A02AC0252
:109310009DF80C00FFF77CFD00F030FB794B9DF8C9
:1093200010209A70D2E79DF80C00FFF771FD00F055
:1093300025FB754B002BC9D0AFF30080C6E7714CFD
:109340009DF80C50237843F00103237094F82530E6
:109350006FF3000384F8253094F825306FF382030F
:1093600084F8253094F826306FF3000384F8263013
:1093700094F826306FF3820384F82630002000F042
:1093800005FB9DF8106006F06002602A11D14FF0D5
:10939000E023D3F8F03DDC0700D500BE9DF80C00BB
:1093A000002101F067F89DF80C00802101F062F8BF
:1093B0008CE7402A0DD155480028EFD000F0E6FA9E
:1093C00004AA012128460EF071FF00287FF47EAF29
:1093D000E4E706F01F06012E00F07181022E00F076
:1093E0009881002ED3D1202A0FD19DF814300F2B55
:1093F000D4D82344D878FFF7DBFC01460028CDD031
:1094000004AA2846FFF7F4FCDFE7002ABFD19DF845
:109410001130092BBBD801A252F823F0A996020003
:10942000979602008F930200839602008F930200AA
:1094300045940200C19502008F9302005F940200E0
:109440007594020004A800F0A7FA9DF812102846AF
:1094500000F096FE237843F00203237036E763782A
:109460008DF80A3001230DF10A0204A9284600F004
:1094700051FA2BE79DF812A063789A4537D06378AC
:109480003BB1284600F03CFFA6782846FFF7C0FC19
:10949000A670BAF1000F2AD00AF1FF30C0B20EF068
:1094A00013FE10B14378022B08D04FF0E023D3F81D
:1094B000F03DDF077FF56BAF00BE68E7C379C3F30C
:1094C0008012C3F340131B0143EA4213227822F0B7
:1094D0003002134323704388C31800F10906009338
:1094E000009BB34216D80A4B0BB1AFF3008084F84F
:1094F00001A004A9284600F0FBF9E7E6F459002092
:10950000506800201968002000000000AD820300B0
:109510000000000073780B2B03BF3378F778F61840
:1095200001277378042BC0D1009B9A1B93B201933F
:109530004FF0000BB94B1B785FFA8BF804334345AF
:10954000B3DB4046FFF734FC81460028ADD0019ADA
:10955000D9F80830314628469847082802462CD9C1
:10956000019B834229D3012F09D1D9F80830AC4996
:109570008B4208BF0227AB498B4208BF022700215C
:10958000CBB29F420DD843463146A7480192FEF721
:1095900089F9A24B019A1B780433984516449FDD44
:1095A00083E7B078034454FA83F30131D878FF2875
:1095B0007FF47BAF83F80380E2E70BF1010BB9E79F
:1095C000BDF81200030A5A1EC0B20E2A3FF6E6AEDC
:1095D00001A151F822F000BF159602003F9602004B
:1095E000619602009D9302009D9302007596020011
:1095F0003F9602009D9302009D9302009D930200FE
:109600009D9302009D9302009D9302009D93020092
:10961000279602000EF054FD1223024604A92846A4
:1096200000F078F9D1E6814B002B3FF4B7AE0EF095
:1096300039FE024600283FF4AAAE4388EEE7022B2B
:1096400007D10EF041FD00283FF4A1AE4388024649
:10965000E4E7774B002B3FF4A1AEAFF30080F2E7D5
:10966000BDF814100EF036FD024600283FF496AE09
:109670000378D3E76F4B002B3FF490AEAFF300803D
:10968000F2E7BDF81230012B7FF488AE237843F067
:10969000080323702DE7BDF81230012B7FF47EAE56
:1096A00023786FF3C303F4E72378C3F340129B08D6
:1096B00003F002031343ADF80A300223D3E69DF80A
:1096C00014300F2B3FF66AAE2344D878FFF770FBB7
:1096D000014600283FF462AE04AA2846FFF788FB43
:1096E00000287FF4F3AD9DF8103013F060047FF490
:1096F00055AE9DF811300A3B012B3FF64FAE00F0FE
:1097000045F99DF811300A2B7FF4F3AE8DF80A402D
:10971000A8E69DF8141001F07F03082B3FF637AE42
:1097200004EB430303EBD113D87CFFF741FB07465F
:109730002AB100283FF432AE04AA014661E69DF842
:10974000113003F0FD02012A08D0002B7FF41FAE78
:109750002846FFF7A5FDADF80A00AEE7BDF81220D8
:1097600022B9012B284612D1FFF77CFD002F3FF4D0
:10977000ADAD04AA39462846FFF73AFB002000F0B9
:1097800005F994F82630DE073FF5A0ADB1E6FFF706
:109790004BFDEBE79DF81010274B01F07F0403EB26
:1097A000440303EBD11393F825006FF3000083F813
:1097B000250093F825006FF3820083F825003CB95B
:1097C000059B9DF811209DF80C0000F0F3F87DE555
:1097D000D87CFFF7EDFA48B94FF0E023D3F8F03D1D
:1097E000D80700D500BE07B0BDE8F08F0469059B1F
:1097F0009DF811209DF80C00A04767E50E4B1A78E4
:10980000D1077FF563AD0D4A002A3FF45FAD1878AC
:10981000C0F3C000AFF3008058E500BF1868002017
:109820004D8B0200498202002C680020A5820300B3
:109830000000000000000000196800200000000087
:109840000D4B1B78DA077FF541AD0C4B002B3FF435
:109850003DADAFF3008039E5049B002B3FF436ADFE
:109860000598984732E54FF0E023D3F8F03DDB0749
:109870007FF52CAD00BE29E519680020000000002E
:1098800037B514490446CA89888991F90050831A6A
:109890009BB2402B28BF4023002D10DA904214D0F9
:1098A0001A4689680C4801931EF062FB0A4A019B24
:1098B0008021204603B0BDE83040FFF773BC9042E2
:1098C0004FF0000103D10022F3E78021FBE7024AB9
:1098D000EFE700BF146900202869002011F0800F15
:1098E0004FF000031A460CBF80211946FFF75ABCFF
:1098F00030B4074C05460B4608684968224603C247
:109900000022C4E902222846197830BCFFF7E6BFDE
:1099100014690020F8B5184E0C46054608684968D9
:10992000B260374603C70021F181E1888B4228BF2E
:109930000B46B381E18889B153B14AB94FF0E023B6
:10994000D3F8F03DDA0701D40020F8BD00BEFBE7F4
:109950002846FFF795FF30B10120F6E72178284629
:10996000FFF7BCFFF7E74FF0E023D3F8F03DDB074C
:10997000EAD500BEE9E700BF1469002002481422BE
:109980000021FDF70DBD00BF14690020014B1861D7
:10999000704700BF1469002010B50246044C0068EF
:1099A0005168234603C30023C4E9023310BD00BF3E
:1099B0001469002070B52D4C1E462378C909B1EBFF
:1099C000D31F054618D04EB14FF0E023D3F8F03D39
:1099D000DA0701D4002070BD00BEFBE7244B13B1B1
:1099E0002146AFF3008023690BB90120F3E71F4A3A
:1099F000032128469847F8E794F90030002B06DB4E
:109A0000A0680028E6D01B4932461EF0B1FAA268D1
:109A1000E38932443344A260E2889BB29A42E381F4
:109A200001D03F2E1ED823696BB921782846FFF755
:109A300055FF0028D9D14FF0E023D3F8F03DDB07E4
:109A4000C8D500BEC7E70221084A28469847014604
:109A50000028EAD1284600F00DFD8021284600F0BC
:109A600009FDC2E72846FFF70BFFE2E71469002073
:109A700000000000286900200A4492B291424FEA97
:109A8000400001D8824201DB121A92B210467047A0
:109A900038B50546D41A0846A988A4B29A423CBFF4
:109AA00004EB4104A4B2B4B1A14205D2914294BFE7
:109AB000521A521893B26B81994209D9EA882968DF
:109AC000C2F30E0202FB03111EF052FA012038BD50
:109AD0005B1A9BB2F0E72046F9E7930813B501EB58
:109AE0008303044699420BD112F0030206D00023EF
:109AF00001A801931EF03CFA019B236002B010BD47
:109B000051F8040B2060EDE72DE9F04385B085881E
:109B1000BDF830401E1BB6B2A3423CBF06EB450663
:109B2000B6B280460F466EB3B54206D29D4294BF90
:109B30005B1B5B199CB244812E46964228BF164699
:109B4000A54223D9B8F806209DF83430D8F8001083
:109B5000A5EB0409751BC2F30E0025441FFA89FC0E
:109B600015FB00F519FB00F9012B02461FFA89F9D4
:109B7000ADB200FB041116D066450AD872433846D0
:109B80001EF0F6F9304605B0BDE8F083641BA4B2C0
:109B9000D6E74A4638461EF0EBF9D8F800102A46B8
:109BA00007EB0900ECE7664506D816FB00F292B217
:109BB0003846FFF792FFE5E729F00304A4B22246F6
:109BC00038460191FFF789FF19F003092AD0C9F13E
:109BD00004039BB2AB4201994FF0000228BF2B4611
:109BE0002144ED1A039203AAADB201EB0904104619
:109BF000A1420DD1D8F8002009F1FF398144D118D4
:109C00008A420AD1039B3B60002DBBD02A46CFE796
:109C100011F801CB02F801CBEAE712F8013B09F891
:109C2000013FEDE7D8F80010EEE713B5930800EB1D
:109C30008303984209D112F0030204D00B68019308
:109C400001A91EF095F902B010BD0C6840F8044B54
:109C5000EFE72DE9FF471646C279078945898488D1
:109C6000D20980468946BFB2ADB214D1AF4236BFE9
:109C7000C5EB44057D1BED19ADB2A54236BF651B92
:109C80000025ADB2AE4228BF2E46002E4ED1304642
:109C900004B0BDE8F087A64209D32BB9C188361BB2
:109CA000C1F30E0101FB06992F462646EDE7AF42B0
:109CB0004FEA440136BF4A1B7A1BD21992B2324492
:109CC0008A42E2DBA21B92B229462046FFF7D4FE6D
:109CD0000746DAE7AEEB04001FFA80FEA645F9D28C
:109CE000B8F80620D8F80000A4EB0E05341BC2F328
:109CF0000E0174441FFA85FC14FB01F415FB01F5F9
:109D0000012B0A46ADB2A4B201FB0E001AD0664583
:109D10000ED8724349461EF02BF9B8F804003246BB
:109D20003946FFF7A9FEA8F80800B0E7BE46D5E718
:109D30002A4649461EF01CF9D8F80000224609EBD5
:109D40000501E8E7664506D816FB01F292B24946DE
:109D5000FFF76BFFE1E725F0030A1FFA8AFA524684
:109D600049460190FFF761FF15F003052BD0C5F1BF
:109D700004039BB2A3420198D9F80020039228BFA4
:109D80002346E41A0AF1FF3A0DF10C0CA4B2504438
:109D90002946624601391CF801EB00F801EF11F089
:109DA000FF01F7D1D8F800001544E918421EA94276
:109DB00004D11844002CB0D02246C8E715F801CBD6
:109DC00002F801CFF3E7D8F80000F3E7B2F5004F4F
:109DD0000DD882809DF800200160C3F30E0343EA92
:109DE000C233C380002343810381012070470020D8
:109DF00070470389428981889BB292B2934236BFF1
:109E0000C2EB41029B1A9B1898B2884228BF0846B1
:109E100070470289438992B29BB2D31A5842584183
:109E2000704703894289818892B29BB2934236BFC0
:109E3000C2EB41029B1A9B189BB299428CBF002037
:109E4000012070478288038940899BB280B2834297
:109E500036BFC0EB4200181AC01880B2824286BFDB
:109E6000101A80B20020704710B502894389044659
:109E70009BB292B2FFF70CFE6189034682B289B2AF
:109E8000A088FFF7F9FD6081184610BD73B50389FE
:109E900045890026ADB20446CDE900569BB2FFF7D6
:109EA00033FE61890346024689B2A088FFF7E4FDCC
:109EB0006081184602B070BD0289438992B29BB29C
:109EC000FFF7E6BD37B5038944890025A4B2CDE983
:109ED00000459BB2FFF718FE03B030BD37B504460E
:109EE00005890191FFF79DFFADB2019910B1E079AD
:109EF000C00912D0A2882B469A4210D9E288206865
:109F0000C2F30E0202FB03001EF032F8A088012209
:109F10002946FFF7B1FD2081012003B030BD9B1A17
:109F20009BB2E9E712B10023FFF793BE10467047DA
:109F300000234381038101207047C37961F3C71374
:109F4000C3710120704708B50A464189034689B2AA
:109F50008088FFF791FD588108BD42DF704743DFDD
:109F6000704744DF704712DF7047000007B54FF4B9
:109F7000405300205A68084B9A420AD18DF80700D6
:109F80000DF10700FFF7EFFF9DF80700003818BF3D
:109F9000012003B05DF804FBDBE5B15107B5FFF725
:109FA000E5FF58B1002301A80193FFF7DAFF0198FC
:109FB000003818BF012003B05DF804FB4FF0804368
:109FC000D3F80C0400F00110A0F1011358425841DD
:109FD000F1E7000001230360BFF36F8FBFF34F8FE2
:109FE000074B984202D0043B984207D1BFF35B8FE6
:109FF000044B002283F82021BFF35B8F704700BF22
:10A000005070024068690020F0B42B49BFF35B8FA9
:10A0100001F590724FF00104D2E84F3FC2E8454F7E
:10A02000002DF9D1BFF35B8FDBB25BB1234B5A68D4
:10A03000C2F30802003A0146F0BC214818BF0122D1
:10A04000FFF72CB808281F4B1AD1D3F8C024D0032F
:10A0500008D5BFF35B8F002381F82031BFF35B8FFE
:10A06000F0BC704791F80B010028F2D0D1F8001134
:10A070001548C3F8A017C3F8A427F0BCFFF7AABF80
:10A0800001EB401500F59472460153F82240EF8829
:10A09000AA888959D21B92B2A4B2A24228BF2246F2
:10A0A000142404FB0033C3F80017C3F80427074B3C
:10A0B00003EB8000E1E700BF6869002000ED00E0ED
:10A0C000D1A0020000700240487002402870024097
:10A0D000C0B2FFF799BF000010B40D4ABFF35B8F09
:10A0E00001464FF00104D2E84F3FC2E84C4FBCF1AB
:10A0F000000FF8D1BFF35B8FDBB22BB105485DF8E1
:10A10000044B0122FEF7CABF5DF8044BFFF762BFA4
:10A11000886A0020D9A002000D4B03EB4013D98AB6
:10A120009A8A521A198B92B28A4228BF0A46196932
:10A130001423434303F1804303F51C33C3F8001693
:10A14000C3F80426034B03EB8000FFF7C5BF00BF35
:10A15000686900200470024070470000014B8022B3
:10A160005A60704700E100E0044B8022C3F884206D
:10A17000BFF34F8FBFF36F8F704700BF00E100E068
:10A18000074BD3F80014D3F800240A43C3F8002483
:10A190000022C3F858214FF48002C3F8042370470B
:10A1A00000700240024B0022C3F82C25704700BF0C
:10A1B000007002401FB5084B0021C3F8041501A828
:10A1C0000223CDE9011103918DF80530FEF7F0FE71
:10A1D00005B05DF804FB00BF00700240024B012295
:10A1E000C3F80425704700BF0070024070B58A783C
:10A1F000404C8E8802F07F03580000EBD21004EB35
:10A200000010C6F30A060681C97801F0030101298E
:10A210004FEAD21529D00120374900FA03F4D5B905
:10A2200003F10C06B040C1F80403D1F8140503F59E
:10A2300094732043C1F8140541F823502E4BC3F802
:10A24000182542F48072C3F80C25BFF36F8FBFF35B
:10A250004F8F012014E002339840C1F80403D1F875
:10A2600010352343C1F81035E8E7082B09D04FF02B
:10A27000E023D3F8F00D10F0010001D000BE002063
:10A2800070BD1D4BDDB9B4F8181111B18021C3F8B0
:10A290001C150021C3F85011D3F8001311F400115C
:10A2A00008BFC3F85411144B4FF44011C3F8041302
:10A2B000D3F8141541F48071C3F81415BEE70021DA
:10A2C000C3F82C11B4F8081111B18021C3F81C1582
:10A2D000094BD3F8001311F4001108BFC3F854114F
:10A2E0000649C3F80413D3F8101541F48071C3F87C
:10A2F0001015A3E7686900200070024000082000E4
:10A300001F4B80222DE9F041C3F88420BFF34F8F0B
:10A31000BFF36F8F01241B4DDFF87480274604F1D3
:10A320000C03A21C07FA02F207FA03F31343C5F861
:10A330000833A30003F1804303F51C3300265E605D
:10A3400008EB44109E62202231460134FDF728F8C4
:10A35000082CE4D10C4BC5F808332022C5F81C6545
:10A3600031466E620948AE64FDF71AF8C5F81475F7
:10A37000C5F81075024B80225A60BDE8F08100BF1D
:10A3800000E100E00070024000083000686A002030
:10A3900068690020F0B501F07F000F46304C4500A1
:10A3A00005EBD7154FEA051E04EB05151E46EB7AA3
:10A3B00085B0C90903F0FF0C5BB14FF0E023D3F87F
:10A3C000F03D13F0010301D000BE0023184605B094
:10A3D000F0BD44F80E20AE80A5F806C0F8B9F6B975
:10A3E000204BD3F88034C3F3C0138B4217D01E48E0
:10A3F000FFF772FE1D4B59680396C1F3080100393F
:10A400004FF0070318BF012101A8CDE901668DF8BF
:10A4100005308DF80870FEF7CBFD0123D6E7012546
:10A42000D1B904EB4012D57220B91148FFF754FEA0
:10A430002B46CBE7BFF36F8FBFF34F8F947A04F0B7
:10A44000FF03002CF4D0D47A04F0FF05002CBDD01B
:10A450009172FFF7D9FDEBE7FFF75EFEE8E700BF7B
:10A4600068690020007002405070024000ED00E07A
:10A470004C70024011F07F0008B507D10D4B01224E
:10A480005A65BFF36F8FBFF34F8F08BD0828F8D010
:10A49000084B41F48072C909C3F81825F1D1064B65
:10A4A00003EB40139A7A002AEBD09972FFF7ACFDC8
:10A4B000E7E700BF007002406869002011F0770FE5
:10A4C00012D00A4B41F48072C3F80C15C3F80C2566
:10A4D000CA09C3F8181504BF01F5947143F8212087
:10A4E000BFF36F8FBFF34F8F704700BF0070024004
:10A4F000184B0122002110B5C3F81425C3F810250C
:10A500000A468B0003F1804303F51C33013108290F
:10A510005A609A62F5D10F4B0F4C5A629A64C3F895
:10A520005821D3F80014D3F800240A43C3F80024B8
:10A53000D3F80023C3F80823084AC3F804230021F2
:10A540004FF492722046FCF72BFF40232383238194
:10A5500010BD00BF00700240686900200514C001F2
:10A560002DE9F04FB94BBA4AD3F80013002387B056
:10A570001C4601201D4621FA03F6F6070BD552F8BA
:10A58000236046B100FA03F6344342F82350BFF388
:10A590006F8FBFF34F8F0133192BECD1E2070BD52F
:10A5A000FFF7A6FF0023012103A8CDE9033305939C
:10A5B0008DF80D10FEF7FCFC14F4006FA54D08D0CB
:10A5C000A24BD3F8A8369BB2A5F81631012385F823
:10A5D0001C31A3022CD59D4ED6F8143513F480738C
:10A5E00003D00820FFF710FD0123D6F81025D7056A
:10A5F00040F1568195F81C317BB1002385F81C3160
:10A60000B5F816314FF4E0608822CDE903029BB221
:10A61000012103A80593FEF7CBFC0023CDE903330A
:10A6200005930121032303A88DF80D30FEF7C0FC2C
:10A63000610234D5854BD3F8006406F4E062C3F8B8
:10A640000024F2050CD50121C3F82C150023CDE917
:10A650000333059303A804238DF80D30FEF7A8FCFF
:10A6600077050FD5794B0122C3F808259A65D3F8F1
:10A67000002312F4001208BFC3F854214FF4001253
:10A68000C3F80423B6050AD50023CDE903330593A7
:10A690000121052303A88DF80D30FEF789FC200267
:10A6A00036D56A4BD3F88014C9B28DF80410D3F8AC
:10A6B0008424D2B28DF80520D3F888048DF80600E2
:10A6C000D3F88C048DF80700D3F890048DF80800B7
:10A6D000D3F894048DF80900D3F898048DF80A0093
:10A6E000D3F89C348DF80B30490601D1052A0FD0E0
:10A6F0000023CDE90333059301A90623082204A80A
:10A700008DF80D301DF034FC012103A8FEF750FC3C
:10A71000514B23407BB1BFF35B8F95F82031BFF3E2
:10A720005B8F002B40F0C4804FF0E023D3F8F03D66
:10A73000DA0700D500BE474FDFF81091DFF820B1EF
:10A74000B84600264FF0140A06F10C0324FA03F36E
:10A75000DB07F1B228D50AFB0693D8F80020D3F81E
:10A76000083705EB461C12FA83F2C8F80020BCF843
:10A7700006E098B273449BB2082E4FEA4612ACF83A
:10A78000063000F09D80B8F80830834240F0988091
:10A79000BCF80630B8F804009BB2984240F29080B2
:10A7A00011B95846FFF798FC0136092E08F1200828
:10A7B000CAD12A4B2340002B00F08C80234BD3F8C6
:10A7C0006C84C3F86C84BFF36F8FBFF34F8F14F4A6
:10A7D000806408D0D3F88044D3F880341906C4F3D9
:10A7E000C01440F18E804FF00009DFF868A0002609
:10A7F0004FF0140B28FA06F3DA07F0B201D4EEB9E1
:10A80000E4B1124BDAF810100BFB0633D3F808361C
:10A8100051FA83F1CAF8101005EB4611B1F816C0D1
:10A820001FFA8CFC5CFA83F39BB2CB82CB8ABAF81A
:10A8300014C09BB29C4567D9FFF76EFC0136082E09
:10A840000AF1200AD6D1002401260BE00070024054
:10A850000071024068690020FCFB1F000004000139
:10A860004C70024004F1100328FA03F3DB07E0B256
:10A8700003D47CB9B9F1000F0CD005EB441263018D
:10A88000D17A002952D0D288B98892B291424DD95A
:10A89000FFF7BAFB0134082C07F12007E2D119E0D9
:10A8A000002B7FF4BAAE4FF40013C6F80833B4E6B9
:10A8B0000023BFF35B8F85F82031BFF35B8F3AE74E
:10A8C0002A44D37A4BB94FF0E023D3F8F03DD807B0
:10A8D00000D500BE07B0BDE8F08FD388A8F80430DB
:10A8E0000020D072D388CDE903009BB207228DF8F7
:10A8F000101003A801218DF80D200593FEF758FBD9
:10A9000052E74FF0010970E7CB8A0021CDE903112E
:10A9100060F07F0007219BB28DF80D108DF81000BC
:10A92000012103A80593FEF743FB87E72B449E72A2
:10A93000B0E700BF01287FB5044600F08D800228F3
:10A9400046D0002842D1614BD3F80025002A3DD1E2
:10A950004FF48002C3F808234FF40062C3F80024C8
:10A96000BFF36F8FBFF34F8F4FF08053D3F8303169
:10A970000D2B0CD1564BD3F8001C0322D1B949F250
:10A980007531C3F8001CC3F8142DC3F8001C4F4BDD
:10A990000124C3F80045BFF36F8FBFF34F8FFFF75C
:10A9A000FDFA98B9FFF7E2FA38B104B0BDE870409B
:10A9B000FFF7D3BAC3F8142DE9E74FF08043C3F88B
:10A9C0000001D3F800210192019A1C6004B070BD0F
:10A9D0003E4CD4F804351BB1FFF7E0FA0028F5D15E
:10A9E000D4F800341B05FBD54FF40063C4F80034E1
:10A9F000BFF36F8FBFF34F8F4FF08053D3F83031D9
:10AA00000D2B0BD1324BD3F8001C09BB49F2753228
:10AA1000C3F8002CC3F8141DC3F8002C2B4C2D4E8A
:10AA200080250123C4F81C55C4F80433C6F88451AA
:10AA3000FEF76EFA00B17560FFF7B0FA0028FBD0A0
:10AA40000123C4F80435BFF36F8FBFF34F8FBDE709
:10AA50000022C3F8142DE1E71C4BD3F80025002A8F
:10AA6000B4D00022C3F80425BFF36F8FBFF34F8F1C
:10AA700018498020C1F88400BFF34F8FBFF36F8F58
:10AA8000D3F80013C3F80813C3F80025BFF36F8F82
:10AA9000BFF34F8FFFF76AFA98B1FFF760FA0E4BDA
:10AAA0005968C1F3080100230039CDE9013303934C
:10AAB00018BF0121022301A88DF80530FEF778FAAE
:10AAC00084E74FF080435C60E9E700BF007002401C
:10AAD00000E0064000E100E000ED00E06CDF7047C0
:10AAE0006DDF704774DF704776DF704778DF70473F
:10AAF0007ADF70477CDF704780DF70478FDF7047F9
:10AB0000A0DF70470BF04EB87FB5082203460192D4
:10AB100001A94FF6FF7202A806F050FE08B10BF033
:10AB200041F8019902A806F019FE08B10BF03AF8B5
:10AB300007B05DF804FB000010B5734BB2B00828F5
:10AB400000F2DF80DFE810F06C0009001F002F002A
:10AB50003F004C005C008500C40001221A706B4B62
:10AB600000221A706A4B5B88022B70D969486A4BC5
:10AB70006A49C01AC008000440F0030032B0BDE8C2
:10AB800010400AF057BA01221A70604B00221A7066
:10AB90005F4B5B88022B5AD95E485F4B6049C01AF5
:10ABA000C0080004E8E7594A0021117001221A7018
:10ABB000574B5B88022B4AD95648574B5949C01A04
:10ABC000C0080004D8E701221A70514B5B88022BA1
:10ABD0003DD95048504B5449C01AC0080004CBE737
:10ABE00001221A70494B00221A70494B5B88022BD4
:10ABF0002DD94848484B4D49C01AC0080004BBE74E
:10AC000001221A70414B00221A70414B5B88022BC3
:10AC10001DD94048404B4649C01AC0080004ABE764
:10AC200000221A70394B01221A70394B5B88022BB3
:10AC300009D93848384B3F49C01AC008000440F0D1
:10AC400003000AF0F7F90AF079F80028FBD132B0D6
:10AC500010BD00221A700823CDE9023312AA03ABFB
:10AC600002A904A806F062FD0528294C2BD16388AF
:10AC7000032B18D92748284B2F49C01AC0080004B5
:10AC800040F004000AF0D6F96388032B0BD9224B5D
:10AC900020482A49C01AC0080004DDE9022340F018
:10ACA00004000AF0D4F90220FFF72EFF039B009363
:10ACB000029A234812AB04A902F0DCFB0028C6D09C
:10ACC0000AF070FFC3E70028DED00AF06BFFDBE775
:10ACD00000221A701B4B18884FF6FF739842B6D0AB
:10ACE00012A906F025FE0528B1D008B10AF05AFFD6
:10ACF0000620FFF709FF0DF15901114802F0AAFBE8
:10AD0000DCE700221A70A2E78F6B0020906B002016
:10AD1000445E002064DC040014DC04008895040018
:10AD2000B5950400D8950400F79504001696040024
:10AD3000449604007296040090960400C5960400A0
:10AD4000986B0020F46F002030B587B00823019382
:10AD50004FF6FF72012301A902A806F02FFD08B1EA
:10AD60000AF020FF144D6B88022B0BD9134B1448AB
:10AD7000019A1449C01AC0080004082340F00300D7
:10AD80000AF065F9019902A806F0C6FC6B88022B4F
:10AD900004460AD909480A4B0B491B1ADB081B0455
:10ADA000224643F003000AF049F914B120460AF0A4
:10ADB000F9FE07B030BD00BF445E002014DC040083
:10ADC00064DC0400189704005197040010B5044691
:10ADD00007F0B4FA204607F0DBFA204607F00EF839
:10ADE0002378023B0B2B1FD8DFE803F006381F1E29
:10ADF0001E1E1E7B1E511E67464B01221A70464BBB
:10AE000000221A70454B5B88032B09D94448454BF7
:10AE10004549C01AC008000440F004000AF00AF9CD
:10AE200009F08CFF0028FBD110BD3A4B00221A70AC
:10AE3000394B01221A70394B5B88032B09D93848EA
:10AE4000384B3A49C01AC008000440F004000AF028
:10AE5000F1F809F073FF0028FBD1E5E72F4B5B8881
:10AE6000032B09D92E482F4B3149C01AC0080004C2
:10AE700040F004000AF0DEF809F060FF0028FBD182
:10AE80002C4B01221A702C4BA2881A80CCE7234B42
:10AE90005B88032B09D92248224B2849C01AC008D5
:10AEA000000440F004000AF0C5F809F047FF00284C
:10AEB000FBD1234B01221A70B6E7184B5B88032B9A
:10AEC00009D91748174B1F49C01AC008000440F0A1
:10AED00004000AF0AFF809F031FF0028FBD11A4B4B
:10AEE000E8E7237CDB079FD5237A072B9CD10B4B0C
:10AEF0005B88032B09D90A480A4B1449C01AC008B9
:10AF0000000440F004000AF095F8BDE81040FFF797
:10AF10001BBF00BF946B0020936B0020445E002099
:10AF200064DC040014DC04007C970400A597040092
:10AF3000CD9704008D6B0020F46F0020F49704007F
:10AF4000926B00201E9804008C6B0020499804002E
:10AF50000AF028BE0AF026BE1FB5312316488DF828
:10AF600004301DF08DFD144982B201A8FFF7C2FD27
:10AF700008B10AF017FE40F2C130FFF7B7FD08B183
:10AF80000AF010FE082200210DEB0200FCF708FA7F
:10AF90000623ADF80830ADF80A30ADF80C3002A841
:10AFA0002B23ADF80E30FFF7A3FD08B10AF0FAFD30
:10AFB00005B05DF804FB00BF3D6B002000B5ADB0EF
:10AFC000AC22002101A8FCF7EBF91A4A06921A4AB2
:10AFD0001A4812788DF87D20002202232821CDE91D
:10AFE000212240F6B832CDE923128DF8043040F228
:10AFF000011240F20163ADF80630ADF88020012364
:10B000004FF44862CDE92523ADF81430ADF87E3019
:10B010000B4B2A9301A90B4B2B9302F05CF808B160
:10B020000AF0C0FD0548012102F052F82DB05DF88C
:10B0300004FB00BFF65900203C6B0020986B0020F9
:10B0400039AB020005AB0200014B1878704700BF16
:10B05000946B0020014B00221A707047946B002003
:10B06000014B1878704700BF936B0020014B002202
:10B070001A707047936B002008B5064B02460121F9
:10B080001888FFF739FD18B1BDE808400AF08ABDFD
:10B0900008BD00BFFA59002010B51248124C032118
:10B0A00002F090F812280ED16388022B18D90F48AD
:10B0B0000F4B1049C01AC0080004BDE8104040F012
:10B0C000030009F0B7BF08B10AF06CFD6388022BDA
:10B0D00006D90648064B0849C01AC0080004ECE728
:10B0E00010BD00BF986B0020445E002064DC0400AB
:10B0F00014DC04008B980400B098040008B5084BD9
:10B1000093F85400FFF7EEFC30F0080207D043F24A
:10B110000402904203D0BDE808400AF043BD08BDD8
:10B12000986B002008B5FFF70FFEBDE80840FFF759
:10B13000B3BF0000014B1878704700BF8F6B002031
:10B14000014B1878704700BF906B002013B5044680
:10B150006846FFF7C5FC0098BDF804209DF806304E
:10B1600020602046A280A37102B010BD08B5FFF791
:10B17000B5FCB0FA80F0400908BD000037B5174CA7
:10B180006846FFF7E3FF6388032B0BD91448154B80
:10B190009DF801201449C01AC008000440F00400C2
:10B1A00009F04CFF114B1D789DF80130AB4213D0D4
:10B1B00068468DF80150FFF7D9FF6288032A0346DD
:10B1C0000AD90848064C0A49241AE40824042A46E5
:10B1D00044F0040009F03BFF03B030BD445E0020A2
:10B1E00064DC040014DC0400BC980400F559002061
:10B1F000D298040010B592B00AF01AF808B10AF01B
:10B20000D1FC0AF079FD08B10AF0CCFC002302A9B8
:10B21000012002930AF050FE08B10AF0C3FC02A814
:10B220000AF0B2FE08B10AF0BDFC524A0A21082019
:10B230000AF064F808B10AF0B5FCFFF78DFE4E483D
:10B24000002104F06FF808B10AF0ACFCFFF7B6FE7D
:10B25000FFF794FF494B4A48029302A904F042FACF
:10B2600008B10AF09FFC43F2EF53ADF8023012230D
:10B270000224ADF8043040220123002102A8ADF8D9
:10B2800006308DF80040FCF78BF802A83D4903F02A
:10B29000DCFE02A8CDF840D08DF8444002F054FA0C
:10B2A00008B10AF07FFC1022002102A8FCF778F810
:10B2B00000230293012204933348344B8DF80C2071
:10B2C00002A9059302F037F908B10AF06BFC00F00F
:10B2D000DFFA1C22002102A8FCF762F800234FF4D9
:10B2E0002032CDE902324FF470220492ADF81630CC
:10B2F00003228DF81830079302A8254B8DF81420EF
:10B30000089303F0B9FC08B10AF04CFC06F032F9DE
:10B3100008B10AF047FC0522002102A8FCF740F81A
:10B3200021238DF8083007238DF8093010238DF87C
:10B330000A309DF80B3023F0030343F003038DF82C
:10B340000B309DF80C3023F0030343F0030302A8F5
:10B350008DF80C3006F0C8F908B10AF023FC0D484E
:10B3600006F0AAF908B10AF01DFC0B4B01221A7075
:10B3700012B010BD8C6A0020E06F002055AF0200B3
:10B38000F86F0020EF980400CC6F002064020202E6
:10B3900051AF0200CDAD02008E6B002008B50AF05F
:10B3A00039F809F0CBFC18B9BDE8084009F056BFE0
:10B3B00008BD00004FF6FF73984270B504462BD0CD
:10B3C000164D6B88022B0AD91548164B16491B1AC5
:10B3D000DB081B04224643F0030009F02FFE134E46
:10B3E00000232046337006F0AFFA08B10AF0DAFB0A
:10B3F000337873B16B88022B0ED90A48084B0C497D
:10B40000C01AC0080004BDE8704040F0030009F015
:10B4100011BEFFF7C3FFEBE770BD00BF445E002025
:10B4200014DC040064DC040023990400926B002007
:10B430001E99040010B5094C23786BB1084B18888D
:10B440004FF6FF73984207D01321FFF74DFBFFF72C
:10B45000A5FF2378002BFAD110BD00BF8D6B002013
:10B46000FA59002007B50B46014628B11A460E4886
:10B4700001931CF07DFD019B0C4A012111700C4AC7
:10B480005288032A0DD90B4A0B480C49801AC00870
:10B49000054A000440F0040003B05DF804EB09F035
:10B4A000D6BD03B05DF804FB676B0020916B0020F4
:10B4B000445E002014DC040064DC04006199040094
:10B4C00000487047676B0020014B1888704700BF29
:10B4D000F46F002010B5124C86B006AB03E90300F0
:10B4E00006220DF1110120461CF042FD0D4B5B8838
:10B4F000032B13D90C4B0D4822780D49C01A6379E0
:10B50000039323790293C008E37801930004A3789E
:10B51000009340F00400637809F0BDFD06B010BD53
:10B52000616B0020445E002014DC040064DC040035
:10B530007D99040070B50388212B8AB0054600F080
:10B54000A0800CD8103B9AB2092A32D8092B30D8E7
:10B55000DFE803F055812F2F2F2F2F422F1A3B2B7F
:10B5600000F0AC80562B00F0BC80352B21D14389F4
:10B57000FBB181891030FFF775FF5F4B1B68C3B1CA
:10B580000AB0BDE870401847027A5C4B012A5B881C
:10B5900011D1032B09D95A485A4B5B49C01AC0082C
:10B5A000000440F0040009F045FD09F0C7FB002845
:10B5B000FBD10AB070BD032B09D95148514B5349F7
:10B5C000C01AC008000440F0040009F033FD09F07F
:10B5D000B5FB0028FBD1ECE7484B5B88022B09D96F
:10B5E0004748484B4A49C01AC008000440F00300CD
:10B5F00009F020FD09F0A2FB0028FBD1D9E73F4B61
:10B600005B88022B09D93E483E4B4249C01AC0080C
:10B61000000440F0030009F00DFD3F4B3F4E0022B7
:10B620001A70083535F8043C33800FCD01AC0FC4D7
:10B630000FCD0FC42B682360DDE90101FFF74AFF3E
:10B640003188374804F060F80028B2D00AB0BDE86D
:10B6500070400AF0A7BA294B5B88022B09D9284809
:10B66000284B3049C01AC008000440F0030009F01C
:10B67000E1FC2D4B00221A70284B4FF6FF721A8006
:10B6800097E71E4B5B88032B09D91D481D4B2749A3
:10B69000C01AC008000440F0040009F0CBFC0023ED
:10B6A000A8888DF8043001A98DF80530FFF726FA37
:10B6B00000283FF47EAF0AF075FA7AE70F4B5B88FB
:10B6C000032B09D90E480F4B1949C01AC0080004B2
:10B6D00040F0040009F0AEFCA8881321FFF704FA3B
:10B6E000B2E7064B5B88032BF6D90548054B114999
:10B6F000C01AC0080004EBE7886B0020445E0020FD
:10B7000064DC040014DC0400B1990400D599040041
:10B71000199A04003E9A04008F6B0020FA59002009
:10B72000F86F0020549A04008D6B00206D9A04007D
:10B730008D9A0400AE9A040000487047616B0020A7
:10B7400007B5084B1860084B186800905868074BFD
:10B7500001906A46188801A9FFF7D2F903B05DF895
:10B7600004FB00BF886B0020D89A0400FA5900201F
:10B77000014B1878704700BF8D6B0020014B187883
:10B78000704700BF8E6B002008B50C4B1B7801463C
:10B7900093B10B4B0B481A8801F041FF132807D9CE
:10B7A00043F20143984207D0BDE808400AF0FAB9D5
:10B7B000054BC340DB07F7D508BD00BF8D6B0020EC
:10B7C000FA590020CC6F002001810A0007B5064A13
:10B7D00012780132034600922421044A04481CF0E6
:10B7E00037FF03B05DF804FBF5590020CF9A040041
:10B7F0003D6B0020014B1870704700BFF5590020C9
:10B80000014B1870704700BF3C6B00200AF0CAB9AA
:10B8100010B50B78052BB4B017D0062B1AD0042B1B
:10B8200016D18B79022B13D1C979B1B902AB01932F
:10B83000134B14481B88009301220B4602F057FE5D
:10B8400030B99DF80820104B01E0104B01221A700E
:10B8500034B010BD0D4B0022F9E70129F8D1084B97
:10B86000084802AC01941B880093C822002302F010
:10B870003EFE0028ECD1204618F090F9E8E700BF22
:10B88000FA590020045A002032700020047200206F
:10B890002DE9F0433D4C3E4F93B028220021204635
:10B8A000FBF77EFD102200213846FBF779FD1D23B2
:10B8B000238001233B8023834FF4827340F20122D3
:10B8C000638308237A8023824FF4817240F203134A
:10B8D0006281638240F20512C823022540F20226EB
:10B8E00040F201194FF00508238462843B8148220D
:10B8F00040F20523002168467B81A4F80290A680CF
:10B90000A571BE80A4F80880A681A573A683A5773B
:10B91000A682A575A68484F82650BE81FBF740FD5B
:10B920001C4A1D4B1288ADF824201C4A00931C4B66
:10B930001268019300238DF81830079308928DF850
:10B940003630184A0E931848ADF808904FF002337D
:10B9500069468DF80A8003948DF8105005978DF88C
:10B960002C500C928DF83450ADF844608DF8465050
:10B970000F93ADF840608DF8425002F0F8FA08B12C
:10B980000AF010F913B0BDE8F08300BF0A70002080
:10B99000067200200870002011B802000470002018
:10B9A0000DB8020001010003045A0020052813B558
:10B9B0000C46114602D9002002B010BD144B185C91
:10B9C000FF28F8D0134B1B789BB108B10120F3E797
:10B9D000114B12481B88224602F046FD1328EAD07C
:10B9E00011280FD943F201439842EFD00AF0DAF858
:10B9F000ECE7094B1B88009301462346074802F0F9
:10BA0000D4FCEBE7064BC340DB07DFD4EEE700BF17
:10BA1000FC59002004720020FA590020045A00202A
:10BA200001810200024B1860024B1980704700BF71
:10BA3000047000200870002000230129036002D058
:10BA4000022904D10123044A02EBC3030360006806
:10BA5000B0FA80F040097047E09A0400012902D052
:10BA6000022905D07047044B1B681BB1107818479A
:10BA7000024BF9E7704700BF187200201C720020CB
:10BA800007B5002300936846054B019300F0A2F927
:10BA9000012802D0012000F0CFF903B05DF804FBCB
:10BAA0005DBA0200014B1860704700BF1C72002095
:10BAB000014B1860704700BF1872002000F0E5B914
:10BAC000074A002302EB43014978814203D112F86F
:10BAD000130000F0E6B901330E2BF3D101207047BB
:10BAE000F09A040000F0CFB900F08EB907B5014616
:10BAF00001A8FFF7A1FF012803D0019B586800F0BF
:10BB0000A5F903B05DF804FB37B50C46014668465D
:10BB10001546FFF791FF012803D10124204603B009
:10BB200030BD009B01A9586800F09DF90128F4D0B0
:10BB3000019800F03FF921462A4601F093F90128C7
:10BB40000446EBD0019800F039F9E7E737B50D4628
:10BB500001466846FFF770FF012804460BD0009BA2
:10BB600001A9586800F07FF90128044603D0019824
:10BB700000F01CF92860204603B030BD37B50D46F3
:10BB800001466846FFF758FF012804460DD0009B88
:10BB900001A9586800F067F90128044605D001980A
:10BBA00000F008F901F0FAF82880204603B030BD13
:10BBB00037B50D4601466846FFF73EFF01280446AB
:10BBC0000DD0009B01A9586800F04DF901280446EA
:10BBD00005D0019800F0EAF801F0DEF82880204650
:10BBE00003B030BD00F060B9704710B504460820BE
:10BBF00001F0D4F92060002010BD38B505460C4690
:10BC00000DF006FA241841F10001C5E9004138BDE4
:10BC100010B504460DF0FCF9D4E90023904271EB15
:10BC200003032CBF0120002010BD0000B0F5A07F51
:10BC300010B50AD1054A064CD2E90031D4E9000416
:10BC40001B1841EB0401C2E9003110BD287200202D
:10BC5000207200201FB50F4A0F4C0023C2E90003D9
:10BC60000E4AC4E90003CDE902230D480D4A02A99A
:10BC70000AF0C0FE08B109F095FF226808480123C8
:10BC80000093120100210AF04EFF05480AF022FF3E
:10BC900004B010BD207200203072002000000305A7
:10BCA000945B00202DBC020008B504494FF47A7261
:10BCB000D1E9000100231BF08FFF08BD287200208E
:10BCC00000F016B808B500F039F8BDE8084000F0FB
:10BCD0003BB81FB50FC86C4684E80F000023102244
:10BCE00021464FF0FF30029301F0C6F904B010BDB9
:10BCF00038B5114C4FF4FE2565602B68012B12D12D
:10BD00006B68102B0FD12846FFF7E3FFAB68984212
:10BD100009D163680FCB04F1080585E80F00012302
:10BD20002370002038BD10230122C4E90223002320
:10BD3000C4E90433F3E700BF38720020014B01224D
:10BD40005A6170473872002010B5104C102260689C
:10BD500004F108011CF0DAF8B0B160680BF06EFB7A
:10BD600004F10800FFF7B5FF0422206104F1080187
:10BD700060680BF07BFB6068102204F108011CF086
:10BD8000C5F8003818BF012010BD00BF3872002070
:10BD900010B50446082001F001F92060002010BD14
:10BDA0000B6803604B68436000207047436800687D
:10BDB0005B681847436800689B69184743685B6A7B
:10BDC0000BB100681847704783680BB1406818478B
:10BDD0007047000037B50A4C0094002323800223EB
:10BDE0000546A3706846074B019300F0E9FD012862
:10BDF0001FBF2B6863606B68A36003B030BD00BFDA
:10BE000050720020C9BD020037B50A4D2B787BB9AE
:10BE1000AB788DF8043001A800F000FE012804463C
:10BE200003D001232B70FFF7DFFE204603B030BDA7
:10BE30000124FAE750720020034A0346107808B93B
:10BE400093707047012070475072002010B504466F
:10BE500000F0EEFD28B124B12046BDE8104000F00E
:10BE6000F7BD012010BD13B50446019100F0E0FDBF
:10BE700030B10199204602B0BDE8104000F0F4BD99
:10BE8000012002B010BD00F0F9BD4FF08053D3F88F
:10BE9000A400030E552B01D0AA2B01D180F0404005
:10BEA000704700F0EDBD000010B50C4C2378012B5D
:10BEB00005D0032B0CD0BDE8104000F0E3BD00F02E
:10BEC000B7FD10B14FF481732380FFF78DFEF2E7C9
:10BED00000F0B6FD0028F8D00023F5E750720020EE
:10BEE00037B5002401AB18190AF0B0FB60BB013470
:10BEF000032CF7D1154B9DF80420154903EBC20024
:10BF0000086001461348043101609DF8051012488D
:10BF100003EBC10404602046104C043020609DF8FF
:10BF200006000F4C03EBC00525602B460D4C043377
:10BF30002360012303FA01F103FA02F20A430A49DA
:10BF40000A600A4A8340136003B030BD10F5014017
:10BF500064720020707200206872002074720020E9
:10BF60006C720020787200205C72002060720020E9
:10BF700020B1034B800143F001031847704700BF15
:10BF8000109B04000AF05ABA0AF064BA1AF09ABA7E
:10BF900018F06EB81BF040B870B58AB0064600F0D5
:10BFA00023FE0446304600F024FE0546204618F0E5
:10BFB000E9F900281BDD284600F0F0FE20280346A2
:10BFC00028BF20239BB201AA02A92046019318F0A2
:10BFD00093F960B1019B13B1304600F022FEBDF829
:10BFE000042002A9284600F03DFF0128DED10AB056
:10BFF00070BD000010B4064CE3680A4623B1014648
:10C0000060685DF8044B184701205DF8044B7047E9
:10C010007C72002007B501A9FFF7ECFF10B9019869
:10C0200000F013FE03B05DF804FB13B501A904464C
:10C03000FFF7E0FF20B1204618F0B0F902B010BDC4
:10C04000019800F0F6FD0028F8D00198FFF7A4FF52
:10C05000019800F0F1FDF1E770B588B0044600F0FA
:10C06000C3FD0646204600F0CAFD0546304618F0DE
:10C070007DF9022821DC284600F08EFE0446E0B15E
:10C08000202828BF2024A4B222466946284600F072
:10C0900071FF012811D022466946304618F0D2F8C7
:10C0A00068B918F061FA00F0FD00082805D1064AC9
:10C0B000936813B150680121984708B070BD21B250
:10C0C000284600F071FED1E77C72002007B501A977
:10C0D000FFF790FF48B9019800F0B1FD28B1019831
:10C0E000FFF7BAFF019800F0ADFD03B05DF804FB67
:10C0F00010B5044600F0A3FD50B12046FFF7ACFF99
:10C10000204600F08BFD204600F09CFD002010BD75
:10C110000220FCE710B50446FFF7EAFF58B92046B5
:10C1200000F08DFD38B12046FFF796FF2046BDE8B0
:10C13000104000F087BD10BD10B5044600F079FD39
:10C1400050B12046FFF728FF204600F05BFD204657
:10C15000BDE8104000F070BD10BD000037B5154DB2
:10C160002C780CBBC5E901446C70AC70EC60FFF737
:10C17000B7FE022017F0BAFF98B10F4B1868009075
:10C180001B798DF804300521684618F035F940B167
:10C190004FF4167018F082F918B1022018F0B4F9B3
:10C1A00020B9012003B030BD0020FBE701232B7034
:10C1B0002046F7E77C7200201D9B040010B50E4C52
:10C1C00062780AB1012010BD436863608368A36090
:10C1D000C368E3600078012802D00228F2D110463B
:10C1E00018F0ECF80028EDD018F010F80028E9D08D
:10C1F000012363700020E6E77C720020034B9A78ED
:10C200001AB901229A7018F011B870477C72002098
:10C21000014B5878704700BF7C72002008B518F0B9
:10C2200019F980F00100C0B208BD00000A4A08B543
:10C23000002312F81310814208D102EB430358780F
:10C2400018F01AF980F00100C0B208BD01330E2BBE
:10C25000EFD10120F9E700BF239B040013B502AB27
:10C2600003E906000446FFF731FF9DF8003013B1E3
:10C270002046FFF7DAFE204602B0BDE81040FFF787
:10C28000C9BE82B002AB03E9060002B0FFF71EBFD1
:10C2900013B50446FFF7C9FE2046FFF717FF2046F7
:10C2A00002B0BDE81040FFF7B5BE0000054B10B569
:10C2B00000249C705C702046013418F06FF8082C44
:10C2C000F9D110BD7C720020704710B50446FFF70D
:10C2D00033FF204600F08AFCBDE8104000F05CBD52
:10C2E00010B50446FFF728FF2046BDE8104000F0D7
:10C2F0007DBCF7B5054601911646FFF71DFF2846A0
:10C3000000F074FC01993246074600F033FE012824
:10C31000044606D0384631B200F046FD2846FFF705
:10C320000BFF204603B0F0BD37B505460191FFF77E
:10C3300003FF284600F05AFC0199002200F0E1FDBD
:10C340000128044602D02846FFF7F6FE204603B037
:10C3500030BD10B50446FFF7EFFE2046BDE81040A3
:10C3600000F062BC38B50446FFF7E6FE204600F058
:10C370003DFC054600F010FD01B2284600F014FD1A
:10C380002046BDE83840FFF7D7BE10B50446FFF79A
:10C39000AFFE204600F030FCBDE8104000F0FEBCCF
:10C3A00010B50446FFF7A4FE2046BDE8104000F09B
:10C3B00023BC37B505460191144662B1FFF798FEDC
:10C3C000284600F019FC2246019900F04BFD044676
:10C3D0002846FFF79FFE204603B030BD70B50546E6
:10C3E00008460E4600F0D8FC044670B12846FFF718
:10C3F0007FFE284600F000FC00220146304600F097
:10C4000080FD04462846FFF785FE204670BD37B5FF
:10C41000044600F014FC98B1204600F0E5FB054608
:10C4200017F0A4FF022805DC00220DF107012846C1
:10C4300017F008FF204600F005FC002003B030BDD7
:10C440000220FBE710B5044600F003FC2046BDE8DF
:10C450001040FFF75FBE022070470000014B587884
:10C46000704700BF8C720020024B587880F00100AA
:10C47000704700BF8C72002010B583780446406876
:10C48000BBB1012B1ED06068FFF7DCFF63785BB3A4
:10C4900063694BB32069FFF7BBFB28B36068FFF704
:10C4A000B6FF012820D0D4E90401BDE81040FFF711
:10C4B000A4BBFFF74EFF0028E5D00123A370FFF7D0
:10C4C00093FBE0E700F090FB17F050FF10B1002362
:10C4D000A370D8E76068FFF79AFF0128D3D000283F
:10C4E000F5D00228CFD1EAE710BD037A0BB1FFF7F0
:10C4F000C3BF704770B5084D064668680C4600F02B
:10C5000073FB864205D12B7A23B16B680020236030
:10C5100070BD00230120FAE78C72002070B5084D31
:10C520002B7A06460C461BB900230120236070BD00
:10C53000686800F059FB8642F6D1EB680020F5E709
:10C540008C72002038B50E4D6B7804460BB9012073
:10C5500038BD2B7A68682BB100F046FB201A18BF53
:10C560000120F5E7214600F03CFB0128EFD0686888
:10C5700000F017FB01281CBF01232B72E8E700BF66
:10C580008C720020034B002258685A701A7200F017
:10C5900015BB00BF8C7200204068FFF701BF4068E8
:10C5A000FFF7F3BE4068FFF7DDBE4068FFF7BCBE93
:10C5B0004068FFF79EBE4068FFF792BE4068FFF7F5
:10C5C00084BE00000248037A0BB1FFF755BF7047E5
:10C5D0008C72002008B5054B1A7801202AB15870DA
:10C5E000D3E90401FFF709FB002008BD8C7200208D
:10C5F00038B504464068FFF7DCFE0128054603D045
:10C60000D4E90401FFF7F9FA284638BD38B50446E5
:10C610004068FFF7E3FE0128054603D0D4E9040192
:10C62000FFF7EBFA284638BD012937B504460D4619
:10C6300003D0022901D003B030BD237A002BFAD0F9
:10C64000606800F0D1FAE3690190002BF3D0A06993
:10C6500001AA29469847EEE770B5224C267886B0A5
:10C66000054626B96670FFF779FD012801D1012042
:10C6700035E02B6803A9CDE90334201D1A4B05933F
:10C6800000F04CFA0128F2D004F10C002672FFF7FA
:10C690007FFB0128EBD0154BE068019401A90293C0
:10C6A000FFF77EFB0128E2D03046A67017F03EFF70
:10C6B0000F2017F017FF304617F03AFF1E2017F033
:10C6C000FFFE04F11000FFF790FA0128CFD06B684D
:10C6D0006361AB68A361EB68E3610123237006B07B
:10C6E00070BD00BF8C72002029C60200409B040070
:10C6F00000487047689B040001207047034B1A787C
:10C7000001200AB158700020704700BFAC720020B1
:10C71000014B5878704700BFAC720020024B58782C
:10C7200080F00100704700BFAC72002070B50A4B6A
:10C7300003EB800304465E68B0680D4600F054FACF
:10C74000844205D1337923B1B36800202B6070BDDA
:10C7500000230120FAE700BFAC720020037913B177
:10C760008068FFF76FBE704770B50A4B03EB80031C
:10C7700004465E6833790D461BB9002301202B6007
:10C7800070BDB06800F030FA8442F6D1F368002042
:10C79000F5E700BFAC72002038B50F4B5A7804465D
:10C7A0000AB9012038BD03EB80035D682B79A868C6
:10C7B0002BB100F019FA231A58425841F2E72146EA
:10C7C00000F00FFA0128ECD0A86800F0EAF901287F
:10C7D0001CBF01232B71E5E7AC72002070B5074E3A
:10C7E00000257570012456F82430013498681D71B5
:10C7F00000F0E4F9092CF6D170BD00BFAC72002046
:10C800008068FFF7EBBD8068FFF7D3BD8068FFF756
:10C81000C7BD8068FFF7B9BD8068FFF7A3BD80681A
:10C82000FFF782BD8068FFF764BD8068FFF758BDE1
:10C830008068FFF74ABD000038B5064D012455F861
:10C8400024301A7912B19868FFF7FCFD0134092CE5
:10C85000F5D138BDAC720020012937B50C4603D0A4
:10C86000022901D003B030BD0379002BFAD005684E
:10C87000806800F0B9F90190AB6A002BF2D0686AC9
:10C8800001AA21469847EDE72DE9F043204C237893
:10C8900087B00546002B38D16370FFF75FFC012895
:10C8A0001BD01C4FDFF870800126102000F076FBB3
:10C8B0000023046003712B680597CDE9033081469E
:10C8C00003A9083000F02AF9012806D009F10C006C
:10C8D000FFF75EFA012803D1012007B0BDE8F0831D
:10C8E000D9F80C0001A9CDE90198FFF759FA012800
:10C8F000F2D044F826900136092ED6D16B686362D7
:10C90000AB68A36201232370E7E70020E5E700BFDF
:10C91000AC72002059C802008C9B0400004870478C
:10C92000B49B040003690BB1C06818477047012924
:10C9300006D1037823B1037A13B940F201130381BE
:10C940007047000030B50128174D85B005D002288A
:10C9500018D000236B601B68FFDEFFF7DFFF686005
:10C9600003689847114B8DF8000002936846104BFE
:10C9700001950393FFF722FC012806D1012400232F
:10C980006B600EE0FFF7B4FEE9E76B689B689847C1
:10C9900001280446F2D001232B70FFF725F9002C63
:10C9A000EDD1204605B030BDD87200202FC902005D
:10C9B000B5C90200034608465B6811465B68184724
:10C9C000F0B585B00546FFF7C9FB012802D101206B
:10C9D00005B0F0BD0F4C104E01944FF00127684692
:10C9E00000970296FFF750FF0128F0D04FF47A73BA
:10C9F0006846CDE9013400970396FFF72DFE012824
:10CA0000E6D000236360237223702B68E3606B68B9
:10CA10002361DDE7D872002025C90200034B1B7893
:10CA200013B90078FFF78EBF01207047D87200203D
:10CA3000024B1878003818BF01207047D8720020C8
:10CA4000024B1878B0FA80F040097047D872002085
:10CA5000044B1A78012A02D15B689B6918470120B0
:10CA6000704700BFD8720020034B5B680BB1DB69D5
:10CA700018470120704700BFD8720020FFF7CEBBD7
:10CA8000FFF7D4BB70B51A4C2378012B02D0022BD0
:10CA900013D070BD237A43B96368002BF9D01B6AA9
:10CAA000002BF6D0BDE870401847FFF7A7FB022324
:10CAB0002370BDE87040FFF797B8FFF7A9FB054664
:10CAC0000028E6D120722070FFF78EF8667A56B102
:10CAD000636865721B6898472378002BD9D1BDE83D
