:102000000080002015210000FD200000FD200000C0
:1020100000000000000000000000000000000000C0
:10202000000000000000000000000000FD20000093
:102030000000000000000000FD20000069210000F9
:10204000FD200000FD200000FD200000FD2000001C
:10205000FD200000FD200000FD2000000121000007
:10206000FD200000DD990000FD200000FD200000A3
:10207000C55E0000FD200000ED990000FD2000007D
:10208000FD200000FD200000FD200000FD200000DC
:1020900000000000FD200000FD200000FD200000E9
:1020A000FD200000FD200000FD200000FD200000BC
:1020B0000000000010B5064C2378002B07D1054B1B
:1020C000002B02D0044800E000BF0123237010BDA4
:1020D000500300200000000070540100044B10B5B4
:1020E000002B03D00349044800E000BF10BDC046E8
:1020F000000000005403002070540100FEE70000BF
:10210000034B10B51B68002B00D0984710BDC0468C
:102110006C03002070B50F490F4CA14204D100F0B0
:1021200053F800F0A7FBFEE70C4D00238D42F6D0DC
:10213000CA18E818A24205D3094B8242EFD00949D8
:10214000002204E0006804331060F1E704C38B420E
:10215000FCD3E4E700000020500300207454010089
:10216000500300209838002010B500F02AF800280D
:1021700001D100F01BF810BD014B18607047C0463C
:102180006C030020014B18687047C04670030020A4
:1021900070B5041E07D0044D2E6800F011F82B68AE
:1021A0009B1BA342F9D370BD7003002010B5034AF6
:1021B00013680133136000F041FB10BD7003002071
:1021C00070470020704700001E2270B546484749FE
:1021D000436893431C3A1343436008238C692343A9
:1021E0008B61434C434B9C829C8A14439C82DC68E9
:1021F0001442FCD00124404A14701578254203D0C3
:1022000055786DB2002DF8DB01249460547864B2E7
:10221000002CFBDB394C5460547864B2002CFBDB9F
:102220008224E4015480547864B2002CFBDB022445
:102230009C840E34DD682542FCD0314CDC621024D5
:10224000DD682542FCD09D8C2E4C2C439C841024B0
:10225000DD682542FCD002249D8C80262C439C8482
:102260004024DD683542FCD0DD682542F9D01024D9
:10227000DD682542FCD000249460547864B2002CC0
:10228000FBDB214C5460547864B2002CFBDB1C6AED
:102290001E4D2C4080251C621C6AAC431C6203232B
:1022A00093601B4B536053785BB2002BFBDB002326
:1022B000FF240B72174A4B728B72CB72164B1A604B
:1022C000164B174A1B6811689A065B01C90E23401A
:1022D000520F12020B431343124A138580234268A4
:1022E0001343436070BDC0460040004100040040FD
:1022F0000C06000000080040000C00400105010031
:10230000B905FF7D040A000000070300FFFCFFFF82
:1023100003060100006CDC02000000202460800045
:102320002060800000400042FA21314B10B518684F
:10233000890009F0B7FD2F4B0138984256D82E4935
:102340002E4A4860C020136A00061B021B0A034382
:102350001362002407238C600B608021136A090636
:102360001B021B0A0B431362FC22254B196A0A430A
:102370001A62FC22196A92010A431A62A022196A9F
:10238000D2020A431A6220000021013400F070F9E1
:10239000142CF8D11B4B1C005A7852B2002AFBDBDC
:1023A000194A5A80194B1A00597EC9090129FBD0D4
:1023B000E421C90099803F21D970537EDB09012BAC
:1023C000FBD0C02300205B011361907000F034F853
:1023D00063785BB2002BFBDB0D4B0E4A6380D37935
:1023E000DB09012BFBD04123537010BDFEE7C04633
:1023F00000000020FFFFFF0010E000E000ED00E023
:1024000000040040000C00401E400000004000425C
:102410002140000000480042914202D002D98A1AAD
:10242000D0407047521A9040FBE70000014B186003
:102430007047C04604000020164A00B51300517EC4
:10244000C9090129FBD00138042816D81969124A94
:102450000A400F211A615A788A4309F019FD0308CE
:10246000060B0300110001220A435A7000BD11003F
:102470000322F9E711000222F6E7F02311691B0598
:102480000B430F21136153788B43190002230B4335
:102490005370EBE700400042FFFFFFF01823434377
:1024A000F0B56A4A87B09B18DA6806000C00009203
:1024B000920722D51B7C5BB2002B01D0142B1AD1C2
:1024C000634B0A2219682000FFF7A6FF614A130038
:1024D000D179C9090129FBD08005800D1081DA79F5
:1024E000D209012AFBD0022219780A431A70DA793C
:1024F000D209012AFBD007B0F0BD0827009A544D3D
:102500003A40019200D191E012229B5E296820009E
:1025100010220193FFF780FF019B05001F126B46FD
:102520001C79009B0421DB0600D40521300000F05B
:1025300017F9494BBA00D658484BDA5D002A54D1F6
:102540000132DA5546490F3202A80CF0D2FB02AA3A
:102550007B009B5A8022D2011A43424B5A805A7800
:10256000D209012AFBD0022297421BD93388934318
:102570003380F37BDB09FCD1328840331343338053
:10258000F37BDB09FCD10C34ADB26400A553F37BC3
:10259000DB09FCD13288023313433380F37BDB0940
:1025A000FCD1A8E7336893432F4A33601300B16826
:1025B0001142FCD10222F16B0A43F263B2681A4263
:1025C000FCD11034A40034196560B2681A42FCD101
:1025D000264A3264B2681A42FCD1022231680A43A8
:1025E0003260B2681A42FCD185E7022F07D90C3459
:1025F000ADB26400A553F37BDB09FCD17BE702237A
:10260000727913437371184B1A00B1681942FCD1E7
:102610001C34A400A551B3681342FCD102233179C4
:102620000B433371B3681342FCD164E7012100F01E
:102630001FF829683A002000FFF7EEFE01997F2875
:1026400000D90121300000F05FF854E7204B010071
:10265000040000200048004278000020740300209D
:10266000B40F0100000C0040FF0F7F00FFFF0000CF
:10267000182330B51D00040045430820204A551991
:102680002856013014D0032912D808006343D156CC
:10269000D31809F0FDFB02280E1B5868CB0102215C
:1026A000184A9B181A1840321170012282405A6051
:1026B00030BD5868CB010621124A9B181A184032C7
:1026C0001170012282405A609A61F1E75868CB018B
:1026D00006210C4A9B181A184032117001228240C0
:1026E0005A605A61E4E75868CB010221054A9B18F9
:1026F0001A1840321170012282409A60D8E7C04611
:10270000204B0100004400411823F0B50824584331
:10271000114A13181C5701341BD0012635005F687D
:102720008356BD400D4ADB019A18906805420BD1D3
:102730000C00601E8441D2194032107834400336B8
:10274000A400B04320431070044A9B18002901D113
:102750005D61F0BD9D61FCE7204B0100004400413C
:1027600018224243F8B52C4E0300B218127A52B226
:10277000140001320ED0481C00240C280AD809F09D
:1027800087FB071F1F1F1F1F1F1F1F0B0B0B0B009C
:10279000012464422000F8BD092905D10021180058
:1027A000FFF766FF0024F5E70A2901D10839F6E7AB
:1027B00000240B29EED10A391800FFF759FFE9E789
:1027C00018225343F218556801202C00F356134A7F
:1027D000DB016E089B18C9B204409E19002C0DD075
:1027E0000F2430363278090122401143C9B25B19F7
:1027F000317040331A7810431870D3E732000F2736
:10280000303216785B19BE433143117040331A7869
:1028100010431870BEE7C046204B01000044004141
:10282000014B18607047C046080000200122024B8F
:1028300052421A607047C04608000020094A1368D7
:10284000591C0DD0013B1360002B09D172B6BFF3A8
:102850004F8F054B054ADA60BFF34F8FC046FDE747
:102860007047C0460800002000ED00E00400FA05B3
:102870007047000010B5FFF757FD0CF0E1F9FFF7C6
:10288000F7FF0120FFF784FC084C200007F0C2FF8F
:10289000200008F039F800F07DF900F0D5F9044B7C
:1028A000002BFAD000E000BFF7E7C046B0310020AF
:1028B00000000000002802D0024B416003600A7053
:1028C0007047C04654480100002807D0044B4160BF
:1028D000036080235B028360FF2303737047C0465D
:1028E0008C480100002807D0044B4160036080231E
:1028F0005B028360FF2303737047C0467448010086
:1029000010B5044806F076F8034B1A68034B1A60BA
:1029100010BDC046982C0020B8040020840300207D
:1029200070B504000D001600002801D005F010F865
:102930002E70200070BD70B504000D001600002838
:1029400001D005F0A5F92E70200070BD70B504000F
:102950000D001600002801D004F0CAFF2E702000E0
:1029600070BD10B50368C9B21B68984710BD7047A9
:1029700010B505240800220002490CF0BAF9200025
:1029800010BDC046B110010010B5002802D00228C9
:1029900003D010BD01F0F8F9FBE701F0D3F9F8E737
:1029A00010B5FFF7F1FF10BD10B50E4805F0CCFFD4
:1029B0000D4804F07FFA0D4804F0AEFC0C4804F01A
:1029C000D7FB0C4806F094FB0B4805F00FFF0B48B3
:1029D00003F0E4FA0A4806F09BF90A4806F02AF8E0
:1029E000002010BD942C0020E42A0020F12A0020B1
:1029F000E92A0020B42C0020812B00209C2A0020F2
:102A00009A2C0020992C002010B5104803F074FF78
:102A10000F4804F03FFA0F4809F002F80E4801F0A1
:102A20009DF90E4804F02EF90D4808F00DFF0D48F1
:102A300005F0C6FB0C4804F0CBFB0C4806F034FC58
:102A40000B4803F0BBFA002010BDC046B32A00209B
:102A5000E42A00207137002032050020BE2A002021
:102A60007A030020742B0020E92A0020B42C0020D7
:102A70009C2A002010B5064803F0E4FF054805F045
:102A800025FA054804F03CFB044805F0EDFB10BDB9
:102A9000B32A00200C2B0020E92A0020792B0020EB
:102AA0000020704710B50100014806F0D5FD10BDAB
:102AB000B42C0020002082B002B0704710B504484A
:102AC00008F0B2FF034804F037FC002010BDC046F8
:102AD00071370020F12A002010B5024804F0EAF80E
:102AE000002010BDBE2A0020002070470020704743
:102AF00010B501000400054808F016FF002803D1B6
:102B00002100034805F02CFE10BDC046713700209F
:102B1000812B002010B50100024806F0B5FA002014
:102B200010BDC0469A2C002010B50B4805F01CFFC4
:102B30000A4801F053F80A4805F048FB094806F036
:102B4000E7FD094804F022F9084803F0EDFA0848C7
:102B500006F034FA002010BD942C0020320500202D
:102B6000742B0020B42C0020C32A00209C2A0020B3
:102B70009A2C00200720704710B50C000349C000B4
:102B80000918082220000CF0B4F810BDD40F010081
:102B900070470000962170B501261D4C89011D4823
:102BA00007F046FB206800F03DFC0A2004F0A0F985
:102BB0000A21194804F0A0FBFF21184804F002FE86
:102BC000FF21174804F000FE164D174C2B683342C6
:102BD00003D1200004F0B0FE2E60144B144A1C6098
:102BE000144B15481A600422144B1A70144B6032AF
:102BF0001A8001F08BFA134801F088FAC020000116
:102C000005F004FE08F026FE08F038FE70BDC04650
:102C1000001E010088310020F12A0020FA2A00203D
:102C2000FC2A002080030020B0040020042B002098
:102C3000100000204C000020102B0020520000202B
:102C400058000020082B00201B4B07B5186800F027
:102C50000DFC1A4B1A4A19681268521A19498A420D
:102C600001D900221A601B68002B23D0164802F0FD
:102C700010FC002800D078200022FF2101F090FAFB
:102C800001AB187002040002120E000E98705A7008
:102C90000199402000F06AFF0199302000F066FFA2
:102CA0000199422000F062FF0199062000F05EFFCA
:102CB00000F088FF07BDC046001E0100840300200D
:102CC000B80400200F2700009C07002010B5010069
:102CD0000400204800F0DCFA002839D121001E4809
:102CE00001F062F8002833D121001C4804F010FEE6
:102CF00000282DD121001A4805F0BCF8002827D162
:102D00002100184804F04EFE002821D12100164869
:102D100004F018FA00281BD12100144805F03CFDEE
:102D2000002815D12100124803F006FB00280FD11E
:102D30002100104806F010F8002809D121000E48A3
:102D400006F022FE002803D121000C4805F07AFA93
:102D500010BDC046B504002032050020FE2A002028
:102D60000C2B0020082B0020E92A0020812B0020BA
:102D70009C2A00209A2C0020F62C0020792B002081
:102D800010B5FFF7A3FF10BD0822014B1A80704752
:102D90007A030020F0B5394B85B0019300230390EE
:102DA0000093374D0399280002F039FF01212800D4
:102DB00002F092FFFF21019B28001C882140FFF7B1
:102DC000D0FD21122800FFF7CCFD280002F0E1FF22
:102DD00007000120FFF7DCF9002F4CD1284C0399A4
:102DE000200002F01CFF2000022102F075FF254C9C
:102DF000FEB21037BE421ADA234B009A9B199B5C35
:102E00001F481900029302F067FF029B1F4A5C40B3
:102E100008230120611020408CB2002801D05140CD
:102E20008CB2013B002BF4D10136F6B2E2E7FF2170
:102E300028002140FFF795FD21122800FFF791FDA2
:102E400000212800FFF78DFD280002F0A2FF0328D3
:102E500011D10238FFF79CF9402FBFD1019B0233FB
:102E60000193009B40330093B823009A1B019A42C0
:102E700097D1012000E0002005B0F0BDA21D0100A7
:102E800068280020FFFF00002112010001A0FFFFC1
:102E9000F7B52B4C07000E00010020001500019330
:102EA00002F0BDFE0621200002F016FFFF212000E7
:102EB0002940FFF756FD29122000FFF752FDFF239E
:102EC000019920001940FFF74CFD019B20001912C9
:102ED000FFF747FD0021200002F023FF051E11D15E
:102EE0006420FFF755F903223900200002F0EFFEBD
:102EF000200002F053FF3070200002F023FE002873
:102F000002D1FF252800FEBD200002F047FF070088
:102F1000200002F017FE0028F3D0200002F03EFF50
:102F20000190200002F00EFE002803D0200002F0E5
:102F300035FFF6E7019BFFB21B021F437780E1E7F5
:102F40006828002073B5114C060001000322200000
:102F500002F0BDFE200002F0F5FD002803D02000A5
:102F600002F01CFFF6E70A4D01AC2900094B3000C6
:102F70000422FFF78DFF2900042220000BF0B9FE88
:102F8000638820881B04184376BDC046682800204B
:102F90000C0000207C0B0000F0B5016885B0040037
:102FA000894800F055F9002800D0E7E021688748FB
:102FB00003F0FAFF002800D0E0E02168844803F025
:102FC0004DFD002800D0D9E02168824803F0C0FD03
:102FD000002800D0D2E021687F4800F04BFF002895
:102FE00000D0CBE021687D4804F0A0FA002800D092
:102FF000C4E021687A4804F0AFF9002800D0BDE0B1
:103000002168784804F00CF9002800D0B6E0216867
:10301000754801F08BFE002800D0AFE021687348AE
:1030200006F0F6FB002800D0A8E02168704805F003
:10303000FDFB002800D0A1E025686E4E6E4A2900F5
:10304000300003F053FE0190002800D0A4E00922D4
:103050006A4928000CF011FC002800D09CE00935DA
:10306000674928000CF0F0FB002815D065492800BE
:103070000CF0EAFB002848D0634928000CF0E4FB80
:10308000002844D0614928000CF0DEFB002800D065
:1030900082E05124012501E05024019D5C4801F0AB
:1030A00031FC03AE2000002D00D069E0FFF74AFF9D
:1030B0000390C0B2FF2859D07288564B9A4255D01F
:1030C000554D2100280002F0AAFD0421280002F03D
:1030D00003FE280002F05DFE0700FA208000FFF7E3
:1030E00057F8002F42D04D492000FFF753FE00282B
:1030F0003CD04B4B042231002000FFF7C9FE0028D2
:1031000007D06420FFF744F8F3E75124C5E75024C3
:10311000C0E705223F4B08274248511E415C4B4007
:103120000120591018408BB2002802D03E4B594064
:103130008BB2013F002FF3D13C4901328A42EAD1E0
:1031400072889A4212D12100280002F068FD032102
:10315000280002F0C1FD39002800FFF702FC28001A
:1031600002F017FE43425841C3B20193019803F0A5
:10317000E9FD20212E4806F0C3FC012005B0F0BD7A
:10318000FFF7E0FE0390C0B2FF28EFD0294B708814
:10319000C018431E9841E7E72168300003F0BAFDEC
:1031A0000028EBD12168244803F012F90028E5D16A
:1031B0002168224805F05AFC0028DFD12168204808
:1031C00008F07EFBDAE7C046B4040020E42A0020C1
:1031D000B52A0020B42A002031050020F62A00205C
:1031E000F12A0020E92A002098070020B42C0020B2
:1031F000812B0020C32A00200D1001007510010052
:103200007F1001008F100100A01001006310010069
:1032100051050020FFFF0000682800207C030020EB
:103220007C0B00002112010001A0FFFF810B0000B8
:10323000883100200100FFFF9C2A0020992C0020EB
:103240006C37002007B5019001A8FFF7A5FE0EBD61
:1032500070B50B4E0B4832000D00002403F046FD04
:10326000A0420AD1310028000CF0EEFAA04204D1AD
:103270000549064806F035FC0134200070BDC04603
:10328000F7110100C32A0020FF110100883100203E
:1032900010B5024803F056FF10BDC046E92A0020D1
:1032A00010B5084C200002F0F4F8002803D12000EB
:1032B00002F0F6F810BD044802F019FA034802F0D3
:1032C000C5F9F7E79C070020EC070020CC07002099
:1032D00010B5084C200002F0DCF8002803D12000D3
:1032E00002F050F910BD044802F080FA034802F0E1
:1032F0009DF9F7E79C070020EC070020CC07002091
:1033000070B5084D0400280002F0C3F82100002821
:1033100003D1280002F0F0F870BD034802F02FFA44
:10332000FAE7C0469C070020EC07002010B5040017
:10333000030702D5E120FFF7E3FFE30702D5E02012
:10334000FFF7DEFFA30702D5E220FFF7D9FF6307EF
:1033500002D5E620FFF7D4FFE30602D5E320FFF70E
:10336000CFFF10BD13B5030401AC2080180EFFF78A
:10337000DDFF2078FFF7C4FF13BD000070B5084DD6
:103380000400280002F085F82100002803D128005D
:1033900002F0CFF870BD034802F00CFAFAE7C0461D
:1033A0009C070020EC07002010B50A780478002361
:1033B000944205D1437848781B1A58424341DBB206
:1033C000180010BD7FB5C4B2051C134B4F2C1CD880
:1033D0006100591801AE022230000BF08AFC012373
:1033E00003A95B420B803000FFF7DEFF002809D005
:1033F0000A4B291C185D0A4B1B68984703041B0ED7
:1034000030707370308804B070BD19000022A03194
:10341000A1330A701A70DDE775370020DC04002044
:1034200020000020962110B589010C4806F000FF0D
:10343000FFF79DFAFFF7E8FA094801F0FDFB0023CA
:10344000FF2008499A1CA22A04D0C8540133C8544A
:103450001300F7E7044800F06DFA10BD8831002032
:103460004405002075370020BC04002010B5FEF78D
:1034700089FE064B1860FFF7FDFAFFF737FBFFF7F1
:103480000FFF01F0EBF9FFF74FFB10BDB804002070
:1034900073B501AE31800C040198CDB2240EFFF754
:1034A00009FB02280DD03F2322009A430AD12900AC
:1034B0002031C9B2072900D9140074700198FFF7B0
:1034C00051FF73BD372322009A43482AF9D12102C4
:1034D00049198905890D024802F09CF8F1E7C046B8
:1034E000CC070020F0B587B0019000910025FFF7D0
:1034F000EFFEEEB2502D4CD0009B1B78B34236D07D
:10350000254C4F2E35D86900611803AF02223800D0
:103510000BF0EFFB012304A95B420B803800FFF79F
:1035200043FF002823D105A908803800FFF73CFF9E
:1035300000281CD10322311C3800FFF7B1FA022801
:1035400015D0009B1B78B3420DD10322009B5B7802
:103550001340022B15D14F2E05D86B00E4187A7852
:103560003B786270237003990198FFF791FF013552
:10357000BFE7210022000023A031A1320B7013709D
:10358000C3E74F2EEFD86B00E418FF23237063705E
:10359000E9E707B0F0BDC046753700200322F8B553
:1035A0004B78050013400C00374A022B3ED1CB78F4
:1035B0003F218B433AD1354F23783800A6781370DA
:1035C00001F067FF310000282CD1380001F0E9FF3D
:1035D00000281FD0E678A778330702D5E120FFF74F
:1035E000CDFEF30702D5E020FFF7C8FEB30702D5F2
:1035F000E220FFF7C3FE730702D5E620FFF7BEFE09
:10360000F30602D5E320FFF7B9FE3800FFF7B6FE58
:10361000FFF746FEE07800280CD0FFF787FEFFF7A3
:103620003FFE07E01A4802F09AF8D1E713782278B3
:103630009A4215D1032263781340022B06D1E17818
:10364000A378090219432800FFF722FFFFF74EFA7B
:103650002000FFF74DFA022801D0FFF721FEF8BD48
:103660000C4A4F2B09D85B00D31858783F2302002F
:103670009A43DFD1FFF75AFEDCE713000021A033A5
:10368000A13219701170F0E71D0000209C07002086
:10369000EC07002075370020F0B5CBB287B00500ED
:1036A000009101924F2B0CD86B4603225B7813409C
:1036B0006A46941C012B48D16B461878FFF782FEAE
:1036C00020806846FFF75CFB040002283BD06B4675
:1036D0001B784F2B0BD84E4A5B009B186A46032180
:1036E00052780A40012A3AD1FE321A705A70002CE0
:1036F00029D16B4602AE3100981C3480FFF754FE8E
:10370000002820D16B4603A90C80981CFFF74CFEC3
:10371000002818D101276B4604A97F420F80981C0E
:10372000FFF742FE00280ED16B4605A90F80981CBA
:10373000FFF73AFE002806D16B46DB78442B14D104
:10374000684600F089F907B0F0BD012305A95B4286
:103750000B802000FFF728FE0028ADD1B1E76946B5
:103760006A468978D2781970C0E730229343412B9A
:1037700014D16B469C785B782D3A1340254D022B73
:1037800005D12100244802F07FF86C71DBE76B79EA
:10379000A342D8D1204802F073F8D4E76946280044
:1037A000FFF7A0FE6B465A781978981CFFF778F956
:1037B0000228C8D00028C6D16B463100981C34803E
:1037C000FFF7F2FD0028BED1002303A90B806B4652
:1037D000981CFFF7E9FD0028B5D101246B4604A928
:1037E00064420C80981CFFF7DFFD0028ABD16B46CC
:1037F00005A90C80981CFFF7D7FD0028A3D128004D
:103800006946FFF7CBFE6846FFF784F99BE7C046A1
:10381000753700204405002038080020F0B5CCB2F0
:1038200085B00700009101924F2C1ED86B460322F1
:103830005B7813405A1E012A17D86A4603AE951CBE
:10384000012B14D1164B64001C1921000222280000
:103850000BF04FFA0023310028003380FFF7A4FD5E
:10386000002811D0FF232370637005B0F0BD012341
:1038700031005B4228003380FFF796FD002803D01B
:10388000201CFFF79FFD28806846FFF70BF90028F2
:10389000EBD10099019A3800FFF7FEFEE5E7C0463C
:1038A0007537002050235843C9B2411806484900D3
:1038B000091808784A78AF33184013401B0282B0C9
:1038C000184302B07047C046B7100100F0B5154E5E
:1038D00085B05022002130000BF027FA0025EBB212
:1038E0000193502D1CD0104A104B1478013C1C1928
:1038F000013B0093009B9C4210D06A4627780C4BFA
:1039000011791B683800984703AB1880C0B2FF28B4
:1039100003D15B78013CFF2BECD077550135DEE716
:1039200005B0F0BDDC0400201E000020BD04002016
:103930002000002010B5FFF7C9FF10BD10B5074BE0
:1039400001221B7898429B411840054B1A70054B89
:103950001870FFF7BBFFFFF7B1F810BD1C00002087
:103960001E000020BD04002010B5084B08491A783D
:103970000023934205DACC56844204D001335BB273
:10398000F7E7002010BD0120FCE7C0461E00002024
:10399000BD04002010B50A4B04001B7883420DD9EA
:1039A000FFF7E2FF002809D1064A1378591C11706D
:1039B000054AD454FFF78AFFFFF780F810BDC046D0
:1039C0001C0000201E000020BD040020F8B50500EA
:1039D000FFF7CAFF002807D00E4E002034780E4FA4
:1039E000012C06D8FFF7AAFFF8BDCBB208009C4215
:1039F0000AD9C357411CAB42F7D1221A791838189B
:103A0000013C0BF07FF93470FFF760FFFFF756F8C9
:103A1000EAE7C0461E000020BD04002010B5054B9B
:103A20001A78054B9B18013B18780130C0B2FFF79C
:103A3000B1FF10BD1E000020BD04002010B5044BD6
:103A40001A78044B9B18013B1878FFF7BFFF10BD95
:103A50001E000020BD040020032270B54378847846
:103A60001340532C07D9022B04D120005438C0B284
:103A7000FFF764FF70BD292C2DD925002A3DEDB23A
:103A8000212D06D0222D09D1022B04D1FFF7C6FF2C
:103A9000F0E7022BFAD1FFF7D1FFEBE70022022B70
:103AA00010D01249023053181E78A64203D15E7816
:103AB00043789E42DED00232A02AF4D12800FFF7DC
:103AC00085FFD7E72800FFF74FFF0028D2D1280055
:103AD000FFF760FFCEE7022BCCD12000FFF744FFB9
:103AE000002801D02000EAE72000F1E77537002028
:103AF00070B50A4D040001222800002106F0DCFA0E
:103B0000012220700021280006F0D6FA0122607000
:103B10000021280006F0D0FAA07070BD8831002086
:103B200010B5012204000021024806F0C5FA2070F9
:103B300010BDC0468831002010B5054C01000A2296
:103B4000200006F048F82021200005F0D9FF10BD24
:103B5000883100201FB50A1C03AB090C1A8099702C
:103B6000039900F0E9FC05B000BD00001FB50B0093
:103B70000C1C1B0A090CC2B2E4B2DBB2C9B2FF20B2
:103B80004F2A01D80448805C03AA147053709170C6
:103B9000039900F0D1FC1FBDB51F010007B500F06F
:103BA0003FFD020401AB120E18705A701B88FF21F2
:103BB0001A00000C1B0A0A401B02084000041343B1
:103BC00018430EBD044B10B51B78002B03D0FEF735
:103BD0008BFF00F083FC10BD25000020104B70B55A
:103BE0001B78002B19D00F4B0F4C1B6822880F4DF0
:103BF0009B1A2A789BB29A420FD80D4B1B782B70D8
:103C0000FFF7E0FF22882B789B182380094B186868
:103C1000002802D003689B689847002070BDC0460A
:103C200025000020B80400203A05002024000020D0
:103C30003C050020340500200121044A0448136893
:103C40000B4001D1037011607047C0462C05002065
:103C50003005002013B500240190FFF7EDFF200090
:103C600001340199E4B2FFF775FF842CF7D113BD3D
:103C700007B5002201AB1A809A700198FFF7EAFF9E
:103C8000034B1868002802D003685B68984707BD9B
:103C90003405002010B5094B1B7883420DD9084B21
:103CA000187000F0AFFA074B1860074B1B78002B19
:103CB00001D0FFF7DDFFFEF70FFF10BD3805002034
:103CC00026000020340500202500002010B5064BFA
:103CD00018780130C0B21870044B1B78834200D8AA
:103CE0000020FFF7D7FF10BD260000203805002078
:103CF00010B5064B1A78002A01D1054A1278013A0C
:103D00001A701878FFF7C6FF10BDC04626000020C5
:103D10003805002037B505000024094B1B78A34265
:103D200009D969462000FEF727FF009B9D4203D179
:103D30002000FFF7AFFF37BD0134E4B2EDE7C04626
:103D400038050020012210B5034B1A70FFF790FFD1
:103D500000F0C4FB10BDC0462500002013B50024B0
:103D600001AB1C809C700198FFF774FFFEF710FFF9
:103D7000044B1B78FF2B02D12000FFF78BFF0020A4
:103D800016BDC0462600002013B5002401AB1C80E0
:103D90009C700198FFF75EFF00F0A0FB014B1C70C8
:103DA00013BDC04625000020F8B5CB780024432B76
:103DB00035D103224B7801341340022B2FD18B785D
:103DC000002B0AD0A34208D0022B28D1194B1B7814
:103DD000002B2BD0FFF7D8FF21E000223F2504263F
:103DE000082715495018017840780400AC430BD1DE
:103DF0002034A4468C446446E4B2072C04D8B14372
:103E0000E1290ED038420CD10232A02AE9D1002299
:103E100059424B41934206D0FFF758FF012420003E
:103E2000F8BD0122F4E7FFF763FFF7E7FFF78AFF2A
:103E3000F5E7C046250000207537002010B5FEF7D5
:103E400099FE034B1870034B1A78034B1A7010BD80
:103E500038050020240000203C05002010B504484F
:103E600006F07AF90A3843425841C0B210BDC04644
:103E700088310020F7B5964A96480C0002F036FFCC
:103E800000230500984200D0D7E004229249200088
:103E90000BF0F3FC2B00002800D0CEE004348F4957
:103EA00020000BF0D1FC002812D16B46DD1C28004D
:103EB000FFF736FEFFF7D2FF01AC002800D0BEE0CE
:103EC0002000FFF715FE28780199FFF743FEB3E0C5
:103ED000834920000BF0B8FC002800D1A6E08149FE
:103EE00020000BF0B1FC002800D196E07E492000B4
:103EF0000BF0AAFC051E7AD07C4920000BF0A4FC34
:103F0000002868D07A4920000BF09EFC002856D08B
:103F1000784920000BF098FC00283CD0764920001E
:103F20000BF092FC0023002800D086E0FFF796FFFC
:103F3000002800D080E06B46DD1C2800FFF7F0FD74
:103F40002878FFF72BFE01AC207003040002000E5E
:103F50001B0EA07028786370FFF7EEFD674D68496F
:103F6000280005F0C9FD2021280005F0C9FD67786B
:103F7000A6782078FFF7E0FD3800FFF7DDFD300080
:103F8000FFF7DAFD5F49280005F0B6FD2021280083
:103F900005F0B6FDCAE701AC2080A0702000FFF755
:103FA000A7FDFFF75BFF002846D16B46DD1C28000C
:103FB000FFF7B6FD28782168FFF7CCFDF1E7FFF7A2
:103FC0004DFF002853D101AC2000FFF7A9FD207858
:103FD00000F0C0FD30E0FFF741FF002844D101AC04
:103FE0002000FFF79DFD207800F084FD24E0FFF71E
:103FF00035FF041E50D1FFF71FFEFFF72FFF0028EB
:104000001AD101A8FFF774FD200001340199E4B230
:10401000FFF7A0FD842CF0D10EE0384806F09CF8A4
:10402000C0B20A2826D1384B18781AE001A8FFF749
:104030005FFD0198FFF70EFE01231800FEBD2878F2
:10404000FFF7ACFD050403021B0E2D0E2070A370BC
:1040500065701C00C0B2FFF76FFD2800FFF76CFD14
:104060002000FFF769FDE7E700F00AFAF9E700F042
:104070000DFAF6E76E2802D1FFF728FEDCE770287C
:1040800002D1FFF735FED7E701AC2000FFF748FD6E
:104090002078FFF7FFFDCFE7FFF7CEFD2C002000D3
:1040A000FFF77CFD01AB060405021870360E2D0EDD
:1040B000C0B25E709D700134FFF73EFD3000FFF727
:1040C0003BFDE4B22800FFF737FD842CE7D1B3E7CE
:1040D000041E0100C32A0020581E01005D1E0100BD
:1040E000601E0100671E0100521E01006C1E0100CF
:1040F000771E0100841E0100901E010088310020FF
:104100009C1E0100714F01002600002010B5FFF732
:1041100001FE10BDF7B5D4B201AE00290AD134704A
:104120007470B47072783078B37812021B04104344
:104130001843FEBD06234343181205025B1BFF27ED
:104140009BB21D00FB1A4D434B432D121B12791AD3
:104150007D1BFB1A554353434A432D1212121B1267
:10416000D2B2E9B2042806D807F092FE03090D1274
:1041700016001100DAB234707270B170D2E711001B
:104180002200ECB2F7E7D9B2230014001A00F2E7DC
:1041900021001400EAB2EEE72100DCB2EBE70000F8
:1041A000164B12011B6813B59BB29A181211D3B2A9
:1041B000120601D5DB43DBB25B00DBB21A0003243D
:1041C0005A431212534354431B125B00E31ADA0F93
:1041D000D21852105032D2B289B280B2FFF79AFF91
:1041E000FF210300020A0A400B4012021343000C95
:1041F000034A084013400004184316BDB8040020C9
:10420000FFFF00FF37B50C4B05001A780B4C8242BC
:1042100001D120683EBD69461870FEF7ADFC019BD8
:10422000002B02D1009B2360F3E72A000099044889
:1042300098472060EDE7C046270000204005002099
:10424000880300200022014B5A717047440500206A
:1042500010B5024801F090FB10BDC0464C0800208C
:1042600010B5084C200001F014F9002803D12000FB
:1042700001F016F910BD044801F039FA034801F0C5
:10428000E5F9F7E79C070020EC070020CC070020A9
:1042900070B5074E0D0004000100300001F048FB2E
:1042A000611C2870300001F043FB6870280070BD6D
:1042B0004C08002010B50C000100034801F038FB49
:1042C0002070200010BDC0464C08002010B50648E4
:1042D00001F05FF9054801F08FFA054801F0D4F9C3
:1042E000044801F0C9FA10BD9C070020EC0700202B
:1042F000CC0700203808002010B5084C200001F041
:10430000C8F8002803D1200001F03CF910BD044892
:1043100001F06CFA034801F089F9F7E79C070020E7
:10432000EC070020CC0700201FB501AB1880032349
:104330001340013B012B10D80948037801335BB2CD
:10434000037002A842700122524201704280037140
:104350000299039A0348FFF761FA05B000BDC04611
:1043600074370020B604002010B5040001000120BD
:10437000FEF7CAF9014B1C7010BDC0465305002062
:1043800010B504000B4B0C4A0C490D481B68126811
:10439000096800688EB00290019100922121094ABB
:1043A00005A80BF01FFA05A9200007F032FA20003B
:1043B0000EB010BD0CA0800040A0800044A0800082
:1043C00048A080009E1E010073B5254C254D20009D
:1043D000297800F0D7FD2978234D280000F0D2FD80
:1043E000224B22001B78D932DB43DBB213702A0048
:1043F000D93213701E4B22001B78DA32DB43DBB25A
:1044000013702A00DA321370200000F01BFE060041
:104410002800F6B200F016FE164B012E03D0C0B2F3
:104420000022012800D101221A7022000023393213
:10443000137022003A3213700F4A3B341278237003
:104440009A420CD001AA138093700198FFF702FCE6
:104450000A4B1868002802D003685B68984773BD50
:104460006005002028000020580600202A000020B7
:104470002B0000205A0500202500002034050020D4
:10448000014B18787047C0462A000020014B18786D
:104490007047C0462B00002070B580240D4E0E4D95
:1044A00033786400E95C0320611A09020139FDF7E1
:1044B000F5FF73780520E95C611A09020139FDF7FF
:1044C000EDFFB3780420E95C611A09020139FDF7B8
:1044D000E5FF70BD630700200520010070B50024D2
:1044E000104DE6B2635D002B05D031000E4800F0A0
:1044F000E5FD002363550D4D635D002B05D03100B4
:104500000B4800F0DBFD002363550134092CE7D193
:10451000084C2378002B03D0FFF7BEFF0023237045
:1045200070BDC046500700206005002059070020DC
:104530005806002062070020F7B501AB01918328DF
:1045400018D81C7859789A78832814D12C480123DC
:104550000578A54207D145788D4204D183789B1A0E
:104560005D1EAB41DBB2274D04702E7841703343A2
:104570002B708270F7BD244B1D7885235D43234B40
:104580005B191B5C472B1BD803255D432048214E3C
:104590002D182878DB0884466F78A8782C7069700D
:1045A000AA70F55C00950125644505D1B94203D197
:1045B000121A501E8241D5B2009A1543F554D9E71C
:1045C0008F2BD7D80320483B5843134DDB1040199D
:1045D00005784778AC46114D86780470417082703A
:1045E000E85C00900120644505D1B94203D1921BDB
:1045F000561EB241D0B2009A1043E854BAE7C04602
:1046000063070020620700205A050020AB1E01004E
:1046100060050020500700205806002059070020A0
:1046200013B501AC83280AD900232380A3706278D4
:104630002078A37812021B041043184316BD0C4BBC
:104640001A7885235A430B4B9B18195C472907D8C6
:1046500003225143084B591820000AF04AFBE6E7B1
:104660008F29E1D8032248395143044BF3E7C04670
:104670005A050020AB1E01006005002058060020EE
:10468000012110B50800FDF7F3FF0020FFF76CFED5
:104690001020FDF7CBFEFFF7FFFE0A20FDF778FDA7
:1046A0000120FFF761FEFA204000FDF771FD10BD0B
:1046B000F7B5394F0822390038480AF01AFB384C50
:1046C0000822210037480AF014FB374E300000F072
:1046D000BEFC002812D03100684600F0E7FC08223A
:1046E000694638000AF005FB304B1B78012B05D1D9
:1046F000FA7802331A4201D05340FB702C4D280047
:1047000000F0A5FC002816D02900684600F0CEFC79
:104710000822694620000AF0ECFA244B1B78012B92
:1047200009D16278A17810004840184203D05A405D
:104730004B406270A3703300D8331B78002B03D03A
:104740001C4B1B78002B08D02B00D8331B78002B78
:1047500005D0194B1B78002B01D1FFF735FED83659
:104760003278002A07D1134B1B78002B03D000208E
:10477000002138607960D8352B78002B07D10E499D
:104780000978002903D000200021206061600949D8
:104790000A70094A1370F7BD6807002088070020D7
:1047A0007807002090070020600500205A050020AF
:1047B000580600207007002080070020F0B5002672
:1047C00085B000257300DBB20193204B77193A00C6
:1047D0001868596807F0DCFC022344001C401C4B9D
:1047E0003A001868596807F0D3FC012202402243BE
:1047F00007D0002103AB1980019B03985919FFF7DB
:1048000093FD144B3A001868596807F0C1FC022365
:1048100044001C40104B3A001868596807F0B8FC77
:1048200001220240224308D0002103AB19800199E4
:1048300003980F31491BFFF777FD0135082DC4D1CF
:104840000836282EBDD105B0F0BDC046680700204F
:1048500088070020780700209007002010B5FFF798
:1048600027FFFFF7ABFF10BDC0B202000F23000906
:104870001A40072A06D905499B1A085C18410123EA
:1048800018407047024B185C1041F8E77807002089
:104890006807002010B5074B1868596807F0FCFC42
:1048A000054B04001868596807F0F6FC2018C0B2E0
:1048B00010BDC046680700207807002070B50024AE
:1048C000064B0121E55C01342800FDF7D1FE0021F3
:1048D0002800FDF719FF262CF2D170BD052101003B
:1048E0000022002310B505490A604B6004490A60A4
:1048F0004B60FFF701FDFFF7B3FC10BD6807002018
:104900007807002010B5134C200001F083F9002037
:10491000FFF72AFD01211520FDF7AAFE0121142031
:10492000FDF7A6FE00211520FDF7EEFE0021142064
:10493000FDF7EAFEFFF7D4FF0120FFF715FD200089
:1049400001F03AF90449200001F056F96420FDF71E
:104950001FFC10BD68280020A0860100014B1878BC
:104960007047C04653050020481E814110B5C8B2AB
:10497000FFF7FAFC10BD000010B5024800F053FB31
:10498000C0B210BD6005002010B5024800F04BFB1E
:10499000C0B210BD58060020014BE43318787047B0
:1049A00060050020014BE43318787047580600205A
:1049B00010B5024800F03CFBC0B210BD60050020FD
:1049C00010B5024800F034FBC0B210BD58060020FC
:1049D00010B5024800F031FBC0B210BD60050020E8
:1049E00010B5024800F029FBC0B210BD58060020E7
:1049F00010B50C00034800F0CFFA2100024800F087
:104A0000CBFA10BD5806002060050020024B187834
:104A100001384342584170475A05002010B50248FA
:104A200000F0C5FAC0B210BD58060020014B18882E
:104A30007047C0462800002010B50400FFF7A0FC16
:104A4000200010BD70B5150006000C00127800F0B3
:104A50008FFF30006A78611C00F08AFF280070BD6B
:104A600070B50400C5B22900084800F08BFA29008F
:104A7000074800F087FA074B074A1988074814804F
:104A8000FFF7E0FFFFF7E4FB70BDC04660050020C4
:104A90005806002054050020280000204C08002063
:104AA00010B50800FFF7DCFF10BD10B51400127838
:104AB00000F05EFF200010BDC343094ADBB2D932CB
:104AC00010B51370074AD9321370074A074B10709C
:104AD00019880748FFF7E9FFFFF7BAFB10BDC0468A
:104AE00060050020580600202A00002056050020FE
:104AF0004C08002010B5FFF7DFFF00230122044817
:104B000004491A545A540133092BFAD110BDC04636
:104B10005007002059070020C343094ADBB2DA32AC
:104B200010B51370074ADA321370074A074B10703A
:104B300019880748FFF7B9FFFFF78AFB10BDC04689
:104B400060050020580600202B000020580500209A
:104B50004C08002010B5FFF7DFFF002301220448B6
:104B600004491A545A540133092BFAD110BDC046D6
:104B70005007002059070020F7B5022001F08EFEF3
:104B8000254E3080012001F089FE244D288001202F
:104B900001F084FE6B46224C9F1D20803900308836
:104BA000FFF776FB3A881F4B1F4F9A4206D1318898
:104BB0003A001E48FFF746FFFFF74AFB30883900EE
:104BC00001AEFFF765FB31002888FFF773FB3378F0
:104BD000174EFF2B06D1298832001448FFF765FFD6
:104BE000FFF736FB28883100FFF764FB6B465D1D3D
:104BF00029002088FFF75EFB2B780E4DFF2B06D196
:104C000021882A000948FFF750FFFFF721FB290000
:104C10002088FFF74FFBF7BD540500205605002004
:104C200058050020FFFF0000280000204C0800204D
:104C30002A0000202B00002010B5FFF79DFFFFF792
:104C40003DFEFFF71DFDFFF741FBFFF737FEFFF7C6
:104C500017FD054C200000F0AFFF0449200000F0D4
:104C6000CBFFFFF7B1FB10BD68280020400D03000B
:104C7000184B00221900D83110B50A701900D9312B
:104C80000A701900DA310A701900DC310A60190063
:104C90005820E03108601900E4310A70B221F03385
:104CA000C90119800C4B01241800D830027018007B
:104CB000D93002701800DA3002701800DC3004605D
:104CC00018005834E03004601800F033E43002700B
:104CD000198010BD600500205806002010B5012283
:104CE00004000021024805F0E7F9207010BDC0461D
:104CF0008831002010B5054C0100200004F0FCFEB6
:104D00002021200004F0FCFE10BDC04688310020A8
:104D100010B5054C01000A22200004F05CFF2021A0
:104D2000200004F0EDFE10BD883100207FB57E4AE2
:104D30007E480D00002401F0D9FFA04211D10922C4
:104D40007B4928000AF099FDA0420AD1093579492A
:104D500028000AF079FDA04206D17748FFF7CAFF84
:104D60000124200004B070BD744928000AF06CFDD5
:104D7000002801D17248F1E7724928000AF064FD69
:104D8000002814D1704805F0E7F9704C0A2805D1C5
:104D90002000FFF7E3FDFFF7BBFFE1E701AD2800CF
:104DA000FFF79CFF29782000FFF7DEFDD8E7684970
:104DB00028000AF049FD00280FD16648FFF79AFF46
:104DC000624C2000FFF7D8FDFFF7A2FF6248FFF713
:104DD00091FF2000FFF7D8FDDDE7604928000AF0C9
:104DE00033FD00280FD15B48FFF784FF574C2000AC
:104DF000FFF7D2FDFFF78CFF5748FFF77BFF20003E
:104E0000FFF7D0FDC7E7564928000AF01DFD00282E
:104E10000FD15048FFF76EFF4C4C2000FFF7C8FD44
:104E2000FFF776FF4C48FFF765FF2000FFF7C8FD4E
:104E3000B1E74C4928000AF007FD00281DD142487F
:104E400005F08AF9414C0A280ED14248FFF752FF7B
:104E50002000FFF7BDFDFFF75BFF3F48FFF74AFF6C
:104E60002000FFF7BDFD96E701AD2800FFF736FFF4
:104E700029782000FFF7BCFD72E73B4928000AF0C3
:104E8000E3FC002808D13948FFF7C0FD384B012862
:104E900000D0384B180061E7374928000AF0D4FCED
:104EA000002803D13148FFF7B9FD74E733492800E2
:104EB0000AF0CAFC00281DD1234C200005F04CF953
:104EC0002A4D06000A280CD12800FFF7AFFD32005A
:104ED0000100200004F06FFE2021200004F010FEED
:104EE0003EE701AC2000FFF7F9FE21782800FFF72C
:104EF000D7FD35E7224928000AF0A6FC0024A0428D
:104F000000D02EE701A81949FFF796FD0E4C01A924
:104F1000200004F0EAFD2021200004F0F1FD01A8AA
:104F200006F02FFC1CE7C04634210100C32A0020F4
:104F300075100100F7110100E9210100E0210100D5
:104F4000F5210100FF2101008831002051050020DA
:104F50000A2201001322010019220100212201006E
:104F60002C220100352201004222010052050020BE
:104F70002B21010030210100492201004F220100B4
:104F80005722010007B5022201AB5970E030190029
:104F90001A7000F033F90EBD07B50D2201AB1A707F
:104FA0005970E0300B3A190000F028F90EBD37B502
:104FB0000B236A46E030137069460122040000F0BA
:104FC0001DF9002802D0012040423EBDA0239B00D5
:104FD000013BFDD101AD02222900200000F050F973
:104FE0000228F0D168782B780002C018EDE737B5B9
:104FF0006B46E030197001226946040000F0FEF8AB
:10500000002802D0012040423EBDA0239B00013B6E
:10501000FDD101AD01222900200000F031F9002866
:10502000F0D02878F0E710B50121FFF7E0FF10BDC0
:1050300010B50821FFF7DBFF10BD10B50D21FFF7FC
:10504000D6FF10BD10B50C21FFF7D1FF10BD13B571
:10505000040006220021684609F067FE20000622AF
:10506000E030694600F00CF9831F5A425341220098
:10507000D83213700023062816D16A461278012A06
:1050800012D1694623004978E83319706946897856
:10509000EC3459706946C978997069460979D970B4
:1050A0006B465B7923701300180016BD10B5040021
:1050B000E831082209F01DFE200010BD0B00F0B5FC
:1050C0008DB0803B05AE337018234B430193030032
:1050D000012407000D00D93302931B190393019B90
:1050E0001B19013BFB5C032D05D9042D2BD1621E3E
:1050F000D2B2052A2DD8029A11780022994201D203
:105100005B1ADAB2144B03219B5C200000936B46C0
:105110001B78335507F036F8012909D13B00F133EC
:105120001878009B63314343180006F045FF305563
:105130000134192CD3D1380022003100E03000F0C6
:105140005DF80DB0F0BD072D03D9621ED2B2052A5D
:10515000D1D8039AD0E7C0465F220100F7B5264EAA
:105160000190300000F056FD01211420FDF780FA77
:1051700001211420FDF7C8FA01211520FDF778FA66
:105180000A241527502501213800FDF7BDFA2B0010
:10519000013BFDD100213800FDF7B6FA2B00013BA1
:1051A000FDD1013C002CEED121001420FDF7ACFA1A
:1051B000013DFDD1202501211520FDF7A5FA2B0089
:1051C000013BFDD101211420FDF79EFA013DFDD1E7
:1051D00014202100FDF74CFA21001520FDF748FAB4
:1051E000300000F0E9FCFA21019B8900DB883000E7
:1051F000594300F001FDF7BD68280020F7B51E4CAB
:105200000E0001682000C9B2170000F008FD00215F
:105210001A4B0A00FF2518122A40974210D9725CD7
:1052200001315A4052B2D3B21B015A40D2B21311CB
:105230009C466546D30012026B4010434340E8E7AA
:1052400001AD28703A00310020006B7000F05AFC6C
:10525000002801D10120FEBD02222900200000F01B
:1052600051FC0028F6D00121200000F05AFD431E19
:105270009841C0B2EFE7C04668280020FFFF000059
:10528000F7B50368244E01910092D9B205000232AD
:105290000123300000F0DBFC00270400B84204D1F9
:1052A0002800FFF75BFF2000FEBDFF23009A3B4074
:1052B0003000934205D200F071FD019BD8550137B3
:1052C000F3E700F06BFD0400300000F067FDFF26FF
:1052D000002124022018114A87B20B0000983340A5
:1052E000984210D9019B5B5C013153405BB2D8B24C
:1052F00000014340DBB21C11D80012121B026040B7
:105300001A434240E9E76B461C78BA42CBD02B796E
:10531000002401332B71C6E768280020FFFF00003E
:105320000379413301200B707047000030B50B78D2
:1053300089B001330B706B46050011220021981DC6
:1053400009F0F3FC124B01AC2380124A124BE281AC
:1053500002933F22092322746372104A1833A37206
:10536000203BE37223736282237603222B796275DA
:10537000A37080233D32E2826A795B4213432100AD
:1053800019220020237500F09BFA09B030BDC046F9
:1053900009040000012200000103010107050000CB
:1053A0000A78030010B50020812A0ED1CA78222A7B
:1053B0000BD189881A79914207D11A001B7C2832B7
:1053C000137002493F2200F07BFA10BD5F230100F9
:1053D00070B504798A8803000020944209D10C78C2
:1053E0004A78A12C06D10223013AD2B2934240411D
:1053F000C0B270BD212CFCD10B2A04D18A7828338D
:105400001A700120F5E70A2A02D129331870F8E74B
:10541000092AEED1CD78CC88022D08D1012CE8D113
:105420002A3319002200084805F0AEFBE9E7012DF8
:10543000DFD1082CDDD1113319002200024805F01C
:10544000A3FB2800D5E7C046B03100200223FF337C
:1054500010B5C3800300243383600B4B0022083354
:10546000036003002833C2600174197001219A702F
:10547000597083230400436204F060FF210004F0AC
:1054800031FF200010BDC046A02301002A30007863
:10549000704728300078704728300170704700004E
:1054A000F8B5060004001936113405000822210061
:1054B000300009F00FFC002816D06979082322007B
:1054C0000B4805F015FC0B4B05001F68002F04D09E
:1054D0000300082221000220B847082221003000E2
:1054E00009F007FC2800F8BD01256D42FAE7C04627
:1054F000B03100203C3800200A002032D2B210B572
:105500000023072A08D801331A00E0398A40417C79
:105510000A43427401200BE0C218D47C8C42F9D0BB
:10552000002C01D1D174F5E70133062BF4D1002012
:1055300010BD0B002033DBB270B5072B07D801225A
:10554000E0398A40437C93434374012070BD0200DC
:10555000040013321300002519341E788E4200D146
:105560001D700133A342F8D100211578002D05D01C
:105570004418E67C0131E574C9B2167001329A42D2
:10558000F3D1E2E710B511300822002109F0CDFB7C
:1055900010BD10B50400FFF7F5FF2000FFF780FFF6
:1055A00010BD0300193013331A788A4204D0013336
:1055B0008342F9D1002070470120FCE70121054B0F
:1055C00010B51A680A4203D103481960FFF73EFF7D
:1055D00010BDC046C80700209C07002001210A4AD0
:1055E00070B5136805000B40084C05D12360084BCB
:1055F000116063601923238106F016FB210006F079
:10560000BBFA280070BDC046DC070020E007002080
:10561000B8230100002310B55A00845A002C01D190
:10562000115210BD0133042BF6D1FAE710B5082250
:10563000002109F07AFB10BD10B5040006F0F4FA61
:1056400008232200042106F0BDFA10BD70B5050044
:105650000835040001000822280009F03BFB00285F
:1056600007D02000FFF7E8FF08222100280009F0FA
:1056700040FB70BD10B504000822002109F055FB65
:105680002000FFF7E3FF10BD10B5FFF7F3FF10BDDB
:1056900010B50248FFF7A2FF10BDC046CC0700209E
:1056A00001210A4A70B5136805000B40084C05D16A
:1056B0002360084B116063604123238106F0B4FA34
:1056C000210006F059FA280070BDC04628080020C5
:1056D0002C080020D123010010B5040006F0A4FA24
:1056E00022001D231D32082106F06CFA10BDF7B50B
:1056F0000678437F0400451CB3421BD002002B00F8
:1057000000211D3201921D20002218569A560700D2
:10571000974302D0012102405A77019A0133934204
:10572000F1D1002902D02000FFF7D6FF66772000D4
:10573000FFF7D2FF26001E361C222900300009F098
:10574000C9FA002808D01C222900300009F0D1FA3B
:105750002000FFF7C1FFFEBD01204042FBE7002310
:10576000DD290AD8CB08C01807231940063B8B4017
:1057700040780340581E8341DBB218007047020096
:10578000DD290AD8CB08C3180722012011400200E6
:105790008A4059780A435A7070472031C9B20020B4
:1057A0000729F9D8012318008840117801431170A6
:1057B0001800F1E70200DD290BD8CB08C318072237
:1057C0000120114002008A4011005A788A435A7021
:1057D00070472031C9B200200729F9D801231800E9
:1057E00088401178814311701800F1E710B51D222F
:1057F000002109F09AFA10BD10B50400FFF7F6FF7A
:105800002000FFF769FF10BD10B50248FFF748FF01
:1058100010BDC046EC07002001210A4A70B513688C
:1058200005000B40084C05D12360084B11606360F4
:105830001823238106F0F8F9210006F09DF92800CD
:1058400070BDC0463C080020400800201224010022
:1058500070B515000C0006F0E7F92B0022000521B9
:1058600006F0B0F970BD07B56B46D91D00230122C3
:105870000B70FFF7EDFF07BD10B5FFF7F4FF10BD8C
:1058800010B5FFF7F0FF10BD07B56B460733197071
:10589000832905D10223054A11890B43138107BDD2
:1058A00001221900FFF7D4FFF9E7C046005000417C
:1058B00010B50248FFF7B0FF10BDC0463808002001
:1058C00010B5024805F0C0FA10BDC046B031002046
:1058D00010B50100014805F0C7FB10BDB031002034
:1058E00070B50F4C0F4EA54404000F4801AA436940
:1058F0000169651C00F0FEF8320001A9280009F0DA
:10590000F8F9A35D002B05D18022FF219201280028
:1059100009F00BFA01232370044B9D4470BDC0466F
:10592000F8DFFFFF012000005028002008200000C1
:1059300070B5037804000D00002B01D1FFF7D0FFF4
:105940006419607870BD0000037870B505000C0024
:105950001600002B01D1FFF7C3FF2C196378B34267
:1059600003D00122014BEA54667070BD0220000092
:1059700010B5FFF7E9FF10BD10B5114C0378A54431
:105980000400002B01D1FFF7ABFF0E4BE35C002BB3
:1059900012D001230C4AE118A35401A809F0A9F977
:1059A0000A4C62692169200000F092F8636901AA3B
:1059B0002169200000F03CF8054B9D4410BDC04615
:1059C000F8DFFFFF02200000012000005028002027
:1059D0000820000010B5054A0549064800F010F8F7
:1059E0000022054B05491A705A5410BD01200000D1
:1059F00000250100502800204C0800200220000053
:105A000030B5094D094CAB685B035B0F9B001C591B
:105A10000460AB6801619BB243606343A400836090
:105A2000C460426130BDC0460040004100460100F4
:105A3000F7B580261A4D01916F6803333E439B08EA
:105A40006E60002B2BD0174E2E802E7DF107FCD5DB
:105A50001E000768991BBF088F4219D9002E17D066
:105A6000FF2117788C433C430F4957780C403F0285
:105A70003C439778013E39040C4F2740D478BFB29D
:105A80000F43240601993C4310C101910432E0E721
:105A9000074B2B802B7DDB07FCD53300D1E7F7BD0F
:105AA0000040004144A5FFFFFF00FFFFFFFF00FF94
:105AB00004A5FFFF044B054A4908D9611A801A7DE5
:105AC000D207FCD57047C0460040004102A5FFFF49
:105AD00070B504000D001600E36829002000B342F1
:105AE00005D2FFF7E7FFE368ED18F61AF4E7FFF7D2
:105AF000E1FF70BD10B510001A0009F0FAF810BDF2
:105B000000207047F8B505000E0017000024BC42C5
:105B100008D02B68315D1B6828009847002801D009
:105B20000134F4E72000F8BD70470300FC33196A24
:105B3000DA69914203D01B6AC018007E70470120C9
:105B40004042FBE70300FC33D8691B6AC01A01D549
:105B50000130FF3070470000F7B50193FA2380262B
:105B6000002504009B008360124B760008330F0071
:105B700045602900009203603200183009F0D5F822
:105B800023002000FC332130DD6132001D6229003A
:105B9000FF3009F0CAF887239B00E3185D609D6021
:105BA0006B461B78276123756B461B79A575200012
:105BB0006375FEBD2046010070B5060018250C492E
:105BC000006904F00FFA306904F09CF82B000821FA
:105BD000307D084C4343E3185956FCF7C1FD0821BA
:105BE000707D454364196156FCF7BAFD70BDC0462F
:105BF000A0860100204B010070B504000D00006973
:105C000004F095F82900206904F0ECF9206904F00B
:105C100079F870BD10B5006904F089F810BD8A23C9
:105C200000229B00C1540C3BC3185A609A600123A8
:105C300083757047020010B5FC32536894680133D5
:105C4000DBB29C4202D054680155536010BDF7B5D9
:105C500000240500170001932000A24232D02B003F
:105C6000FC33DC611C620122286904F093F8060011
:105C7000A04226D02B0018330093286904F017F9AE
:105C8000013401000098FFF7D5FF2869BC420CD011
:105C900004F0EBF8002807D0286904F05BF8022133
:105CA000286904F061F8E8E70600286904F049F87B
:105CB000019B002B07D0002E07D00321286904F098
:105CC00053F8E0B2FEBD002EFBD1013CF9E710B560
:105CD0000123FFF7BCFF10BD002210B5837D934266
:105CE0000DD087239B00C4186368A4680133DBB21E
:105CF000A34204D02130FF30FFF79CFF01221000A7
:105D000010BD0300FC3399685A68914206D09A6826
:105D1000805C9A680132D2B29A607047012040429A
:105D2000FBE700228A2370B59B00827505000E00F8
:105D3000C15C006904F02EF8002806D1032128690F
:105D400004F012F80224200070BD872328009B0075
:105D5000EA18536894682130FF301C1B01D50134C8
:105D6000FF34002C0ED02C69FFF7CBFFC1B220000E
:105D700004F052F80028E8D10321286903F0F4FF69
:105D80000324E0E7002EDED00321286903F0ECFFB6
:105D9000D9E710B50121FFF7C4FF10BD10B51830C9
:105DA000FFF7AFFF10BD70B50400006904F054F8B0
:105DB000002814D0206904F066F8002810D020696B
:105DC00003F0C8FF0321206903F0CEFF8C239B0062
:105DD000E558002D39D10023FC34E361236270BD06
:105DE000206904F05AF8002809D0206904F050F81E
:105DF000002804D0206904F055F80028DFD020697D
:105E000004F04BF8002826D1206904F037F8002868
:105E1000E5D0206904F046F8002837D087239B009E
:105E2000E218536892689B1A01D50133FF33FF21B2
:105E3000002B05D020002130FF30FFF762FFC1B2F8
:105E4000206903F0FBFFA075C9E7236820001B69E8
:105E50009847A847BFE7206903F07CFF206903212A
:105E600003F082FF206904F01DF80028B7D08723D3
:105E700000229B00E3185A609A600123A3758B23CC
:105E80009B00E3589342AAD09847A8E72200FC322F
:105E9000D369126A0133DBB22069934206D103F061
:105EA00050FF0321206903F05FFF98E703F0FFFF35
:105EB000010020001830FFF7BDFE206903F04AFF03
:105EC000EFE7000010B50248FFF76DFF10BDC046B8
:105ED0006828002010B51523142202490248FFF754
:105EE0003BFE10BD7C3100206828002010B5012247
:105EF00004000021024804F0DFF8207010BDC04605
:105F00008831002010B5054C01000A22200003F062
:105F100052FE2021200003F0F3FD10BD8831002047
:105F200010B50A0001000248FFF70EFD10BDC04683
:105F30004C08002010B5054C01000A22200003F097
:105F40004AFE2021200003F0DBFD10BD8831002037
:105F500010B50248FFF710FD10BDC0464C080020E8
:105F600010B50C0001000348FFF7E2FC2070200090
:105F700010BDC0464C08002070B5074E0D0004004F
:105F800001003000FFF7D4FC611C28703000FFF7DF
:105F9000CFFC6870280070BD4C08002010B5054C7F
:105FA0000549200003F09DFD0A21200003F0A8FD13
:105FB000002010BD8831002044460100F0B54E4855
:105FC00085B005F0A1FE00224C4B02AD988AD98A1B
:105FD0001A761B692A701B686880A980AA7129003B
:105FE0000832474898470A2000F058FC454C69465B
:105FF0002080FFF7B5FF6B461A78434BFF2A51D03C
:106000001A70208801AE0130310080B2FFF7B4FF72
:1060100032883E4E3E4BB24249D01A806B462088B1
:106020005F1C033080B23900FFF79AFF3A78394B92
:10603000FF2A42D01A706B4620889F1D043080B220
:106040003900FFF799FF3A88334BB2423BD01A80B0
:106050006B4620889F1C063080B23900FFF780FF16
:106060003A782E4BFF2A34D01A7020882900073046
:1060700080B2FFF781FF2A88294BB2422FD01A80C5
:106080006B462088DD1C093080B22900FFF768FFCD
:106090006B461A78234BFF2A27D02A781A700020E3
:1060A00005B0F0BD19782088FFF73AFFA9E72088EE
:1060B00019780130FFF734FFB0E7208819780330F2
:1060C000FFF72EFFB7E7208819780430FFF728FF85
:1060D000BEE7208819780630FFF722FFC5E7208841
:1060E00019780730FFF71CFFCAE7208819780930B4
:1060F000FFF716FFD3E7C046403800206438002081
:10610000743800209E2A002035000020FFFF000088
:10611000300000202E0000202C0000203400002041
:10612000320000203600002073B54A4C4A492368EB
:106130000A884A489BB29A1A008892B290420AD8BA
:106140000B80474947480D78FF210278491B8A4256
:1061500001DA52190270444944480A8800889A1AA0
:1061600092B2904213D80B80002370261A00404D43
:10617000581901784078502802D1314200D10A43A1
:106180000233A02BF4D1002A44D1364B1A7039497E
:1061900022680B88384892B2D31A00889BB2984282
:1061A00036D800230A8070251900314C181902785E
:1061B0004078502804D110002840102800D1114305
:1061C0000233A02BF2D1002922D000224B0703D5A5
:1061D0002A4B1A78524252B20B0703D5274B1B7831
:1061E0009A1852B20023C80702D5244B1B785BB221
:1061F000890703D5214909785B1A5BB20092002216
:106200001F4C1100200005F03DFD200005F058FD59
:10621000002076BD0020530703D51A4B1878404262
:1062200040B2130703D5174B1B78181840B2002152
:10623000D30703D5134B1978494249B2930703D5C5
:10624000104B1B78591849B200F0A6FA0C4805F01B
:1062500037FD9CE7B8040020A22A00202C00002073
:106260002E000020B02A0020A02A002030000020AC
:1062700075370020A42A00203200002034000020BE
:106280004038002035000020F7B51D4C0D002000DF
:1062900005F001FD00231B48190006006027A03609
:1062A0000196DAB2502B1BD02E7896420CD04F2A92
:1062B0000CD85A0082185678502E05D11278160044
:1062C0003E40402E00D111430133EAE70022019EF7
:1062D0003270A126B446844466463270019AEAE7D9
:1062E00003226B781340022B01D1AB781943402372
:1062F0002000994305F0D5FC200005F0E1FCF7BD36
:106300004038002075370020012310B58A789109A4
:106310001940134058009307DB0F08439B001843B4
:106320005307DB0F1207DB00D20F18431201104393
:1063300000F0C4F910BD000010B5CB780024502B3C
:1063400012D160228B781A40402A03D1FFF79CFFBC
:10635000012409E09A0609D503224B780124134051
:10636000022B01D1FFF7D0FF200010BD7022134097
:106370000AD10B4B0B4A1B6812889BB20A499A1A26
:106380000A800A4A1380E3E70124102BECD1044B66
:10639000074A1B6812889B1A064A1380E4E7C04626
:1063A000B804002030000020A02A0020A22A0020EB
:1063B00032000020A42A002010B5044803F0CCFECF
:1063C0000A3843425841C0B210BDC046883100204F
:1063D00073B58D4A8D480C00002500F087FC06003F
:1063E000A84270D106228A49200009F046FA3500F9
:1063F000002868D106348749200009F025FA0028D2
:1064000007D1FFF7D9FF844D00285ED02878FFF729
:1064100091FD8249200009F017FA002807D1FFF703
:10642000CBFF00285FD07E4B1888FFF76BFD7D49BE
:10643000200009F009FA002808D1FFF7BDFF7A4DC6
:10644000002800D170E02878FFF774FD774920001C
:1064500009F0FAF9002808D1FFF7AEFF002800D1B3
:1064600071E0734B1888FFF74DFD7249200009F069
:10647000EBF9002808D1FFF79FFF6F4D002800D1EE
:1064800082E02878FFF756FD6C49200009F0DCF91E
:10649000002808D1FFF790FF002800D183E0684B67
:1064A0001888FFF72FFD6749200009F0CDF9012575
:1064B000002808D1FFF780FF634C002800D193E04B
:1064C0002078FFF737FD280076BD6B46DE1D3000D3
:1064D000FFF70CFD5D4B317818882970FFF720FD20
:1064E000FFF736FD95E76B469E1DDD1D3070287069
:1064F0003000FFF7FBFCFFF75FFF002801D1280009
:10650000F7E73178514E2B783088454A1B020B4310
:1065100001301380FFF704FD308829780230FFF73F
:10652000FFFCFFF715FD82E76B46DE1D3000FFF72D
:10653000DDFC464B3178188829700330FFF7F0FCFA
:10654000FFF706FD82E76B469E1DDD1D307028704B
:106550003000FFF7CBFCFFF72FFF002801D1280008
:10656000F7E73178394E2B783088314A1B020B43DC
:1065700004301380FFF7D4FC308829780530FFF70A
:10658000CFFCFFF7E5FC70E76B46DE1D3000FFF740
:10659000ADFC2E4B3178188829700630FFF7C0FC0F
:1065A000FFF7D6FC70E76B469E1DDD1D307028702E
:1065B0003000FFF79BFCFFF7FFFE002801D1280009
:1065C000F7E73178214E2B7830881D4A1B020B43A8
:1065D00007301380FFF7A4FC308829780830FFF7D4
:1065E0009FFCFFF7B5FC5EE76B46DE1D3000FFF752
:1065F0007DFC164B3178188821700930FFF790FC2C
:10660000FFF7A6FC5FE7C0464E460100C32A002004
:10661000C0460100C746010035000020CD460100FC
:1066200030000020D84601002E000020E346010083
:106630002C000020EE46010034000020F946010045
:1066400032000020B5460100360000209E2A0020BE
:1066500013B56C465B08C018094B520889181A7E9E
:1066600080B22270002289B29882D9821B69608030
:10667000A180A27169461B6808320248984713BD81
:1066800064380020743800200023064A1380064A2C
:106690001380064B064A1380064A13800122064BDC
:1066A0001A707047AE2A0020AC2A0020FF7F00003D
:1066B000A82A0020AA2A0020A62A0020F7B5274CE5
:1066C00006002378002B01D1FFF7DEFFF30702D588
:1066D00000232370F7BD224B224F1C7838882100FD
:1066E00005F06AFC85B23D801F4F2100388805F017
:1066F00063FC1E4982B20B883A80019306231C4F2B
:1067000033403888062B0BD1019B1018EB189CB234
:106710000C802B0081B220003980FFF799FFD9E768
:10672000730710D5631E53439C4660443880F306BC
:106730000DD5013C6C43019B1B190B803C880888DC
:106740002B002100E9E7B307F1D41018EEE7330777
:10675000F4D4019B0548EB180380EFE7A62A00203C
:1067600037000020A82A0020AA2A0020AE2A0020F4
:10677000AC2A002082B240B2002804DB5243D01180
:106780000130C0B2704780204000801A404380B280
:10679000C011C043F5E70000F0B52C4B85B01C7864
:1067A000002307000E0025B20293984212D0284B16
:1067B0001878FFF7DFFF274B47431B785BB2DF19E1
:1067C0003BB202939D423DDB029A63429A4201DA58
:1067D0001BB202930027BE420FD01D4B0027187832
:1067E000FFF7C8FF1C4B4643DF57BF193FB2BD42FE
:1067F0002ADB6442A74200DA27B20024174E184B66
:1068000035781C702900380005F0D6FB290043B20A
:106810000298039305F0D0FB2300039A41B2009441
:10682000104805F02FFA34780298210005F0AAFCF0
:10683000084B38001970210005F0A4FC064B1970B4
:1068400005B0F0BD0295C5E72F00D6E73600002061
:10685000B02A0020B12A0020B22A002038000020EF
:10686000A62A00204038002010B5054C01000A225D
:10687000200003F0B0F92021200003F041F910BD01
:10688000883100200020034B1B78834201D0024B4B
:1068900058887047B62A0020B82A002013B56B46E6
:1068A0000024991D074B08801B78A34208D1064A93
:1068B00083B214880548E3181380022200F0B8F967
:1068C000200016BDB62A00203A000020BC2A002075
:1068D000F7B507000D0016000C000B1D0193731B8C
:1068E0001A5D21003800FFF743F8019B01349C42F8
:1068F000F5D13000FEBD000070B50025114C290017
:106900002000FFF715F8104A6E1C50553500042E74
:10691000F4D15378FF2B12D11178803B0B40D8B2C1
:106920007F2803D1C90901D08343137001230021BB
:1069300020005370FFF7CCFF2000FFF71DF8002068
:1069400070BDC0464C080020B82A002010B5064C87
:10695000064A00212000FFF7BBFF2000FFF70CF8DC
:106960000122034B1A7010BD4C080020B82A0020E9
:10697000B72A002070B50F4B05001B780E4C8342E0
:1069800008D9FCF7DBFF7F222900237811409343CD
:106990000B4323707D2D06D97F22237893431A0061
:1069A0007E2313432370FFF7D1FF20784006400E6B
:1069B00070BDC0461C000020B82A00207F23094A71
:1069C000C101107810B5184008431070C0B20340E0
:1069D0007F2B03D19843013B18431070FFF7B6FF9C
:1069E00010BDC046B82A0020012270B5104D114BD1
:1069F000102128001A7000F007F90F4C6378012B62
:106A000003D000220D4B1A7070BD62880C492B8890
:106A10008A420AD16380FFF799FF20784006400E32
:106A20007D28F1D8FCF78AFFEEE79A42ECD1F4E733
:106A3000BC2A0020B62A0020B82A0020B72A00204D
:106A4000FFFF0000044B10B51B78002B01D1FFF7AE
:106A5000CBFF002010BDC046B62A002070B5304ADA
:106A600030480C00002500F041F9A8423FD109222E
:106A70002D49200008F001FFA84238D109342B49E4
:106A8000200008F0E1FEA8420AD1294C200003F0C2
:106A900063FB0A283BD1274B18784006400E2AE0BA
:106AA0002549200008F0D0FE002827D023492000E7
:106AB00008F0CAFE00281CD02149200008F0C4FEBE
:106AC000002814D11F4B1E88FFF7DCFE0500184C70
:106AD0000A223100200003F06EF81B49200003F069
:106AE00000F80A222900200003F065F8012528009B
:106AF00070BD104B5878FFF7B7FEF7E7134B1878C7
:106B000000F020F920210A4802F0FAFFEEE7012206
:106B10002900200003F0D0FAC0B2FFF72BFFE5E711
:106B200030470100C32A0020744701007E4701005E
:106B300088310020B82A00208B470100F71101009E
:106B400070470100BC2A002092470100B72A0020AC
:106B500070B5264A26480E00002500F0C7F8A84266
:106B600036D12449300008F06FFE0400A8421AD143
:106B7000214D280003F0F0FA0A282BD08026B60118
:106B8000280003F0E9FA0A2821D001220021280078
:106B900003F092FA2100C2B201341848FEF7D4FE85
:106BA000B442EDD113E01649300008F04DFE002844
:106BB0000ED18021134B104C1B888901C91A0A225F
:106BC000200002F0F8FF2021200002F099FF0125AB
:106BD000280070BD8025AD0121000848FEF7A8FE01
:106BE0000134FFF741FEAC42F6D1F0E70447010063
:106BF000C32A002020470100883100204C080020D3
:106C0000144701003A000020012330B51D0002881E
:106C10001A408B4209D204885200641004802C4030
:106C20002243013392B2DBB2F3E7028030BD0000B1
:106C3000F7B58B180F4F0193019B994219D0082586
:106C400001240B789C46038866461AB234420ED162
:106C50005B00D20F9BB2002A01D07B409BB2640044
:106C6000013DE4B2002DEFD103800131E4E7D243CE
:106C7000EEE7F7BD0580FFFF0022014B1A80704749
:106C8000BC2A002010B50120FFF708FE064B0100CA
:106C900018800648FEF74CFE054B1870FF2801D1FE
:106CA000FCF7F8FF002010BDC02A00204C0800208F
:106CB000C22A002010B5094B1A78094B1978914265
:106CC00009D01A70074C084B20001988FEF750FEB7
:106CD0002000FEF751FE002010BDC0462600002017
:106CE000C22A00204C080020C02A002010B508004D
:106CF0000649140008F0A8FD0023984204D12100A1
:106D0000034802F00BFF0123180010BD9447010057
:106D10008831002070B5094A0D000024FFF7E6FF16
:106D2000A04208D10649280008F08EFDA04202D1F9
:106D3000FBF73AFE0134200070BDC04699470100C0
:106D40009E47010010B50449002800D103490448BA
:106D500002F0C7FE10BDC046AA470100AF470100C0
:106D60008831002010B5084C200003F0DBF9002822
:106D700008D0200003F0F0F90A2803D0200003F027
:106D8000F9F9F6E710BDC04688310020F7B51C4C74
:106D90000126200003F0C6F900282CD0200003F0C3
:106DA000E9F9184D731EEB1818702000F7B2019323
:106DB00003F0D2F90A2807D0019B1B78202B03D0BF
:106DC0000136212EEAD120277A1EA95C0023202932
:106DD00013D1AB542800FCF735FA0B49200002F020
:106DE0009DFEFFF7BFFF200003F0B6F90A2802D18D
:106DF000200003F0BFF90020FEBDEB55EAE7C046D6
:106E000088310020C42A0020A6470100F0B5134BAA
:106E100085B01B7803AD834207D800232B806B78A5
:106E200028781B02184305B0F0BD502444430C4F92
:106E3000C9B26418640039880A4EA4B20919013134
:106E40003000FEF775FD3988019009193000FEF712
:106E50006FFD6B461B7968702B70E0E7E52A002018
:106E6000E62A00204C08002013B5094B01AC1B7822
:106E7000834207D9FCF716FD2080637820781B0237
:106E8000184316BDC01AC0B2FFF7C0FFF4E7C046F2
:106E9000E82A002010B50448FFF72EFD034B002020
:106EA0001A78034B1A7010BDB32A00201C00002072
:106EB000E82A002010B5054C0549200002F011FE1B
:106EC0000A21200002F01CFE002010BD88310020A5
:106ED000B5470100044B10B51870A0235843FFF7C5
:106EE000DDFC024B188010BDE52A0020E62A0020B8
:106EF000094B0A491B7810B5DB090870084A04D011
:106F0000084B1360FFF7E6FF10BD074B1B78C31853
:106F10000B70064BF5E7C046B82A00201C00002085
:106F2000200000200D6E0000E82A0020696E00009D
:106F3000F7B50A4E01AF3980094C0A043188450083
:106F400049192000120EFEF7FFFC31883A784919E2
:106F500001312000FEF7F8FCF7BDC046E62A00200C
:106F60004C080020F0B50F00002585B00190EBB271
:106F70000093019BAB4213D00024211C0098B8471A
:106F8000084E81B20A223000013402F014FEE4B24D
:106F90002021300002F0B4FD502CEED10135E6E79F
:106FA00005B0F0BD8831002073B5404A40480D005F
:106FB0000024FFF79BFEA04220D107223D49280074
:106FC00008F05BFCA04219D107353B49280008F0C6
:106FD0003BFC0600A0422ED1384C200003F0BCF848
:106FE00002000A280CD1364B20001978C90902F09A
:106FF000F2FD2021200002F083FD0124200076BD57
:1070000001223100200003F057F801ABC4B2187020
:107010002000FFF7D3FC2B4B2B491B782B4A0B701E
:10702000002C02D02A4B1360E7E72A4800781B188F
:107030000B70294BF7E72949280008F005FC0028C8
:1070400005D1244B26491878FFF78CFFD5E7254951
:10705000280008F0F9FB0028D0D1184D5026280050
:1070600003F07AF80A2803D1164B19491878EBE790
:10707000280003F071F80A2814D0124B1B787343D0
:107080009C420FDA01220021280003F015F801AB21
:10709000021218705A70200001990134FFF748FF5E
:1070A000A4B2E5E71048FEF767FCA6E7C247010077
:1070B000C32A0020F1470100E64701008831002083
:1070C000B82A0020E52A00201C0000202000002013
:1070D0000D6E0000E82A0020696E0000F9470100EB
:1070E000A5380000014801004C080020FA2110B525
:1070F000024B8900186804F0D5FE10BD3C0000204A
:107100000B4B10B51A68002A0FD00A4B1B78002BC6
:107110000BD0094B09491B6809685B1A9A4204D8CD
:10712000FCF732FE0122064B1A70002010BDC0464B
:107130003C00002025000020B8040020EC2A00209C
:10714000F02A002010B5074C2378002B03D0FCF761
:10715000F9FD00232370044B00201A68034B1A60CA
:1071600010BDC046F02A0020B8040020EC2A002000
:1071700010B5054C0549200002F0B3FC0A2120009F
:1071800002F0BEFC002010BD88310020084801003C
:10719000FA2370B504009B0043430A4A0A4E136069
:1071A0000A4BC2B21D8830002900FEF7E1FB220421
:1071B000691C3000120EFEF7DBFB3000FEF7DCFB33
:1071C00070BDC0463C0000204C080020EA2A002088
:1071D00073B50220FFF762FB0D4B0E4E18800100C5
:1071E00005003000FEF7A4FB6B469C1D2070691C57
:1071F0003000FEF79DFB60702288074B9A4202D157
:10720000064B1B6823802088FFF7C2FF002076BD55
:10721000EA2A00204C080020FFFF00003C0000206C
:1072200070B5184E184832000D000024FFF75EFDBF
:10723000A0421CD13100280008F006FBA04216D164
:10724000124D280002F088FF06000A2811D1FA2109
:107250000F4B8900186804F025FE32000100280059
:1072600002F0ADFC2021280002F04AFC012420009D
:1072700070BD01222100280002F01EFF80B2FFF73E
:1072800087FFF3E71B480100C32A00208831002054
:107290003C0000207047704710B5084B1A78084B27
:1072A0009B18013B1978074B1970074B1B788B42D1
:1072B00003D3064B188800F0F5F810BD1E0000201F
:1072C000BD040020F22A0020F32A0020F42A002026
:1072D00010B50A1C054B06491B780978994204D35E
:1072E00004490888190000F0F7F810BDF22A0020C0
:1072F000F32A0020F42A002010B5054C2388002B27
:1073000005D1044B0800197000F066F8208010BD0C
:10731000F42A0020F32A002010B5054C054920006E
:1073200002F0DFFB0A21200002F0EAFB002010BD82
:10733000883100202F48010010B5054B02781B78DA
:107340009A4203D1034B1868FFF7A6FF002010BD37
:10735000260000203405002007B5054A054B1278A9
:107360001B8805480092054A00F054F90EBDC0463E
:10737000F32A0020F42A0020F62A00203E480100CB
:10738000FF22014B1A707047F12A002010B5054CFE
:1073900001000A22200002F01EFC2021200002F041
:1073A000AFFB10BD88310020094B07B51B78002BBF
:1073B0000DD0002201AB1A809A700198FCF74AFCAC
:1073C000044B1868002802D003685B68984707BD23
:1073D000250000203405002070B5074C05002388E7
:1073E000002B03D13020FFF759FA20804220684358
:1073F000FFF754FA70BDC046F82A002010B50C0003
:10740000490809180548FEF793FA02000011C0B2B6
:10741000E30701D50F20104010BDC0464C080020E6
:10742000F7B50324124B44431888124F2418A4B212
:1074300021003800FEF77CFA611C06003800FEF7D8
:1074400077FA0500A11C3800FEF772FAF6436B4686
:10745000ED431E705D701A88FF231100120A194057
:10746000120283431B040A431A431000FEBDC046A8
:10747000F82A00204C08002007B5FFF7BFFFFFF7F0
:10748000CFFFFF210300020A0A4012020B40134300
:10749000000C034A08400004134018430EBDC046C8
:1074A000FFFF00FF37B5422500244D434519ADB21B
:1074B000A1B22800FFF7E0FF01AB18700204000240
:1074C000120E000E98705A70E0B201990134FCF768
:1074D00041FB842CECD137BD422313B55943D3B2C1
:1074E0004018141C80B2FF214F2B01D8084AD15CF0
:1074F00089B2FFF7C1FF01AB187002040002120E3F
:10750000000E98705A700199201CFCF72FFB13BDD8
:10751000B51F010010B5044802F01EFE0A384342B0
:107520005841C0B210BDC04688310020F0B5344E7D
:1075300085B0320033480C00FFF7D8FB050000206F
:10754000854220D12000310008F07EF90400280097
:10755000002C18D1FFF7DEFF002816D02000FFF71F
:107560005FFF06040502360EC0B2FFF70FFF2D0EB7
:1075700030000134FFF70AFFE4B22800FFF706FFEE
:10758000102CEBD1012005B0F0BD0400FFF7C2FFC5
:107590001D4D061E2ED11D4F01000122380002F0A4
:1075A0008BFD310000900122380002F085FD310092
:1075B00001900122380002F07FFD154B07001E8864
:1075C000009BA619DA43B6B2D2B231002800FEF70A
:1075D000CFF9019B711CDA432800D2B2FEF7C8F93B
:1075E000FA430334D2B2B11C2800A4B2FEF7C0F9AA
:1075F000302CCBD12800FEF7BFF9FFF7D5FEC1E74D
:1076000064480100C32A00204C0800208831002073
:10761000F82A0020F0B585B002932F480AAB0C0081
:1076200017001E78FFF762FB05000020854251D14C
:107630002000390008F008F904002800002C49D186
:10764000422373430193FFF765FF00281BD0F02608
:10765000019AA3B293423CD2029B20481919FEF72B
:1076600067F905000011C0B2FFF790FE29001C4F1A
:10767000B1430A22380002F09EFA2021380002F0BD
:107680003FFA0134E4E70400FFF744FF134F061EFE
:107690001AD1019AA3B29A4216D9114D01000122C2
:1076A000280002F009FD012203903100280002F0B9
:1076B00003FD039B1A01029B12181919D2B238005C
:1076C000FEF742F90134DFE73800FEF755F9FFF71E
:1076D0006BFE012005B0F0BDC32A00204C0800203D
:1076E000883100207047704713B5134BC27A416848
:1076F0001B6804009B1A0878DBB2984218D812184D
:10770000E2724A782089217BFCF704FD01AB1870F6
:1077100002040002120E000E5A709870A37A228999
:107720009B189BB2FE2B04D823810198FCF792FA98
:1077300013BDFF3BF8E7C046B804002037B54368E7
:10774000C27A19781C4B04001B689B1ADBB2994261
:107750002FD852180121C272184A13680B4002D167
:1077600017481160037000252089842D1BD0AB08B9
:107770001B01C01880B2FE2801D9FF38FAE7636800
:10778000217B5A78FCF7C6FC01AB1870020400029A
:10779000120E000E98705A70280001990135FCF7FE
:1077A000D9F9EDB2E0E7A37AC01880B2FE2801D87B
:1077B000208137BDFF38FBE7B80400202C050020EE
:1077C00030050020417070474170704728223221F7
:1077D000034B1A705970034B1A70D2325A707047AB
:1077E000FA2A0020FC2A002013B508780C00C043B8
:1077F000C3B21A0023209911C9435A434042584347
:1078000052430012120E8A1A2330D2B2C0B2FF21A4
:10781000FCF780FC6B466A46187003041B0E53701D
:1078200000022378000E9070032B0ED800232370E3
:107830006B461A8899781000FF23120A184012022A
:107840000B401B041043184316BD043BEFE7000038
:10785000F0B5234F85B03B680500002B3DD0214E8D
:1078600003893268D31A204A9BB212889A4234D8CC
:107870000024E3B20093502C2DD02B1902AA0193BF
:107880009B7AD11C0B70002B10D0386803681B68E2
:10789000984703AB187002040002000E120E987095
:1078A0005A706B4603991878FCF760F902AB033302
:1078B0001B782A199372002B0BD10C4A517813783C
:1078C00009020B439178090419436B461878FCF7B9
:1078D0004DF90134CDE733682B8105B0F0BDC046CA
:1078E000042B0020B804002040000020FF2A0020C4
:1078F00010B5416000210400044B0181083303608E
:1079000050220A3007F011FA200010BD9C480100F7
:107910000A784F2A09D8064B01781B78994204D17E
:10792000044B1B689B18FF229A7200207047C046C8
:107930002600002034050020014B08330360704707
:10794000B4480100FF22014B1A707047FE2A002044
:1079500070B590220025074B0400083305710360C1
:1079600029005200053007F0E0F92623FF33E554E3
:10797000200070BD504901004B7810B59B070DD514
:107980002623FF33C45C064A0B78D25C9023634302
:10799000C3189B187F225A7100230371002010BD69
:1079A000C04801000A78030010B500204F2A08D80B
:1079B0001A78044B1B789A4203D1034B1868FFF7DF
:1079C000DBFF10BD260000203405002010B5122476
:1079D00054430C19E0B27F241C541818002A06D115
:1079E00060238374002909D16023437010BD030014
:1079F0006024123B1C70062AF4D8F1E76022431E73
:107A00001A701029F2D8EFE710B58024084A094906
:107A10001368E40001330B401C43074B14601868E3
:107A2000282104F03FFA2378C018C0B210BDC04628
:107A300048000020FF4B0000B8040020F0B5844B44
:107A4000282187B00400186804F02CFA814BC2B2D8
:107A50001978914200D1A6E001211A707E4A0D00EA
:107A6000137808400133137026222379FF32013343
:107A700023719023A65C009075405D4373430535E8
:107A800005336519E31802950193FF260392002838
:107A900000D18AE0714B1B88002B3CD00021704D37
:107AA0006956002908DB6F4FC9B23A78019B200064
:107AB000FFF78CFF3E702E70684D2821288804F057
:107AC000F1F9694E80B233782779C018874222DBFA
:107AD0002000FFF799FF782104F06AFA0431317031
