:10200000008000204D9300003593000035930000C0
:1020100000000000000000000000000000000000C0
:1020200000000000000000000000000035930000E8
:10203000000000000000000035930000A1930000A4
:102040003593000035930000359300003593000070
:10205000359300003593000035930000399300005C
:102060003593000081920000359300003593000005
:1020700059920000359300009192000035930000C2
:102080003593000035930000359300003593000030
:1020900000000000359300003593000035930000E8
:1020A0003593000035930000359300003593000010
:1020B0000000000010B5064C2378002B07D1054B1B
:1020C000002B02D0044800E000BF0123237010BDA4
:1020D0001003002000000000683D0100044B10B513
:1020E000002B03D00349044800E000BF10BDC046E8
:1020F0000000000014030020683D010010B50088B6
:1021000003F0C4F910BD000010B5012003F0BEF9C2
:10211000044B01001880044806F002F90022034B2A
:102120001A7010BD2E030020290B00203003002060
:1021300010B50D4C2378002B0FD103F01FFC9F230B
:102140009B01984203D19620800003F059FC0020A7
:1021500003F0F4FF237801332370044B22781988AD
:10216000034806F0FDF810BD300300202E030020C8
:10217000290B002070B5154E154832000D000024C3
:1021800003F03AFBA04216D1310028000CF00CF904
:10219000A04210D10F4D280007F0EAFF0E4E0200BA
:1021A0000A280AD13178280007F0F9FC20212800FC
:1021B00007F08AFC0124200070BD012221002800C4
:1021C00007F086FF3070FFF7B3FFF3E714FB000062
:1021D0003E0A0020343300203003002073B51D4C2C
:1021E00023784F2B1DD81C4D280006F034FB002807
:1021F00019D1280006F02CFB0223184005006B1EA5
:102200009D41164EEDB2002811D13378002B07D036
:10221000134B21781868002802D00368DB689847C0
:102220003570002076BD06F055FA407FE4E70D4B8F
:1022300000221878FF2105F079FD01AB1870020427
:102240000002120E000E98705A700199207803F067
:1022500011FFE5E7000000206C2B00203203002076
:10226000840A002033030020FF230A4930B50B7095
:1022700000230948DCB2502B08D05A0012185578B8
:102280001278392A04D1002D02D10C70002030BD03
:102290000133EFE7000000201F04002010B5FFF716
:1022A000E3FF10BD10B5FFF7DFFF10BD002802D01F
:1022B000024B416003600A707047C046380E01004F
:1022C000002807D0044B4160036080235B028360D9
:1022D000FF2303737047C046F8100100002807D0A1
:1022E000044B4160036080235B028360FF23037320
:1022F0007047C046E010010010B5044805F07EFCB0
:10230000034B1A68034B1A6010BDC046020B002035
:10231000A40300203C03002070B504000D0016004B
:10232000002801D003F020FE2E70200070BD10B5F3
:102330000368C9B21B68984710BD704710B50524E3
:102340000800220002490BF084FA200010BDC046AC
:10235000FDFB000010B5002802D0022803D010BDFC
:1023600003F0A0FFFBE703F07BFFF8E710B5FFF7F2
:10237000F1FF10BD10B50E4803F0B6F80D4802F09D
:102380004FFF0D48FFF78AFF0C4803F075FF0C481C
:1023900005F010F80B48FFF7B1FE0B4803F050FBB7
:1023A0000A4805F0D5FA0A4804F02EFC002010BDBA
:1023B000350A00202F0A002031030020820A002065
:1023C000CA0A002034030020670A0020D00A002037
:1023D000960A002010B5054803F02CF9044803F0D4
:1023E000D7FA044803F088FA10BDC046350A002029
:1023F000670A00205F0A002010B50448FFF752FF6B
:10240000034801F029FE002010BDC0463103002022
:102410001107002010B5024804F0E4FF002010BDB1
:10242000CA0A002010B50D4804F0FEF90C48FFF769
:10243000D5FE0C4803F0C2FE0B4805F02DFA0B4800
:1024400002F014FC0A4803F017FA0A4804F0DAFA1A
:10245000094804F039FE002010BDC046930A002050
:1024600031030020820A0020D00A00201A08002030
:102470003E0A0020960A0020A20A002010B5044857
:1024800004F0B0FA034804F031FE002010BDC0464D
:10249000960A0020A20A00200420704710B50C0004
:1024A0000349C0000918082220000BF0D2F910BD22
:1024B000DCFB000070470000962170B589012848B8
:1024C00007F0C2FE274A284B28491A600A004B78B9
:1024D000DB09FCD1264B274919605378DB09FCD175
:1024E000254B264919805378DB09FCD10922244B5E
:1024F0001A70244B1900DA79D209FCD102321A7011
:10250000CB79DB09FCD101261F4B186800F0B2FB28
:102510000A2002F0A3FE0A211C4801F08DFDFF21D4
:102520001B4804F0A7F8FF211A4804F0A5F81A4D3B
:102530001A4C2B68334203D1200003F03BFD2E6080
:102540008021174BC90000201C6002F063F9802035
:10255000000101F051FEFFF7D7FDFFF7E9FD70BD67
:102560003433002002040000080C0040000C00403E
:10257000040C004002031300020C00400342000060
:1025800001100040001000404C090100110700201C
:102590008E0A0020900A0020380300209C030020AF
:1025A000780A002007B51E4BDB79DB0902D1A52292
:1025B0001C4B1A601C4B186800F0DEFB1B4B1C4ABE
:1025C00019681268521A1B498A4201D900221A60FE
:1025D0001B68002B23D0184806F03DF9002800D0D6
:1025E00078200022FF2105F0A1FB01AB1870020446
:1025F0000002120E000E98705A700199402003F0EC
:1026000039FD0199302003F035FD0199422003F096
:1026100031FD0199062003F02DFD03F057FD07BDA4
:1026200000100040081000404C0901003C0300204D
:10263000A4030020102700006C2B002070B50400BC
:102640000D00160013780A780100244800F0F4FA0F
:10265000012801D1012070BD33782A78210020485B
:1026600003F030FE0128F5D033782A7821001D4888
:1026700003F08AFC0128EDD033782A7821001A482B
:1026800003F0A8F90128E5D033782A78210017480B
:1026900005F096F80128DDD033782A782100144817
:1026A00002F094FB0128D5D033782A782100114814
:1026B00001F0D6FE0128CDD033782A7821000E48CB
:1026C00004F0F8F90128C5D033782A7821000B48A6
:1026D00004F070FD013843425841BCE7A1030020DB
:1026E000820A0020740A0020670A0020D00A002015
:1026F0001A08002016070020960A0020A20A0020CF
:1027000007B501AB197011006A4607321170190044
:10271000FFF794FF0EBD00000822014B1A8070479E
:1027200034030020F0B5394B85B0019300230390AA
:102730000093374D0399280006F03BFC0121280047
:1027400006F094FCFF21019B28001C882140FFF724
:10275000EEFD21122800FFF7EAFD280006F0E3FC59
:102760000700012006F030FE002F4CD1284C0399C1
:10277000200006F01EFC2000022106F077FC254C0C
:10278000FEB21037BE421ADA234B009A9B199B5CAB
:102790001F481900029306F069FC029B1F4A5C4027
:1027A00008230120611020408CB2002801D0514044
:1027B0008CB2013B002BF4D10136F6B2E2E7FF21E7
:1027C00028002140FFF7B3FD21122800FFF7AFFDDD
:1027D00000212800FFF7ABFD280006F0A4FC032829
:1027E00011D1023806F0F0FD402FBFD1019B02331A
:1027F0000193009B40330093B823009A1B019A4237
:1028000097D1012000E0002005B0F0BDF0080100E4
:10281000602C0020FFFF00006FFD000001A0FFFF03
:10282000F7B52B4C07000E000100200015000193A6
:1028300006F0BFFB0621200006F018FCFF21200057
:102840002940FFF774FD29122000FFF770FDFF23D8
:10285000019920001940FFF76AFD019B2000191221
:10286000FFF765FD0021200006F025FC051E11D1B3
:10287000642006F0A9FD03223900200006F0F1FBD8
:10288000200006F055FC3070200006F025FB0028E3
:1028900002D1FF252800FEBD200006F049FC0700FC
:1028A000200006F019FB0028F3D0200006F040FCC1
:1028B0000190200006F010FB002803D0200006F055
:1028C00037FCF6E7019BFFB21B021F437780E1E76D
:1028D000602C002073B5114C06000100032220007B
:1028E00006F0BFFB200006F0F7FA002803D0200016
:1028F00006F01EFCF6E70A4D01AC2900094B30003A
:102900000422FFF78DFF2900042220000AF0A1FF16
:10291000638820881B04184376BDC046602C0020C5
:10292000020000207C0B0000F0B55A4A85B006007A
:1029300059480C0002F060FF00230500984222D1A4
:102940000922564920000BF048FD2B0000281AD11F
:102950000934534920000BF027FD002816D05149B7
:1029600020000BF021FD002849D04F4920000BF03A
:102970001BFD002845D020004C490BF015FD5124CB
:102980002B0000283ED0180005B0F0BD50242F00C9
:10299000474800F027FF2000002F6DD1FFF79AFF76
:1029A0000390C0B2FF285ED002ABDA88414B9A4256
:1029B00059D0414F2100380006F0FBFA04213800BD
:1029C00006F054FB380006F0AEFB0190FA208000C0
:1029D00006F0FAFC019B002B45D031002000FFF7E8
:1029E000A1FE00283FD0354B042203A92000FFF7A9
:1029F00017FF002808D0642006F0E6FCF3E7512416
:102A0000C5E750240127C3E7012104228C46294B46
:102A100008262B49895C4B406046591018408BB200
:102A2000002802D0274B59408BB2013E002EF3D133
:102A3000B821013209018A42EAD102AAD2889A4217
:102A400011D12100380006F0B4FA0321380006F055
:102A50000DFB31003800FFF76AFC380006F063FB1D
:102A600043425841C5B2280002F0E2FE2021164838
:102A700007F02AF8012386E7FFF72CFF0390C0B286
:102A8000FF28F0D002ABD888104BC018431E9841E5
:102A9000E8E7C04629FB00003E0A002091FB000049
:102AA0009BFB0000ABFB0000BCFB00007FFB0000B9
:102AB000270B0020FFFF0000602C00207C0B000093
:102AC0006FFD000001A0FFFF343300200100FFFF75
:102AD00010B501680400344800F08EF8012801D1D7
:102AE000012010BD2168314802F014FC0128F7D004
:102AF00021682F4802F0AAFD0128F1D021682D4855
:102B000002F01EFE0128EBD021682B4803F014FCD4
:102B10000128E5D02168294803F0C4F80128DFD056
:102B20002168274801F0A8FA0128D9D02168254852
:102B300002F0AEFF0128D3D02168234800F066FFE1
:102B40000128CDD02168214804F094FF0128C7D086
:102B500021681F4802F0F6F90128C1D021681D48FC
:102B600001F098FC0128BBD021681B48FFF7DCFE70
:102B70000128B5D02168194802F052FE0128AFD0D3
:102B80002168174804F002F90128A9D021681548E6
:102B900003F09AFD0128A3D021681348FFF7EAFA51
:102BA0000138434258419CE7A00300202F0A00202F
:102BB000370A0020360A0020810A0020710A00200E
:102BC00011070020670A002010070020D00A00200B
:102BD0001A08002016070020360300203E0A0020B5
:102BE000960A0020920A00202C03002007B50190CD
:102BF00001A8FFF76DFF0EBD70B50B4E0B483200FC
:102C00000D00002402F0F8FDA0420AD13100280096
:102C10000BF0CAFBA04204D10549064806F045FF67
:102C20000134200070BDC04643FD00003E0A002074
:102C30004BFD00003433002010B5024802F0CAFEFC
:102C400010BDC046670A002070B5084D040028007A
:102C500005F001FE2100002803D1280005F02EFE1A
:102C600070BD034805F054FFFAE7C0466C2B002006
:102C7000B82B0020962110B58901064807F0E4FA28
:102C8000FFF75BFBFFF776FB00F02AFE024800F03F
:102C900043F910BD34330020A803002070B58379B8
:102CA000457904001D402B0702D5E120FFF7CCFF3A
:102CB000EB0702D5E020FFF7C7FFAB0702D5E22004
:102CC000FFF7C2FF6B0702D5E620FFF7BDFFEB065B
:102CD00002D5E320FFF7B8FF164D280005F0BBFD35
:102CE000E179061E10D100290AD0280005F003FE64
:102CF000280005F0B7FDE179280005F0DFFDE67159
:102D0000280005F0AFFD70BD0B4D00290BD0280049
:102D100005F019FF280005F0ABFEE179280005F069
:102D2000F7FE0023E371280005F0A2FE034805F03A
:102D30005DFEE8E76C2B0020B82B0020982B0020CC
:102D4000002310B5094CC3718371200005F083FD89
:102D5000002803D1200005F0F7FD10BD044805F060
:102D60000EFF044805F032FEF7E7C0466C2B00204A
:102D7000B82B0020982B002010B506F01FFB094B44
:102D80001860FFF727FB00F02BFCFFF74BFB064C0E
:102D90002000FFF783FF2000FFF7D2FFFFF76EFB55
:102DA00010BDC046A4030020180B00205023584338
:102DB000C9B2411806484900091808784A78AF3363
:102DC000184013401B0282B0184302B07047C0463F
:102DD00003FC000070B5084AC3B25D00011CD05C62
:102DE000064B074C1B68984700B22855000464192D
:102DF000000E607070BDC046CF03002008000020A8
:102E00001F0400200300034A1068D8400123184023
:102E10007047C046AC030020F0B5164F85B0502275
:102E2000002138000AF031FD0025EBB20193502D4E
:102E30001ED00024104B1C5763B2002B16DD0F4B25
:102E4000013C1E5D3000FFF7DDFF0028F4D06A462C
:102E50000B4B11791B683000984703AB1880C0B248
:102E6000FF2802D15B78FF2BE6D07E550135DCE7E9
:102E700005B0F0BDCF03002007000020B003002004
:102E80000800002010B5094B094A1B7898429B4165
:102E900018400123190081401160064A1370064B47
:102EA0001870FFF7B9FFFFF7A7FA10BD0600002062
:102EB000AC03002007000020B0030020134970B5C8
:102EC0000B6801221C00C44014421DD08240104DEA
:102ED00093432C780B6023000E4E3219002B07D041
:102EE00000215156013A884202D0013BDBB2F5E79E
:102EF000591CE21A7118F018013C0AF0B3FC2C704E
:102F0000FFF78AFFFFF778FA70BDC046AC030020D8
:102F100007000020B00300200123084A10B5116803
:102F200000240B431360FFF777FF201C0134E4B249
:102F3000FFF750FF502CF8D110BDC046AC03002065
:102F400010B50D4B04001B78834213D9FFF75AFFCD
:102F500000280FD10123A340084A11680B431360D6
:102F6000074A1378591C1170064AD454FFF754FFCE
:102F7000FFF742FA10BDC04606000020AC03002057
:102F800007000020B003002010B5054B1A78054B50
:102F90009B18013B18780130C0B2FFF7D1FF10BD7C
:102FA00007000020B003002010B5044B1A78044B32
:102FB0009B18013B1878FFF781FF10BD0700002028
:102FC000B003002013B5C4B201AB1880532C09D94B
:102FD00003231940022904D120005438C0B2FFF75E
:102FE00051FF13BD292C2BD92A3CE4B2212C0DD042
:102FF000222C12D103231940022902D1FFF7C4FF6A
:10300000EFE70129EDD1FFF7CFFFEAE703231940EE
:103010000229F8D00129E4D1F0E78B0708D5200078
:10302000FFF7F0FE0028DCD12000FFF789FFD8E78A
:10303000032319400129D4D12000FFF73FFFD0E737
:10304000032319400229CCD12000FFF7DBFE002822
:10305000EAD0002CE8D0EFE730B585B001AD03042D
:1030600028801B0E03AC442B07D083B223806378E7
:1030700020781B02184305B030BD11000198FFF7FE
:10308000A1FF0023F2E7000070B5074E0D00040019
:103090000100300005F044F9611C2870300005F093
:1030A0003FF96870280070BD290B002010B504009E
:1030B0000100012006F044FC014B1C7010BDC0460D
:1030C000BF040020C3430A49DBB2D93110B50B70ED
:1030D0000849094CD9310B70084B02001870084B95
:1030E0002000198805F03CF9200005F03DF910BDDD
:1030F000C8040020C0050020290B00200E0000207D
:10310000C204002010B504000B4B0C4A0C490D48BA
:103110001B681268096800688EB0029001910092E5
:103120002121094A05A80BF00DF905A9200008F096
:103130007CFB20000EB010BD0CA0800040A08000E1
:1031400044A0800048A080005009010073B5204DC4
:10315000204C2978200000F085FD29781E4D28009C
:1031600000F080FD1D4B22001B78D932DB43DBB21F
:1031700013702A00D9321370200000F0D3FD06002E
:103180002800F6B200F0CEFD154B012E03D0C0B2E0
:103190000022012800D101221A70220000233932B6
:1031A000137022003A3213700E4A3B3412782370A7
:1031B0009A420CD001AA13809370019802F09EFFEE
:1031C000094B1868002802D003685B68984773BDF4
:1031D0000C000020C8040020C00500200E000020C4
:1031E000C404002023000020840A002010B5FFF74B
:1031F00069FF00230122044804491A545A54013338
:10320000092BFAD110BDC046B8060020C106002027
:10321000014B18787047C0460E00002070B580241E
:103220000D4E0E4D33786400E95C0320611A0902EB
:10323000013906F04FFA73780520E95C611A09023A
:10324000013906F047FAB3780420E95C611A0902F3
:10325000013906F03FFA70BDCB060020B70A010025
:1032600070B50024104DE6B2635D002B05D031002F
:103270000E4800F093FD002363550D4D635D002B58
:1032800005D031000B4800F089FD0023635501345F
:10329000092CE7D1084C2378002B03D0FFF7BEFFA1
:1032A0000023237070BDC046B8060020C80400206B
:1032B000C1060020C0050020CA060020F7B501ABFA
:1032C0000191832818D81C7859789A78832814D1CA
:1032D0002C4801230578A54207D145788D4204D1B9
:1032E00083789B1A5D1EAB41DBB2274D04702E78AC
:1032F000417033432B708270F7BD244B1D788523BA
:103300005D43234B5B191B5C472B1BD803255D4397
:103310002048214E2D182878DB0884466F78A8783D
:103320002C706970AA70F55C00950125644505D183
:10333000B94203D1121A501E8241D5B2009A1543E8
:10334000F554D9E78F2BD7D80320483B5843134D6A
:10335000DB10401905784778AC46114D867804702B
:1033600041708270E85C00900120644505D1B9424B
:1033700003D1921B561EB241D0B2009A1043E854BA
:10338000BAE7C046CB060020CA060020C4040020CD
:103390005D090100C8040020B8060020C005002017
:1033A000C106002013B501AC83280AD9002323806D
:1033B000A37062782078A37812021B04104318438C
:1033C00016BD0C4B1A7885235A430B4B9B18195C7E
:1033D000472907D803225143084B591820000AF007
:1033E00038FAE6E78F29E1D8032248395143044BE4
:1033F000F3E7C046C40400205D090100C8040020B2
:10340000C0050020012110B5080006F04DFA00208B
:10341000FFF74CFE102006F025F9FFF7FFFE0A200B
:1034200005F0D2FF0120FFF741FEFA20400005F031
:10343000CBFF10BDF7B5394F0822390038480AF0E4
:1034400008FA384C0822210037480AF002FA374EB1
:10345000300000F06CFC002812D03100684600F00B
:1034600095FC0822694638000AF0F3F9304B1B78C6
:10347000012B05D1FA7802331A4201D05340FB7078
:103480002C4D280000F053FC002816D02900684677
:1034900000F07CFC0822694620000AF0DAF9244B8F
:1034A0001B78012B09D16278A1781000484018429E
:1034B00003D05A404B406270A3703300D8331B785E
:1034C000002B03D01C4B1B78002B08D02B00D833CB
:1034D0001B78002B05D0194B1B78002B01D1FFF76F
:1034E00035FED8363278002A07D1134B1B78002BD3
:1034F00003D00020002138607960D8352B78002B6C
:1035000007D10E490978002903D00020002120604E
:10351000616009490A70094A1370F7BDD806002096
:1035200000070020F006002008070020C804002043
:10353000C4040020C0050020E8060020F806002092
:10354000F0B5002685B000257300DBB20193204B57
:1035500077193A001868596808F02EFB02234400D6
:103560001C401C4B3A001868596808F025FB0122E2
:103570000240224307D0002302A90B80019B02983E
:10358000591904F0DFFD144B3A001868596808F027
:1035900013FB022344001C40104B3A001868596882
:1035A00008F00AFB01220240224308D0002103ABAD
:1035B0001980019903980F31491B04F0C3FD0135AF
:1035C000082DC4D10836282EBDD105B0F0BDC046A7
:1035D000D806002000070020F00600200807002081
:1035E00010B5FFF727FFFFF7ABFF10BDC0B210B556
:1035F0004F280CD80F22012302400009072A07D9BF
:103600001021054C8A1A9340225C9A43225410BD23
:10361000024C0821F6E7C046E0060020D006002054
:10362000C3B200204F2B0BD819000F221B091140E9
:10363000072906D90548C05C521A104101231840D9
:103640007047034AD05C0722F6E7C046E006002038
:10365000D0060020C0B202000F2300091A40072A3A
:1036600006D905499B1A085C184101231840704788
:10367000024B185C1041F8E7F0060020D806002045
:1036800010B5074B1868596808F0E0FA054B0400BC
:103690001868596808F0DAFA2018C0B210BDC046A0
:1036A000D8060020F006002070B50024064B01214A
:1036B000E55C0134280006F0F7F80021280006F048
:1036C0003FF9262CF2D170BDB70B0100014B1878E1
:1036D0007047C046BF040020481E814110B5C8B2E3
:1036E000FFF7E4FC10BD000010B5024800F00BFB32
:1036F000C0B210BDC804002010B5024800F003FBA2
:10370000C0B210BDC0050020014BE43318787047EB
:10371000C8040020014BE43318787047C00500202E
:1037200010B5024800F0F4FAC0B210BDC804002081
:1037300010B5024800F0ECFAC0B210BDC005002080
:1037400010B5024800F0E9FAC0B210BDC80400206C
:1037500010B5024800F0E1FAC0B210BDC00500206B
:1037600010B50C00034800F087FA2100024800F071
:1037700083FA10BDC0050020C8040020024B187851
:103780000138434258417047C404002010B5024834
:1037900000F07DFAC0B210BDC0050020014B1888B2
:1037A0007047C0460C00002010B50400FFF7AAFCCB
:1037B000200010BD0022002310B50749074C0A6005
:1037C0004B60074920000A604B60FFF7B9FA200000
:1037D000FFF764FA10BDC046D8060020180B002081
:1037E000F006002010B5134C200005F0DDFB002092
:1037F000FFF75CFC0121152006F056F8012114208A
:1038000006F052F80021152006F09AF80021142045
:1038100006F096F8FFF7CEFF0120FFF747FC2000E7
:1038200005F094FB0449200005F0B0FB642005F08E
:10383000CBFD10BD602C0020A086010070B51500E6
:1038400006000C00127804F08BFD30006A78611CD1
:1038500004F086FD280070BDF7B5022001F016FEC9
:10386000194E3080012001F011FE6B46174D9C1D52
:10387000288021003088FFF707FC2288144B154F61
:10388000154C9A4207D131883A002000FFF7D6FF45
:10389000200004F069FD30883900FFF7F5FB298826
:1038A000200004F03DFD0D4EFF2807D120003278A6
:1038B000298804F055FD200004F056FD29882000D9
:1038C00004F02EFD3070F7BDC0040020C2040020BB
:1038D000FFFF00000C000020290B00200E0000203C
:1038E00010B5FFF7B9FFFFF7DFFEFFF78BFD054CC3
:1038F000200005F02BFB0449200005F047FBFFF7F3
:1039000025FC10BD602C0020400D030070B50400A4
:10391000C5B22900094800F0A5F92900084800F0BF
:10392000A1F9084A084B1480084C19882000FFF7B9
:1039300085FF200004F018FD70BDC046C8040020BB
:10394000C00500200C000020C0040020290B00202E
:1039500010B50800FFF7DAFF10BD0000154B00227C
:103960001900D83110B50A701900D9310A70190040
:10397000DC310A6019005820E03108601900E43198
:103980000A70B221F033C90119800B4B01241800D1
:10399000D83002701800D93002701800DC30046092
:1039A00018005834E03004601800F033E43002703E
:1039B000198010BDC8040020C005002010B50122E8
:1039C00004000021024806F083FB207010BDC046B1
:1039D0003433002010B5054C0100200006F070F8CB
:1039E0002021200006F070F810BDC04634330020BE
:1039F00010B5054C01000A22200006F0D0F8202165
:103A0000200006F061F810BD343300207FB57E4AF7
:103A10007E480D00002401F0EFFEA04211D10922E2
:103A20007B4928000AF0D9FCA0420AD1093579491E
:103A300028000AF0B9FCA04206D17748FFF7CAFF78
:103A40000124200004B070BD744928000AF0ACFCC9
:103A5000002801D17248F1E7724928000AF0A4FC5D
:103A6000002810D101A87049FFF79EFE6F4C01A9F4
:103A7000200006F01EF82021200006F025F801A8FD
:103A800007F08BFEDCE76A4928000AF08DFC00286D
:103A900014D1664806F06CFB664C0A2805D120005C
:103AA000FFF714FEFFF7A4FFCAE701AD2800FFF7F8
:103AB00085FF29782000FFF70FFEC1E75E49280047
:103AC0000AF072FC00280FD15C48FFF783FF594CC5
:103AD0002000FFF709FEFFF78BFF5948FFF77AFF39
:103AE0002000FFF709FEDDE7564928000AF05CFCDC
:103AF00000280FD15148FFF76DFF4E4C2000FFF713
:103B000003FEFFF775FF4E48FFF764FF2000FFF745
:103B100001FEC7E74C4928000AF046FC00280FD1F7
:103B20004648FFF757FF434C2000FFF7F9FDFFF72A
:103B30005FFF4348FFF74EFF2000FFF7F9FDB1E7B5
:103B4000424928000AF030FC00281DD1374806F011
:103B50000FFB384C0A280ED13848FFF73BFF2000F6
:103B6000FFF7EEFDFFF744FF3548FFF733FF200076
:103B7000FFF7EEFD96E701AD2800FFF71FFF29785C
:103B80002000FFF7EDFD5BE7314928000AF00CFC4F
:103B9000002808D12448FFF7F1FD2E4B012800D062
:103BA0002D4B18004AE72D4928000AF0FDFB00289C
:103BB00003D11D48FFF7EAFD74E7294928000AF000
:103BC000F3FB0024A04200D03BE7184C200006F095
:103BD000CFFA154D06000A280CD12800FFF7DEFDAC
:103BE00032000100200005F0CAFF2021200005F06E
:103BF0006BFF25E701AC2000FFF7E0FE21782800ED
:103C0000FFF7A6FE1CE7C046E60B01003E0A0020B7
:103C100091FB000043FD0000AC0C0100B80C01005A
:103C2000C10C0100A40C0100280B0020343300203B
:103C3000CB0C0100270B0020D60C0100DF0C01008B
:103C4000E50C0100ED0C0100F80C0100010D010074
:103C50000E0D0100DD0B0100E20B0100150D01004E
:103C60001B0D010007B5022201AB5970E0301900AD
:103C70001A7000F01DF90EBD07B50D2201AB1A70C8
:103C80005970E0300B3A190000F012F90EBD37B54B
:103C90000B236A46E030137069460122040000F0ED
:103CA00007F9002802D0012040423EBDA0239B001E
:103CB000013BFDD101AD02222900200000F03AF9BC
:103CC0000228F0D168782B780002C018EDE737B5EC
:103CD0006B46E030197001226946040000F0E8F8F4
:103CE000002802D0012040423EBDA0239B00013BA2
:103CF000FDD101AD01222900200000F01BF90028B0
:103D0000F0D02878F0E710B50121FFF7E0FF10BDF3
:103D100010B50821FFF7DBFF10BD10B50D21FFF72F
:103D2000D6FF10BD10B50C21FFF7D1FF10BD13B5A4
:103D3000040006220021684609F0A7FD20000622A3
:103D4000E030694600F0F6F8831F5A4253412200E2
:103D5000D83213700023062816D16A461278012A39
:103D600012D1694623004978E83319706946897889
:103D7000EC3459706946C978997069460979D970E7
:103D80006B465B7923701300180016BD10B5040054
:103D9000E831082209F05DFD200010BD0B00F0B5F0
:103DA0008DB0803B05AE33700300D9331B7805001E
:103DB000019318234B43029303000124F13303932F
:103DC000029B0199E318013BEB5C0022994201D26E
:103DD0005B1ADAB20D4B03219F5C2000375507F0C8
:103DE000E5FE012906D1039B63311878784307F07B
:103DF000F7FD30550134192CE2D1280022003100A2
:103E0000E03000F055F80DB0F0BDC046230D0100C4
:103E1000F7B5264E0190300005F0C6F801211420B8
:103E200005F042FD0121142005F08AFD0121152035
:103E300005F03AFD0A24152750250121380005F028
:103E40007FFD2B00013BFDD10021380005F078FDFE
:103E50002B00013BFDD1013C002CEED121001420B0
:103E600005F06EFD013DFDD120250121152005F055
:103E700067FD2B00013BFDD10121142005F060FD01
:103E8000013DFDD11420210005F00EFD210015207B
:103E900005F00AFD300005F059F8FA21019B890070
:103EA000DB883000594305F071F8F7BD602C002025
:103EB000F7B51E4C0E0001682000C9B2170005F0CE
:103EC00078F800211A4B0A00FF2518122A40974261
:103ED00010D9725C01315A4052B2D3B21B015A4020
:103EE000D2B213119C466546D30012026B401043B8
:103EF0004340E8E701AD28703A00310020006B70C4
:103F000004F0CAFF002801D10120FEBD02222900D1
:103F1000200004F0C1FF0028F6D00121200005F0A8
:103F2000CAF8431E9841C0B2EFE7C046602C00209B
:103F3000FFFF0000F7B50368244E01910092D9B24B
:103F4000050002320123300005F04BF80027040081
:103F5000B84204D12800FFF75BFF2000FEBDFF231D
:103F6000009A3B403000934205D205F0E1F8019BF6
:103F7000D8550137F3E705F0DBF80400300005F011
:103F8000D7F8FF26002124022018114A87B20B001F
:103F900000983340984210D9019B5B5C013153403B
:103FA0005BB2D8B200014340DBB21C11D800121240
:103FB0001B0260401A434240E9E76B461C78BA4254
:103FC000CBD02B79002401332B71C6E7602C002065
:103FD000FFFF00007047704710B5084B1A78084B78
:103FE0009B18013B1978074B1970074B1B788B42C4
:103FF00003D3064B188801F011FE10BD0700002006
:10400000B00300201207002013070020140700202F
:1040100010B50A1C054B06491B780978994204D350
:1040200004490888190001F013FE10BD1207002092
:10403000130700201407002010B5054C2388002B1F
:1040400005D1044B0800197001F082FD208010BDDD
:10405000140700201307002010B5054B02781B78C9
:104060009A4203D1034B1868FFF7B6FF002010BD3A
:1040700022000020840A002007B5054A054B12786B
:104080001B8805480092054A01F080FE0EBDC0461F
:104090001307002014070020710A0020230E0100DE
:1040A000FF22014B1A7070471107002010B5010064
:1040B000014804F035F910BD290B0020FA21F8B5AC
:1040C0008900050007F002FCFA2184B2890028006B
:1040D00007F082FCFA27A5268DB2BF002800002C2D
:1040E00000D0380005F070F9044B013CDB79DB09A6
:1040F00001D1034B1E60631CF0D1F8BD00100040DD
:1041000008100040F8B507F03EFBFA2189000500D1
:1041100007F066FCFA2104008900280007F046FD3C
:10412000FA270E00A525BF00002C0DDB3000002C67
:1041300000D0380005F048F9044B013CDB79DB097D
:10414000F2D1034B1D60EFE7F8BDC0460010004000
:1041500008100040F7B50024244F254B3E881C80F2
:104160000194244A3B8812889B189E423DDA751CB4
:104170003000ADB2FFF79AFF0D280BD807F092FB85
:104180002807070C0C0C0707070909090E1E023641
:10419000B5B200242E00E4E70336F9E72800FFF764
:1041A00085FF6C1CA4B206002000FFF77FFF0643CA
:1041B0000235F4B2ADB2002CF0D1EBE72800FFF7E6
:1041C00075FF0135ADB204002800002CF7D1E1E7FE
:1041D000019B07490133DBB25A0001933B88EB1A7C
:1041E0008B52002C01D10134D4E7F7BD1807002011
:1041F0001C0700201A07002010B5040001F046F942
:10420000034B1880034B1C80FFF7A4FF10BDC04672
:10421000180700201A0700207FB501AC20800E008F
:1042200015008B0710D582B202AB1A80104B822288
:104230001978029803F086FF002D05D10D48FEF78E
:104240002DFD0D4804F0CCFCF30710D5228803ABFC
:104250001A80074B81221978039803F073FF002D11
:1042600005D10448FEF71AFD034804F0B9FC7FBDF0
:10427000480E0100180B0020042C002073B50E001E
:104280001D001400FFF712FF01AB5E7018702A00CA
:1042900021000198FFF7C0FF73BD0000F0B50027B3
:1042A000694B4900CC5A694B85B018882418A4B2D0
:1042B000651C2000ADB2FFF7F9FE0D2800D9BEE065
:1042C00007F0F0FAB21B3A4A57626D777CBF0714C9
:1042D000829C0027002005F077F85D4BDB79DB0935
:1042E00002D1A5225B4B1A602C00E1E75A48FEF789
:1042F000D5FC5A4804F074FCECE72800FFF7D6FE22
:104300000600A01C80B2FFF7D1FE0090E01C80B236
:10431000FFF7CCFE0190201D80B2FFF7C7FE019B86
:1043200036021902009B01431E43651D89B2B0B2DB
:10433000ADB2FFF7E7FECDE72800FFF7B7FEE51CBB
:1043400002340600A0B2FFF7B1FE3602304380B25D
:10435000ADB2FFF7B3FEBDE72800FFF7A7FE3B00B5
:104360000222E51C02340100ADB2A0B2FFF786FFC5
:10437000B0E72800FFF79AFEE51C02340100ADB259
:10438000A0B23B000122F1E72800FFF78FFEE51CF9
:1043900002340100ADB2A0B200230322E6E73B00E5
:1043A00002220234A4B200212800FFF767FF250093
:1043B00090E70234A4B23B000122F4E70023023468
:1043C000A4B203221900EFE72800FFF76FFE6E1C6E
:1043D000B6B204003000FFF769FE060003AB5C7064
:1043E0001870002203210398FFF716FF0235002002
:1043F000ADB2FFF763FE3443E6D16BE72800FFF769
:1044000055FE002403AB18705C70220003210135B7
:1044100006000398FFF700FFADB22000FFF74EFE45
:104420002800A642EBD155E702F0AAFE002806D0EC
:1044300002F0FEFD002802D1013002F0A3FF05B01A
:10444000F0BD012746E7C0461C07002018070020E2
:104450000010004008100040180B0020042C002021
:1044600010B54A78097812028918094A89B28A185F
:1044700092B200247F2A08D8032201341340022B71
:1044800003D15C39C9B2FFF709FF200010BDC04657
:10449000A42D0000F7B53C4A01903C480D0001F006
:1044A000ABF90023040098425AD10722384928006A
:1044B00009F093FF2300002852D107353549280021
:1044C00009F072FF041E36D1334E300005F050FE65
:1044D0000A2814D1314B1B88A3422CD9304B1888A1
:1044E0000019FFF7E3FD0A220100300005F057FB39
:1044F00001342021300005F0E7FAA4B2EAE73000E9
:1045000005F036FE274F0A2810D001220021300086
:1045100005F0DEFD631C9BB20093214BC2B21988EB
:104520003800091903F008FF009CE8E7380003F0A1
:104530001BFFFFF70FFE1C49280009F035FF011E85
:1045400007D10122144805F0C3FDC1B20198FFF75D
:10455000A5FE1649280009F027FF002802D00123F4
:104560001800FEBD0C4C200005F002FE02000A28D7
:10457000F5D10A4B2000198805F001FB202120000D
:1045800005F0A2FAEBE7C046490E01003E0A002002
:10459000710E01002C0E0100343300201A07002098
:1045A00018070020290B0020790E01006A0E010077
:1045B00010B5054C01000A22200005F0E0FA202188
:1045C000200005F081FA10BD3433002010B50248F8
:1045D00003F0CAFE10BDC046290B002070B5074E7F
:1045E0000D0004000100300003F09AFE611C2870E9
:1045F000300003F095FE6870280070BD290B002084
:1046000070B5074E0D0004000100300003F088FE75
:10461000611C2870300003F083FE6870280070BDB4
:10462000290B002070B50E000400064D0A78010029
:10463000280003F095FE28007278611C03F090FEBC
:1046400070BDC046290B002010B5012204000021D6
:10465000024805F03DFD208010BDC04634330020E7
:10466000F0B5504C85B020884F4A030008339BB208
:104670000193002313704D4A138002AB9D1C290047
:10468000FFF7ACFF2A884A494A4B4B4D8A4200D972
:1046900061E01A80208803AE0230310080B2FFF75B
:1046A0009DFF3288454E464BB2425AD01A80208830
:1046B00002AB9F1D043080B23900FFF78FFF3A88AC
:1046C000404BB24253D01A8021882800063189B26B
:1046D00003F026FE3C4BFA284FD81870218828009A
:1046E000073189B203F01CFE384BFA284BD81870FA
:1046F00000252C002B4E364A3388128808339B182D
:10470000019A9A4225DA11002B4803F009FE019B19
:1047100002339BB2019300283BD1244861003388C7
:10472000019A0F5AD21AD21B0E3A574257413A01F8
:1047300094461022274E01348F5DE4B297436246BF
:1047400017438F5501996200CB1A083B1352002D75
:1047500021D005B0F0BD1A782188280003F0ECFDC7
:1047600098E71A782188280003F0E6FD9FE71A7879
:104770002188280003F0E0FDA6E71A7821882800A8
:1047800003F0DAFDAAE71A782188280003F0D4FDA7
:10479000AEE70025AEE7044A012513780133137014
:1047A000A8E7C046200800202A0800202E08002084
:1047B000CF07000018000020290B0020FFFF000099
:1047C000160000201000002013000020140000201C
:1047D000220800202E090020094B0A4A1B782433A6
:1047E000DBB25B00D11848780621042801D80649BD
:1047F000095CD3185970054B1A68054B1A8070472D
:10480000250800202E090020810E0100A4030020AD
:104810001C08002070B505000800083080B20C00AC
:1048200000F034FE044B1880044B1C80044B1D70B8
:10483000FFF716FF70BDC0462008002022080020A8
:104840002E0A0020F0B585B01C0006000D1C019258
:104850001300062A00D10423B94ABA481778013B4D
:10486000F21B5100085A0132B6495B0052001B1876
:10487000525A9BB200209A4223D9B34A1278D719D0
:10488000BE421EDCB14F02A93888013C083018181E
:1048900080B2FFF7B5FE0120032C12D8200007F0EC
:1048A0000BF89600040004002B0102AB5C7818782A
:1048B00024022418A4B2012C2FD1019B042B02D076
:1048C000012005B0F0BD9E4B9E4A1B7803A9F61A45
:1048D00076003B88905B0833C01880B2FFF790FEEB
:1048E0008222291C039803F02DFC994E3000FEF71C
:1048F000D5F98122291C039803F024FC3000FEF72F
:10490000CDF98222291C039803F01CFC3000FEF72D
:10491000C5F98122291C039856E08E4B5438E218C1
:10492000C0B2092A66D98C4B9C4209D98B4B9C4258
:104930000BD821005C39C9B28948FFF7AFFCBFE74B
:10494000FF2C02D9874B9C4208D98222291C02984D
:1049500003F0F8FB7E48FEF7A1F9B1E72412E30764
:1049600007D5E02203AB1A80291C5E3A039803F0B6
:10497000E9FBA30707D5E22203AB1A80291C603AA2
:10498000039803F0DFFB630707D5E62203AB1A8029
:10499000291C643A039803F0D5FB230707D5E122CD
:1049A00003AB1A80291C5F3A039803F0CBFBE306A4
:1049B00007D5E32203AB1A80291C613A039803F060
:1049C000C1FB82220298291C03F0BCFB78E7664BEE
:1049D0001A88002A60D102AA517802AB1B7809021A
:1049E000C918624A8CB2944207D9614A94420AD8E3
:1049F000543BD8B2FEF746FA62E75E4A944248D981
:104A00005D4A944239D9544B9C423ED8554B9C4206
:104A100039D82412E30707D5E02203AB1A80291CFA
:104A20005D3A039803F08EFBA30707D5E22203ABA0
:104A30001A80291C5F3A039803F084FB630707D5AB
:104A4000E62203AB1A80291C633A039803F07AFB31
:104A5000230707D5E12203AB1A80291C5E3A03988D
:104A600003F070FBE3060ED5E32203AB1A80291C8A
:104A7000603A039803F066FB05E001243F4A2A3BB5
:104A800014703F4A137083229CE7344B9C42FAD83F
:104A90004FE7FF2CF7D9B9E73A4B1B689B1A3A4A04
:104AA0009BB212889A42EED202AB5A781B7812025D
:104AB0009B18304A9BB2934210D92F4A934200D898
:104AC000FEE6324A934202D0314A934206D1314B3C
:104AD000187804F079FC1E48FEF7E0F802AA02AB51
:104AE00012785B78013AFF3A1B029B182A4A9BB264
:104AF000934200D82EE7C6E702AB18785B781B021A
:104B00001B189BB2012B00D1DAE6134A934208D955
:104B1000124A934200D8D3E60D48FEF7BFF881222F
:104B200050E7144A934239D9134A9342F4D82A38A9
:104B3000C0B2FEF7C3F90022104B1A70C0E6C0469F
:104B40002E0A00202E0800202A080020200800201D
:104B5000180B0020ACBBFFFF5BD20000DBD20000D3
:104B600016070020FF1E00001E080020534400000E
:104B70005D44000029440000334400002408002064
:104B80002C080020A403002018000020E95C00008D
:104B9000EA5C000013000020FF1D0000FF2BBBD9C2
:104BA0001C4A9342B8D88122291C029803F0CAFA01
:104BB00002AB5C78E30707D5E02203AB1A80291C1F
:104BC0005F3A039803F0BEFAA30707D5E22203ABCE
:104BD0001A80291C613A039803F0B4FA630707D5D9
:104BE000E62203AB1A80291C653A039803F0AAFA5F
:104BF000230707D5E12203AB1A80291C603A0398EA
:104C000003F0A0FAE30600D45AE6E32203AB1A80CD
:104C1000623A7FE6FF1E0000104B70B51878104D09
:104C20002430C0B24400625DD607F10F002E13D1CC
:104C300019705970130706D40A492B195A78097844
:104C40000323FFF7FFFD0022074B29191A802B5D74
:104C50004A70F03213402B5570BDC0462508002025
:104C60002E090020120000201C0800200B4B10B55C
:104C70001A78002A02D15B78002B0DD0084B1A88D5
:104C8000002A09D0074B1B689B1A074A9BB212885F
:104C90009A4201D2FFF7C0FF002010BD2508002076
:104CA0001C080020A403002016000020F8B50C4CBE
:104CB0000C4D20780C492430C0B24600AF197A78E8
:104CC00004230978FFF7BEFDF0210023725D7B709D
:104CD0000A407255054A237013806370F8BDC046C0
:104CE000250800202E090020120000201C080020AA
:104CF000F8B5134B134D1878134B2430C0B2410054
:104D0000CA5C5F181607F60F05D07A780123297858
:104D1000FFF798FDF8BD0D4C26800A263243CA5491
:104D20007E780522062E01D8094A925D5B185A70DA
:104D300029780123FFF786FD064B1B682380E9E7EE
:104D400025080020120000202E0900201E08002047
:104D5000860E0100A4030020164A70B51078164D87
:104D60002430C0B24400635D144EDB070CD5144BF5
:104D700031881B685B1A13499BB20988994203D298
:104D8000FFF7B6FF002070BD0023137053702B5D3A
:104D90001B0706D40C492B195A7809780223FFF710
:104DA00051FD00222B5D291932804A70F0321340E8
:104DB0002B55E8E7250800202E0900201C080020BC
:104DC000A40300201000002012000020F7B50F00FF
:104DD0006946CA715AB2002A01DA0020FEBD7A780B
:104DE000484E944661463A780D02AD184649ADB238
:104DF0008D421FD945498D4226D803242435EDB272
:104E00001C40012C3ED142496800435CA3434354FB
:104E10003378002B02D1717800293DD09A4203D11A
:104E2000384B5B7863454DD0012C39D12800FFF712
:104E30003DFF33E0E03D072D06D803221A40012A4A
:104E40000DD10021334A11703278002A0CD17078CC
:104E5000002809D1304B1A68304B1A80BEE7022A6D
:104E6000F2D12C4A0121EEE703242340022BB4D1D6
:104E70006B46D879FFF770FF0028AED0002038705D
:104E80007870ABE7022CC3D1214B6800C35C1900DA
:104E900001230B431E49BAE7022C07D001209DE7EE
:104EA000022CFBD06B46D879FFF756FF022239005F
:104EB000300008F0CEFC6A46194BD2791A70FFF721
:104EC0008BFCEBE7022CFAD0012C0DD1104B6A00C1
:104ED000D35CDB0603D40F4B1B78002BDED06B4674
:104EE000D879FFF739FFA1E70B4B0E4A1B681288F0
:104EF0009B1A0D4A9BB212889A42CFD2FFF7F8FE56
:104F0000CCE7C04625080020DBD200005BD30000C0
:104F10002E0900202B080020A403002028080020D0
:104F2000120000201C0800201000002010B50448CA
:104F300005F01EF90A3843425841C0B210BDC046C0
:104F400034330020F0B5824A85B082480C00002539
:104F500000F052FC0600A84200D0A3E00A227E49DD
:104F6000200009F03AFA3500002800D09AE00A340F
:104F70007A49200009F018FA051E3ED1FFF7D6FF46
:104F8000002816D0764B1B88AB4236D9754B03AE42
:104F9000188831000830281880B2FFF731FB737889
:104FA00030781B02C01880B20235FFF701FBADB2AA
:104FB000E8E70500FFF7BAFF011E1AD101226A488F
:104FC00005F086F80600674B684F1988C2B20831B1
:104FD00069188BB219003800019303F0C1F9019BE5
:104FE0003612F2B2591C3800023503F0B9F9ADB2ED
:104FF000E0E7FFF7EBFAFFF733FB5D49200009F02C
:10500000D3F9002807D1FFF791FF00284DD0594B65
:105010001888FFF7CDFA5849200009F0C5F9002893
:1050200007D1FFF783FF00284ED0544B1888FFF7B5
:10503000BFFA5349200009F0B7F9002807D1FFF75C
:1050400075FF002851D04F4B1888FFF7B1FA4E4931
:10505000200009F0A9F900280ED1FFF767FF424DA3
:10506000011E53D0494B0A221978280004F097FDFD
:105070002021280004F028FD4549200009F094F97A
:10508000012500280ED1FFF751FF374C011E4ED0ED
:10509000404B0A221978200004F081FD20212000D5
:1050A00004F012FD280005B0F0BD03AD28802800F3
:1050B000FFF7CAFA2B4B29001888FFF7B3FAFFF75E
:1050C00085FAFFF7CDFAA6E703AD28802800FFF7A1
:1050D000BBFA244B29001888023080B2FFF7A2FAED
:1050E000FFF774FAFFF7BCFAA3E703AD28802800A6
:1050F000FFF7AAFA1B4B29001888043080B2FFF78B
:1051000091FAFFF763FAFFF7ABFAA0E70122280054
:1051100004F0DEFF134BC2B219881448063189B27D
:1051200003F01EF9FFF752FAFFF79AFAA4E72A00F4
:10513000200004F0CDFF0B4BC2B219880B48073199
:1051400089B203F00DF9FFF741FAFFF789FAA9E7F1
:105150008D0E01003E0A0020F60E01002C0E01000B
:10516000220800202008002034330020290B0020D2
:10517000010F010018000020090F01001600002097
:10518000110F0100100000201B0F01001300002070
:10519000EE0E010014000020F0B5134B85B01B7813
:1051A00003AD834207D800232B806B7828781B023D
:1051B000184305B0F0BD502444430C4FC9B26418E5
:1051C000640039880A4EA4B209190131300003F095
:1051D000A7F8398801900919300003F0A1F86B464F
:1051E0001B7968702B70E0E7300A0020320A00203B
:1051F000290B002013B5094B01AC1B78834207D95A
:10520000FDF7D4FD2080637820781B02184316BD7B
:10521000C01AC0B2FFF7C0FFF4E7C046340A00204E
:1052200010B5044800F060F9034B00201A78034BD6
:105230001A7010BD350A002006000020340A002034
:10524000044B10B51870A023584300F01FF9024B0F
:10525000188010BD300A0020320A0020094B0A498C
:105260001B7810B5DB090870084A04D0084B13609E
:10527000FFF7E6FF10BD074B1B78C3180B70064BFA
:10528000F5E7C0463A0A002006000020080000208A
:1052900099510000340A0020F5510000F7B50A4E7C
:1052A00001AF3980094C0A043188450049192000B2
:1052B000120E03F041F831883A7849190131200083
:1052C00003F03AF8F7BDC046320A0020290B00204F
:1052D000F0B50F00002585B00190EBB20093019B63
:1052E000AB4213D00024211C0098B847084E81B26D
:1052F0000A223000013404F042FCE4B220213000E4
:1053000004F0E2FB502CEED10135E6E705B0F0BD2C
:105310003433002073B5404A40480D00002400F0AB
:105320006BFAA04220D107223D49280009F055F828
:10533000A04219D107353B49280009F035F806008D
:10534000A0422ED1384C200004F012FF02000A289F
:105350000CD1364B20001978C90904F020FC20211B
:10536000200004F0B1FB0124200076BD01223100B1
:10537000200004F0ADFE01ABC4B21870200000F0B4
:1053800015F92B4B2B491B782B4A0B70002C02D0A4
:105390002A4B1360E7E72A4800781B180B70294B4B
:1053A000F7E72949280008F0FFFF002805D1244B22
:1053B00026491878FFF78CFFD5E72549280008F023
:1053C000F3FF0028D0D1184D5026280004F0D0FE5D
:1053D0000A2803D1164B19491878EBE7280004F086
:1053E000C7FE0A2814D0124B1B7873439C420FDA75
:1053F00001220021280004F06BFE01AB021218709C
:105400005A70200001990134FFF748FFA4B2E5E784
:10541000104802F0A9FFA6E7220F01003E0A002073
:10542000510F0100460F0100343300203A0A0020DA
:10543000300A0020060000200800002099510000DA
:10544000340A0020F5510000590F0100AD2D000075
:10545000610F0100290B002010B5054C01000A2244
:10546000200004F09CFB2021200004F02DFB10BD47
:10547000343300200020034B1B78834201D0024BC1
:1054800058887047380A00203A0A002013B56B4646
:105490000024991D074B08801B78A34208D1064AB7
:1054A00083B214880548E3181380022202F0CEFB71
:1054B000200016BD380A00201A000020040B00202E
:1054C000F7B507000D0016000C000B1D0193731BB0
:1054D0001A5D2100380002F043FF019B01349C4219
:1054E000F5D13000FEBD000070B50025114C29003B
:1054F000200002F015FF104A6E1C50553500042E96
:10550000F4D15378FF2B12D11178803B0B40D8B2E5
:105510007F2803D1C90901D08343137001230021DF
:1055200020005370FFF7CCFF200002F01DFF002089
:1055300070BDC046290B00203A0A002010B5064C69
:10554000064A00212000FFF7BBFF200002F00CFFFD
:105550000122034B1A7010BD290B00203A0A0020CB
:10556000390A002070B50F4B05001B780E4C8342A2
:1055700008D9FDF787FC7F22290023781140934347
:105580000B4323707D2D06D97F22237893431A0085
:105590007E2313432370FFF7D1FF20784006400E8F
:1055A00070BDC046060000203A0A00207F23094A49
:1055B000C101107810B5184008431070C0B2034004
:1055C0007F2B03D19843013B18431070FFF7B6FFC0
:1055D00010BDC0463A0A0020012270B5104D114B93
:1055E000102128001A7002F01DFB0F4C6378012B6C
:1055F00003D000220D4B1A7070BD62880C492B88B5
:105600008A420AD16380FFF799FF20784006400E56
:105610007D28F1D8FDF736FCEEE79A42ECD1F4E7AD
:10562000040B0020380A00203A0A0020390A002022
:10563000FFFF0000044B10B51B78002B01D1FFF7D2
:10564000CBFF002010BDC046380A002070B5304A9C
:1056500030480C00002500F0CFF8A8423FD10922C5
:105660002D49200008F0B9FEA84238D109342B4951
:10567000200008F099FEA8420AD1294C200004F02D
:1056800077FD0A283BD1274B18784006400E2AE0C8
:105690002549200008F088FE002827D02349200053
:1056A00008F082FE00281CD02149200008F07CFE72
:1056B000002814D11F4B1E88FFF7DCFE0500184C94
:1056C0000A223100200004F05AFA1B49200004F09D
:1056D000ECF90A222900200004F051FA01252800E3
:1056E00070BD104B5878FFF7B7FEF7E7134B1878EB
:1056F00000F09EF820210A4804F0E6F9EEE70122C6
:105700002900200004F0E4FCC0B2FFF72BFFE5E71E
:10571000940F01003E0A0020D80F0100E20F0100A3
:10572000343300203A0A0020EF0F010043FD00004F
:10573000D40F0100040B0020F60F0100390A0020ED
:1057400070B5264A26480E00002500F055F8A842FC
:1057500036D12449300008F027FE0400A8421AD1AF
:10576000214D280004F004FD0A282BD08026B60124
:10577000280004F0FDFC0A2821D001220021280085
:1057800004F0A6FC2100C2B20134184802F0D4FD96
:10579000B442EDD113E01649300008F005FE0028B0
:1057A0000ED18021134B104C1B888901C91A0A2283
:1057B000200004F0E4F92021200004F085F90125FF
:1057C000280070BD8025AD012100084802F0A8FD29
:1057D0000134FFF741FEAC42F6D1F0E7680F01005B
:1057E0003E0A0020840F010034330020290B0020E2
:1057F000780F01001A00002010B5080006491400B7
:1058000008F0D2FD0023984204D12100034804F09F
:1058100069F90123180010BDF80F0100343300208E
:1058200010B5024AFFF7E8FF002010BDF80F010095
:1058300010B50449002800D10349044804F035F9A3
:1058400010BDC046011001000610010034330020D5
:1058500010B5084C200004F071FC002808D020008E
:1058600004F086FC0A2803D0200004F08FFCF6E741
:1058700010BDC04634330020F7B51C4C0126200073
:1058800004F05CFC00282CD0200004F07FFC184DB4
:10589000731EEB1818702000F7B2019304F068FC37
:1058A0000A2807D0019B1B78202B03D00136212E1C
:1058B000EAD120277A1EA95C0023202913D1AB54FA
:1058C0002800FDF793F90B49200004F00BF9FFF7CE
:1058D000BFFF200004F04CFC0A2802D1200004F095
:1058E00055FC0020FEBDEB55EAE7C04634330020EE
:1058F0003F0A0020FD0F0100F7B51A4E1A4D32681D
:105900002B88D31A9BB2322B16D9184A184F138AF8
:10591000184C39889B045B0D20780192994210D174
:10592000002807D1144A1378132B07D9FCF71EFD62
:105930000123237033682B800020FEBD01331370D8
:10594000F8E7002804D00220FCF710FD00232370A4
:105950000022019B1B8A9B045B0D3B80064B1A7047
:10596000E8E7C046A4030020640A0020005000417C
:10597000600A0020660A0020620A0020FA2110B5A1
:10598000024B8900186805F0A1FF10BD1C00002023
:105990000B4B10B51A68002A0FD00A4B1B78002B4E
:1059A0000BD0094B09491B6809685B1A9A4204D25B
:1059B00000F078FC0122064B1A70002010BDC04692
:1059C0001C00002023000020A40300206C0A0020FB
:1059D000700A002010B5074C2378002B03D000F08C
:1059E0003FFC00232370044B00201A68034B1A600D
:1059F00010BDC046700A0020A40300206C0A0020DD
:105A0000FA2370B504009B0043430A4A0A4E136010
:105A10000A4BC2B21D883000290002F0A1FC22040A
:105A2000691C3000120E02F09BFC300002F09CFC5E
:105A300070BDC0461C000020290B0020680A002011
:105A400073B50220FFF722FD0D4B0E4E18800100AA
:105A50000500300002F064FC6B469C1D2070691C40
:105A6000300002F05DFC60702288074B9A4202D140
:105A7000064B1B6823802088FFF7C2FF002076BDFD
:105A8000680A0020290B0020FFFF00001C000020F6
:105A900070B5184E184832000D000024FFF7ACFE18
:105AA000A0421CD13100280008F07EFCA04216D193
:105AB000124D280004F05CFB06000A2811D1FA21DF
:105AC0000F4B8900186805F001FF32000100280023
:105AD00004F059F82021280003F0F6FF01242000EB
:105AE00070BD01222100280004F0F2FA80B2FFF715
:105AF00087FFF3E70C1001003E0A0020343300203A
:105B00001C00002010B5054C01000A22200004F002
:105B100046F82021200003F0D7FF10BD34330020C9
:105B2000094B07B51B78002B0DD0002201AB1A8062
:105B30009A70019800F0E2FA044B1868002802D02D
:105B400003685B68984707BD23000020840A002093
:105B500070B5074C05002388002B03D13020FFF7D8
:105B600095FC208042206843FFF790FC70BDC04642
:105B7000720A002010B50C0049080918054802F007
:105B8000CFFB02000011C0B2E30701D50F20104087
:105B900010BDC046290B0020F7B50324124B444327
:105BA0001888124F2418A4B22100380002F0B8FB64
:105BB000611C0600380002F0B3FB0500A11C380090
:105BC00002F0AEFBF6436B46ED431E705D701A8823
:105BD000FF231100120A1940120283431B040A43D7
:105BE0001A431000FEBDC046720A0020290B002097
:105BF00007B5FFF7BFFFFFF7CFFFFF210300020A42
:105C00000A4012020B401343000C034A08400004F0
:105C1000134018430EBDC046FFFF00FF37B54225B5
:105C200000244D434519ADB2A1B22800FFF7E0FFB3
:105C300001AB187002040002120E000E98705A7028
:105C4000E0B20199013400F009FA842CECD137BD9F
:105C5000422313B55943D3B24018141C80B2FF211C
:105C60004F2B01D8084AD15C89B2FFF7C1FF01ABC5
:105C7000187002040002120E000E98705A700199FA
:105C8000201C00F0F7F913BD670A010010B50448A5
:105C900004F06EFA0A3843425841C0B210BDC04603
:105CA00034330020F0B5344E85B0320033480C0058
:105CB000FFF7A2FD05000020854220D12000310021
:105CC00008F072FB04002800002C18D1FFF7DEFF5B
:105CD000002816D02000FFF75FFF06040502360EED
:105CE000C0B2FFF70FFF2D0E30000134FFF70AFF9F
:105CF000E4B22800FFF706FF102CEBD1012005B01D
:105D0000F0BD0400FFF7C2FF1D4D061E2ED11D4F32
:105D100001000122380004F0DBF93100009001227B
:105D2000380004F0D5F9310001900122380004F068
:105D3000CFF9154B07001E88009BA619DA43B6B2AF
:105D4000D2B23100280002F00BFB019B711CDA4338
:105D50002800D2B202F004FBFA430334D2B2B11CE1
:105D60002800A4B202F0FCFA302CCBD1280002F0BB
:105D7000FBFAFFF7D5FEC1E7201001003E0A002024
:105D8000290B002034330020720A0020F0B585B0C2
:105D900002932F480AAB0C0017001E78FFF72CFD6A
:105DA00005000020854251D12000390008F0FCFA9E
:105DB00004002800002C49D1422373430193FFF7CC
:105DC00065FF00281BD0F026019AA3B293423CD273
:105DD000029B2048191902F0A3FA05000011C0B275
:105DE000FFF790FE29001C4FB1430A22380003F050
:105DF000C6FE2021380003F067FE0134E4E704000A
:105E0000FFF744FF134F061E1AD1019AA3B29A421C
:105E100016D9114D01000122280004F059F9012280
:105E200003903100280004F053F9039B1A01029BF0
:105E300012181919D2B2380002F07EFA0134DFE7E5
:105E4000380002F091FAFFF76BFE012005B0F0BDBB
:105E50003E0A0020290B0020343300207047704791
:105E600013B508780C00C043C3B21A00232099115F
:105E7000C9435A434042584352430012120E8A1AF1
:105E80002330D2B2C0B2FF2101F00AFF6B466A464E
:105E9000187003041B0E537000022378000E9070DC
:105EA000032B0ED8002323706B461A8899781000B4
:105EB000FF23120A184012020B401B041043184320
:105EC00016BD043BEFE70000F0B5234F85B03B68FB
:105ED0000500002B3DD0214E03893268D31A204A99
:105EE0009BB212889A4234D20024E3B20093502C21
:105EF0002DD02B1902AA01939B7AD11C0B70002B79
:105F000010D0386803681B68984703AB1870020408
:105F10000002000E120E98705A706B4603991878A2
:105F200000F0A8F802AB03331B782A199372002BF8
:105F30000BD10C4A5178137809020B43917809046C
:105F400019436B46187800F095F80134CDE73368B3
:105F50002B8105B0F0BDC046780A0020A4030020C4
:105F600020000020750A002010B5416000210400C7
:105F7000044B01810833036050220A3007F085FC8E
:105F8000200010BD28100100D2B24F2A0BD80749BB
:105F900000780978884206D19B0704D5044B1B681A
:105FA0009A18FF23937200207047C04622000020F9
:105FB000840A0020014B0833036070474010010041
:105FC000FF22014B1A707047740A002070B50A4D09
:105FD000040001222800002104F07AF80122207038
:105FE0000021280004F074F80122607000212800CC
:105FF00004F06EF8A07070BD3433002010B501229B
:1060000004000021024804F063F8207010BDC0466F
:106010003433002070B5084D0400280002F01BFC4A
:106020002100002803D1280002F095FC70BD034830
:1060300002F063FDFAE7C0466C2B0020B82B00206D
:1060400010B5054C01000A22200003F0A8FD202114
:10605000200003F039FD10BD343300201FB50A1CA9
:1060600003AB090C1A8099700399FDF727F905B065
:1060700000BD00001FB50B000C1C1B0A090CC2B2AE
:10608000E4B2DBB2C9B2FF204F2A01D80448805CD9
:1060900003AA1470537091700399FDF70FF91FBD97
:1060A000670A010007B5FDF77DF9020401AB120E86
:1060B00018705A701B88FF211A00000C1B0A0A4036
:1060C0001B0208400004134318430EBD034B10B5D8
:1060D0001B78002B01D0FDF7C3F810BD2300002072
:1060E0000121044A044813680B4001D10370116078
:1060F0007047C0467C0A0020800A002013B50024A7
:106100000190FFF7EDFF200001340199E4B2FFF7A1
:10611000A5FF842CF7D113BD07B5002201AB1A806F
:106120009A700198FFF7EAFF034B1868002802D025
:1061300003685B68984707BD840A002010B5094BC7
:106140001B7883420DD9084B187001F061FF074B93
:106150001860074B1B78002B01D0FFF7DDFFFCF721
:1061600059F910BD880A002022000020840A00206E
:106170002300002010B5064B18780130C0B218700B
:10618000044B1B78834200D80020FFF7D7FF10BDD7
:1061900022000020880A002010B5064B1A78002A39
:1061A00001D1054A1278013A1A701878FFF7C6FF34
:1061B00010BDC04622000020880A0020224B70B586
:1061C0001B78002B32D0214C2378002B02D163782E
:1061D000002B14D0E120FFF71DFF002802D1E5308D
:1061E000FFF718FF2378002B22D16378432B24D1AB
:1061F000002822D1FFF7BEFF002323706370144BE9
:10620000144C154D22881B689B1A2A789BB29A421F
:106210000CD2FFF75BFF22882B789B1823800F4B53
:106220001868002802D003689B689847002070BD5A
:10623000012B02D16378432B02D0FFF7ADFFDBE7E0
:106240000028D7D1F9E7C04623000020890A0020A2
:10625000A40300208C0A002024000020840A0020CF
:10626000012210B5034B1A70FFF756FFFCF7F8FF39
:1062700010BDC0462300002013B5002401AB1C80D4
:106280009C700198FFF73AFFFCF714F9044B1B7858
:10629000FF2B02D12000FFF751FF002016BDC046A2
:1062A0002200002013B5002401AB1C809C700198D3
:1062B000FFF724FFFCF7D4FF014B1C7013BDC04651
:1062C000230000204A7810B50024432A17D1403A11
:1062D00013400134022B12D10B78002B0AD0A342B9
:1062E00008D0022B0BD1084B1B78002B09D0FFF7ED
:1062F000D9FF04E00222054807F0ABFA0124200090
:1063000010BDFFF7ADFFFAE723000020890A002047
:1063100010B5FCF7C1F8014B187010BD880A0020B9
:1063200010B5044803F024FF0A3843425841C0B274
:1063300010BDC04634330020F7B5894A89480D00A6
:106340000024FFF759FA0600A04245D104228649ED
:10635000280008F042F8340000283DD10435834974
:10636000280008F021F8002812D16B46DD1C280017
:10637000FFF744FEFFF7D4FF01AC002800D075E022
:106380002000FFF723FE28780199FFF767FE6BE0F6
:106390007749280008F008F800285FD075492800E0
:1063A00008F002F8002850D07349280007F0FCFFDD
:1063B000061E33D07149280007F0F6FF002821D0CF
:1063C0006F49280007F0F0FF002807D06D4928002A
:1063D00007F0EAFF002861D02000FEBD01AC20805C
:1063E000A0702000FFF7F2FDFFF79AFF00283BD1D5
:1063F0006B46DD1C2800FFF701FE28782168FFF7B7
:106400002DFEF1E7FFF78CFF002844D101AC2000FE
:10641000FFF7F4FD2078FCF7E9FE25E0FFF780FFA9
:10642000041E00D080E0FFF75BFEFFF779FF002835
:106430001AD101A8FFF7CAFD200001340199E4B286
:10644000FFF70CFE842CF0D10EE04F4803F090FED5
:10645000C0B20A2856D14D4B187819E001A8FFF7B1
:10646000B5FD0198FFF74AFE0124B5E72878FFF74C
:1064700019FE050403021B0E2D0E2070A37065701B
:106480001C00C0B2FFF7DCFD2800FFF7D9FD20009B
:10649000FFF7D6FDE8E7FCF7BBFEF9E7FFF740FFA3
:1064A0000028E1D16B46DD1C2800FFF7A7FD287806
:1064B000FFF7F8FD01AC207003040002000E1B0E74
:1064C000A07028786370FFF7BBFD2F4D304928007E
:1064D00003F0F6FA2021280003F0F6FA6778A67890
:1064E0002078FFF7ADFD3800FFF7AAFD3000FFF779
:1064F000A7FD2849280003F0E3FA2021280003F033
:10650000E3FACBE76E2802D1FFF734FEACE7702840
:1065100002D1FFF741FEA7E701AC2000FFF76EFDB7
:106520002078FFF70BFE9FE7FFF7DAFD340020002D
:10653000FFF7B8FD01AB060405021870360E2D0EEC
:10654000C0B25E709D700134FFF77AFD3000FFF736
:1065500077FDE4B22800FFF773FD842CE7D183E7D1
:106560004C1001003E0A0020A01001001F0F010086
:10657000A5100100AC1001009A100100B11001003B
:10658000BC100100C810010034330020220000209C
:10659000D4100100F139010013B5134BC27A4168E0
:1065A0001B6804009B1A0878DBB2984218D21218B4
:1065B000E2724A782089217B01F072FB01AB1870EE
:1065C00002040002120E000E5A709870A37A2289FB
:1065D0009B189BB2FE2B04D823810198FFF78EFDF8
:1065E00013BDFF3BF8E7C046A403002037B543685E
:1065F000C27A19781C4B04001B689B1ADBB29942C3
:106600002FD252180121C272184A13680B4002D1CE
:1066100017481160037000252089842D1BD0AB081A
:106620001B01C01880B2FE2801D9FF38FAE7636861
:10663000217B5A7801F034FB01AB18700204000290
:10664000120E000E98705A70280001990135FFF75C
:1066500005FDEDB2E0E7A37AC01880B2FE2801D8AC
:10666000208137BDFF38FBE7A40300207C0A00200F
:10667000800A002041707047417070472821322203
:10668000034B19705A70034B19705A707047C0460B
:106690008E0A0020900A002010B50122040000217B
:1066A000024803F015FD207010BDC04634330020B1
:1066B00010B5044803F05CFD0A3843425841C0B2AB
:1066C00010BDC0463433002037B54E4A4E480C004A
:1066D0000025FFF791F8A84212D106224B4920006D
:1066E00007F07BFEA8420BD106344949200007F091
:1066F0005BFEA8420FD1FFF7DBFFA84202D00125C5
:1067000028003EBD6B46DC1D2000FFF7C5FF20784A
:10671000FCF716FCF3E73F49200007F045FE002890
:106720000CD1FFF7C5FF0028E9D16B46DC1D200026
:10673000FFF7B2FF2078FCF7C1FBE0E73649200005
:1067400007F032FE002812D1FFF7B2FF0028D6D1A1
:106750006B46DC1D2000FFF79FFF2078FCF752FB03
:10676000FFF766F820212D4803F0AEF9C7E72C4962
:10677000200007F019FE00280CD1FFF799FF002830
:10678000BDD16B46DC1D2000FFF786FF2078FCF7AB
:1067900079FBB4E72349200007F006FE051EAED1C1
:1067A000FFF786FF041E12D02C002000FCF72AFB06
:1067B0001A4D01000A222800013403F0E0F9E4B286
:1067C0002021280003F080F9202CEED197E7FCF778
:1067D00059FB2000FCF772FBFFF76AFF002800D08E
:1067E0008DE76B46DD1D2800FFF756FF2B78002B49
:1067F00002D02000FCF7A4FB0134E4B2202CEBD142
:106800007DE7C046081101003E0A0020501101003A
:1068100059110100571101006211010034330020A9
:106820006B1101004A110100F7B500241C4B1B78C5
:106830000193019BA34231D90C23002563430093AC
:10684000009B184AEB189B181879EFB2002823D048
:106850000138FCF7FFFE061E03D00135052DEFD1F0
:106860002F00FCF70DFF874213D1002E11D00E4EE2
:106870000E4D32682B88D31A0D4A9BB212889A4269
:1068800007D20C236343074A2000D3589847336844
:106890002B800134E4B2CCE70126E2E70020FEBD04
:1068A000CDFB0000D0FB0000A4030020940A0020D0
:1068B0002600002010B5012204000021024803F048
:1068C00007FC207010BDC0463433002010B5054CC5
:1068D00001000A22200003F052F92021200003F0D9
:1068E000F3F810BD3433002010B5054C01000A2226
:1068F000200003F054F92021200003F0E5F810BD3A
:106900003433002010B50A000100024801F014FDE4
:1069100010BDC046290B002010B5024801F024FD2F
:1069200010BDC046290B002010B50C000100034823
:1069300001F0F6FC2070200010BDC046290B00209D
:1069400070B5074E0D0004000100300001F0E8FCB6
:10695000611C2870300001F0E3FC6870280070BDF5
:10696000290B00201A4B13B51A491A681A4C0B88C8
:1069700092B2D31A24889BB29C4220D20A80012171
:10698000014006D00021154B1B785BB200910A0034
:1069900012E00224044004D0104B1B785B425BB22F
:1069A000F4E7042101400BD00C4B22001B7821009E
:1069B0005B425BB200932300094802F0EFF813BD7D
:1069C0000307FCD5054B1B785BB200930B00DEE799
:1069D000A4030020A00A00202E0000203000002088
:1069E000042C002010B5054C200002F0F9F820001E
:1069F00002F0DDF80020024B187010BD042C0020BE
:106A00009A0A002070B5224B1B78002B03D1214A33
:106A10001370002070BD204A204812680188204C65
:106A200092B2511A248889B28C42F2D21D4C028053
:106A300021881D48511A008889B288420AD21B4811
:106A4000144D0678FF202978801B814201DA8919CC
:106A5000297022800021DA0703D5154A11784942AE
:106A600049B29A0703D5124A1278511849B2002048
:106A70005A0703D50E4A1078404240B21B0703D58F
:106A80000B4B1B78181840B201F036FAC1E7C0462C
:106A90009A0A0020100B0020A40300209C0A00206A
:106AA0002C0000209E0A0020280000202A00002040
:106AB00031000020F7B54A780020502A3ED10A78EC
:106AC0004026100020250324304015401C4000289B
:106AD0000ED0002D0ED1B24315009B0725D4012CFA
:106AE0002BD11100414802F06CF801F087F924E045
:106AF000002D24D0022C20D10125431E98411300E3
:106B00002B40AB401440184323005C1EA3419B0064
:106B100003435007C00FC00003431007C00F00011C
:106B2000184301F07BF9280008E0022C01D101F0A4
:106B30006BF929002D4802F040F80120FEBD022C1F
:106B40000BD12B4A2B48126892B202802A4802804D
:106B50002A480088121A2A48028002252B400AD0AF
:106B60000878C30602D5FFF7FDFEE6E7254B1A7845
:106B700010431870E1E7012CDFD1032621480D787E
:106B80000278AA4302700A78164006D10C251540F7
:106B900009D12E00AC462C000BE0102515401ED06C
:106BA0001D002600F6E7102515401BD02500B44631
:106BB000340001210D4804274156013C02220323E1
:106BC00021406446C7578256C356013D013C013EF1
:106BD0002F4022403340009701F0E0FFADE72E0048
:106BE000A446D8E72E00AC46E3E7C046042C0020BC
:106BF000A40300209C0A00209E0A00202E000020F2
:106C0000A00A00209A0A0020F0B54E4885B002F094
:106C10000BF800224C4B02AD988AD98A1A761B6970
:106C20002A701B686880A980AA7129000832474829
:106C300098470A20FEF72AFC454C69462080FFF75A
:106C400073FE6B461A78434BFF2A51D01A70208886
:106C500001AE0130310080B2FFF772FE32883E4E45
:106C60003E4BB24249D01A806B4620885F1C0330ED
:106C700080B23900FFF758FE3A78394BFF2A42D0EC
:106C80001A706B4620889F1D043080B23900FFF7D0
:106C900057FE3A88334BB2423BD01A806B4620886D
:106CA0009F1C063080B23900FFF73EFE3A782E4B2B
:106CB000FF2A34D01A7020882900073080B2FFF7ED
:106CC0003FFE2A88294BB2422FD01A806B4620887B
:106CD000DD1C093080B22900FFF726FE6B461A78CA
:106CE000234BFF2A27D02A781A70002005B0F0BD68
:106CF00019782088FFF706FEA9E720881978013067
:106D0000FFF700FEB0E7208819780330FFF7FAFD9F
:106D1000B7E7208819780430FFF7F4FDBEE7208834
:106D200019780630FFF7EEFDC5E72088197807309F
:106D3000FFF7E8FDCAE7208819780930FFF7E2FD80
:106D4000D3E7C046042C00203C2C00204C2C002013
:106D5000980A002031000020FFFF00002C000020D6
:106D60002A00002028000020300000202E000020F3
:106D70003800002010B5044803F0FAF90A384342FD
:106D80005841C0B210BDC0463433002073B58D4A9F
:106D90008D480C000025FEF72FFD0600A84270D19B
:106DA00006228A49200007F018FB3500002868D128
:106DB00006348749200007F0F7FA002807D1FFF7CB
:106DC000D9FF844D00285ED02878FFF78DFD8249D9
:106DD000200007F0E9FA002807D1FFF7CBFF0028D1
:106DE0005FD07E4B1888FFF771FD7D49200007F0CA
:106DF000DBFA002808D1FFF7BDFF7A4D002800D14B
:106E000070E02878FFF770FD7749200007F0CCFA92
:106E1000002808D1FFF7AEFF002800D171E0734BC6
:106E20001888FFF753FD7249200007F0BDFA0028CB
:106E300008D1FFF79FFF6F4D002800D182E028782E
:106E4000FFF752FD6C49200007F0AEFA002808D188
:106E5000FFF790FF002800D183E0684B1888FFF708
:106E600035FD6749200007F09FFA0125002808D169
:106E7000FFF780FF634C002800D193E02078FFF7F4
:106E800033FD280076BD6B46DE1D3000FFF712FD96
:106E90005D4B317818882970FFF734FDFFF73CFD12
:106EA00095E76B469E1DDD1D307028703000FFF7A2
:106EB00001FDFFF75FFF002801D12800F7E73178D7
:106EC000514E2B783088454A1B020B43013013800A
:106ED000FFF718FD308829780230FFF713FDFFF720
:106EE0001BFD82E76B46DE1D3000FFF7E3FC464BDF
:106EF0003178188829700330FFF704FDFFF70CFD87
:106F000082E76B469E1DDD1D307028703000FFF754
:106F1000D1FCFFF72FFF002801D12800F7E73178D7
:106F2000394E2B783088314A1B020B4304301380D2
:106F3000FFF7E8FC308829780530FFF7E3FCFFF71E
:106F4000EBFC70E76B46DE1D3000FFF7B3FC2E4B09
:106F50003178188829700630FFF7D4FCFFF7DCFC85
:106F600070E76B469E1DDD1D307028703000FFF706
:106F7000A1FCFFF7FFFE002801D12800F7E73178D8
:106F8000214E2B7830881D4A1B020B43073013809B
:106F9000FFF7B8FC308829780830FFF7B3FCFFF71B
:106FA000BBFC5EE76B46DE1D3000FFF783FC164B33
:106FB0003178188821700930FFF7A4FCFFF7ACFC8A
:106FC0005FE7C046721101003E0A0020E411010093
:106FD000EB11010031000020F11101002C00002014
:106FE000FC1101002A0000200712010028000020E7
:106FF00012120100300000201D1201002E0000209E
:10700000D911010038000020980A0020054A064BDB
:1070100010881B68054A1B1A10889BB29842804151
:1070200040427047A40A0020A4030020360000203C
:107030000023054A5900885C8007C00F02D1013344
:10704000102BF7D17047C046A80A0020FF22031C6E
:1070500012021040DBB21B18054A9BB29B18054A6E
:107060005B00985C82B04007C00F02B07047C0461A
:10707000FF3FFFFFA80A002007B501AB07280BD888
:107080000022203818705A708022054B0A4301985C
:10709000197801F057F807BD223018704422F2E742
:1070A000480E010010B50221FFF7E6FF10BD0000F9
:1070B0000121044A10B54400A35C8B43A354FFF79D
:1070C000DBFF10BDA80A002010B50024064B6200AB
:1070D000D35CE0B2DB0701D5FFF7E4FF0134082CF5
:1070E000F4D1002010BDC046A80A0020F8B5002346
:1070F000204D5A00525DD20730D40133102BF8D105
:10710000002422001C4BE0B21B78002B11D066003B
:10711000AB5D190719D519490F78002F09D008223E
:107120009343AB55FFF7C4FF0222AB5D93433A0094
:10713000AB550134102CE5D1002A04D000230E4AAF
:1071400013700E4A13700020F8BDDE07F60FF0D062
:107150009B07EED4FFF7ACFF3200EAE7FFF756FFDC
:107160000028CDD00122044B1A700022034B1A7064
:10717000C6E7C046A80A0020A60A0020A70A0020E9
:10718000F8B500250A4E6F00BC5DE407E40F03D09C
:10719000FFF73CFF002809D0F35D9C07E40F05D101
:1071A0001C07E40F02D10135102DECD12000F8BDF1
:1071B000A80A0020F0B587B00E00002069461C0028
:1071C0005BB2CA74834220DB7378029333780393F3
:1071D000029B1F02039BFF18BFB27D1EEBB20193FF
:1071E000FFF7CEFF5E4BFF18BFB2002829D10F2F4B
:1071F0000BD803222240012A09D1019B59495D0085
:107200006B5C023083436B54012007B0F0BD022A4F
:10721000FAD16C46544BE47C1968544B1980019B9D
:10722000504958000B185C700124435C13432343FE
:10723000435431004E4806F00CFB0198FFF732FF33
:10724000E2E70F2F70D803206946019B454F5D0090
:107250000440E85D0307DA0F0A75002B11DA022CEF
:10726000D2D122003100424806F0F3FA0822EB5D49
:1072700001989343EB55FFF71BFF00223D4B1A701B
:10728000C2E7012C13D10223384A9843364B1288A7
:107290001B68E8559B1A384A9BB212889A42B3D2AF
:1072A0000198FFF705FF6A46324B127DE7E7022C93
:1072B000AAD12F4A039913780443EC552B4C8B42E7
:1072C00023D1527802998A421FD170780002184364
:1072D000FFF7BCFE002818D0284B00229A5E531CF2
:1072E00020D1274B1A88204B21881B685B1A9BB240
:1072F0009A4200D288E708237A5D310013437B5518
:1073000002221B4806F0A5FA7EE7174B6A461B6867
:10731000D27C238001247B195A707B5D0222234397
:107320007B5586E792B2DEE702220020144200D1AC
:107330006BE731000E4806F08CFA72783378110250
:107340005B189BB2DF2B03D8442A04D100205CE7F2
:10735000E72BF9D8FAE70122064B1A70F6E7C04688
:10736000FF3F0000A80A0020A4030020A40A002078
:10737000C80A0020A60A00203200002034000020A5
:10738000360000200122024B1A70024B1870704721
:10739000A60A0020A70A002010B5002304240449EF
:1073A0005800425C013322434254102BF8D110BDE7
:1073B000A80A002010B50120FEF768F8064B01006E
:1073C0001880064800F0ACFF054B1870FF2801D16B
:1073D000FEF7B4FE002010BDCC0A0020290B0020CF
:1073E000CE0A002010B5094B1A78094B1978914242
:1073F00009D01A70074C084B2000198800F0B0FF24
:10740000200000F0B1FF002010BDC0462200002087
:10741000CE0A0020290B0020CC0A002010B5012242
:1074200004000021024802F053FE207010BDC04647
:107430003433002010B5054C01000A22200002F070
:10744000AEFB2021200002F03FFB10BD34330020B2
:1074500010B50C000100034800F062FF207020000E
:1074600010BDC046290B0020012273B501AC21805C
:10747000431CDB7FC17913420BD16278237812025F
:107480009B189BB2032B03D9272B13D8038A0385A0
:10749000022205008379C41D013BDBB283711035E4
:1074A000E3189C420BD0667826706E8801342E80DB
:1074B0000235F6E72C2BEBD9382BE9D8E6E7841D0B
:1074C000A37E2A305B10A376012304000370019889
:1074D00000F038FE0023237073BD0000FF2212026B
:1074E0000A40C9B28918164A89B282B00023914273
:1074F0000FD9144A91420FD8134A8918020089B251
:107500002B32117009122D302039537043700170E5
:107510000133180002B070470C4A9142F9D80C4A66
:10752000891802002B325370030089B211700912BE
:107530002D332A31197044232E300370433BE8E782
:1075400010C0000011C80000EF3F000012D0000082
:10755000EE370000F7B5214B214FCEB204001B6877
:10756000B85D984701AB18806B46188000992000E1
:10757000FFF7B4FF051E1DD12A00B85D2179D3B2F3
:1075800099421DD927689300FB185F78B74215D13F
:107590000027DF5787420FD1200002222B30694697
:1075A000DD789E7806F055F923002E342D331E70B9
:1075B000257001252800FEBD0137EDD00132DEE740
:1075C000200002222B30694606F043F92200FF23F7
:1075D0002D322E3413702370ECE7C04608000020D3
:1075E000CF030020531A642210B55A4304300C0014
:1075F000C17F100004F06AF9044B196883B20020BF
:10760000091B89B28B424041C0B210BDA4030020C7
:10761000C9B28218904205D0013083798B42F9D1EA
:10762000012070470020FCE7031C0004020E3F21EC
:10763000100082B0DBB2884307D107222033DBB2CF
:107640009A424041C0B202B070470020442AFAD1A9
:107650002930984280414042F5E70000F0B5837937
:107660008DB004000126002B00D19BE08319DB7F45
:10767000334207D000220BAB1A800B992000FFF792
:10768000F3FE8FE0C37903936B46197BFFF762FF2C
:10769000002800D17CE0E31CDE7F002E78D0283368
:1076A0005D781A782D0215432800FFF7BDFF434F80
:1076B000238D3A680190D31A22000832D27F9BB200
:1076C0009A421DD20125A37904933B6800279BB2FF
:1076D000069363190893A31D0293EB1A0993049B65
:1076E000E9B28B4265D9089B0122DB7F2B41134213
:1076F0000ED1019B002B4BD1002F58D00135EEE766
:10770000019B002BDED129002000FFF7ADFED9E759
:107710006319DA7905920598039A82421BD0E31D1A
:10772000029A0793099B9B18DBB29942E6D993789A
:107730000598834239D1029B06985B89C31A079842
:107740009BB2C07F984230D223002D3359781A78EB
:107750000902114392E7002F03D0221DD27F002A95
:107760000AD12100019B2B31002B00D002310222D3
:107770000BA806F06EF880E75B1902991A8A3B1D88
:107780005B00CB1859882000FFF72CFF0028B5D1EB
:1077900023002B3359781A78090211432000FFF790
:1077A00063FE012630000DB0F0BD0132BAE70F00D4
:1077B000A4E7049B082BEBD00026F3E7A4030020EA
:1077C000F7B50F006946CA71CA7904004F2A5FD81D
:1077D00059B200295CDB01002A310978002957D110
:1077E000C11CCE7F002E0FD179783B780902194356
:1077F000FFF774FE00284BD0210002222B31380005
:1078000006F027F83000FEBD03261E40731E857962
:10781000012B0ED903002D18AB4239D0191B0133AF
:1078200098799042F8D10134E37F01260B419E43C1
:10783000E8E7012E0CD1012D0AD1C379934207D07C
:1078400078783B7800021843FFF7EEFE00281FD03F
:107850006A46D27963190F49DA712B1DA21D096896
:107860005B00D31859800123AB40917EDBB2012E1F
:107870000BD10B4393760135EDB2A5710126082D8E
:10788000C0D12000FFF7EAFEBCE799439176F2E70A
:107890000026B7E7A4030020F0B50400002685B059
:1078A000A379B3421FD9631CDB7F0122334113420A
:1078B00016D0A319DF793200391C2000FFF7A8FE8B
:1078C000051E0DD1230001222A331A70019303AB48
:1078D00018800322391C039800F034FC019B1D70B2
:1078E0000136F6B2DCE72200184D08322B68D17F52
:1078F000228D9BB29A1A92B28A4202D9013B5B1A3C
:1079000023852000FFF7AAFE00281BD1228A2B68BE
:107910009B1AA28C9BB29A4214D225002B35687810
:107920002B7800021843FFF77FFE21002D3100283D
:1079300000D02900022203A805F08BFF0399200044
:10794000FFF792FD002005B0F0BDC046A403002063
:10795000F7B507000520FDF799FD244E244C0100E2
:1079600005002080300000F0DBFC6B46691C98713C
:10797000300000F0D5FC6B46D871DB881D4A93427D
:1079800025D8BB846B462088DD1C023080B22900DC
:10799000FFF75EFD2A783B1D642A1FD8DA7720881E
:1079A00001AD0330290080B2FFF752FD2A78FB1D9C
:1079B000DA776B4620885D1D0430290080B2FFF71E
:1079C00047FD3B002A7808330020DA77FEBDBA8CE9
:1079D0002188D2B2300000F0AFFCD3E72188DA7FF3
:1079E0000231300000F0A8FCD9E7C046290B002086
:1079F000000B002060EA000070B50025154C08223D
:107A0000E61DA571300014492560257105F021FFA0
:107A10000122E31CDA77231D4F32DA77FA23A3849D
:107A2000C83BF3772300053A0833DA7780235B00FD
:107A30002385230022002A331D70FF232B3213706D
:107A400022002C32137022002E342D32137023703A
:107A500070BDC046D00A00202812010010B50448AD
:107A600002F086FB0A3843425841C0B210BDC046FE
:107A700034330020F7B50400564A57480D0000265D
:107A8000FDF7BAFE0700B04247D10722534928004C
:107A900006F0A3FC3E0000283FD1073550492800DE
:107AA00006F082FC00280DD1FFF7D8FF002836D061
:107AB0004C4EA18C0A22300002F061F820213000E7
:107AC00002F002F84849280006F06EFC002807D1B1
:107AD000FFF7C4FF261D002845D0F07FFFF7AAFC62
