:040000034000A9A56B
:020000040002F8
:1070000000940020F58702009F850200A7850200FA
:10701000AF850200B7850200BF85020000000000B6
:10702000000000000000000000000000C785020012
:10703000CF85020000000000D7850200DF85020036
:10704000E785020079870200EF850200F7850200DC
:10705000FF850200078602000F86020017860200E5
:107060001F860200278602002F8602003786020054
:107070003F860200478602004F86020057860200C4
:107080005F86020069860200738602007D86020028
:1070900087860200918602009B860200A586020078
:1070A000AF860200818702007D870200B986020058
:1070B000C3860200CD860200000000000000000030
:1070C000D7860200E1860200EB860200F586020008
:1070D000FF86020009870200138702001D87020055
:1070E00027870200000000000000000000000000F0
:1070F0000000000031870200000000003B87020012
:10710000000000000000000000000000000000007F
:10711000000000000000000000000000000000006F
:10712000000000000000000000000000000000005F
:10713000000000000000000000000000000000004F
:10714000000000000000000000000000000000003F
:10715000000000000000000000000000000000002F
:10716000000000000000000000000000000000001F
:10717000000000000000000000000000000000000F
:1071800000000000000000000000000000000000FF
:1071900000000000000000000000000000000000EF
:1071A00000000000000000000000000000000000DF
:1071B00000000000000000000000000000000000CF
:1071C00000000000000000000000000000000000BF
:1071D00000000000000000000000000000000000AF
:1071E000000000000000000000000000000000009F
:1071F000000000000000000000000000000000008F
:10720000E0CB0200B4CA020010CB02008CCB02001B
:1072100010B5054C237833B9044B13B10448AFF3D0
:1072200000800123237010BD085A002000000000D8
:1072300038CC020008B5034B1BB103490348AFF338
:10724000008008BD000000000C5A002038CC02006D
:10725000A3F5803A704700BF174B002B08BF134BB4
:107260009D46FFF7F5FF00218B460F461348144A51
:10727000121A00F063F80E4B002B00D098470D4B0C
:10728000002B00D098470020002104000D000D487D
:10729000002802D00C48AFF3008000F02BF820004B
:1072A000290001F075F900F011F800BF0000080096
:1072B000000000000000000000940020085A002098
:1072C000207F0020000000000000000008B5074BF0
:1072D000044613B10021AFF30080054B1868836AA0
:1072E00003B19847204600F031F800BF00000000CD
:1072F00050C6020070B50D4D0D4C641BA410002645
:10730000A64209D10B4D0C4C05F096F9641BA41054
:107310000026A64205D170BD55F8043B98470136BA
:10732000EEE755F8043B98470136F2E7FC59002098
:10733000FC590020FC590020005A0020024403465A
:10734000934200D1704703F8011BF9E7FEE700BF45
:107350004FF08053D3F83001A0F10D03584258414B
:1073600070470000014B1860704700BFA07A0020F2
:10737000014B1860704700BFA47A0020012902D099
:10738000022905D07047044B1B681BB110781847C1
:10739000024BF9E7704700BFA07A0020A47A0020D2
:1073A0004FF08053D3F8A400030E552B01D0AA2B25
:1073B00001D180F0404070470023094A10B50360B6
:1073C00012F833408C4207D102EBC303036000681C
:1073D000B0FA80F0400910BD0133072BF0D1F6E779
:1073E00060CA020007B5014601A8FFF7E5FF0128C2
:1073F0000AD0084A1078012809D1019B5B681BB1AB
:10740000526818469269904703B05DF804FB01206A
:10741000FAE700BF407A0020008A7047C0897047B1
:10742000064B02681A6042685A6082689A60C268B5
:10743000DA6002691A610020704700BFA87A002054
:10744000024BDB6803B11847704700BFA87A0020E1
:1074500008B5084B1A78022A0AD1074A117809B1EF
:107460000121118103221A70FFF7EAFF002008BDF5
:107470000120FCE7347A0020407A002030B5124D1C
:107480002A68026008688B8802F114042C6048B9ED
:1074900043B1980719461CBF191D21F0030121446F
:1074A0002960204600215181D160518A50601381AA
:1074B00011820BB1013B9BB28B424FF000001CBF0D
:1074C00053821382107030BDDC5900204089704710
:1074D000808970470089013880B27047002910D038
:1074E0004389028989B2D8BF9B180B449BB29A4248
:1074F00098BF9B1A4381C3895B1AC381038A1944CD
:107500000182704742898A42F0B414D00489C78945
:1075100016B20DB2AE42CABF0B198B1A9B1A1BB220
:10752000BB4204DDAE42B8BF1219891A0BB2F0BCDF
:107530001946FFF7D3BFF0BC7047002A09D0008975
:1075400092B2D8BF0918114489B288429CBF091A67
:1075500089B208467047838910B5048900298AB228
:10756000D8BF1B1913449BB29C4298BF1B1B83813D
:10757000C3891344C381038A9A1A028210BDF0B4EE
:10758000B0F90C70048985890EB2B742CABF0B19D5
:107590004B1B5B1B0A4619B2038A994205DDB742B1
:1075A000B6BF6119511B511A09B211B1F0BCFFF7F6
:1075B000D2BFF0BC704743680022598A5A81DA6012
:1075C000198283685A81DA605A8A1A82704738B5FC
:1075D0000378012B044602D0022B0FD038BD63681C
:1075E000806859898589FFF78DFF60688389AB4280
:1075F000F4D02946BDE83840FFF7C1BF4368806832
:107600009989838945898B4201D0FFF7B8FF60686B
:107610002946BDE83840FFF775BF000037B50E4C6E
:107620002378012B054613D163680191DB699847E4
:1076300070B1636863B1227852B1227A01990AB1BC
:10764000627A2AB15B6A284603B0BDE83040184729
:10765000012003B030BD00BF407A002037B50D4691
:10766000014601A8FFF7A8FE012804460ED0019BA1
:1076700069465868FFF7D2FF0128044606D0009BF0
:107680005A68186892699047038A2B80204603B095
:1076900030BD000037B51C4D002401AB1819AB6894
:1076A000002B2ED0984760BB0134032CF5D1174B2B
:1076B0009DF80420164903EBC200086001461548F6
:1076C000043101609DF80510134803EBC104046008
:1076D0002046124C043020609DF80600104C03EB4D
:1076E000C00525602B460F4C04332360012303FAA9
:1076F00001F103FA02F20A430B490A600B4A834084
:10770000136003B030BD00BFA87A002010F501401F
:10771000887A0020947A00208C7A0020987A0020C1
:10772000907A00209C7A0020807A0020847A0020C1
:10773000012913B503D0022901D002B010BD03798D
:10774000002BFAD0836804681B680193A36A002B9E
:10775000F3D0606A01AA9847EFE701207047000064
:1077600010B5094B03EB80035A6893681C68A0426C
:1077700007D11279002A0ABF0120002000230B60E4
:1077800010BD00230120FAE7547A0020034B1A7839
:1077900001200AB158700020704700BF547A0020C1
:1077A0002DE9F8430E4F002601257E704FF0FF397A
:1077B000A84657F825309C681E71C4F8009084F8DC
:1077C0000480FFF73DFEA068FFF7F5FE0135E06895
:1077D000FFF7F1FE092D66746682EAD1BDE8F883F1
:1077E000547A0020014B5878704700BF547A00202B
:1077F000024B587880F00100704700BF547A002097
:10780000044B03EB800043689B681879C31E584201
:1078100058417047547A002010B5064B03EB8000A6
:1078200043689C68A068FFF7C6FEE068BDE81040AA
:10783000FFF7C1BE547A0020084B03EB80035A685F
:10784000137943B193681B68984203D1D368002031
:107850000B60704700230120FAE700BF547A002034
:1078600003690BB1C06818477047012906D1037836
:1078700023B1037A13B940F2011303817047034621
:1078800008465B6811465B6818470000034B1A788E
:10789000012A02D15B681B6A18477047407A0020B2
:1078A0004B1E012B70B504460D46164602D81068D3
:1078B000FFF7ECFFA3682BB1606832462946BDE8AC
:1078C0007040184770BD436A0BB1006A1847704793
:1078D000436800685B68184737B50D46014601A844
:1078E000FFF76AFD012804460BD0019B69465868E2
:1078F000FFF794FE0128044603D00098FFF7E8FF45
:107900002860204603B030BD37B50D46014601A8BA
:10791000FFF752FD012804460CD0019B69465868C8
:10792000FFF77CFE0128044604D00098FFF7D0FF43
:10793000C3892B80204603B030BD000008B5054B3D
:10794000186900B18047044A936803F07F431843E5
:10795000906008BDA87A0020C07A002010B4144BB3
:10796000D0E90012D3E902408C4290411CD2D3E905
:10797000044054EA000C03D0A14272EB000C07D281
:10798000C3E90640C3E904125DF8044BFFF7D6BF14
:10799000824208BFA14207D0D3E90640A14272EB60
:1079A000000038BFC3E906125DF8044B704700BF02
:1079B000C07A002038B500230374C5690446FFF778
:1079C000BDFF0A4AD2E9023213F57A7342F100028E
:1079D000C5E90032FFF7B2FF2846FFF7BFFF0323D8
:1079E0002371BDE83840FFF72BBD00BFC07A0020EF
:1079F000F8B5154B5A782AB303EB80035D682C79F0
:107A0000AB6824B11B681B1A58425841F8BD186076
:107A1000AF68FE69FFF792FF0C4AD2E9023213F514
:107A20007A7342F10002C6E90032FFF787FF304661
:107A3000FFF794FF02233B71FFF702FD01232B7137
:107A40002046E3E70120E1E7547A0020C07A0020D5
:107A500038B50379032B04461FD0042B2CD0022BFE
:107A60002DD1037C43B12046FFF7A4FF012120461E
:107A7000BDE83840FFF727BFE569FFF75FFF104B10
:107A8000D5E90012D3E90203884293410FD30423BE
:107A90002371FFF7D5FC0221E9E7037C13B9437C8E
:107AA000002BE9D02046BDE83840FFF783BF2846C9
:107AB000BDE83840FFF752BF037C002BD3D138BD5F
:107AC000C07A002010B5074C0A44914201D1C0434E
:107AD00010BD11F8013B4340DBB254F8233083EA78
:107AE0001020F2E760C6020010B4064CE3680A46B4
:107AF00023B1014660685DF8044B184701205DF82A
:107B0000044B7047247A002007B501A9FFF7ECFF6A
:107B100020B9019B01221A74FFF792FC03B05DF8B3
:107B200004FB000013B50E4B1C68046004F10C024A
:107B300020461A6011F8043B00F8043BFFF79EFC56
:107B400001280AD0636869461A895B68009304F1CA
:107B50000800ADF80420FFF791FC02B010BD00BF93
:107B6000DC59002010B5012350E8002F194640E8E9
:107B7000001494F0000FF7D1BFF35F8FB2FA82F0D8
:107B8000400910BDF8B5104D104E002415F81470C2
:107B900001F0BCF9002306EB43025278824207D180
:107BA00016F81330BB4209D105EB44046078F8BDE8
:107BB00001330E2BEFD100231B78FFDE01340E2C96
:107BC000E4D100235B78F8E798CA02006DCB02008D
:107BD00001F066B9F8B5038A934204460F4615468C
:107BE00020D3012A838909D142680978D15429B266
:107BF000D5B12046FFF7AFFC0020F8BD002AF6D033
:107C00000689406803EB020CB445184407DDF61AF8
:107C1000B6B2324604F002FD6068AA1BB91904F03E
:107C2000FDFCE4E70120E8E70846E6E737B50C4647
:107C3000014601A81546FFF7BFFB012803D1012427
:107C4000204603B030BD019B69465868FFF7E6FC4B
:107C50000128F4D0009B5A68186892699047214621
:107C60002A46FFF7B7FF01280446E8D0009A536878
:107C70005B6A002BE4D010689847E1E72DE9F041FA
:107C8000C3890A8A93421D4628BF1546AB42044663
:107C90000E4625D3E5B1B0F8088008F1FF339BB25A
:107CA0009D4219D8AA4217D3478941687B19434599
:107CB000394413DDA8EB070292B23046FFF78AFF82
:107CC000A5EB08023A44616892B23046FFF782FFA2
:107CD00029B22046FFF702FC002002E02A46F4E722
:107CE0000120BDE8F081F8B51C46C389A3420546D2
:107CF0000E4617461DD3012C04D143685B5C1370FC
:107D00000020F8BDBCB10289416833199342314467
:107D10000CDD921B384604F081FC28896968221A20
:107D2000801B3244384404F079FCE9E722463846A7
:107D3000F9E70120E5E72046E3E713460A464189D3
:107D4000FFF7D1BF73B50C46014601A81546FFF7F2
:107D500033FB012803D10124204602B070BD019BF2
:107D600069465868FFF75AFC0128F4D00098FFF7DD
:107D7000AFFD21462A460646FFF7DFFF01280446ED
:107D8000EAD029B23046FFF7A9FBE5E707B501F0D5
:107D900019F9019001F01CF9019803B05DF804FB9A
:107DA00010B5124A002302EB43014978814213D1F6
:107DB00012F813100E4A002312F81300884210D153
:107DC00002EB4303587801F08FF80446FFF7DEFF1B
:107DD00084F00100C0B210BD01330E2BE3D10120AD
:107DE000F9E701330E2BE7D1F9E700BF98CA02008B
:107DF0006DCB020010B501F041F80446FFF7C6FF55
:107E000084F00100C0B210BD73B5204D2C78002C59
:107E10003AD1C5E901446C70AC70EC60FFF73AFCF4
:107E2000022000F077FE0646FFF7B0FF16B90120EA
:107E300002B070BD164B186800901B798DF80430A5
:107E40000521684600F0ECFF0646FFF79FFF002E75
:107E5000EDD0022001F026F80646FFF797FF002E2E
:107E6000E5D04FF4167001F089F80646FFF78EFF53
:107E7000002EDCD0022001F093F80646FFF786FFC3
:107E8000002ED4D001232B700020D1E7247A0020CB
:107E900054C602002DE9F04F434E00234FF0010875
:107EA00085B0338086F80280FFF7AEFF404576D07C
:107EB0003E4F3B78002B63D17B70FFF7A5FF404519
:107EC00070D03B4D2C6804F138022A6004F1100296
:107ED0004FF001094FF0000AA2604FF0FF3222611B
:107EE000276084F804A084F81490FFF7A9FA4FF0F3
:107EF000800B01A904F118008DF80490CDF808A0BA
:107F0000ADF80CB0FFF70EFE48454BD002218DF8BE
:107F1000041004F11C0001A9CDF808A0ADF80CB0C4
:107F2000FFF700FE48453DD02A68C4F820A0111D87
:107F300062622960C2F800A0BFF35F8F2A68A26264
:107F4000111D2960C2F800A0BFF35F8F2B68194A8A
:107F5000626303F110022A6003F10802E260164A2C
:107F6000C4E90B349C60DA6047F82840C844B8F193
:107F7000090FA7D1114B7B62114BBB6287F80090B0
:107F80000E4B10493078DE6000221A705A601A7267
:107F900019610D4BB3607260012318B9B37005B05D
:107FA000BDE8F08F0120FAE7347A0020547A0020EF
:107FB000DC59002031770200E8CA0200407A002034
:107FC00061780200A17802007D7302002DE9F04182
:107FD000836806689F688AB004464FF001083046FF
:107FE00000F0E4FE00281CDD3B8A202B28BF202364
:107FF00001AA02A93046019300F092FE0546FFF760
:10800000C5FE831F58425841607455B1019A0AB1A8
:1080100084F8128092B202A93846FFF7DBFD0128EE
:10802000DDD10AB0BDE8F08170B501224369044694
:1080300053E8001F154643E8005696F0000FF7D1AD
:10804000BFF35F8F71B9FFF7C1FFA068FFF7BFFAF9
:10805000A37C13B14FF4807363826369BFF35F8FB6
:1080600000221A6070BD10B584682046FFF7DCFF5F
:10807000A3685B68D88910BD10B584682046FFF7F7
:10808000D3FFA368586810BDF7B5866801913046E4
:108090001546FFF7C9FFB36801995F682A4638465D
:1080A000FFF74BFE0128044606D0384629B2FFF7F9
:1080B00015FA3046FFF7B8FF204603B0F0BD37B5DC
:1080C000856801912846FFF7AFFFAB6801995868B2
:1080D000FFF7D4FD0128044602D02846FFF7A4FF8D
:1080E000204603B030BD10B584682046FFF79CFFE2
:1080F000A3685868B0F90E10FFF7F0F92046BDE804
:108100001040FFF791BF13B501A90446FFF7ECFC3F
:1081100030B1204600F056FEFFF738FE02B010BD29
:10812000019B01225B6953E8004F114643E80010B0
:1081300090F0000FF7D1BFF35F8F002CEED10198C4
:10814000FFF744FF019B5B69BFF35F8F1C60E5E7AE
:108150002DE9F041C368D0F800809E6888B00546DC
:10816000404600F017FE022820DC6B7CF3B9F4894E
:10817000E4B1202C28BF2024224669463046FFF770
:10818000DCFD012812D022466946404600F06EFD13
:108190000746FFF7FBFD67B900F0FD00082805D191
:1081A000064A936813B150680121984708B0BDE8AA
:1081B000F08121B23046FFF791F9D1E7247A00200F
:1081C00013B501A9FFF790FC044660B9019B9869BB
:1081D000FFF7C8FC38B10198FFF7BAFF019B9B6914
:1081E000BFF35F8F1C6002B010BD10B504468069FC
:1081F000FFF7B8FC58B12046FFF7AAFFE068FFF789
:10820000E6F9A369BFF35F8F0020186010BD02205C
:10821000FCE710B584682046FFF7E7FFE3685B687A
:10822000188A10BD10B584682046FFF7DEFFE368AA
:10823000586810BD38B50446FFF7D7FF054650B95A
:10824000A069FFF78FFC30B12046FFF781FFA369DB
:10825000BFF35F8F1D6038BD37B5144601916AB119
:1082600085682846FFF7C1FFEB68019958682246E8
:10827000FFF7B0FC04462846FFF7DCFF204603B0BA
:1082800030BD70B5CC890D4664B186683046FFF7C5
:10829000ACFFF36828465968FFF7F0FC0446304607
:1082A000FFF7C8FF204670BD07B503794BB1806862
:1082B0000190FFF7CDFB019803B05DF804EBFFF7E9
:1082C000B9BF03B05DF804FB37B5094D012455F87B
:1082D00024301A7932B198680190FFF7B9FB019800
:1082E000FFF7A8FF0134092CF1D103B030BD00BF66
:1082F000547A00200128F8B51A4D2ED11A4B1B4C88
:108300006B60FFF72AFA637806461BB1012400234D
:108310006B6020E0164BA3600128164B6560E3609C
:10832000F4D100F05FFD0746FFF730FD002FEDD0E0
:1083300000F080FC0746FFF729FD002FE6D06B68B0
:1083400066709B68984701280446DFD02E70FFF7BF
:1083500077F8002CDBD12046F8BD00236B601B684A
:10836000FFDE00BF407A002038CB0200247A0020D4
:108370006B7802007F7802002DE9F041274D284CF0
:108380002F782678012F08D0032F0FD02378012BC8
:1083900013D0022B28D0BDE8F08126B102232B7028
:1083A000FFF74EF86F70FFF74BF8EFE7002EFAD1AA
:1083B0002E70FFF745F86E70F5E7227A42B96368D0
:1083C000002BE8D09B6A002BE5D0BDE8F0411847B0
:1083D000144A917811B9937000F03CFC0223237089
:1083E000BDE8F041FFF72CB80E4B5D78002DD2D1DF
:1083F00025722570FFF724F8667A56B163686572B6
:108400001B6898472378002BC5D1BDE8F041FFF7E2
:1084100071BF6368DB6898476660BCE7347A002008
:10842000407A0020247A002070B50D4D2B7813B1CE
:108430000124204670BD0B4E33787BB9A878FFF736
:1084400059FF044628B133780BB101233381012C45
:10845000EED001232B70FEF7F3FFEAE70124F4E7E7
:10846000347A0020407A002008B5FEF771FF40B151
:108470004FF080430022C3F80C21C3F81021C3F849
:108480003825FEF765FF002846D04FF080523B4B61
:10849000D2F80414C3F82015D2F80814C3F8241530
:1084A000D2F80C14C3F82815D2F81014C3F82C1500
:1084B000D2F81414C3F83015D2F81814C3F83415D0
:1084C000D2F81C14C3F84015D2F82014C3F8441590
:1084D000D2F82414C3F84815D2F82814C3F84C1560
:1084E000D2F82C14C3F85015D2F83014C3F8541530
:1084F000D2F83414C3F86015D2F83814C3F86415F0
:10850000D2F83C14C3F86815D2F84014C3F86C15BF
:10851000D2F84424C3F87025FEF71AFF48B14FF093
:108520008043D3F80024D20744BF6FF00102C3F8A0
:108530000024134AD2F8883043F47003C2F888301C
:10854000BFF34F8FBFF36F8F4FF08053D3F83021BD
:108550000D2A0ED1D3F83431022B02D8094AD35C4C
:108560003BB14FF01023D3F808224FF08043C3F8FB
:108570005825054B054A1A6008BD00BF00C00040E1
:1085800000ED00E05AC60200D85900200090D00348
:1085900008B54FF438335B689847FEE770474FF4EF
:1085A00038339B6818474FF43833DB6818474FF46B
:1085B00038331B6918474FF438335B6918474FF459
:1085C00038339B6918474FF43833DB6A18474FF448
:1085D00038331B6B18474FF438339B6B18474FF4F5
:1085E0003833DB6B18474FF438331B6C18474FF4A4
:1085F00038339B6C18474FF43833DB6C18474FF413
:1086000038331B6D18474FF438335B6D18474FF400
:1086100038339B6D18474FF43833DB6D18474FF4F0
:1086200038331B6E18474FF438335B6E18474FF4DE
:1086300038339B6E18474FF43833DB6E18474FF4CE
:1086400038331B6F18474FF438335B6F18474FF4BC
:1086500038339B6F18474FF43833DB6F18474FF4AC
:108660003833D3F8803018474FF43833D3F8843098
:1086700018474FF43833D3F8883018474FF438335D
:10868000D3F88C3018474FF43833D3F8903018476C
:108690004FF43833D3F8943018474FF43833D3F8C5
:1086A000983018474FF43833D3F89C3018474FF4BC
:1086B0003833D3F8A03018474FF43833D3F8AC3000
:1086C00018474FF43833D3F8B03018474FF43833E5
:1086D000D3F8B43018474FF43833D3F8C0301847C4
:1086E0004FF43833D3F8C43018474FF43833D3F845
:1086F000C83018474FF43833D3F8CC3018474FF40C
:108700003833D3F8D03018474FF43833D3F8D43057
:1087100018474FF43833D3F8D83018474FF438336C
:10872000D3F8DC3018474FF43833D3F8E03018472B
:108730004FF43833D3F8F43018474FF43833D3F8C4
:10874000FC30184720B1034B800143F00103184768
:10875000704700BF30CB0200024B1B6803B11847C3
:10876000704700BFA87A0020024B5B6803B118472E
:10877000704700BFA87A002002F0C6BB00F08CB999
:1087800003F06CB913B502AB03E906000446FFF72A
:1087900017FD9DF8003013B12046FFF7B4FC2046CA
:1087A00002B0BDE81040FFF7AFB982B002AB03E9F9
:1087B000060002B0FFF704BD13B50446FFF7A3FCA3
:1087C0002046FFF7FDFC204602B0BDE81040FFF751
:1087D0009BB90000064B10B500249C705C702046CD
:1087E000013400F0EFFAFFF7D1FA082CF7D110BDF1
:1087F000247A00200649074A074B9B1A03DD043BF5
:10880000C858D050FBDCFFF72FFEFEF725FD000017
:1088100044CC020078590020085A0020FEE7FEE709
:10882000FEE7FEE7FEE7FEE7FEE7FEE7FEE7FEE720
:1088300070B51B4B1C68002201236360E360636416
:10884000C4F80825D4F844352BBB164B164A93F9C7
:108850000010164E164D17484FF0FF33C4F808337A
:108860000023C4F840311370336001222B700029BB
:108870004FF004030270C4F810350BDB4B099B006A
:1088800003F1604303F5614301F01F018A40C3F81F
:1088900080211A6070BD084803F0DCFBD5E700BFFB
:1088A00068CB02006CCB0200F57A0020F07A002041
:1088B000F67A0020F47A002047000400034A044BB3
:1088C00011680120002208601A70704768CB02000E
:1088D000F47A00200F4A104B106893F9002030B44E
:1088E00000210E4D0E4C296001238A420361217044
:1088F000C36007DB5109603102F01F020948934051
:1089000040F821300849094B0020012208701A70F4
:1089100030BC704768CB02006CCB0200F07A0020BC
:10892000F57A002000E100E0F67A0020F47A0020D9
:10893000014B1878704700BFF47A0020014B18787B
:10894000704700BFF57A00202DE9F8430D46164622
:108950008146002879D03F4B3F4F1C683B784FF44D
:108960008032C4F80823002B60D1DFF80C81D8F8DE
:10897000003013B1394803F06DFB012EC8F80090A8
:1089800060D073B2002B55D0022E27D1D4F84865A1
:108990003544ADB20023C4F84031C4F8405501233A
:1089A000D4F840556364D4F844853B70D4F8403122
:1089B00093BBAE4235D945458CBF002501254645C0
:1089C0008CBF00260126B54202D0254803F042FBA9
:1089D0004FF48033C4F80433BDE8F883ADB22148C6
:1089E000002603F037FBC4F840610123C4F840556A
:1089F000D4F840556364D4F844853B70D4F84031D2
:108A000053B9A845E4D3184803F024FB4FF480334E
:108A1000C4F80433BDE8F883144803F01BFBAE42EE
:108A2000C9D84645EFD8A845EDD2D1E7104803F0A4
:108A300011FB9AE701226264D4F844652264C4F809
:108A40004031A5E7D4F84065A2E70A4803F002FBED
:108A500081E700BF68CB0200F67A00208F00040097
:108A6000C4000400A3000400B9000400B100040025
:108A70008C00040086000400F07A0020014B186886
:108A80004830704768CB0200024B186800F5A070B0
:108A9000704700BF68CB02002DE9F041184B194D1B
:108AA0001C6829684FF480320023C4F80823C4F8F6
:108AB0004031F9B101236364D4F84465124FD4F80E
:108AC00040250020B6F5804F02F11402387028606E
:108AD00008D396420D4A34BF002301231370BDE82A
:108AE000F0410847B2F5404FF3D9084A1370BDE88A
:108AF000F0410847064803F0ADFA2968DAE700BFFD
:108B000068CB0200F07A0020F67A0020F57A002087
:108B1000E50004002DE9F0413E4B3F4F3F4C00265D
:108B20003146182280463E481E603E70FEF706FC25
:108B30003C4801F033F9206000283DD0042001F0CA
:108B4000F1FB23685D7D002D3CD1374E3268531E0A
:108B50000F2B5CD83549084603F060FD3168334877
:108B600001F0C4FB0125B8F1010F31D0B8F1000FBD
:108B700045D0B8F1020F46D005233B70002523688D
:108B8000587D60BB01F042FC002001F0F7FB236838
:108B90005B7D43BB012001F003FC23685C7D14BBBB
:108BA000204601F039FC012001F01CFC204B20463E
:108BB0001C6001F0D3F915B901233B70002528464C
:108BC000BDE8F0810223B8F1010F35463B70CDD1ED
:108BD000022001F04BFA2368587D0028D2D00223EE
:108BE0003B700025D0E7022301203B7001F0FAFB27
:108BF00000230F4A1846136001F0B0F9DCE70120AA
:108C000001F034FABBE7002001F030FAB7E70723A0
:108C10003B70A8E7007B0020FC7A0020047B00204A
:108C20000C7B0020DD8F0200F0590020E05900206D
:108C3000087B002008B5054B186818B101F094F9BD
:108C4000012008BD024B02221A7008BD047B0020DF
:108C5000FC7A002008B501F001FA18B9BDE8084017
:108C600001F0CCB9BDE80840FFF7B4BD072818D81B
:108C700039B3202A05D9284B062200211A7008464C
:108C80007047F0B583B0054616460C4601F07CFAF5
:108C900002280CD9204B09221A700021084603B083
:108CA000F0BD1D4B042200211A700846704728466B
:108CB00001F06CFA022809D9174B0A221A70002118
:108CC000ECE7154B03221A700846704701F060FA72
:108CD00001281CD901F000FA4378067043F0010323
:108CE0004370074632462146023003F097FC39466E
:108CF000E8B201F005FA01460028CFD101900748FB
:108D000003F0A8F9044B01990F221A70C6E7024B31
:108D100008221A700021C1E7FC7A0020FF0005003C
:108D200070B50D461646044601F030FA88B15DB1C3
:108D3000204601F027FA326803789A420DD2134B8D
:108D400006221A70002070BD104B03221A702846AC
:108D500070BD0E4B0B221A7070BD204601F008FA50
:108D6000044658B10146284611F8022B326003F040
:108D700055FC204601F0BAF9012070BD044803F00B
:108D800069F9024B0F221A70204670BDFC7A002050
:108D900029010500072801D801F0F6B9024B042289
:108DA0001A704FF0FF307047FC7A0020072801D876
:108DB00001F0ECB9024B04221A704FF0FF307047FB
:108DC000FC7A0020072808B504D9054B04221A7044
:108DD000002008BDC0B201F0DDF9012008BD00BFD0
:108DE000FC7A0020012810B5044607D080B1022883
:108DF00009D00A4B05221A70002010BD022001F094
:108E000035F9204610BD002001F030F9012010BDD9
:108E1000012001F02BF9012010BD00BFFC7A0020D9
:108E2000124B1B685B7DBBB94A1E0F2A0FD8C8B115
:108E300010B50F4C0A4601460E48226003F0EEFBC7
:108E400021680C4801F052FA0123184610BD0A4A65
:108E50000721117018467047074B02221A70002331
:108E600018467047044A03211170F3E7047B002081
:108E7000F0590020E0590020FC7A002008B5064B8C
:108E80001B685B7D23B1054B02221A70002008BDD0
:108E900001F08AF9012008BD047B0020FC7A002043
:108EA00001F01EBA08B50D4B1B685B7D7BB901381C
:108EB000C0B2032804D90A4A0E211170184608BD11
:108EC000084B185C01F06CFA0123184608BD044BEE
:108ED00002221A700023184608BD00BF047B002040
:108EE000FC7A0020F4CB02000D2808B504D9054B0C
:108EF0000E221A70002008BD034B185C01F03EFAE8
:108F0000012008BDFC7A0020F8CB020008B501F072
:108F100041FA082830D012D9F0282BD008D9F828E7
:108F200024D0FC281AD0F4280CBF0A20072008BD42
:108F3000D82819D0EC280CBF0C20072008BD042825
:108F4000F5D004D9062813D00CD8032008BD022878
:108F500006D003280CBF0520072008BD082008BD47
:108F6000062008BD012008BD0D2008BD092008BD50
:108F7000022008BD0B2008BD002008BD08B5064B27
:108F80001B685B7D23B1054B02221A70002008BDCF
:108F900001F0D8F9012008BD047B0020FC7A0020F4
:108FA00008B5064B1B685B7D23B1054B02221A7086
:108FB000002008BD01F0CCF9012008BD047B002091
:108FC000FC7A0020014B1878704700BFFC7A002023
:108FD000014B00221A707047FC7A002070B50378AC
:108FE00082B00446072B00F2DC80DFE803F0366332
:108FF0009C8298040821FFF7EDFB02B070BD6B4A1C
:109000008379126893420AD2694A12683AB102EB34
:109010008303996801319960536801335360654B4C
:109020001B68002BE9D061792079984702B070BDA8
:109030005E4A8379126893420AD25D4A12683AB155
:1090400002EB8303996801319960536801335360DF
:10905000594B1B68002BE6D1CFE7544A037C1268BA
:1090600093420AD2524A12683AB102EB8303996CD6
:10907000013199641368013313606D462846082254
:109080000021FEF75BF9A37B667BA168227B8DF84C
:1090900000306068E37BCDF802108DF806208DF873
:1090A000073001F023F8304695E80600FFF76AFB29
:1090B00002B070BD6D46284608220021FEF73EF939
:1090C0003E4B1B685B7D002B67D0A268267B637BD1
:1090D0006068CDF8022000228DF800208DF807305E
:1090E00001F004F8304695E80600FFF75EFB02B099
:1090F00070BD334C6368227B013363602AB12369FE
:10910000002B3BD12373636998472378002B3FF4EE
:1091100074AFA368002B34D0013BA3606DE7FFF769
:109120003DFA02B070BD214A037B126893420AD215
:109130001F4A12683AB102EB8303996C01319964BA
:10914000136801331360032200216846FEF7F6F826
:10915000A37A217AE27A657A8DF800308DF80110D1
:109160008DF8022064681BB19CB1204600F0BEFF60
:1091700028460099FFF720FB02B070BD013B236138
:10918000C3E700F06BFF00287FF435AF00F036FF37
:1091900033E70C4802F05EFFE7E70B4802F05AFFA6
:1091A00093E70A4802F056FF27E700BFF059002076
:1091B000087B0020F87A0020247B0020047B00201C
:1091C0000C7B0020DB040500B5040500410505000B
:1091D000024A034B0F21117018607047FC7A00207F
:1091E000007B00202DE9F043574BD3F80024012ADF
:1091F00087B003D0D3F83435002B36D1534B544CC1
:109200005B681D782369202D8CBF00250125002B6C
:1092100030D002F093FE012802D04E4802F01AFF2F
:109220004D4E33681B7D002B47D101F079FD45BBC6
:1092300023784A4A0121022B117001D063688BB157
:1092400002F05AFD054601F02DFCA27D8DF80900C3
:10925000062301A88DF808508DF80A208DF80430F7
:1092600002F09AFB07B0BDE8F083394C2369002572
:10927000002BCED1FFF762FB0028CAD10123236166
:10928000C7E70121084602F0B9FC054600283BD09B
:10929000022816D002F03EFF314B21785A69E06077
:1092A000022962602ED06ABB9B682E4A00201360A0
:1092B00002F036FF07B0BDE8F0832B4802F0CAFE8B
:1092C000B3E702F01FFD3368A66893F916800746DE
:1092D00002F012FD054601F0E5FBA17D8DF81300BB
:1092E0000022012301A88DF81080029703968DF8C3
:1092F00011508DF814108DF804208DF8123002F002
:109300004BFBC7E7DB68D0E702F0FCFC3368A768DB
:1093100093F91690804602F0EFFC064601F0C2FB7E
:10932000A37D8DF8130001A88DF81090CDE9028778
:109330008DF811608DF804508DF812508DF81430AE
:1093400002F02AFBA6E700BF00100040887B002047
:10935000707B00202F070900A07B0020347B0020B9
:109360003C7B0020287B00203007090038B5224DC7
:10937000224C01F0D5FC0123214A2B702149D2F85F
:109380003035096923F0FF030B43C2F83035002361
:10939000236102F0D3FD30BB02F046FB012819D84F
:1093A000022001F085FB002001F0F0FB02F0C6FD79
:1093B000032802D0144802F04DFE2B78012B02D076
:1093C000124802F047FE124B022100222970C4E924
:1093D000033238BD02F0A2FC60600028E0D10D48E5
:1093E00002F038FEDCE702F0A9FD0328D8D00A48D5
:1093F00002F030FED4E700BF357B0020887B0020E0
:10940000001000403C7B0020F4050900FA0509002B
:109410001D940200E7050900EC0509002DE9F04163
:10942000624B634CD3F80024012A88B002D0D3F8F1
:10943000343503BB63681B78202B1CD85D4D5B4B18
:109440000321002229702260D3F80864D3F808248D
:10945000C3F82C25D3F80C24019402A80123009012
:109460003146184602F08CFC032800F29B80DFE8AE
:1094700000F0805C382C504E4E4D33784B4A03211F
:10948000297000212160022BD2F8087401D0736882
:1094900073B101F007FBB27D8DF81100062303A81C
:1094A0008DF812208DF810708DF80C3002F074FADF
:1094B0000023CDE900331A461946184602F060FC35
:1094C000042802D03D4802F0C5FD2668002E54D085
:1094D00001233B4A6375042322612B7008B0BDE869
:1094E000F081029B002B59D0304602F073FD00281A
:1094F0004CD0344B029F1B6893F9168001F0D2FACE
:109500002D4B8DF81700997D8DF8148002220123D0
:1095100003A804978DF815608DF818108DF80C20AD
:109520008DF8163002F038FACFE7029B13B12648C7
:1095300002F090FD304602F04DFD58B3214B1B6800
:1095400093F9167001F0AEFA1B4B8DF81700997D58
:109550008DF814700023022203A88DF815608DF891
:1095600018108DF80C2004938DF8163002F014FAC0
:10957000ABE7164802F06EFDA7E701F0D1FB667578
:109580002661FFF7F3FE08B0BDE8F081104802F055
:1095900061FDAEE70F4802F05DFDCFE70E4802F037
:1095A00059FDA1E70D4802F055FD8EE7001000407F
:1095B000887B0020357B0020707B00204B06090053
:1095C000E1950200A07B0020200609002B0609007F
:1095D00030060900210609002F0609003C06090093
:1095E000024B05221A70FFF7C1BE00BF357B002079
:1095F00070B5334E747888B024B3324B324D1B684B
:1096000000241C6001F08CFB33782C61012BC5E930
:109610000044C5E9024430D0022B3FD0736873B1D7
:109620002A4BDB682A4972780B6003A80423327046
:109630008DF80C3002F0B0F9012008B070BD234B5A
:109640009B68EFE7234A244B1268C3F8082502F011
:1096500075FC0028D1D0022816D90328CDD1CDE938
:109660000044234622462146204602F089FB042876
:10967000C3D01A4802F0EEFCBFE702F05FFC40B92D
:109680003378022BCCD0C9E72146204602F0B6FA47
:10969000EDE72146204602F0B1FAF1E701F040FB88
:1096A0000F4B2C611C7002F049FC0328E8D1CDE976
:1096B0000044234622462146204602F061FBDFE7B4
:1096C000707B0020947A0020887B00203C7B002067
:1096D000287B0020807A002000F00140370209003A
:1096E000357B002030B589B0FFF722F901282AD157
:1096F0001F4D01F015FB0024052303A88DF80C3045
:10970000AC706C7502F048F91A4A1B491B4B126881
:109710000C70C3F8082502F011FC68B102281ED9AC
:10972000032809D1CDE9004423462246214620469C
:1097300002F026FB042801D109B030BD104802F028
:1097400089FC09B030BDFFF7C5F80E4B1B7F5BB13C
:109750000020074D02F056FC00236B60C9E721464C
:10976000204602F04BFAE5E7FEF7FEFFF0E700BF08
:10977000707B0020807A0020357B002000F00140C3
:10978000370209003C7B00202DE9F0412E4F2F4D80
:109790002F4E4FF00008C7F8088002F0ADFAC5F868
:1097A0002C05D5F8304502F0A7FA012303FA00F0A2
:1097B00024F0FF040443C5F8304502F0A3FA3060FA
:1097C00002F0A6FA234A244B82F80080F36070600E
:1097D00002F070FCC5F8080502F09CFCB87502F0B8
:1097E000ADFB012804D002F0A9FB022816D100200D
:1097F00001F05EF9FFF748F9184B194A1968194C3E
:10980000194B086012681B68206852681A6018B10A
:10981000037873B903792BB9BDE8F081134802F0DE
:1098200019FCE4E701F02CF92068BDE8F04101F0F3
:1098300009B9FFF729F9216801F0A2F82068037936
:10984000002BE9D0EEE700BF707B00200010004045
:10985000887B0020347B0020E5910200887A00207C
:10986000A07B0020387B0020947A00208F0609001E
:109870002DE9F04FE24BE34F1B68E34EE34CE44A23
:10988000E44D4FF00008C3F800803B68C6F8083587
:109890000123C4F8FC8FC4F8FC3FD4F8143523F43A
:1098A0008073C4F81435D4F8143523F00F0343F053
:1098B0000603C4F81435D4F8143523F4702343F4A4
:1098C0004033C4F81435D4F8183523F00073C4F8C5
:1098D0001835D4F8183543F08073C4F81835D4F827
:1098E000183523F0FF0343F02003C4F81835D4F8EB
:1098F0001835022123F47F4389B0C4F81835C2F823
:109900008011FFF7BBF8C44AC44B1268C449106009
:109910001A68C44B11603A68C6F804251968C24831
:1099200001F048FAD5E90832C04901920860160AE8
:10993000180A4FEAC61B4FEAC01C0BF4FF490CF48F
:10994000FF4CC0F3C01B4BEA0C0B4FEA401C0296C5
:10995000DF010CF040064BEA060C07F4FF47C3F3A7
:10996000C01B4BEA070B5F01190C07F040064BEADE
:109970000607CE0195F81DA04FEAC21E150C06F48D
:10998000FF420492029A0395C2F3C01B4BEA090BF3
:109990004FEA421909F04009019AD4F81865039D6D
:1099A0004BEA0909CDF814900EF4FF4EC2F3C0192A
:1099B00049EA0E0E4FEA421909F040094EEA090E33
:1099C0004FEAC51909F4FF49CDF81C904FEAC009C8
:1099D00009F020094CEA090C4FEAC30909F02009F3
:1099E000049A47EA090726F4E026039746EA0A465E
:1099F0004F01C1F3C01A4AEA020A07F040074AEAD7
:109A000007070497029F059A4FEAC70B0BF0200B3C
:109A100042EA0B0A019ACDF814A0D70007F02007FC
:109A20004EEA070ECDF818E0C4F81865460006F0B7
:109A300010064CEA060C460806F008064CEA060C2E
:109A4000C60806F004064CEA060C5F00039E07F009
:109A5000100737435E0806F008063743DE084FEA72
:109A6000136906F0040640095B09374303F002035B
:109A700000F002004CEA00001F43C0B23B0643EA7C
:109A80000043CF00049807F020070743480000F088
:109A900010000743480800F008000743C8084FEAD1
:109AA000126B00F00400079A07434E09C5F3C0107B
:109AB00006F00201C24640EA02064FEA4918680170
:109AC00008F0400C00F040004FEAE918304348EA43
:109AD000C9164CEA06084FEAC90C39430CF0200CB1
:109AE000029F059AC9B248EA0C0C4FEA490843EABA
:109AF000012308F010084FEA59017E0001F0080127
:109B0000019F4CEA080C4CEA010C06F010064FEAE3
:109B1000D90116434FEA470E069AEF0001F00401FF
:109B20004FEA59194CEA010107F020070EF0100E18
:109B300009F0020942EA0E0E38432A464FEA4B1753
:109B4000029D41EA09094FEAEB1141EACB1107F006
:109B500040070F43690801F008010E430199039281
:109B6000490801F008014EEA010E510001F0100110
:109B700008434FEACB0101F02001019A0F43E908A5
:109B800001F004014FEA551C0E43039DD10801F07A
:109B9000040152094EEA010E0CF0020C690802F0B1
:109BA000020201F0080146EA0C064EEA0202F6B291
:109BB000084312064FEA4B0101F0100142EA064247
:109BC000EE080F4306F004066909304301F0020174
:109BD00001434FEA5B0000F0080038434FEADB071F
:109BE00007F004074FEA5B1B38430BF0020BC9B2C6
:109BF00040EA0B0042EA01225FFA89F9C0B217E09D
:109C0000947A0020807A002000F00140001000408B
:109C100000E100E03C7B0020987A00208C7A002054
:109C200004110040387B0020887B0020A07B0020AE
:109C3000564D104349EA0303C4F81C352246C4F8C4
:109C4000200505F12801FF2011F8014B04F0010661
:109C5000E309670943EAC61307F00207E6083B4336
:109C600006F004066708334307F0080766003B4325
:109C700006F010066701334307F04007E4000AF0DE
:109C80000306F60004F020043B432343BAF1030F1C
:109C900000FA06F403FA06F36FEA04040AF1010677
:109CA0000BD8D2F824753C40C2F82445D2F824459C
:109CB0002343C2F82435B246C6E7D2F828753C40A3
:109CC000C2F82845D2F82845082E43EA0403C2F812
:109CD0002835F0D12D4C94F83030C2F80C35D2F83C
:109CE000341594F8313021F0FF01012BC2F83415FE
:109CF00029D01BB3022B16D1D2F83435244943F0B6
:109D000002034FF6FF70C2F83435C2F83C05C2F8C2
:109D100038151E4B93F83230042B0CD8DFE803F0D3
:109D20002E270B2007001B4802F094F9F1E71A4B8D
:109D30000422C3F8102509B0BDE8F08FD2F83435FD
:109D4000C2F83435E5E7D2F8343540F2071143F074
:109D50000103C2F83435C2F83C05C2F83815D8E71B
:109D60000D4B0322C3F8102509B0BDE8F08F0A4B54
:109D70000122C3F8102509B0BDE8F08F064B002280
:109D8000C3F8102509B0BDE8F08F00BF3C7B002070
:109D9000211001001C040900001000402DE9F041D1
:109DA0008046012787F310885C4B5D4C5D4E002593
:109DB00040F203122280C3E90055C3E902551D6138
:109DC0001D75A570C4E90155C4E90355A582C6E90E
:109DD0000155FEF72DFD404601F0B8FD01F07EFE75
:109DE000284602F007F9304602F036F987F310886A
:109DF0002378BB4208D0627D6770002A6ED1002BA9
:109E000000F08180FFF7F4FB474D002383F31088B7
:109E1000464A2A62FF222A61454A6A620421454A6B
:109E20006977EA6244492378A96201224FF40071FC
:109E300085F832201E2229866A6169210222296062
:109E400093424FF416716960EA6059D063680F223B
:109E5000002B14BF02231346AA600022336040F295
:109E60000113AB6110462A7702F0BEF86378012B2C
:109E700002D0324802F0EEF83149324A002301257F
:109E80000B60A370C4E90133C4E90333A3821370E8
:109E90002570FFF7EDFC2C4B93F90030002B08DB0D
:109EA0005A09603203F01F03284905FA03F341F809
:109EB0002230274B93F90030002B09DB5A0960321E
:109EC00003F01F030121214801FA03F340F8223077
:109ED000002383F310881248BDE8F081FEF728FDC7
:109EE000012891D102F0A2F898B90F4D194800222B
:109EF0006421FEF729FD2B7F43B1FEF7DFFC84E7E9
:109F00000F22AA60A9E7FFF7B3FC7BE7FEF724FC6A
:109F1000F3E7114802F09EF8E7E700BF887B0020D6
:109F2000707B0020287B00203C7B002004070A0D6A
:109F300005080B0E05060708010203048802090044
:109F4000387B0020347B00206CCB020000E100E075
:109F500064CB020039C00200AC060900014B186056
:109F6000704700BF387B002038B51C4C637D03B1BF
:109F700038BD1B4DFFF77CFCAB6823B36B68F3B1B6
:109F800002F04EF8B8B9002002F03CF801236375E6
:109F9000FEF7CEFC0128EBD102F048F8D0B9002240
:109FA00064211048FEF7D0FC0F4B1B7F7BB1BDE84E
:109FB0003840FEF783BC0D4802F04CF8E3E70C484C
:109FC00002F048F8DCE70B4802F044F8D6E7FEF769
:109FD000C3FBECE7084802F03DF8E0E7707B0020A7
:109FE000287B002039C002003C7B0020BD02090014
:109FF000B8020900B7020900AC06090008B5012241
:10A0000082F31088114B597D09B1997819B1002359
:10A0100083F3108808BD9A70FEF78AFC0128F6D1F8
:10A0200002F004F850B9002264210948FEF78CFCC4
:10A03000084B1B7F33B1FEF741FCE8E7064802F00E
:10A0400009F8F0E7FEF788FBF5E700BF707B00201A
:10A0500039C002003C7B0020AC060900024B587D51
:10A0600080F00100704700BF707B002008B501231D
:10A0700083F31088144B1A78824205D0597D5870AA
:10A0800031B9BAB1FFF7B4FA002383F3108808BDE1
:10A09000FEF74EFC0128F7D101F0C8FF80B900227D
:10A0A00064210A48FEF750FC094B1B7F2BB1FEF7D9
:10A0B00005FCE9E7FFF7DCFBE4E7FEF74DFBF6E71D
:10A0C000044801F0C7FFEAE7707B002039C00200B6
:10A0D0003C7B0020AC06090008B5012383F31088FF
:10A0E00001F07CFF002383F3108808BD08B501232D
:10A0F00083F3108801F074FF002383F3108808BDF8
:10A1000010B5012383F3108801F01EFF044618B92F
:10A1100080F31088204610BD114B9A782AB95B7DD8
:10A120001BB1FEF705FC012804D0002383F310883F
:10A13000204610BD01F07AFF50B900226421094881
:10A14000FEF702FC084B1B7F33B1FEF7B7FBECE7D1
:10A15000064801F07FFFF0E7FEF7FEFAF5E700BFE3
:10A16000707B002039C002003C7B0020AC06090057
:10A1700008B5012383F3108801F024FF002383F343
:10A18000108808BD01F01ABF01F016BF01F022BF10
:10A1900001F028BF08B5012383F3108801F016FFF2
:10A1A000002383F3108808BD2DE9F0414FEA1048E1
:10A1B0004FEAC815C8F3C01205F4FF454FEA48132B
:10A1C000154303F040031D434FEAC80303F0200387
:10A1D0001D434FEA4803C70103F01003010A07F4C7
:10A1E000FF421D43C0F3C0174301CE01174303F0E4
:10A1F000400306F4FF441F43C1F3C0164B0126433E
:10A2000003F040031E434FEA5803CC0003F0080359
:10A21000020E2B4304F02004C5004FEA421C2643E3
:10A2200005F02005D41144EAC2143D434FEAD80E8C
:10A230000CF0400744EA070C0EF0040E4FEA5814E5
:10A2400043EA0E0E04F00203440004F01004470831
:10A25000254307F008074C0004F010043D434F0865
:10A26000264307F00807D4003E4304F020045700BB
:10A2700007F010074CEA04043C43C70807F0040742
:10A280003D43CF0807F0040749093E4301F00201AE
:10A290003143560806F0080634434EEA03034609E4
:10A2A000DBB206F0020635431B0243EA0563D5081C
:10A2B00005F0040552092C4302F002022243C9B200
:10A2C000054D064C686243EA0143D2B21A43C4F812
:10A2D0002025BDE8F08100BF3C7B0020001000403D
:10A2E000014B586A704700BF3C7B002038B50546DB
:10A2F0000C4641B165B1084BC3E901450020BDE8FA
:10A30000384001F0F1BE054801F0A4FE002DF2D165
:10A31000034801F09FFEEEE7287B0020A10309001F
:10A32000A2030900054A0649D2F81835487723F4F4
:10A33000E02343EA0043C2F818357047001000409C
:10A340003C7B0020014B5860704700BF3C7B0020E5
:10A35000074B084A1978D060022901D05B6813B115
:10A36000054B18607047044B90681860704700BF39
:10A37000707B00203C7B0020287B0020034A044B9C
:10A3800082F83000C3F80C05704700BF3C7B00200A
:10A3900000100040014B93F8300070473C7B0020D8
:10A3A0000E4B83F83200042808D8DFE800F0120DC5
:10A3B000070803000A4B0422C3F810257047084B16
:10A3C0000322C3F810257047054B0122C3F810255E
:10A3D0007047034B0022C3F8102570473C7B0020D8
:10A3E0000010004010B5064B1B68044613B1054B26
:10A3F0001C7510BD044801F02DFE024B1C7510BDEC
:10A40000A07B0020887B002066040900014B1876A1
:10A41000704700BF3C7B0020014B1877704700BF9E
:10A420003C7B00202DE9F047874C236986B00BB3B5
:10A4300063682278002B71D1022A00F0BD80834D21
:10A44000834AA378A9681160002B74D101F01AFE29
:10A4500000206D6801F0D6FD21698D4240F2E68052
:10A460007C48691A0122FEF76FFA0023236106B0C7
:10A47000BDE8F087FEF762FA0028D9D12378012BD6
:10A4800076D0022B5FD001F0FDFD6368E3B1267842
:10A49000013B022E636000D0CBB16C4D6C4AA378B7
:10A4A000E9681160D3B1637D002B40F0828001F038
:10A4B000BBFA01282CD9032301A88DF8043001F040
:10A4C0006BFA06B0BDE8F0872678022EE5D05F4D26
:10A4D0005F4AA378A9681160002BE4D16378B34286
:10A4E0004AD0002E00F03B81FFF782F8002842D0CE
:10A4F00000206D6801F086FD21698D4240F22781C0
:10A500005448691A0122FEF71FFA00232361CEE79F
:10A51000514801F09FFD06B0BDE8F087013B022ADB
:10A52000636049D0002B8AD0484D494AA378E96836
:10A530001160002B8AD001F0A5FD637D002BC0D0F7
:10A54000FFF7D0F8BDE7454B1878033801288CBFDA
:10A5500000200120002896D03C4B3E485B685B08F9
:10A56000194601222361FEF7EFF906B0BDE8F08736
:10A5700000F0CAFBEEE72678012E79D070B20028F1
:10A5800045D0022E35D0364801F064FD6B7E012B9C
:10A590008DD12378022B8AD06268002A87D1002BC4
:10A5A00000F00E81012B00F001812E4801F052FDD8
:10A5B0007DE7FFF797F87AE7244D254AA378E96805
:10A5C0001160002BB7D1254E3378033B012B40F2AD
:10A5D000C380254F01F056FDD7F8088501F06AFDCC
:10A5E000804528D13378002B7FF432AFFEF7BEFED2
:10A5F0002EE71D4ED6F8087501F05CFD874240F04D
:10A60000B180164B1B780BB9FEF7B0FE00206E68C8
:10A6100001F0F8FC21698E4240F294800D48711AD5
:10A620000122FEF791F900232361AFE70F4801F003
:10A6300011FD216914E701F03DFDC7F8080501F09F
:10A6400069FDA075D2E700BF707B00203C7B002035
:10A65000287B002039C00200FE040900357B002061
:10A66000C8040900E204090000100040CE060900F9
:10A6700000F056FB01F062FC00287BD06B8B1BB115
:10A6800022899A4280F0B180FEF758F9002840F004
:10A69000A880954BD3F8086501F00CFD864202D0E6
:10A6A000638901336381914E3378B3B92378022BE8
:10A6B00001D063688BB101F01FFB074600F0F2F98F
:10A6C000A27D8DF80900072301A88DF808708DF888
:10A6D0000A208DF8043001F05FF90023337001F097
:10A6E000E9FC814BC3F8080501F014FDA07501F0E9
:10A6F00025FC012807D001F021FC022802D07C486B
:10A7000001F0A8FC002000F0D3F9FEF7BDF9794B69
:10A71000794A1968794E7A4B086012681B6830686C
:10A7200052681A6030B10378002B40F0D280037970
:10A73000002B74D101202E6801F064FC21698E4247
:10A740003FF66CAF6F4801F085FC216966E76D4804
:10A7500001F080FC2169D3E66B686B48FFE6FFF7E8
:10A7600087F8C1E601F0A6FCC6F8080501F0D2FCA6
:10A77000A07549E701F058F90128DBD92378022BAD
:10A7800002D06768002F50D001F0E0FC0028D1D142
:10A790002B7E23B901F0BEFCE3689842CAD101F0D8
:10A7A000CFF90028C6D0FEF7EFFFC3E701F0C6FBE4
:10A7B00000287FF47CAE01F0BDF900287FF477AE6D
:10A7C000FEF7B6F801283FF472AEFEF783F82B7F50
:10A7D000002B00F08580002001F014FC0023636052
:10A7E00065E64A4801F036FC53E73146002001F0A7
:10A7F00005FA01F087FAD4F80880814601F07CFA66
:10A80000074600F04FF98DF8110001A8CDE9029834
:10A810008DF810708DF8046001F0BEF88AE700F042
:10A820002FF9306800F00EF984E7E06801F05CFC75
:10A83000384601F075FC01F083F900283FF47AAF47
:10A84000A76001F059FADFF8A090DFF8C8A0C9F8B6
:10A850002C05D9F8308501F04FFA28F0FF0806FAE8
:10A8600000F048EA0000C9F8300501F04BFACAF8D8
:10A87000000001F04DFA1D4B254ACAF80C201F704C
:10A88000CAF8040001F016FCC9F8080501F042FC02
:10A89000A07501F053FB012807D001F04FFB0228FF
:10A8A00002D0134801F0D6FB002000F001F9FEF7BA
:10A8B000EBF8104B104A1968104E114B08601168E4
:10A8C0001A68336849681160002B3FF433AF1B7876
:10A8D00023B1FEF7D9F8316800F052F8306826E766
:10A8E000FDF742FF77E700BF00100040347B0020F7
:10A8F0008F060900887A0020A07B0020387B00208A
:10A90000947A0020CE06090039C0020074050900BF
:10A91000E5910200887B002038B5134B134D1B686E
:10A920005B7DA3B9124A134B126800201060D3E973
:10A930000014641A01F066FB29698C420ED90E4896
:10A94000611A0122FEF700F800232B6138BD0120B7
:10A9500000F01CF92B8901332B81E3E7074801F054
:10A9600079FB2969EBE700BFA07B0020707B00200A
:10A97000947A00203C7B002039C00200CE060900FA
:10A9800070B48B682A4A0024C3F840410B7B8C6862
:10A99000A23304F5A07442F833400B7B4C78CD7899
:10A9A000A233002C3DD0234C02EBC30304EB8504FF
:10A9B0005C604A7B1E4B204C204EA23243F8320092
:10A9C0004A7B8D68A23203EBC20200205560C4F8B6
:10A9D0000C01C4F810018A7BA23243F832608A7BF2
:10A9E0004878CC78A232A8B1154803EBC20300EB3B
:10A9F000840058600B7B487B8C7B0D49012202FA56
:10AA000003F302FA00F00343A2401343C1F80435F4
:10AA100070BC7047074803EBC20300EB840058602A
:10AA2000E8E7074C02EBC30304EB85045C60C0E776
:10AA300000F0014030600040001000400C11004068
:10AA40006060004083680C4A002110B4C3F84011D4
:10AA5000C37B0A4CA233012142F83340C37B846894
:10AA6000A23302EBC3035C60C37B9940C2F80415B8
:10AA70005DF8044B704700BF00F00140101100402A
:10AA80004279C3792AB11833054A012142F82310CB
:10AA900070470C33024A012142F82310704700BF6F
:10AAA00000600040014B1878704700BFA87B002071
:10AAB0002DE9F8432C4A2D4BDFF8CC802C4C2D4E41
:10AAC0004FF0FF350221C2F80853C3F88011D8F8BF
:10AAD0000010607000236375D1F800E0C4F808E04E
:10AAE0000701D1F804C0F559A3610228C4E903C3E2
:10AAF000656006EB070920D8054699F80B0099F820
:10AB00000890C2F80092C2F80C31C2F81031C0B9F6
:10AB1000C2F804E5D2F80435FBB1F319124A5B7AA6
:10AB2000C2F804330B7D43B1022D06D1124A134BF8
:10AB30001268C3F804250023A37501236375BDE8DB
:10AB4000F883C2F804C5D2F80435002BE5D10C48CF
:10AB500001F080FAD8F80010DFE70A4801F07AFA2D
:10AB6000D8F80010D9E700BF0010004000E100E075
:10AB7000AC7B002008CC0200847A002000F0014069
:10AB8000A0020A009B020A00A47B0020F8B54F4CEB
:10AB9000637D65780646002B40D0237D002B39D19C
:10ABA0000123022DA38230D856B9494B1B6813B13B
:10ABB0001A79002A36D147492B010122CB581A6055
:10ABC0006B1E012B16D9444B1B681B7D8BB1022DCC
:10ABD0000FD1424A424BD2F804251B681A4263D077
:10ABE000404BD3F8043523B93F48BDE8F84001F0A5
:10ABF00031BAF8BD374B03EB05139B7A2370364B04
:10AC00001B681B7D002BF4D0E1E73848BDE8F84015
:10AC100001F020BA364801F01DFAC1E7354801F0CD
:10AC200019FABAE79A682D4FC2F84061197B986803
:10AC3000A23100F5A07047F831001A7B5979D87914
:10AC4000A232002934D12C4907EBC20201EB80006B
:10AC5000506024492148294A0026C1F80C61597BDB
:10AC6000A23140F831205A7B5979DE79A23231B3D2
:10AC7000214900EBC20201EB860656601A7B597B24
:10AC8000164E012000FA01F100FA02F20A434FF0D9
:10AC9000A041C6F80425D1F810259979CA40D207F9
:10ACA0005CBF9B68186086E7154801F0D3F997E709
:10ACB000144907EBC20201EB80005060C9E711495B
:10ACC00000EBC20201EB86065660D7E7AC7B0020A2
:10ACD000C87B002008CC0200A47B002000F00140CB
:10ACE000847A002000100040E2020A00DC020A0020
:10ACF000B8020A00B7020A00606000400C11004070
:10AD0000E1020A0030600040044BD3F80401A0F1D6
:10AD10000100B0FA80F04009704700BF0010004009
:10AD20002149022238B5C1F88020BFF34F8FBFF30D
:10AD30006F8F1E4BC1F88021012000211C4C4FF069
:10AD4000FF35C3F80853C3F80012C3F81011186197
:10AD500098612378834223D0023B012B98BF104691
:10AD6000FDF7F0FC114A104900234FF0FF30C2F804
:10AD700010310325637523706360C2F800322375B8
:10AD8000C2F808030220C2F80C316570C1F88001D6
:10AD9000C2F80031C2F81031C2F80431086038BD81
:10ADA0000620FDF7CFFCDDE700E100E000100040E9
:10ADB000AC7B00202DE9F0414B4C022580460E462D
:10ADC000C4F88050BFF34F8FBFF36F8FFFF7A8FF1A
:10ADD000464A474B1768474ADFF828C1C2F8008047
:10ADE0004FF440721A804449444800225A601A6164
:10ADF0009A829A75C7F800C00B68414A06601A60CB
:10AE000025600368002B51D01A79002A51D09A6826
:10AE100003200421C2F80805C2F81015197C00208F
:10AE200040F20115C1F181010124C2F84015C2F8B8
:10AE30000052C2F80405D460C2F840011A79CAB1C0
:10AE4000DA7999795879920002F18042090202F583
:10AE5000C04201F47C5141F40031C2F81015D2F81F
:10AE6000101550B3C2F81015D2F8101541F00301B7
:10AE7000C2F810151A78CAB1DA7899785878930020
:10AE800003F180430A0203F5C04302F47C5242F40A
:10AE90000032C3F81025D3F81025C8B1C3F8102527
:10AEA000D3F8102542F00302C3F810251048BDE87E
:10AEB000F0811A78002AF9D0A9E741F48011C2F88C
:10AEC0001015D2F8101541F00301C2F81015D1E7A2
:10AED00042F48012C3F81025D3F8102542F0030283
:10AEE000C3F81025E2E700BF00E100E09C7A0020F3
:10AEF000AC7B0020A47B0020907A0020C87B00203F
:10AF000004110040141000402DE9F041984C2369D1
:10AF1000627D657801332361002A40F0C98023787F
:10AF2000032B59D0022D00F2C780012D00F0D680EE
:10AF3000022D00F00E8162788E4B120199180D7B64
:10AF40002DB18D49D1F80C51003518BF012513449E
:10AF5000894A9B7A23700021032BC2F8001240F02B
:10AF6000B0806FF008010823C2F80813C2F8043358
:10AF7000814A824E0023C2F80031C2F81031C2F873
:10AF80000431326823751269636002B190471DB1C4
:10AF900033689B6803B19847794B1B68D3B11A7922
:10AFA000C2B19A7B774802F51172002440F8224022
:10AFB000DA7B02F51172012140F822405A7B9C7B1A
:10AFC000DD7B01FA02F301FA04F21343A9400B43BB
:10AFD000C0F80835BDE8F081674ED6F80C31002B7B
:10AFE000A0D0012D00F0DC80022D40F029812369E2
:10AFF000022B40F02A81644A5F4B64485F4E042173
:10B0000021700221C2F88011D3F80825A169D2B2BB
:10B0100002700022C3F80C211020C3F80021C3F8ED
:10B020001021C3F804210822C3F80403C3F808233D
:10B0300033680131A1611B7DA3B1524B544DD3F84C
:10B04000003529680B4200F047844B4B4D48D3F83C
:10B0500048255242A27500240122C3F81C419A617E
:10B06000C0F80815444BD3F80031002B40F0D983C9
:10B07000414BD3F80C31002B40F0CF83424BD3F837
:10B0800000319A0700F1C5833D4B1B681BB11A784C
:10B09000002A40F00B843368DA680AB190473368BD
:10B0A0005A7D002A96D0344A1B68C2F8043591E7CD
:10B0B000384800F0CFFF32E73748BDE8F04100F0F4
:10B0C000C9BF4FF0FF30304BC2F80803C2F80C1173
:10B0D000032002226070C3F8802149E72369012B15
:10B0E00000F03C82022B00F0A382032B7FF472AFAE
:10B0F000214B2548A169214E40F2023727800022CA
:10B100004FF0FF37C3F80C21C3F80021C3F810211A
:10B11000C3F80421C3F82821C3F80022C3F8087338
:10B120000227C0F88071013130682275A161017D6C
:10B130006260002973D0164FD3F84815C3F81C215C
:10B140009D6103F5F0333A68C3F808254B42A375B7
:10B1500065E02369012B00F00F81022B00F08A814A
:10B16000032B00F002810D48BDE8F04100F072BFF2
:10B17000AC7B002008CC020000100040A47B002023
:10B18000C87B002000F0014000E100E0A87B002027
:10B19000847A002037030A005F030A0037050A009B
:10B1A0002369032B0CD0A14800F054FF2369012B25
:10B1B00000F0A080022B00F00A83032B7FF40AAF7B
:10B1C0009B4A9C48A1699C4E40F202352580002391
:10B1D0004FF0FF35C2F80C31C2F80031C2F810311F
:10B1E000C2F80431C2F82831C2F80032C2F808535C
:10B1F0000225C0F88051013130682375A161017DBD
:10B20000636061B1D2F848158C4DC2F81C3101233E
:10B2100093618B4B2A68C3F808254B42A375844B76
:10B22000E268D3F804359A4203D0864800F012FF52
:10B230003068C368002B3FF4CDAEBDE8F04118473D
:10B240008148BDE8F04100F005BF804800F002FFF2
:10B250002369012B00F06A82022B3FF4CCAE032B52
:10B2600081D1D6F80C31012B02D0794800F0F2FEE2
:10B270006F4BD3F81031012B02D0764800F0EAFE74
:10B280006B4BD3F80031012B02D0734800F0E2FE83
:10B29000674B724900224FF0FF30C3F80C21C3F80E
:10B2A0001021C3F80021C3F80421C3F80803C3F830
:10B2B00000220B687BB11A786AB15A7B987BDE7BDF
:10B2C0005F4D012101FA02F301FA00F21343B1408C
:10B2D0000B43C5F80835584A0023126823751269D4
:10B2E00063604FF440732380002A3FF473AEBDE8DF
:10B2F000F0411047D6F80031012B02D0584800F039
:10B30000A9FE4B4BD3F80431012B02D0554800F075
:10B31000A1FE474B544DD3F808154748C9B22970D0
:10B3200000224FF0FF350121C3F80021C3F80421AA
:10B33000C3F80821C3F80853C3F8041303681B7D3E
:10B3400023B13E4A3E4B1268C3F80425434B1B68A9
:10B350001BB11A79002A40F06F82354BE268C3F8BE
:10B3600004250B22C3F8002234E6314BD3F80C310C
:10B37000012B3FF47DAF78E72D4A2E4E3748002150
:10B38000C2F80C110824C2F80011C2F81011C2F85A
:10B390000811C2F804110721C6F88051C2F804430D
:10B3A000C2F80833C2F800120268002A3FF412AE55
:10B3B000117921B1107B22498340C1F808351378F7
:10B3C000002B3FF407AE93681D480021C3F84011DD
:10B3D000937B9168A23301F5A07140F83310937B01
:10B3E0005178D478A233002900F00C821F4900EB79
:10B3F000C30301EB84045C60936811481C4C00217A
:10B40000C3F84011D37BA233012140F83340D37BF2
:10B410009468A23300EBC3035C60937BD27B01FA98
:10B4200003F391400B43C0F80435D3E53F030A0012
:10B430000010004000E100E0A47B0020847A00209E
:10B4400000F0014050040A0049030A0044030A00C6
:10B45000F9040A00FA040A00FB040A00C87B002071
:10B46000BC030A00BD030A00A87B00203060004036
:10B470000C1100409E4A9F4B9F48A04E0421217012
:10B48000C2F88051D3F80825A169D2B20270002217
:10B49000C3F80C211020C3F80021C3F81021C3F811
:10B4A00004210822C3F80403C3F8082333680131D8
:10B4B000A1611B7DA3B1924B924DD3F80035296851
:10B4C0000B4200F09A818B4B8D48D3F848255242AD
:10B4D000A27500240122C3F81C419A61C0F8081526
:10B4E000844BD3F80031002B40F08381814BD3F89B
:10B4F0000C31002B40F079817D4BD3F800319B0754
:10B5000000F16F81804B1B68002B3FF4C4AD1A78AB
:10B51000002A3FF4C0AD774A79497C480024C2F83C
:10B520000C415A7BA23241F832005A7B5878DC78C1
:10B53000A232002800F07981754801EBC20200EBCD
:10B5400084045460597B6E48012202FA01F1C0F86C
:10B550000415DB7B9A40C0F808259CE5654BD3F8C1
:10B560000031012B02D06B4800F074FD614BD3F821
:10B570000431012B02D0684800F06CFD5D4B5E4D3C
:10B58000D3F808155D48C9B2297000224FF0FF3585
:10B590000121C3F80021C3F80421C3F80821C3F82E
:10B5A0000853C3F8041303681B7D23B1554A544B59
:10B5B0001268C3F80425544B1B68002B3FF4CDAE32
:10B5C0001A79002A3FF4C9AE597B98684C4AA231D7
:10B5D00000F5A07042F83100597B5879DD79A2312D
:10B5E000002800F05C814D4802EBC10200EB8505AC
:10B5F00055605D7B424A45480121A940C2F80415C7
:10B60000197BA23142F83100197B5879DD79A231DA
:10B61000002800F03D813E4802EBC10200EB8505A9
:10B620005560197B364A01238B40C2F8043594E6F5
:10B63000304BD3F80C31012B02D0394800F00AFD11
:10B640002C4BD3F81031012B02D0364800F002FD0C
:10B65000284BD3F80031012B02D0334800F0FAFC1C
:10B66000244BD3F80431002B40F0B780214B2648FF
:10B6700000220225C3F80C210121C3F81021C3F8D0
:10B680000021C3F80421C3F80821C3F8005208259B
:10B69000C3F80813C3F804530368227503206260DB
:10B6A0002070D3B11879002800F080809C7B14486A
:10B6B00004F5117440F82420DC7B04F5117440F883
:10B6C00024205A7B9D7BDC7B01FA02F301FA05F210
:10B6D0001343A1400B43C0F80835084C23681A698E
:10B6E0000AB1904723689B68002B7FF4A6AD71E4F4
:10B6F00000E100E000100040A87B0020A47B0020B7
:10B7000000F00140847A0020C87B00200C1100402A
:10B7100060600040BC030A00BD030A0030600040C6
:10B72000F2030A00F3030A00F4030A0000227B4C30
:10B73000C6F80C217A49C6F800210820C6F8102165
:10B74000C6F80821C6F804210722C4F88051C6F8BB
:10B750000403C6F80833C6F800220A68002A3FF43A
:10B7600039AC117921B1107B6E498340C1F808359D
:10B770001378002B3FF42EAC93686A490020C3F87D
:10B780004001937B9068A23300F5A07041F833002C
:10B79000937B5078D478A233002800F0B1806248BF
:10B7A00001EBC30300EB8400586025E61A78002AF9
:10B7B00093D01A7B587B9D7B5A4C01FA02F301FA15
:10B7C00000F21343A9401943C4F8081585E7D6F8D9
:10B7D0000C31012B3FF434AF2FE7544800F03AFC12
:10B7E00044E7534800F036FC8CE6524800F032FC47
:10B7F00082E6514800F02EFC78E6504800F02AFC22
:10B80000296860E64E4900EBC30301EB84045C60E9
:10B81000F2E5474800F01EFC36E4464800F01AFC0A
:10B820002CE4454800F016FC22E43F4801EBC2023C
:10B8300000EB8404546085E6597B9868394AA2314C
:10B8400000F5A07042F83100597B5879DD79A231BA
:10B8500000284ED0344802EBC10200EB8500506056
:10B860005D7B304A37480121A940C2F80415197B95
:10B87000A23142F83100197B5879DD79A2310028D4
:10B8800030D02F4802EBC10200EB85005060C8E6C3
:10B89000254802EBC10200EB85055560C1E628484A
:10B8A00002EBC10200EB85055560A2E6264A1D4960
:10B8B00024480024C2F80C415A7BA23241F83200DD
:10B8C0005A7B5878DC78A23208B31D4801EBC202DB
:10B8D00000EB8400506035E6184800F0BBFB296897
:10B8E000FFF7B3BB104802EBC10200EB85005060CC
:10B8F00097E6134802EBC10200EB85005060AFE70A
:10B900000F4801EBC30300EB8400586074E5064860
:10B9100001EBC20200EB8400506013E600E100E09E
:10B92000C87B002000F0014030600040F5030A00B1
:10B93000CF040A00CE040A00CD040A00C4040A00A1
:10B94000606000400C1100400010004010B504463B
:10B95000B0B10D4A0D4B92F900201C6000218A42C3
:10B96000C3F8CC10C3F8D010C3F8D41007DB0849D3
:10B9700002F01F0001235209834041F8223010BD1C
:10B98000044800F067FBE4E764CB0200CC7B0020B6
:10B9900000E100E03E000B0070B51E4D2B6806462E
:10B9A0009BB3D5F8D430092B2BD8D5F8CC400FCE8B
:10B9B00004EB840405EB840404340FC4336823606F
:10B9C000D5F8D4300133C5F8D430D5F8CC300133B4
:10B9D000C5F8CC30D5F8CC30092B84BF0023C5F88E
:10B9E000CC300D4B93F90030002B09DB5A09403263
:10B9F00003F01F030121094801FA03F340F8223044
:10BA000070BD074800F026FBCFE7064800F022FB98
:10BA1000C7E700BFCC7B002064CB020000E100E060
:10BA20004B000B004A000B0010B50A4CD4F8D43080
:10BA30000A2B05D8D4F8D400C0F10A00C0B210BD5A
:10BA4000054800F007FBD4F8D400C0F10A00C0B2EA
:10BA500010BD00BFCC7B002079000B00F0B50126A3
:10BA600087B086F310881C4DD5F8D43023B9002355
:10BA700083F3108807B0F0BD0027D5F8D04004EB61
:10BA8000840405EB840404340FCCD4F800E0D5F82A
:10BA9000D440013CC5F8D440D5F8D0C001AC0FC4A7
:10BAA0000CF10103C5F8D030D5F8D030C4F800E06F
:10BAB000092B88BFC5F8D07087F310882B6801A8C0
:10BAC000984786F31088D5F8D430002BD5D10023C1
:10BAD00083F3108807B0F0BDCC7B002010B500F0D8
:10BAE0003BFB124B124C002100200022C3E906014F
:10BAF000C3E90E01C3E90801C3E91001C3E90A0162
:10BB0000C3E91201C3E90C01C3E91401C3E901222D
:10BB1000C3E903224FF48071A3F880101A705A61B0
:10BB200083F85820DA67C4E9002210BDB07C0020F9
:10BB3000A47C0020014B93F880007047B07C00206B
:10BB400010B52A4C237823B994F8803043B90020EB
:10BB500010BD274800F07EFA94F88030002B32D0D8
:10BB60002069606000F090FCA060002839D0437824
:10BB700013F0010302D194F881204ABB60680830B9
:10BB800000F0A0FC02281ED8E36FB3B1E3600123EC
:10BB9000A068237000B323696360063304EB83035A
:10BBA0000021DA7884F880100132D2B2DA7043785A
:10BBB00062F342034370012010BD00F033FBE067E5
:10BBC000E0600028E3D12378002BC0D0A068E1E733
:10BBD0000222E3602270DEE7064800F03BFAA0682C
:10BBE000D9E7054800F036FAA068C0E7B07C00202D
:10BBF00098000C00B8000C009F000C002DE9F041EB
:10BC0000364C2378013B012B06460D462ED8002EDC
:10BC100031D02378012B40D1E368002B43D01F782B
:10BC2000002F47D155BB94F8805000222270D5B91F
:10BC3000606908264FF001080BE0606994F88030D5
:10BC40000130082812BF6061002065615BB9013EC8
:10BC500009D000F037FC0028EFD0606984F88080BC
:10BC600020610123ECE73846BDE8F0811C4800F074
:10BC7000F1F9002ECDD10427002DD4D065682846D7
:10BC800000F0D6FB10B1174B00225A55A36883422F
:10BC9000C9D0154800F0DEF9C5E7144800F0DAF91C
:10BCA000E368002BBBD1124800F0D4F9E3681F7899
:10BCB000002FB7D0E06F666850B106F1080100F0C0
:10BCC0004DFB18B10023E3670227ABE70227A9E782
:10BCD000084800F0BFF9E06FEFE700BFB07C00203C
:10BCE000CD000C00A47C0020E9000C00D1000C0069
:10BCF000D2000C002E020C00014B5868704700BFA8
:10BD0000B07C0020014B9868704700BFB07C0020D9
:10BD1000014BD868704700BFB07C002038B5164C86
:10BD20002378E3B9E06F00B342784FF0FF33FF258B
:10BD300042F00602032105704270C0F80230C0F8DC
:10BD40000630C0F80A30C0F80E30C0F81230C0F823
:10BD50001630C0F81A30C0F81E30217038BD0748C0
:10BD600000F078F9E06F0028DED100F05BFAE067C0
:10BD70000028D9D138BD00BFB07C002007010C00DD
:10BD80002DE9F04B654CE76F05468846934699468A
:10BD90000026002F00F096802378032B02D0604805
:10BDA00000F058F9E06F4378DA0756BF94F8812025
:10BDB000012282F001021746002D51D06BF31706C5
:10BDC000C3F3410308F10E0163F31F66089B54F8A7
:10BDD000211000251D60099B8E4208F1080B1D6093
:10BDE00003D103273ABBE06F3BE0E06F00286DD042
:10BDF000594600F0B3FA0546002858D00BF1060B5F
:10BE00000023E36744F82B605FB9B9F1000F62D0FB
:10BE1000444E16F80830002B62D1099B1F600127A1
:10BE200023E0B9F1000F05D03E4E16F80850002D62
:10BE300057D14D460127404600F026FB099B18606C
:10BE4000002839D0374B012203F80820002DCAD032
:10BE500094F88050002222706DB13846BDE8F08B16
:10BE6000042700F025FA0023E36794F880500022AD
:10BE70002270002DF1D1606908264FF001080CE016
:10BE8000606994F880300130082812BF606100209A
:10BE90006561002BE1D1013EDFD000F013FB0028EB
:10BEA000EED0606984F8808020610123EBE7099B74
:10BEB00018600327E06FD4E71A461B4B1360002D70
:10BEC000C6D190E7194800F0C5F865E7184800F0BA
:10BED000C1F8E06F8CE7099B0127C3F80090C4E725
:10BEE0003D46404600F0EEFA78B1404600F0A0FA38
:10BEF000089B186068B1002306F808301DB9099B3B
:10BF000002271D60B1E7022795E70A4800F0A2F872
:10BF1000EBE7094800F09EF8EDE700BFB07C002099
:10BF20002E010C00A47C0020087D00202D010C00B7
:10BF30002E020C0055010C005B010C00014B18781F
:10BF4000704700BFB07C00202DE9F04105460C464B
:10BF500000F0CAFA18B900242046BDE8F081204656
:10BF6000294600F0FBF904460028F4D0114D2B7847
:10BF7000002BF1D195F88070002FEDD1686908266B
:10BF80004FF001080CE0686995F88030013008280E
:10BF900012BF686100206F61002BDDD1013EDBD054
:10BFA00000F090FA0028EED0686985F8808028615A
:10BFB0002346EBE7B07C002000F084BA083000F0A4
:10BFC00063BA00BF083000F033BA00BF083000F099
:10BFD00091BA00BF083000F075BA00BF00F022B976
:10BFE00000F066B900F080BA014B83F88100704719
:10BFF000B07C0020024B987058701870704700BFDA
:10C00000347D0020012810B5044602D9024800F012
:10C0100021F8024B5C7010BD33000D00347D002010
:10C02000014B1878704700BF347D0020014B5878D1
:10C03000704700BF347D0020044B05495A781878BA
:10C0400051F8221098701A70084700BF347D002004
:10C05000F4590020FDF7BCB810B5044638B1064AC3
:10C06000064B00200021C2E900011C6010BD0448FD
:10C07000FFF7F0FFF3E700BF407D0020387D002090
:10C0800027000100094B0A4A196853680868013300
:10C090008342536008D31368496801338B4228BF39
:10C0A00000230021C2E90031704700BF387D002025
:10C0B000407D002038B5094D094C2A682368516835
:10C0C0008B4202D29268D05C38BD0648FFF7C2FFAF
:10C0D0002A6823689268D05C38BD00BF387D002094
:10C0E000407D00204400010010B5074B1B685B68D1
:10C0F0008342044602D9054B1C6010BD0448FFF77B
:10C10000A9FF024B1C6010BD387D0020407D00203F
:10C110004C000100014B1868704700BF407D0020B3
:10C1200010B5074B1B681B688342044602D9054BB8
:10C130005C6010BD0448FFF78DFF024B5C6010BDD2
:10C14000387D0020407D002058000100014B5868D8
:10C15000704700BF407D002038B52E4B2E4D002487
:10C160005C7028469C70CC221C70DE211C715C71B6
:10C17000DC70DC711C729C719C72DC725C725C7392
:10C180009C731C731C745C74DC73DC741C759C7471
:10C190009C75DC755C755C769C761C761C775C7790
:10C1A000DC76DC7783F820409C7783F8224083F8A4
:10C1B000234083F8214083F8254083F8264083F804
:10C1C000244083F8284083F8294083F8274083F8E7
:10C1D0002B4083F82C4083F82A4083F82E4083F8C4
:10C1E0002F4083F82D40FBF7A9F80C4B0C4A1D603B
:10C1F00005F1220005F16604586005F1880005F19B
:10C200004401C3E90340AA35996006215D611160CC
:10C2100038BD00BFF07E0020247E00204C7D002031
:10C22000487D002010B51C4B1C6874B3601E1B4A6F
:10C230001B4952F82040186042F8201060B1136882
:10C24000A34224D0002303E052F823108C421ED0D6
:10C250000133DBB29842F7D8124B9C4215D003F160
:10C260002202944211D003F1440294420DD003F112
:10C270006602944209D003F18802944205D0AA33A1
:10C280009C4202D00848FFF7E5FE204610BD074853
:10C29000FFF7E0FEF6E700BF487D00204C7D002060
:10C2A000ADDEADDE247E002078000300F90003003F
:10C2B00070B5224E3368052B04463AD8204D63B141
:10C2C0002A68944231D0002203E055F822108C42B3
:10C2D0002BD00132D2B29A42F7D31A4A944216D0E6
:10C2E00002F122018C4212D002F144018C420ED0A4
:10C2F00002F166018C420AD002F188018C4206D01C
:10C30000AA32944203D01048FFF7A4FE33680F4AC4
:10C3100055F82310914203D00D48FFF79BFE336878
:10C3200045F823400133336070BD0A48FFF792FEA1
:10C33000E9E70948FFF78EFE3368BFE7487D002034
:10C340004C7D0020247E002081000300ADDEADDEA8
:10C3500082000300F9000300800003000F29F8B5F4
:10C360000D4604463BD82A4B1A686AB129490B6826
:10C370009C4230D0002303E051F8230084422AD0AD
:10C380000133DBB29342F7D3234B9C4215D003F128
:10C390002202944211D003F1440294420DD003F1E1
:10C3A0006602944209D003F18802944205D0AA3370
:10C3B0009C4202D01948FFF74DFE0F2D09D86800A6
:10C3C000174A4319D1184E78022E02D8D65C022E95
:10C3D00009D90020F8BD1348FFF73CFEEAE71248F0
:10C3E000FFF738FEBFE74F784E780136F6B24E7051
:10C3F0004E783B440D4F022E054447F8234084BF3E
:10C4000000234B70535D01200344DBB25355F8BD4C
:10C41000487D00204C7D0020247E00208D000300FC
:10C42000F07E0020F90003008C000300647D0020F2
:10C430000F2870B51CD841000A18104CA65C0346A2
:10C44000A51806F0FF0096B1AE78A8780130C0B20A
:10C45000A8703244AE780A48022E50F822000B44ED
:10C4600084BF0022AA70E25C013AD2B2E25470BDED
:10C470000448FFF7EFFD002070BD00BFF07E0020F4
:10C48000647D0020A40003000F2808B50DD800EB40
:10C490004000094B195C034401F0FF0251B19A7846
:10C4A000064B104453F8200008BD0548FFF7D2FDA5
:10C4B000002008BD104608BDF07E0020647D0020ED
:10C4C000B50003000F2808B505D8054B00EB400068
:10C4D000185CC0B208BD0348FFF7BCFD002008BDD2
:10C4E000F07E0020C4000300014B1868704700BFB5
:10C4F000487D00200F282DE9F04764D800EB400864
:10C50000394D15F80830002B57D0DFF80891374F18
:10C510004544AA78AB780133DBB2AB7008EB020379
:10C52000AA7859F82340022A84BF0023AB702B78E5
:10C53000013BDBB22B70002C3FD0BC4250D02C4EC4
:10C540003368052B47D8DFF8D0A06BB1DAF80020AC
:10C55000944234D0002103E05AF82120A2422ED088
:10C560000131C9B28B42F7D8224A944216D002F167
:10C5700022018C4212D002F144018C420ED002F111
:10C5800066018C420AD002F188018C4206D0AA32A0
:10C59000944203D01848FFF75DFD33685AF8232012
:10C5A000BA4203D01548FFF755FD33682A784AF898
:10C5B000234001333360002AABD1BDE8F087104837
:10C5C000FFF748FDE6E70F48FFF744FD0E48BDE8DA
:10C5D000F047FFF73FBD0D48FFF73CFD3368B2E77A
:10C5E0000B48FFF737FDAAE7F07E0020ADDEADDE99
:10C5F000487D0020247E002081000300820003008B
:10C60000F9000300DD000300A40003008000030024
:10C61000E2000300647D00204C7D00200A4491422A
:10C6200000F1FF3300D1704710B511F8014B03F84A
:10C63000014F9142F9D110BDF8B500BFF8BC08BC5C
:10C640009E467047F8B500BFF8BC08BC9E467047D0
:10C650007859002004192A3F4D0000000100000015
:10C6600000000000963007772C610EEEBA51099950
:10C6700019C46D078FF46A7035A563E9A395649EAC
:10C680003288DB0EA4B8DC791EE9D5E088D9D297D0
:10C690002B4CB609BD7CB17E072DB8E7911DBF902C
:10C6A0006410B71DF220B06A4871B9F3DE41BE8450
:10C6B0007DD4DA1AEBE4DD6D51B5D4F4C785D383AC
:10C6C00056986C13C0A86B647AF962FDECC9658A50
:10C6D0004F5C0114D96C0663633D0FFAF50D088DAC
:10C6E000C8206E3B5E10694CE44160D5727167A250
:10C6F000D1E4033C47D4044BFD850DD26BB50AA5AC
:10C70000FAA8B5356C98B242D6C9BBDB40F9BCACCF
:10C71000E36CD832755CDF45CF0DD6DC593DD1AB2B
:10C72000AC30D9263A00DE518051D7C81661D0BF4F
:10C73000B5F4B42123C4B3569995BACF0FA5BDB8AB
:10C740009EB802280888055FB2D90CC624E90BB14F
:10C75000877C6F2F114C6858AB1D61C13D2D66B6AB
:10C760009041DC760671DB01BC20D2982A10D5EF0F
:10C770008985B1711FB5B606A5E4BF9F33D4B8E86B
:10C78000A2C9077834F9000F8EA8099618980EE10F
:10C79000BB0D6A7F2D3D6D08976C6491015C63E66B
:10C7A000F4516B6B62616C1CD83065854E0062F28F
:10C7B000ED95066C7BA5011BC1F4088257C40FF5EB
:10C7C000C6D9B06550E9B712EAB8BE8B7C88B9FC0F
:10C7D000DF1DDD62492DDA15F37CD38C654CD4FB6B
:10C7E0005861B24DCE51B53A7400BCA3E230BBD40F
:10C7F00041A5DF4AD795D83D6DC4D1A4FBF4D6D36B
:10C800006AE96943FCD96E34468867ADD0B860DA0E
:10C81000732D0444E51D03335F4C0AAAC97C0DDD6A
:10C820003C710550AA41022710100BBE86200CC98E
:10C8300025B56857B3856F2009D466B99FE461CEEA
:10C840000EF9DE5E98C9D9292298D0B0B4A8D7C70E
:10C85000173DB359810DB42E3B5CBDB7AD6CBAC06A
:10C860002083B8EDB6B3BF9A0CE2B6039AD2B17486
:10C870003947D5EAAF77D29D1526DB048316DC73E2
:10C88000120B63E3843B64943E6A6D0DA85A6A7A86
:10C890000BCF0EE49DFF099327AE000AB19E077DE2
:10C8A00044930FF0D2A3088768F2011EFEC2066906
:10C8B0005D5762F7CB67658071366C19E7066B6E62
:10C8C000761BD4FEE02BD3895A7ADA10CC4ADD6786
:10C8D0006FDFB9F9F9EFBE8E43BEB717D58EB060E2
:10C8E000E8A3D6D67E93D1A1C4C2D83852F2DF4F86
:10C8F000F167BBD16757BCA6DD06B53F4B36B248E2
:10C90000DA2B0DD84C1B0AAFF64A0336607A044185
:10C91000C3EF60DF55DF67A8EF8E6E3179BE6946E1
:10C920008CB361CB1A8366BCA0D26F2536E2685205
:10C9300095770CCC03470BBBB91602222F26055561
:10C94000BE3BBAC5280BBDB2925AB42B046AB35C85
:10C95000A7FFD7C231CFD0B58B9ED92C1DAEDE5BE1
:10C96000B0C2649B26F263EC9CA36A750A936D02C5
:10C97000A906099C3F360EEB856707721357000521
:10C98000824ABF95147AB8E2AE2BB17B381BB60C45
:10C990009B8ED2920DBED5E5B7EFDC7C21DFDB0BA1
:10C9A000D4D2D38642E2D4F1F8B3DD686E83DA1FC5
:10C9B000CD16BE815B26B9F6E177B06F7747B71821
:10C9C000E65A0888706A0FFFCA3B06665C0B0111C5
:10C9D000FF9E658F69AE62F8D3FF6B6145CF6C1621
:10C9E00078E20AA0EED20DD75483044EC2B30339C5
:10C9F000612667A7F71660D04D476949DB776E3E21
:10CA00004A6AD1AEDC5AD6D9660BDF40F03BD83744
:10CA100053AEBCA9C59EBBDE7FCFB247E9FFB530A0
:10CA20001CF2BDBD8AC2BACA3093B353A6A3B424C4
:10CA30000536D0BA9306D7CD2957DE54BF67D92320
:10CA40002E7A66B3B84A61C4021B685D942B6F2AC4
:10CA500037BE0BB4A18E0CC31BDF055A8DEF022D20
:10CA600001000000010000000200000002000000C0
:10CA700003000000030000000400000004000000A8
:10CA80000500000005000000060000000600000090
:10CA90000700000007000000010802070306040564
:10CAA000050406030702080009FC0AF80BF40CF061
:10CAB0000DEC0ED84255464645525F4150490000A4
:10CAC00000000000CD740200D17402001D74020049
